:020000040020DA
:10200000E81400208D22200033612000316120007F
:1020100031612000316120003161200000000000AA
:1020200000000000000000000000000031612000FE
:10203000316120000000000031612000B527200040
:10204000AD612000B3612000B9612000BF612000B4
:1020500000000000916120009761200031612000A4
:1020600031612000000000000000000000000000BE
:1020700000000000000000003161200000000000AE
:1020800000000000000000003161200031612000EC
:102090003161200031612000316120003161200078
:1020A0003161200031612000316120003161200068
:1020B0003161200031612000316120003161200058
:1020C0003161200031612000316120003161200048
:1020D000316120000000000000000000000000004E
:1020E00000000000000000000000000000000000F0
:1020F0000000000000000000653720007537200058
:1021000000000000000000000000000000000000CF
:1021100000000000000000000000000000000000BF
:1021200000000000000000000000000000000000AF
:10213000000000000000000000000000000000009F
:10214000000000000000000000000000000000008F
:10215000000000000000000000000000000000007F
:10216000000000000000000000000000000000006F
:10217000000000000000000000000000000000005F
:10218000000000000000000000000000000000004F
:10219000000000000000000000000000000000003F
:1021A000000000000000000000000000000000002F
:1021B000000000000000000000000000000000001F
:1021C000000000000000000000000000000000000F
:1021D00000000000000000000000000000000000FF
:1021E00000000000000000000000000000000000EF
:1021F00000000000000000000000000000000000DF
:1022000000000000000000000000000000000000CE
:1022100000000000000000000000000000000000BE
:1022200000000000000000000000000000000000AE
:10223000000000000000000000000000000000009E
:10224000000000000000000000000000000000008E
:10225000000000000000000000000000000000007E
:10226000000000000000000000000000000000006E
:1022700031612000ED35200035362000E52D2000AD
:10228000F1392000812820003161200008B5094B78
:10229000FF221A600848094A4824E3690849121ACB
:1022A00098470848084AA3690021121A984700F085
:1022B0000DF8FEE7B4200D4040000020D3000020C0
:1022C0006C702000D8000020E50C002073B500F0F1
:1022D00063FC00F021FD00F0A1FC00F01BFA01F00E
:1022E00075FB03F0FDFF00F00FFD00F019F9202051
:1022F00003F022FF02F07CF900F03AFC002000F02D
:102300004BFB012000F048FB4049002000F01AFC84
:1023100002F0BAFA03F042FF082003F00DFF3C4838
:1023200003F071FF3B4803F06EFF002002F0CEFA8D
:1023300001F0B2F93848002102F000FA01F09CFFE8
:1023400003F024FF00F08AFD00F0A6FD02F018FE65
:102350000821684601F078FB9DF807309DF806508B
:102360002E4C43EA0525BDF806302D48238001F0A8
:10237000A5FB2C4E21782C4801F0A0FB61782B485E
:1023800001F09CFBF46A4AF6CD310220A0472946B1
:102390000320A0471A210120A04708226946736B39
:1023A0000B209847224801F089FB224B186803F064
:1023B0002AFF214801F082FB204B186803F023FF1D
:1023C0001F4801F07BFB1F4B186803F01CFF002126
:1023D0001D4802F0B3F901F0A5FF00F00FFA1B4B06
:1023E000012218601A4B1B481A7003F05BFF00F0C3
:1023F000C5FB102003F0A0FE00F0C6FB02F010F9B0
:1024000010F0FF0FF8D101F03DFAF5E74548200044
:10241000C26B2000D26B200078000020A00C0020AE
:10242000EC6B20005C6A20000A6C2000106C20001D
:10243000166C2000406B20001D6C2000586B2000A3
:10244000246C2000746B200098000020700C002089
:10245000640C0020B86B2000F8B52D4C2578207056
:102460004540EA0618D500F0100000F0FF07294E9D
:1024700030B100F0C3F9284BD8600123F3700BE0B2
:10248000F3784BB100F0BAF9244A2349D368C968FC
:10249000F7705B1A1844D06015F0300F17D023780E
:1024A0001C4F13F0300606D000F0A8F91A4B186143
:1024B00001233B710BE03B794BB100F09FF9174AC8
:1024C0001549136909693E715B1A18441061AB061E
:1024D00019D523780F4D03F0200303F0FF0633B125
:1024E00000F08CF90C4B586101236B710BE06B7998
:1024F0004BB100F083F9094A0749536949696E7184
:102500005B1A184450612078BDE8F84000F02AB802
:10251000100B0020640C0020700C0020300C0020F8
:1025200008B500F017F8024B00221A7008BD00BF72
:10253000100B0020024B1B781843FFF78DBF00BF24
:10254000100B0020024B1B7823EA0000FFF784BF2A
:10255000100B0020024A136843F0380313607047E1
:1025600000C40D40014B1860704700BFE0C00D4033
:1025700020B1012805D1044B18787047034B186827
:1025800070470020704700BF110B002020900D40C5
:1025900010B5094A0020137801331370074B1978DE
:1025A00002F0A0F8BDE81040054B06481968064A3D
:1025B000002301F097BE00BF110B0020DE0C0020AD
:1025C00010010020E800002091252000812810B58E
:1025D0000C462AD0B0F5807F39D0802839D101F05F
:1025E000FFFF1D4B1D4A18701368002023F00803DD
:1025F000136052F8203C032123F0080342F8203CEA
:1026000052F81C3C23F0080342F81C3C52F8183CDA
:1026100043F0080342F8183C042200F08BFB1048FA
:102620000021032200F00EFB13E00E4B1A6831B1BB
:1026300042F008021A60002000F0CCFA05E022F017
:1026400008021A60084600F0D1FA204610BD064B79
:102650001960012010BD00BFDE0C002020940D4049
:102660006D26200010940D401001002008B50F4881
:1026700003F03FFEC0B108210C4803F033FE0C4BC1
:10268000196861B10B4B00221A700B4B0B481B6889
:102690001BB90B4A01F026FE01E001F02DFEBDE85A
:1026A0000840084802F0B8B908BD00BF0801002082
:1026B00010010020110B002020900D40E8000020A8
:1026C00091252000F4692000F8B500F097F80F4B31
:1026D0000024D3E900673A46B04238BF7A1C154659
:1026E0000443C3E90045DFF828E0DEE90001821B6E
:1026F00061EB070312196B41CEE9002301F0DAFE0A
:1027000018B1BDE8F84001F065BEF8BDD800002062
:10271000E00000200F4B104A1A6053F8042C42F0DE
:10272000050243F8042C53F8042C42F0020243F84B
:10273000042C0A4A136843F001031360084B00227B
:102740001A60042243F80C2C012243F8082C0F22B3
:10275000DA62704714E000E047E8010008200D400D
:102760000C000340034BD3E90023100A40EA036046
:10277000704700BFD8000020054B18601C3B1A684A
:1027800042F001021A601A68D207FCD4704700BFF9
:102790002800034010B5064C236823F00103236092
:1027A000FFF792FF236843F00103236010BD00BFD1
:1027B00010E000E038B500F021F80A4C0A4D012382
:1027C000A370A860FFF780FFA3784BB100F016F864
:1027D000064AA96893685B1A184400239060A370A6
:1027E00038BD00BF640C0020700C0020300C0020AD
:1027F000014B1868704700BF14010020074B084ABE
:10280000196804331B681268120442EA0323054A5C
:102810000B43106843EA0060704700BF40500D4012
:1028200048500D404C500D4010B50446114B1B68EC
:10283000DB07FBD503F0B6FCFFF7E0FF231A062BFE
:10284000D8BFC41D0C4B220E1A60C4F3074243F8D4
:10285000042CC4F3072243F8082CE2B243F80C2CF2
:1028600003F09CFC054B91201C60BDE8104000F07B
:10287000B1B900BF50500D404C500D401401002024
:1028800070B500F0C9FFFFF7B9FF0E4C01230E4EE3
:10289000A3700E4BB060002591201D6000F0B2F9CE
:1028A000912000F0A3F901F06DFFA37843B1FFF789
:1028B000A5FF074AB1689368A5705B1A1844906039
:1028C00070BD00BF640C0020700C002014010020BB
:1028D000300C00200023084A1068084A9958084222
:1028E00005D01A44D268906910F0800003D02C33D0
:1028F000582BF0D10120704728200D40046A200099
:10290000F8B50646FFF77AFF1E4A01231E49937069
:102910002C2303FB06134FF6BF711C4DDC68A86027
:10292000236C61649BB213F0500117460CD0A3696D
:10293000DB0618D4164B53F826301BB12068C0B202
:102940009847F4E72368F2E713F4D06F0BD04FF405
:1029500040732363FF236360E36AE162E362236BF6
:1029600043F001032363BB7853B1FFF747FF094AE4
:10297000A96893685B1A1844024B906000229A7011
:10298000F8BD00BF640C0020046A2000700C002019
:1029900018010020300C00202DE9F04F012885B0EF
:1029A000064600F2BF802C244443604B1D1995F964
:1029B00020A005F12007BAF1000F9946C0F2B280BD
:1029C00095F92230002BC0F2AD80594800F0EEFF9F
:1029D000584A59F804301168EC680B431360516889
:1029E0006B6895F921B00B4353609168AB6895F81B
:1029F00022800B4393600023C4F8C83F2B690BEB84
:102A0000CA021A6095F823305FFA88FC01939DF89A
:102A10000430604619462A7DCDF80CC0029300F0C0
:102A200093F9029BDDF80CC019466046082200F0BD
:102A300081F94FFA88F840494FEA08389DF9042097
:102A400058F80100012303FA02F2024348F801207A
:102A50004FEA0A3A5AF8010003FA0BF202434AF825
:102A600001205022A263A26B95F8240042F4D062A8
:102A7000A263022262634FF440722263AA69626217
:102A8000EA69A2627022E26242B2002A0C4614DBBA
:102A900095F92510294D41EAC2012960797912037F
:102AA00015594FB2BB402B431351002200F042F99D
:102AB000234A136843F4004313602C2303FB06935B
:102AC00093F8265020336FB2002F1CDB93F807A039
:102AD000EDB25FFA8AF82846414601223F0300F032
:102AE00033F94FFA8AFA3A59012303FA0AF31343E6
:102AF0003B5108222846414600F01CF9104A136851
:102B000043F4804313602C2303FB0696F26896F887
:102B10002800136B43F00103136305B0BDE8F04FC9
:102B200000F058B805B0BDE8F08F00BF046A20007F
:102B3000D528200028200D4020940D4004410D4050
:102B400030D0004001289CBF014B43F82010704753
:102B500018010020012808D8044B2C2202FB003069
:102B6000C3689A699206FCD419607047046A200011
:102B7000014B00221A60704700500D40014B0822A3
:102B80001A60704700500D40024BA0221A6050227C
:102B90001A60704700500D40074A084B1A60084BF6
:102BA00080321A60074B80321A60074B80321A60FD
:102BB000064B074A1A60704700E100E02C01002034
:102BC00020010020240100202801002008ED00E061
:102BD00000202000044B41091A6800F01F00012367
:102BE000834042F8213070472C010020044B4109FA
:102BF0001A6800F01F000123834042F8213070471B
:102C000020010020044B41091A6800F01F00012335
:102C1000834042F82130704728010020054A064BC6
:102C20001A60064B1A68064B1340B3F1807FF8D147
:102C3000704700BF0101020100200D4004200D403B
:102C400000000101024B02EBC10243F82200704771
:102C500030010020F8B507460E46094D002405EB6B
:102C6000411547FA04F3DB07E1B204D555F82430E7
:102C70000BB1304698470134082CF2D1F8BD00BFA3
:102C8000300100202DE9F74F019000F0C5FDFFF75E
:102C9000B5FD0199184E4FEA0139184F0123DFF8AD
:102CA00064A009F18045B860B37005F55925D5F8E1
:102CB000188459F80A404FEAC10B24FA0BF448EA89
:102CC0000400C0B2E4B2FFF7C5FF04FA0BF45FFAE8
:102CD00088F3C5F81C3449F80A40B3784BB1FFF7C4
:102CE0008DFD074AB96893685B1A18440023906009
:102CF000B37003B0BDE8F08F640C0020700C0020AE
:102D0000300C002018970D4002480021802203F06B
:102D1000C1B900BF30010020034A044B1A60044BC4
:102D2000803A1A60704700BF80400D40B401002017
:102D3000B0010020034B01EBC0011B6843F82120C8
:102D4000704700BFB4010020034B01EBC0011B68BA
:102D500043F82120704700BFB00100200E2870B555
:102D60000BD1164B164E1C6844F002051D603568E9
:102D700025F03F0343F001033360124E336823F024
:102D8000FF031A431143014331600F4B1B681B06BD
:102D9000FBD50E4B0E4A1B6812680E2803F0FC038D
:102DA00043EA022308BF064A9BB204BF1560034AE8
:102DB0009BB208BF146018B270BD00BF340001445C
:102DC000F486084008700D4000700D400C700D40F6
:102DD00010700D40024B1868B0FA80F0400970473F
:102DE00000B7084070B5FFF709FD104E104C0123E5
:102DF000B060104D8F20A370FFF704FF8F20FFF706
:102E0000F5FE286818B101F0B1FC00232B60A3780F
:102E100053B1FFF7F3FC084AB16893685B1A184492
:102E2000034B906000229A7070BD00BF700C0020B0
:102E3000640C0020B8010020300C0020064A136802
:102E400043F002031360536843F002035360936836
:102E500043F002039360704748200D4007B50C48CB
:102E600000F0A4FDFFF7EAFF0A4B1A6842F00202E5
:102E70001A6000220192019A0F2A02DC019A0132A3
:102E8000F8E71A6822F002021A6003B05DF804FB4A
:102E9000D52D200054200D40064A136823F002036C
:102EA0001360536823F002035360936823F0020316
:102EB0009360704748200D40044B186800F02200D2
:102EC000A0F1200358425841704700BF4C8608408B
:102ED000024B186800F04000704700BF4C86084065
:102EE00008B50B4B93F90020002A09DB094AED21B4
:102EF00011601160E32111601A7862F07F021A708C
:102F0000FFF77CFC044BD861044B0120D87108BD4D
:102F1000120B002038880840700C0020640C002040
:102F200038B505460C46134B1B689B07FBD4124B68
:102F300093F90030002B01DBFFF7D2FF0F4BEE229D
:102F40001A60691E1A60A21C43F8102C214402204A
:102F500000F0BAFB013C0A4924012143022000F0A1
:102F6000C5FB022000F0CCFB022000F0E1FB0020BA
:102F700038BD00BF4C860840120B0020388808403E
:102F800002C001C0044B1A6810B142F0010201E016
:102F900022F001021A607047008608400B280DD10C
:102FA000082A0DD161B1074B013953F8042D01F8FE
:102FB000012F054A9342F8D1002070470120704745
:102FC00002207047C8850840A88508400B280DD10D
:102FD000082A0DD161B1074B083111F8012D43F8D2
:102FE000042F054A9342F8D1002070470120704712
:102FF00002207047A4850840C485084070B52B4E58
:10300000336813F0400308D0294D2B68DCB21B064F
:1030100005D5284BED221A601A60002070BD042CE3
:10302000F7D9023C8C42F4DCE4B2032C1BD001192A
:103030000139032000F050FB631E1F491B010320D0
:10304000194300F053FB032000F05AFB032000F06B
:103050006FFB032000F078FB0028FAD129682D6867
:103060002806D6D506E02B6803702B6843702B68C2
:103070008370F3E7493949B289B2042002F074F849
:10308000032005F07F0102F06FF833685A060BD574
:10309000064B1B681B0603D5084801F067FB03E0DD
:1030A000044BED221A601A60204670BD4C86084021
:1030B000288808403888084002C0010C50000020D1
:1030C00010B5114B1B689B07FBD4104BED221A6007
:1030D0001A600F4A12680AB1EF221A600D4A0E4CAC
:1030E000137803F07F031370E37953B1FFF786FB86
:1030F0000A4A0B49D369C9695B1A18440023D06195
:10310000E371012010BD00BF4C860840388808409C
:103110002C860840120B0020640C0020300C00208C
:10312000700C002038B5A0F10B04E3B20F2B05465C
:1031300013D80B4B1B6813F03F0302D0FFF7C0FFFF
:10314000012304EB8404074A0B3414600BB1FFF72E
:10315000C7FE054BE8B21D7000E0FF2040B238BD4D
:10316000488608403C860840D200002038B50C460E
:10317000072855D8DFE800F0040F1B1F26543B4FEB
:10318000012903D1FFF7ACFE002038BD002949D149
:10319000FFF796FFF8E7A1F10B030F2B42D8C8B257
:1031A000FFF7C0FF431C0CBF0320002038BD8CB2CA
:1031B000E2B21D4B02E08CB21C4BE2B2240A1A6050
:1031C0005C60E1E731F003052CD101F00100FFF76D
:1031D000D9FE174B14F002001A681BBF284642F0B4
:1031E000200222F020021A6008BF1A6038BD01F1E7
:1031F00018031F2B16D80D230E49DA0051F833009F
:10320000844204DC8B181A790B4B1A60BCE713F16B
:10321000FF33F1D2B8E7CCB2084B49341C60B3E7B6
:10322000012038BD022038BDC8850840D08508403F
:1032300024860840946A200040860840588608404A
:1032400038B50C4600296ED010286ED8DFE800F0A3
:10325000090F1A1C236D3344496D6D6D6D606264F6
:103260006900334B1B68003318BF012356E0314B14
:1032700005221B6803F07F030B3B93FBF2F30B3338
:10328000DBB24BE02C4B00E02C4B1A68043B1B6874
:1032900043EA022342E02A4B002008601A682433E4
:1032A00002F001020A601B6813F0200337D042F0DD
:1032B00002020A6038BD234B1A680023D2B22249A9
:1032C00001EBC3000079904202D851F8333025E079
:1032D00001330E2BF3D11FE01C4B1B685BB2493B43
:1032E0001CE01B4B1B68990603D1FFF7F9FD012376
:1032F00000E00023174A1268D207FBD5164A15686A
:10330000493DEDB20BB1FFF7DBFE6DB2256006E083
:103310000B2303E01A2301E06FF017032360002062
:1033200038BD0723FAE7022038BD012038BD00BFB1
:103330002C8608403C860840CC850840D48508404F
:103340000086084040860840946A2000588608405D
:1033500048860840648608406086084010B50B4BDC
:103360001B68990603D1FFF7BBFD012300E0002392
:10337000074A1268D207FBD5064A1468C4F3001442
:103380000BB1FFF79DFE204610BD00BF48860840E8
:10339000648608404C8608402DE9F843364B93F983
:1033A0000030002B0EDBFFF729FA0446FFF798FDEB
:1033B000FFF724FA6FF009031B1BC342F8D44FF048
:1033C000010801E04FF00008FFF7C8FF00284CD0CB
:1033D0002A4E336813F0200447D1294D294FEB7949
:1033E00043B1FFF70BFA284AF969D369EC715B1A0C
:1033F0001844D061FFF702FA244C0123AB71E92392
:10340000B8614FF00409236033689A0708D409F1C2
:10341000FF3919F0FF0903D00620FFF7ADF9F3E7F4
:1034200033689B0704D4EE2323602360012404E067
:10343000306810F00200FBD10446AB7953B1FFF7BE
:10344000DDF9114AB96993695B1A18440C4B906114
:1034500000229A71FFF7D2F90123F861EB71B8F1FC
:10346000000F05D0FFF72CFE02E00220BDE8F88334
:103470002046BDE8F88300BF120B00204C860840B0
:10348000640C0020700C0020300C002038880840AC
:10349000F8B52E4E357815F0010554D12C4B01248A
:1034A0001C605C609C60A3F59323A3F51473F82261
:1034B0001A600922C3F89021152270331A6003F5AF
:1034C0009B230B2203F59E731A60A3F59B23A3F5A0
:1034D000F07340221A601A687F2742F020021A60B7
:1034E000D52243F81C5CDF62DA611A4B1878FFF7CB
:1034F00019FE194A8D20136843F004031360FFF787
:1035000069FB164B8E201F60FFF764FB022000F062
:1035100003F91349022000F0DFF8032000F0FCF863
:1035200003200F4900F0D0F829460E4801F006F9B3
:10353000337823433370FFF761F90B4BD8610B4BA2
:103540002046DC71F8BD0020F8BD00BF120B002042
:10355000A8200D40D20000208C86084094860840A8
:103560002888084050000020700C0020640C0020C7
:1035700038B503880446F3B1B3F5717F03D0002357
:103580000380032038BD822918D101F0B3FD01F07A
:103590006BFD8021FFF732FD051E08DD0F4802F0AC
:1035A00032FEA8B201F01EFD0D4B1B6998470D4B72
:1035B0001A78520604D44FF471732380012038BD69
:1035C00000221A70084B1D68FFF77AFDFFF760FFB5
:1035D000AB06F0D0FFF784FCEDE700BF326C2000B3
:1035E000746B2000120B00204886084070B5FFF76E
:1035F00005F90B4E0B4C0123B0600B48A37001F092
:10360000B5F80A4B00251D60A37843B1FFF7F6F823
:10361000074AB1689368A5705B1A1844906070BD42
:10362000700C0020640C00205000002034880840FA
:10363000300C002070B5FFF7E1F8114B01221D4658
:10364000104C9A70104AA06011680026042918BF17
:103650000E490F481EBF0B7843F040030B701660F5
:1036600001F084F8AB784BB1FFF7C8F8094AA168BC
:1036700093685B1A1844024B90609E7070BD00BF47
:10368000640C0020700C00202C880840120B0020D5
:1036900050000020300C002010B5094C00212046BD
:1036A000402202F0F7FC074B01221A602E205C60DA
:1036B000FFF790FABDE810402F20FFF78BBA00BF4C
:1036C0000000002004F00F4003289EBF014B0001C2
:1036D000195070470000002003289EBF024B03EBE7
:1036E00000104160704700BF0000002003289EBF0B
:1036F000024B03EB00108160704700BF0000002008
:1037000003289FBF034901230A6883409CBF1343DA
:103710000B60704728F00F4003289FBF0349012327
:103720000A6883409CBF13430B60704720F00F4032
:1037300003289FBF034901230A6883409CBF1343AA
:103740000B60704714F00F4003289FBF044B03EB3E
:103750000010806800F0070088BF0020704700BF9D
:1037600000000020024B4FF0FF321A60704700BF8C
:1037700004F50F40014B01221A6070474CF00F40D6
:10378000094B1A6812F4801F1A46F9D1043B1968D4
:1037900021F4803119601168C903FCD41A6842F41D
:1037A00000321A60704700BF04200D4070B5164CFF
:1037B000FFF724F82378154D3BB1154A29681368A3
:1037C0005B1A0344136000232370124E68600123C8
:1037D00002203168637000F0D5FD30BF022000F098
:1037E000B5FD3060FFF70AF863784BB1084A074926
:1037F000536849685B1A03445360034B00225A70B4
:1038000001232860237070BD640C0020700C002020
:10381000300C0020BC01002070B5144B1A681C4607
:1038200012F0030F21D0124B1A685101FBD41A6811
:103830005201FCD50025FEF7ADFFFFF7A1FF256083
:10384000022000F083FD0B4B1860FEF7D7FF0A4BF8
:103850000A495A7832B10A4C4E6862685D70921B10
:1038600002446260012208601A7070BD58200D4049
:1038700004200D40BC010020640C0020700C0020CE
:10388000300C00202DE9F0413E4B1C6814F03F0441
:1038900013D13D4B53F8243023B1984768B101341C
:1038A000052CF6D1394D2B783BB1FEF7A1FF04462C
:1038B000FEF7A4FF201A092803D8BDE8F041FFF75E
:1038C00075BF002CF9D0324B1A6822F400321A600E
:1038D000304A1168C902FBD4196841F4803119607B
:1038E0001368DB03FCD5FEF789FF201A092803D8EB
:1038F000BDE8F041FFF744BF6328274F02D92B787A
:10390000022B00D00123254E3B60254C022031685C
:1039100000F038FDFEF772FF2378224D3BB1224ABA
:10392000296813685B1A0344136000232370012382
:103930006860637000F0CCFEB8B14FF00008FFF78C
:103940001FFFC7F80080022000F000FD3060FEF786
:1039500055FF637883B1144A696853685B1A03445E
:1039600053600F4B83F8018006E0FEF741FF00280B
:10397000E3D030BFBDE8F081012328602370BDE8AB
:10398000F08100BF48860840C0010020130B0020D2
:1039900000200D4004200D4058200D40BC010020A7
:1039A000640C0020700C0020300C00200023064A1C
:1039B00052F82310814206D011B942F82300704713
:1039C0000133052BF3D17047C0010020054B0022C5
:1039D0001A60054A136843F004031360034B012285
:1039E0001A70704758200D4010ED00E0130B0020B6
:1039F00070B5FEF703FF104E104C0123B060104D60
:103A00009020A370FFF7FEF89020FFF7EFF82868EA
:103A100018B100F0ABFE00232B60A37853B1FEF782
:103A2000EDFE084AB16893685B1A1844034B906036
:103A300000229A7070BD00BF700C0020640C002042
:103A4000D4010020300C002030B5184B1A78431EEA
:103A50003AB9174A1278122A03D1164A12784B2A19
:103A600003D001F52011273117E04A0802F128148C
:103A7000B4F1281F04D014F8015D03F8015FF7E7E3
:103A800001F5201127310023934205DA11F801597D
:103A90008418E5540133F7E730BD074A914204D05A
:103AA00011F8012903F8012FF7E730BD2B0028009A
:103AB0002A00280029002800270028000FB407B595
:103AC00004AA52F8041B0448019200F021F803B044
:103AD0005DF804EB04B070476000002070B5054647
:103AE0000C46102C07D92B686868084910229847A3
:103AF00050B9103CF5E734B12B6868682246BDE840
:103B0000704002491847204670BD00BFED6C200090
:103B10002DE9F04F80468FB0069107920026069B54
:103B20001B78002B00F05F83069B1C4613F8012BCB
:103B30001AB9069B9C4203D10FE0252AF5D1F8E77C
:103B4000069BD8F80400E51A0699D8F800302A46F2
:103B50009847002840F02A832E442378002B00F059
:103B600042836378611C002B00F03D8300240A46E9
:103B700011F8013B2B2B11D006D8202B11D0232B71
:103B800012D144F00804F2E72D2B04D0302B0BD1D6
:103B900044F01004EBE744F00104E8E744F00604C5
:103BA000E5E744F00204E2E7A3F1310108290DD86A
:103BB000134600251A4613F8011BA1F1300009280D
:103BC00011D80A2202FB0515303DF3E72A2B09D153
:103BD000079B01321D68191D002D0791B8BF44F0E5
:103BE000010400E0002513782E2B1CD15178531CC2
:103BF000A1F1300009280ED8194600270A780B4693
:103C0000A2F13000092801F101010FD80A2303FBBA
:103C10000727303FF2E72A2906D1931C079A111D86
:103C20000791176802E013464FF0FF371A786C2AA5
:103C300009D15A786C2A02D144F080040AE0013399
:103C400044F060040BE0682A09D15A78682A03D14D
:103C500044F02004023302E0013344F040041A78B7
:103C6000642A3CD01FD8462A48D00DD8252A5AD0DD
:103C700003D8002A00F0B78257E0412A4AD0452AEB
:103C800053D144F4424450E0582A31D004D8472A52
:103C90004BD144F4A13448E0612A38D0632A44D19E
:103CA00044F4A06441E06E2A3AD007D8662A22D0B4
:103CB00027D3672A28D0692A11D036E0732A2CD05E
:103CC00006D86F2A11D0702A2FD144F440742CE00A
:103CD000752A07D0782A28D144F4C85425E044F442
:103CE000245422E044F410641FE044F488541CE09F
:103CF00044F4B24419E044F4007416E044F48444FB
:103D000013E044F4024410E044F481340DE044F440
:103D1000C1340AE044F4E13407E044F4806404E090
:103D200044F4E06401E044F4C0640133069304F415
:103D3000E063B3F5806F00F0AA8116D8B3F5807FF9
:103D40002BD0B3F5407F7FF4EAAE079BA04914F473
:103D5000804F03F104029F4818BF08460DF133015C
:103D600007920F461A680023C5E1B3F5C06F08D06B
:103D7000B3F5E06F00F03182B3F5A06F7FF4CFAE02
:103D800000E2D8F80030D8F804009349012298479F
:103D9000002840F00B820136C1E6002FACBF24F0B2
:103DA0001004012714F40053039304F0E00337D008
:103DB000402B17D008D8DBB1202B2AD1079B1A1D26
:103DC000079293F9002017E0602B11D0802B20D1AF
:103DD000079B073323F0070303F108020792D3E997
:103DE00000230AE0079B1A1D0792B3F9002003E0A5
:103DF000079B1A1D07921A68D317002A73F1000156
:103E000009DA524263EB4303CDE900234FF0010985
:103E100033E000220023CDE900234FF000092CE01D
:103E2000402B16D007D8CBB1202B20D1079B1A1DD1
:103E300007921A78EEE7602B10D0802B17D1079BE2
:103E4000073323F0070303F108020792D3E90023A5
:103E5000E1E7079B1A1D07921A88DBE7079B002101
:103E60001A1D07921B681846CDE90001D5E700220C
:103E70000023CDE900234FF0000904F4C053B3F54B
:103E8000805F0CD0B3F5C05F33D0B3F5006F4FD176
:103E9000DDE900230DF1360ACDE9042304E0DDE974
:103EA00000230DF1360A15E0DDE9042313433AD06F
:103EB000DDE904010A22002301F06CFDDDE90401C3
:103EC00030320AF8012D00230A2201F063FDCDE90A
:103ED0000401E9E752EA030125D002F0070130317D
:103EE0000AF8011DD10841EA4371D8080A46034681
:103EF000F0E7384B14F4804F0DF1360A344908BF0F
:103F00001946DDE9002352EA03000CD002F00F004D
:103F1000085C4FEA131E0AF8010D100940EA03700D
:103F200002467346EFE70DF1360BCAEB0B0B03E0CD
:103F30000DF1360A4FF0000B41F6080241F208037A
:103F40005F4502EA04028CBFCBEB070700279A42C9
:103F500002D1002F08BF012741F608018A4207EB72
:103F60000B030DD1DDE9000150EA010208D01B4925
:103F700014F4804F1A4A4FF0020C18BF0A4602E0B0
:103F80004FF0000C62460399A1B1B9F1000F0AD1BC
:103F900004F0060102290AD00629124904BF4FF095
:103FA000010C0A4606E04FF0010C0F4A02E00F4AEE
:103FB0004FF0010C63449D428CBFED1A002514F0B4
:103FC000010922D1E30613D52F444D461DE000BF61
:103FD000B86C2000C96C2000EB6C2000DD6C200068
:103FE000DA6C2000E26C2000E06C2000196E2000EA
:103FF00040462946CDF80CC00092FFF76FFD009AAD
:10400000DDF80CC0002840F0D180BCF1000F0DD0CD
:104010001146D8F800306246D8F80400CDF800C048
:104020009847DDF800C0002840F0C0803C465E4460
:10403000102CD8F800300DD9D8F804006C491022A3
:10404000CDF800C09847002840F0B080103CDDF863
:1040500000C0EDE75CB1D8F8040065492246CDF810
:1040600000C09847DDF800C0002840F09F80D8F8D5
:104070000030D8F8040051465A4666449847002854
:1040800040F094803E44B9F1000F79D073E0079B73
:10409000D3F800A01A1D0792BAF1000F09D05346B9
:1040A000994699F800200133002AF9D1CAEB090991
:1040B00003E0DFF840A14FF00609002F02DBB9450D
:1040C00028BFB9464D458CBFC9EB0505002514F046
:1040D000010405D140462946FFF700FD002865D1BF
:1040E000D8F80030D8F8040051464A4698470028CE
:1040F0005CD14E443EE052EA030E0ED002F00F0EA9
:1041000010F80EE04FEA131C01F801ED4FEA121E01
:104110004EEA037E72466346EDE70B467F1A01BF07
:104120003022012701F1FF3301F8012C03377822F7
:10413000BD4203F8012C4FF0300203F8022C88BF77
:10414000ED1B4FF0230298BF002514F00104A3F1EA
:10415000030903F8032C04D140462946FFF7BEFCAF
:1041600020BBD8F80030D8F8040049463A469847B2
:10417000E0B93E4424B140462946FFF7AFFCA8B958
:104180002E44CCE4079B012D03F104021B688CBF75
:1041900005F1FF35002514F0010407928DF8203059
:1041A00008D140462946FFF799FC10B14FF0FF3087
:1041B0001AE02E44D8F80030D8F8040008A90122EB
:1041C00098470028F2D16F1C2CB140462946FFF7D2
:1041D00085FC0028EAD13E44A1E4079B1A1D1B6818
:1041E00007921E609BE430460FB0BDE8F08F00BF21
:1041F000A86C2000E46C2000F8B50388064615463C
:104200002BB14A2B15D0002303800320F8BD17489B
:1042100002F080F804462CB1201DA16802F04CF891
:104220002468F8E7124B01221A704A2333800120D8
:10423000F8BD8829FBD10D4802F06CF80446002C2B
:10424000F3D0231D9D420ED10848214602F06CF8A0
:10425000084B62691F681A60A2691D460AB1E069CD
:1042600090472F60E1E72468E9E700BFD80100200C
:10427000140B0020EC01002010B5064B002406486A
:104280001C7002F044F82146BDE81040034800F0DD
:1042900055BA00BF140B0020D80100206800002090
:1042A00070B50446E3610B4B049D1B786561A26108
:1042B00043B1094D094B2E68201D2B6001F0FCFF16
:1042C0002E6000E0A1602146BDE87040044802F085
:1042D0003FB800BF140B0020EC0100206800002054
:1042E000D801002013B5034C24680094FFF7D8FFD1
:1042F00002B010BDEC01002010B5084B04461B783D
:104300001BB1043000F0DEF801E0C3600361214618
:10431000BDE81040024802F007B800BF140B0020AF
:10432000D801002000230649002241F82320054936
:1043300041F8232004495A5401330C2BF3D1704720
:10434000700C0020300C0020640C002038B50A4BA3
:1043500004461B5C094D63B1FEF750FA084A55F854
:10436000243052F8241042F824005B1A034445F824
:10437000243055F8240038BD640C0020300C002097
:10438000700C0020014B43F820107047300C0020C7
:1043900010B50E4C236813B90D4A136010BDFEF71B
:1043A000E1F9216891E80C001A44131A8A6842B1B5
:1043B00092E812002144091A8B4228BF0B469268EA
:1043C000F5E71844024B186010BD00BFDC01002067
:1043D000E0010020014800F0C9B900BF78000020CA
:1043E000F8B5038805462BB1592B09D0002303806B
:1043F0000320F8BD1E4A136059232B800120F8BD0D
:10440000872920D08229F7D1194F00263C68002C3B
:10441000F2D0204601F06DFF90B1E068882122467D
:1044200000F060F950B9E060A3680EB1B36000E03D
:104430003B600023A360FFF7ABFFE5E7FFF7CAFF90
:104440002646A468E3E70A490B680BB90B60D3E77B
:10445000D868904201D19B68F7E70B609968002902
:10446000CAD0C86890420ABF89680B469960F5E7D0
:10447000DC01002010B50446FFF7ACFFE3680B4AEF
:104480004BB113683BB1A34203D1094A1268DA6009
:1044900007E09B68F6E7064B1B68E360136814604F
:1044A000A360BDE81040FFF773BF00BFDC01002030
:1044B000EC010020024B1868003018BF0120704743
:1044C000DC01002010B50B4A04461368984206D15F
:1044D0008368136008E09A68A24203D01346002B59
:1044E000F9D103E0A2689A60FFF752FF0023A360AE
:1044F000E36010BDDC01002038B5836804460D463A
:104500009BB10A4804600220A07304F10C00984794
:104510000238012801D9832D05D120462146BDE866
:10452000384000F005B80123A37338BDEC0100202A
:104530002DE9F8431C4A0446156889462B469046E7
:104540001A4E3768A34204D00BB11B68FAE7BDE8E6
:10455000F88334B3A37BABB10023A37345B1AC4262
:1045600004D028468721224601F0B4FE2D68F5E7E5
:10457000A3683BB14C4505D0346004F10C008321A5
:104580002A469847D8F800309C4203D12268064B4F
:1045900005E0134623B11A68A242FAD122681A60D4
:1045A0003760BDE8F88300BFF0010020EC01002077
:1045B00010B5094B00221A70084B1C685CB1E37BF4
:1045C0003BB101230022A373E27320468221FFF74F
:1045D00093FF2468F2E710BD180B0020F0010020C3
:1045E000024B1878421C1A70704700BF1A0B00204B
:1045F000064B8A221A70064A00231370054A13706C
:10460000054A1360054A1360704700BF1A0B00206B
:10461000150B0020170B0020F0010020EC010020FA
:104620002DE9F041214E33780BB1FFF7C1FF204D4A
:104630002C78002C34D0DFF88CE00C229EF800306F
:104640001C495A4388181C4F895CDFF87C804268FB
:10465000DFF878C08068013303F01F03013C397034
:10466000C8F80020CCF800008EF800302C7088B913
:10467000124C134B1B68236023688BB133780BB14A
:10468000FFF796FF20683978D8F8002001F022FE65
:104690002368EFE7812904BF0123837301F01AFE29
:1046A000337828781844BDE8F08100BF180B00204B
:1046B000170B0020F8010020190B0020E401002056
:1046C000F0010020150B0020F4010020E80100207B
:1046D000024A034B10781B7818447047170B0020D0
:1046E000180B0020F0B50C4E3478202C11D00B4B59
:1046F0000B4D1B780B4F234403F01F032B700C252D
:104700006B430134FD18A860F9546A6034700020CE
:10471000F0BD0120F0BD00BF170B0020150B0020DD
:10472000160B0020F801002038B5034C256801F075
:10473000D1FD256038BD00BFEC01002010B50A4650
:1047400009490C68234683420DD00BB11B68FAE778
:1047500048B1046008600121817383818121BDE833
:104760001040FFF7E1BF10BDF001002038B1837B9E
:10477000013B012B9FBF024A0123C3731370704793
:10478000180B002010B5084C206858B10023236096
:10479000816843689847236823B1BDE810401868D2
:1047A000FEF742B810BD00BF7803002038B5058879
:1047B0000446672D09D0792D2ED0002D32D1FFF778
:1047C0000FFF1B4B18701B4B1D601B4801F00BFEAD
:1047D000431C01D167231DE00A28164B07D01A6835
:1047E0007E2AF2DC511C1960144B9854EDE71968CD
:1047F00000254A1C1A60114A0D4B55542846197859
:10480000FFF770FF0E4B852118682A46FFF76AFFF5
:1048100020B97923238009E0852907D1054B00229F
:104820001A60D2E700230380032038BD012038BD81
:10483000E30C0020840300207C0300209C0B00205C
:10484000EC0100200D2810B5014615D00B4C237843
:104850002BB90B4801F0B3FD48B9012306E00A2843
:1048600005D1074801F0ABFD08B1002323700548CE
:10487000FFF77CFF012010BD002010BD9B0B002026
:104880007C0300208800002008B5054805498022E7
:1048900001F08EFDBDE8084003480021FFF74EBF40
:1048A0007C0300201B0B002088000020054A1368B1
:1048B00043F004031360044B1B68906943EA002033
:1048C00080B2704700700D4014700D40174A136895
:1048D00023F00C031360164B01221A601A68012A98
:1048E000FCD1144B08221A60E322C3F8142203F50A
:1048F00005731946104B1B68DB07FBD510200023FE
:104900000E4A0138126802F0010243EA02034FEA3C
:1049100043039BB2F4D1002BF0D0094A180A03F0EC
:10492000FE0310601360EF230B60704700700D40B2
:10493000A8200D4024860840648608409C860840D4
:1049400014700D4070B505880446772D30D07E2D4B
:104950003FD0002D4DD1FFF743FE294B1870294B56
:104960001D601D462B68284A264E52F823204AB166
:1049700026480021C154936880209847336801334A
:104980003360EFE7224A1370772320E01F4AD256A4
:10499000002A12DB1B4A136801331360194B1C4AAF
:1049A0001B6812789342F1DB1A4B1B68002BEBD08B
:1049B000184A00231360134AEFE7114A00201178C8
:1049C000114A52F82320FFF78DFE30B97E23238051
:1049D00013E00B4B1B788B420FD10A4B0B491A6823
:1049E0008B5C03F07F038B540A4A13680133136016
:1049F000D0E700230380032070BD012070BD00BFFD
:104A0000E40C00208C03002040000020DF0C00207C
:104A10001C0C002088030020094B1A7800239342C5
:104A200004DA084951F82310814207D106490748A2
:104A3000CA5C62F07F02CA54FFF798BE0133EEE70A
:104A40001C0C002040000020DF0C002098000020FB
:104A500070B505460C46164600F014FA2E61204645
:104A6000BDE87040014901F01DBE00BF2E6D200061
:104A700010B50446054B064819785A78A388FFF705
:104A80001DF82046BDE8104000F068BAA00C0020D8
:104A9000306D200010B50446074B084819785A7845
:104AA000A388FFF70BF823691B681BB12046BDE8FC
:104AB0001040184710BD00BFA00C0020546D20000E
:104AC00070B50446094B0E46154619785A780848C1
:104AD000A388FEF7F3FF23695B682BB120463146BC
:104AE0002A46BDE87040184770BD00BFA00C0020EA
:104AF000806D2000014801F00ABC00BF9003002037
:104B0000014B1860704700BF94030020014801F07A
:104B100001BC00BF900300202DE9F04106460B4880
:104B20000C46174601F0F6FB70B18388A34208D10A
:104B300085684DB1314622463B46AC46BDE8F04162
:104B4000604701F014FCEFE7BDE8F081900300201E
:104B500010B50B4C0B4A616E04F138000023FFF7CF
:104B6000C1FBFFF7A3FE636E074AB0FBF3F101FB45
:104B7000130104F118000023BDE81040FFF7B2BB99
:104B8000980300208D4B2000A54B2000044B5A6E4B
:104B9000196E52008A4294BF5A665966FFF7D8BF11
:104BA0009803002010B500F0A5FA00F05DFA00238C
:104BB00003800446FFF7AAFF68B1037B5BB123883B
:104BC000818804EB83025180C18801339180238066
:104BD00001F0CDFBF0E720888000023080B200F0C9
:104BE00001FA238823B1BDE81040024800F08AB8DA
:104BF00010BD00BF980300209DF80030012B04D1A8
:104C0000024B9A6D5A66FFF7A3BF704798030020C6
:104C1000F8B586460F4616461D46074C7146204697
:104C2000064A00F05DF8A765E66525660448BDE81C
:104C3000F840FFF765BF00BF98030020246B2000F9
:104C4000F94B20002DE9F043134B85B006461A209E
:104C50000D46144693F8009093F8018000F09EFAF8
:104C600007781A2000F09AFA437849468DE8280020
:104C700002943B4609484246FEF720FF73695B6891
:104C800033B130462946224605B0BDE8F043184707
:104C900005B0BDE8F08300BFA00C0020A86D200087
:104CA0001FB504461A2000F079FA014603A801F066
:104CB00019FD094B9DF80D0019785A789DF80C30B4
:104CC00000900648FEF7FAFE63691B6813B12046A0
:104CD00003A9984704B010BDA00C0020D26D20009D
:104CE00070B505460C461646044AFFF7B1FE6E61E4
:104CF0002046BDE87040024901F0D4BC2C6B200076
:104D0000A46D200038B50546074C08482178627824
:104D1000FEF7D4FE21461A2000F034FA2846BDE8FA
:104D20003840FFF7A5BE00BFA00C0020F06D2000AA
:104D300010B54378047843EA0420054B88409B5C17
:104D4000C2F1080203EA20201041C0B210BD00BF2A
:104D5000076E20002DE9F04306460F460546A1B038
:104D60000024AB1BBB4222DAA9462A78072302F0B3
:104D7000010130310DF8031013F1FF334FEA6202E5
:104D8000F5D24FF0000868468DF808800134FEF730
:104D900095FE0A4899F80010FEF790FE0A2C05F1DE
:104DA0000105DED1204601F016FA4446D9E714B1D8
:104DB0000A2001F010FA21B0BDE8F083106E200047
:104DC00038B5124D12486A782978FEF777FE00F060
:104DD0004BF9044600F010F901462046FFF7BAFFF0
:104DE0000C4B1B689847297804466A7840B1A38821
:104DF0000948FEF763FEA188012000F0B5F902E042
:104E00000648FEF75BFE204638BD00BFA00C002020
:104E10001B6E2000346B2000336E2000566E200085
:104E200038B504460E4B0F485A781978A388FEF718
:104E300045FE0D4B20465B689847A188054601203A
:104E400000F092F900F0D4F8044600F0DBF80146D7
:104E50002046FFF77FFF281C18BF012038BD00BF88
:104E6000A00C0020946E2000346B2000014B9B6846
:104E7000184700BF346B2000014801F048BA00BF5A
:104E800004040020034681800148194601F060BAFD
:104E9000040400200146014801F046BA0404002041
:104EA00010B50446054801F035FA28B18388A342BD
:104EB00002D001F05CFAF8E710BD00BF0404002046
:104EC0000129F8B507460C46154604D0022904D03E
:104ED00041B9104802E0104800E010482946FEF7AA
:104EE000EDFD02E00E48FEF7E9FD0E4801F012FA72
:104EF000064638B1B3680BB120469847304601F0FA
:104F000036FAF5E7384621462A46BDE8F840FFF76D
:104F1000D7BD00BFEE6E2000B86E2000D56E200019
:104F2000066F20000804002038B5FFF749FF05464A
:104F3000094801F0EFF9044630B1636803B19847BE
:104F4000204601F014FAF6E725B12846BDE83840BE
:104F5000FFF7A0BD38BD00BF0804002010B504460F
:104F6000FFF75EFF38B100F059F8034B03482146C4
:104F70009B689847012010BDA06B2000C14E200007
:104F8000084B10B51B689847074B5B689847074B61
:104F90005B689847064B5B689847BDE81040054B37
:104FA0005B6818475C6A2000746B2000A06B2000CF
:104FB000586B2000406B200010B508490B888342D5
:104FC000A1BF074C80B222881218A1BF181A08800E
:104FD00022800120B8BF002010BD00BFDC040020EB
:104FE000DE040020014B1880704700BFDC04002065
:104FF000004870470C040020014B1888704700BF20
:10500000DC040020034A044B10781B781844C0B21B
:10501000704700BF1D0C0020DE0400202DE9F04188
:105020000D4B1A881D46A2B10C4B00261F880C4B55
:1050300093F8008034B2BC4206F1010607DAFFF7AC
:10504000E1FF084B1C44235C04F80830F2E700231E
:105050002B80BDE8F08100BFDE040020DC040020CE
:105060001D0C00200C04002008B5FFF7CBFF014BFE
:10507000184408BD0C04002008B5FFF7C3FF024B1D
:105080001B88184480B208BDDC04002010B504461B
:10509000FFF7F2FF2318802B0FDC013880B202B239
:1050A000002A04DB064B995C23449954F5E7054B31
:1050B000187820441870012010BD002010BD00BFDA
:1050C0000C0400201D0C002010B5074800213422DC
:1050D00000F0E0FF0024054805492044023401F0B7
:1050E00001FB082CF7D110BDAA0C0020A20C002057
:1050F000C06B2000044A00231380044A1380044A32
:105100001370FFF7E1BF00BFDE040020DC040020C5
:105110001D0C002038B50C460546FFF7EBFF802C30
:1051200028BF802429462246034800F03DFF034B58
:1051300020461C8038BD00BF0C040020DC04002089
:1051400010B5074B00F1340250F8044B904243F87D
:10515000044BF9D10B68034A13604B68536010BDD0
:10516000AA0C0020A20C0020024B23F810100120F2
:10517000704700BFAA0C0020014B33F810007047A5
:10518000AA0C002008B5044B1A3803EB400001F0CC
:10519000A9FA012008BD00BFA20C0020024B1A385A
:1051A00003EB4000704700BFA20C002001480249F9
:1051B00001F09BBAA40C0020C06B200008B5044885
:1051C00001F0D8F8BDE80840024801F0D3B800BFAC
:1051D000B4000020A800002010B50446094821466C
:1051E00001F0D8F868B12468B4F880102046FFF7C1
:1051F00091FF04F1820004F1B601BDE81040FFF711
:105200009FBF10BDA8000020014B1888704700BF49
:10521000D00000202DE9F041012986B006460F4656
:10522000144640F3AA80037803F007028DF80C209F
:10523000C3F3C0028DF80D20C3F300128DF80E20C9
:10524000C3F34012C3F380138DF8103043788DF808
:105250000F20C3F340028DF81220C3F3810203F044
:1052600001058DF81320C3F301129B098DF8153049
:105270008DF814208DF8115003AB03CB1B882061EF
:10528000616123830DB1B51C02E0B378F51CA376F0
:1052900003A801A902AA01F030FA9DF81380B8F121
:1052A000000F23D0029B23B16A7815F8023B03EB71
:1052B0000223B8F1020FA38309D12046314901F03E
:1052C00011FA6B78237015F8023B637014E0B8F1A3
:1052D000030F11D105F108021346611E13F8010DE9
:1052E000AB4201F8010FF9D1154605E020462549EA
:1052F00001F0F8F9A4F81C809DF81580B8F1000FB2
:105300002BD0019B53B16A7815F8023B03EB0223C3
:10531000029A9BB2E3831AB9A38301E0A38BE383D0
:10532000B8F1020F0AD104F10800164901F0DAF9C8
:105330006B78237215F8023B637215E0B8F1030F26
:1053400012D108352A46E31D04F10F0112F8010DB0
:1053500003F8010F8B42F9D106E004F10800094976
:1053600001F0C0F9A4F81E80AE1BBB1BE363A5636C
:10537000BE42D4BF3046002000E0002006B0BDE8A9
:10538000F08100BFC06B200030B591B00546FFF73B
:105390003BFF4FF6FF73984202D14FF0FF307EE0A3
:1053A00040226846002100F075FE3E4B1A782AB96B
:1053B00001221A70FFF77AFA3B4B18701420FFF79E
:1053C000DBFE8DF810001320FFF7D6FE8DF81200DB
:1053D000FFF7ECFE18B100238DF8133004E00B202A
:1053E000FFF7CAFE8DF81300002301248DF8143056
:1053F0008DF815308DF81840ADB10A20FFF7BCFECE
:1054000028B10A20FFF7B8FE8DF81A000BE0264BF2
:105410001A7802B91C7019780A204A1C1A708DF883
:105420001A10FFF7A1FE02248DF81940FFF7ECFED9
:10543000ADF81C00FFF7BAFE38B1FF238DF8174016
:105440008DF800308DF8013008E01B20FFF7A6FE34
:105450000146684601F046F98DF81740FFF7D4FE83
:10546000ADF81E001A20FFF799FE014602A801F0D0
:1054700039F9FFF7F9FD0E90FFF7BEFD0F90684672
:1054800001F0B2F904464DB1FFF700FE002884D0C8
:10549000FFF7AEFD0146684601F0BFF9204611B0A6
:1054A00030BD00BF2F0C00202E0C002038B500248A
:1054B0000A4D1A2005EB8405FFF770FE294601F01E
:1054C00014F938B10A20FFF757FEAB781B1A58427F
:1054D000584138BD0134102CEAD138BDD00A002023
:1054E00038B50025104C1A20FFF758FE04EB850153
:1054F00001F0FBF86B1C10B9102B1D46F2D1013BDB
:105500002BB1013B04EB830211685160F8E70A20DC
:10551000FFF732FEA0701A20FFF740FEBDE83840CA
:105520000146014801F0DEB8D00A0020014B9B681B
:10553000184700BF746B2000014BDB68184700BFA1
:10554000A06B2000014B5B69184700BF746B200003
:10555000014B9B69184700BF746B2000014B1B6A0D
:10556000184700BF5C6A200007B51F4800F04BFEDB
:10557000FFF742FD032803D11C4800F044FE09E078
:105580001B4B9B689847002804DAFFF735FD01465E
:10559000184817E01B20FFF701FE174901F0A5F896
:1055A00040B9FFF703FE28B9144803B05DF804EBD7
:1055B00000F029BEFFF77AFF48B10A20FFF7DCFDB3
:1055C00001460F4803B05DF804EBFEF777BAFFF72A
:1055D00087FF0C4800F017FE0B4BDB68019303B00C
:1055E0005DF804EB184700BF2F6F2000456F2000C7
:1055F000946B20005A6F2000A00C0020776F2000D1
:105600008B6F2000B96F2000586B20002DE9F0430C
:10561000054685B00E461A204249FFF7B3FD012129
:105620000B20FFF7A1FD404B5B689847002804DA88
:105630003E4800F0E8FD052267E0FFF7D9FC3C4C4E
:1056400090F802806768FFF7D3FC8146FFF714FDEE
:1056500001464846B847FFF7A9FDD4F81890074619
:10566000C847002853D15FB1A3680193FFF704FD39
:10567000019B984748B102280CBF0122042244E054
:10568000E3699847002842D1EEE717B100220124D0
:105690003FE0FDF7B3F80746FDF776FAFDF7AEF801
:1056A0006FF00C03DB1BC342F8D4C84728B1FDF7E9
:1056B000A5F80746FDF768FA0CE0E369984700286B
:1056C000F5D11B4B5B6998470028F0D0194800F0D2
:1056D0009AFD19E0FDF792F86FF01403DB1BC3424B
:1056E000F8D4E369984778B1114B03A803211B69EB
:1056F000984703280BD19DF80E20B2EB080218BF83
:105700000122002AC2D000E00222002401E001228E
:10571000FBE728463146012301F047F9204605B052
:10572000BDE8F083A00C0020946B2000CC6F20001B
:105730005C6A2000F36F200082B0044B08B11B6A42
:1057400000E05B6A019302B0184700BF5C6A20006A
:1057500008B5024B1B689847023008BD4C6B20000F
:1057600038B50C4B9B689847041E02DA4FF0FF30A7
:1057700038BDFFF779FC03780546002BF6D10220EF
:10578000FFF71AFC0028F1D06878FFF72BFCA01C6B
:1057900038BD00BF4C6B200070B50220FFF776FCCF
:1057A00010B94FF0FF3070BDFFF722FC00250570E7
:1057B0000446FFF721FC6070FFF75EFC0446FFF72C
:1057C000C7FF20442A2812DCC0F12B00C4B2FFF727
:1057D0004BFC0646FFF710FC29462246304400F0F9
:1057E00059FCFFF709FC204480B2FFF7FBFB044B98
:1057F0005B689847041ED4DBFFF710FCA01C70BD4B
:105800004C6B2000014B9B68184700BF406B200089
:1058100070B505460C4614200121FFF7A5FC034B8B
:1058200028462146BDE870409B681847586B200009
:105830008329F7B504460E46174602D1334800F0D7
:1058400007FE25886E2D1AD0802D33D0002D56D11D
:105850002F4B01219B68812098472E4B81212E4A96
:105860002A481D60FFF73CFA2020FCF763FE082061
:10587000FCF760FE1020FCF75DFE6E2318E0274B5E
:105880001B78B3423FD1224B9F423CD12020FCF7F2
:1058900059FE0820FCF756FE1020FCF753FE204A64
:1058A0002048136880210133136000F005FD802338
:1058B000238028E01B4800F008FD20B31A4D052185
:1058C0001A48FFF727FC002329786A788DF80430FE
:1058D000174820238DF80530FEF7F0F8294601A877
:1058E00000F003FF0E4D30B90848FFF70BFA1148DE
:1058F0002968FEF7E3F82B68B3F57A7FCFD1002350
:105900002380032000E0012003B0F0BDBC04002090
:10591000F4692000D4040020B06B2000E40C0020C7
:10592000D8040020AC040020A00C0020147020003B
:105930001A7020002A70200008B50B4613485A78C8
:105940000978FEF7BBF812490B685A1C032392FB37
:10595000F3F303EB4303D31A012B0A6007D0022BA6
:105960000AD08BB90820FCF7EDFD202008E02020AC
:10597000FCF7E8FD102003E01020FCF7E3FD082011
:10598000BDE80840FCF7D6BD08BD00BF367020005A
:10599000D404002053B94AB9002908BF00281CBF0D
:1059A0004FF0FF314FF0FF3000F03CB882B0EC46D2
:1059B0002DE9005000F01EF8DDF804E002B00CBC48
:1059C000704700BF2DE9F041069C904606460F4601
:1059D0001D4600F029F808FB01FCA8FB002300FB92
:1059E00005C5B21A2B4467EB03038646C4E90023BE
:1059F000BDE8F0812DE9F843089E174680468946A8
:105A00001D4600F067F900FB05F3A0FB074507FB07
:105A10000137B8EB04043D4469EB0505C6E90045D0
:105A2000BDE8F883704700BF00292DE9F043C0F2BC
:105A3000A8800026002BC0F29E8081468E469046AC
:105A40009C46174604460D46002B3DD18A4259D943
:105A5000B2FA82F33BB1C3F120029D4020FA02F278
:105A60009F4015439C40390CB5FBF1F01FFA87FEAF
:105A700001FB10550EFB00F3220C42EA0545AB4238
:105A800009D9ED1900F1FF3280F00B81AB4240F2F1
:105A9000088102383D44ED1AB5FBF1F301FB1355C3
:105AA0000EFB03FEA4B244EA0545AE4508D9ED1944
:105AB00003F1FF3280F0F780AE4540F2F480023B04
:105AC00043EA0043002203E08B420FD90022134631
:105AD000341C18BF012460424FF0000565EB4501FE
:105AE0005840514000196941BDE8F083B3FA83F290
:105AF000002A40F089808B4202D3804500F2E28088
:105B00000123E5E712B90123B3FBF2F7B7FA87F8EF
:105B1000B8F1000F3BD1ED1B4FEA174C1FFA87FE7F
:105B20000122B5FBFCF00CFB10550EFB00F3210C21
:105B300041EA0545AB4207D9ED1900F1FF3102D228
:105B4000AB4200F2C3800846ED1AB5FBFCF30CFB38
:105B500013550EFB03FEA4B244EA0545AE4507D932
:105B6000ED1903F1FF3102D2AE4500F2AD800B46D4
:105B700043EA0043ACE752426FEA060663EB430395
:105B80005BE7404261EB41014FF0FF3652E707FA15
:105B900008F7C8F1200225FA02F34FEA174CB3FBCD
:105BA000FCF11FFA87FE0CFB113324FA02F205FA0E
:105BB00008F50EFB01F92A43100C40EA034399450E
:105BC00004FA08F407D9DB1901F1FF3078D29945BE
:105BD00076D902393B44C9EB0303B3FBFCF00CFB61
:105BE00010330EFB00F592B242EA03439D4207D9FF
:105BF000DB1900F1FF325FD29D425DD902383B4490
:105C00005D1B40EA01428CE7C2F1200328FA03F150
:105C10000CFA02FC41EA0C0C4FEA1C402EFA03F18C
:105C2000B1FBF0F51FFA8CF700FB151129FA03F30D
:105C30000EFA02FE07FB05F943EA0E0E4FEA1E4379
:105C400043EA0141894508FA02F808D911EB0C0131
:105C500005F1FF3332D2894530D9023D6144C9EBA9
:105C60000101B1FBF0F300FB131107FB03F71FFA6F
:105C70008EFE4EEA014E774508D91EEB0C0E03F15D
:105C8000FF3117D2774515D9023BE64443EA054375
:105C9000A3FB0889C7EB0E0ECE4509D305D0002221
:105CA00016E71046F7E613460AE794404445F6D255
:105CB000013BF4E70B46E9E71046A1E71D46CEE7B6
:105CC000014688E7134603E7023B51E702383D44AB
:105CD0003AE700BF2DE9F043002B44D18A42154634
:105CE00004464FD9B2FA82F70E464FB1C7F12003EE
:105CF000B94020FA03F602FA07F50E4300FA07F45A
:105D00002F0CB6FBF7F01FFA85FE07FB10620EFBA7
:105D100000F1260C46EA0243994209D95B1900F1C9
:105D2000FF3280F0EE80994240F2EB8002382B4443
:105D3000591AB1FBF7F307FB13110EFB03FEA4B2D4
:105D400044EA01418E4508D9491903F1FF3280F038
:105D5000DA808E4540F2D780023B43EA00400026BD
:105D60003146BDE8F0838B4247D8B3FA83F6002E64
:105D700048D18B4202D3824200F2CF8001203146CB
:105D8000BDE8F08312B90125B5FBF2F5B5FA85FC43
:105D9000BCF1000F78D1491B2F0C1FFA85FE01269C
:105DA000B1FBF7F007FB10110EFB00F2230C43EAE6
:105DB00001418A4207D9491900F1FF3302D28A42D0
:105DC00000F2BC801846891AB1FBF7F307FB1311E8
:105DD0000EFB03FEA4B244EA0142964508D95219CB
:105DE00003F1FF3180F09180964540F28E80023BB6
:105DF00043EA00403146BDE8F08300263046314694
:105E0000BDE8F083C6F1200422FA04F5B3402B4329
:105E100021FA04F74FEA1348B7FBF8FC1FFA83F99D
:105E200008FB1C7720FA04FE01FA06F509FB0CF4C6
:105E30004EEA05054FEA154E4EEA0747BC4202FA04
:105E400006F204D9FF180CF1FF3168D38C463F1BD2
:105E5000B7FBF8F408FB147709FB04F9ADB245EA87
:105E60000741894504D9C91804F1FF355DD32C4693
:105E700044EA0C44A4FB0223C9EB0101994249D333
:105E800045D0204600266BE7CCF1200405FA0CF53E
:105E900021FA04F32A0CB3FBF2F61FFA85FE02FB8B
:105EA000163820FA04F701FA0CF10EFB06F90F433D
:105EB0003C0C44EA0843994500FA0CF407D95B19F5
:105EC00006F1FF3138D2994536D9023E2B44C9EB51
:105ED0000303B3FBF2F002FB10330EFB00F1BFB281
:105EE00047EA0343994207D95B1900F1FF3721D2F2
:105EF00099421FD902382B441746591A40EA0646E0
:105F00004EE7104614E7134627E70B4670E7B0400C
:105F10009042B6D2601E002622E7304620E7BC42FF
:105F200094D9ACF1020C1F4491E789459FD9023CFA
:105F300019449DE73846DFE70E46C8E70238294492
:105F400041E700BF032A70B426D940EA01039B074A
:105F500011D004780D78AC4222D10244431C05E0F4
:105F600013F8014B11F8015FAC4219D19342F7D1FC
:105F7000002070BC70470C4603461E682568184612
:105F8000AE42214603F1040304F1040404D1043AAF
:105F9000032A18462146F0D8002ADAD11046E8E74D
:105FA000601B70BC704700BF844641EA000313F0D9
:105FB000030349D1403A23D30B6803604B68436025
:105FC0008B688360CB68C3600B6903614B69436175
:105FD0008B698361CB69C3610B6A03624B6A43625D
:105FE0008B6A8362CB6AC3620B6B03634B6B436345
:105FF0008B6B8363CB6BC36340304031403ADBD261
:1060000030320BD30B6803604B6843608B6883604E
:10601000CB68C36010301031103AF3D20C3205D384
:1060200051F8043B40F8043B043AF9D2043208D05A
:10603000D2071CBF11F8013B00F8013B01D30B88CC
:1060400003806046704700BF082A13D38B07B1D086
:1060500010F00303AED0C3F10403D21ADB071CBF58
:1060600011F8013B00F8013BA4D331F8023B20F8C2
:10607000023B9FE7043AD9D3013A11F8013B00F8FB
:10608000013BF9D20B7803704B7843708B788370A7
:106090006046704770B4840746D0541E002A41D031
:1060A000CDB2034602E0621EE4B3144603F8015B7E
:1060B0009A07F8D1032C2ED9CDB245EA05250F2C2D
:1060C00045EA054519D9264603F11002103E0F2E68
:1060D00042F8105C42F80C5C42F8085C42F8045C40
:1060E00002F11002F2D8A4F1100222F00F0204F023
:1060F0000F041032032C13440DD91E462246043AD5
:10610000032A46F8045BFAD8221F22F00302043265
:10611000134404F003042CB1C9B21C4403F8011B5E
:10612000A342FBD170BC704714460346C2E700BFD0
:10613000FEE708B5FCF7AAF873B506460024254625
:106140003046FCF7F7F900230193019BAB4203DAD9
:1061500000BF019B0133F7E73046FCF7F3F900235A
:106160000193019AC5F5C8739A4203DA00BF019BF7
:106170000133F5E70134B4F5487F05D0B4F5C87FA5
:10618000DDDDC4F54875DBE702B070BD70477047D0
:106190000020FCF7B5BB0120FCF7B2BBEFF3108089
:1061A00062B67047EFF3108072B670470020FCF7BC
:1061B00069BD0120FCF766BD0220FCF763BD03202A
:1061C000FCF760BD10B50C46FCF7AAFE2046BDE802
:1061D0001040FDF7E1B810B504460020E1B2FCF72D
:1061E000B9FC204610BD70B5054604464618601B34
:1061F00044B1237833B1B44204D018460134FFF7D8
:10620000EAFFF4E770BD38B50546002415F8010B28
:1062100020B1FFF7E0FF0134002DF7D10A20FFF78E
:10622000DAFF204638BD002070470120704710B5C6
:10623000044600210E203022FCF790FD84B1012C91
:106240000CD142F210730011A0F28E5058432A2351
:1062500090FBF3F000F5C340283010BD4FF0004034
:1062600010BD002070470120704710B50446002182
:106270000F203022FCF772FD5CB1012C07D140F6F3
:10628000F253584347F6F07390FBF3F010BD4FF014
:10629000004010BD08B51AB108461146FFF7A3FF2C
:1062A000002008BD10B5041F54F8040F18B10021D8
:1062B000FEF744FAF8E710BD10B5044600F012F8F6
:1062C0002046BDE81040FEF7D5B8C068B0FA80F0AF
:1062D00040097047837BDB0701D5FEF70DB9704796
:1062E000FFF755BF10B541600446FCF73BFA20604C
:1062F00010BD10B50446FCF735FA2368C3F101035D
:106300000344606898422CBF0020012010BD002388
:106310000360704700687047006800B97047036801
:106320000BB11846FBE77047036810B57BB100223C
:106330008B4207D10B680AB9036000E013600023A9
:106340000B6010BD1C681A460CB12346F0E710BD67
:1063500038B505460C46FFF7E7FF002323602846C3
:10636000FFF7DAFF08B92C6038BD046038BD00B112
:106370000068704710B50446002162884068FFF746
:1063800089FE23886288A06800215A43BDE8104036
:10639000FFF780BE8268914208D34388008800FBE3
:1063A000032081422CBF002001207047002070474D
:1063B0000023013A0160027143718371704710B587
:1063C000427983790479D31A2340A3421FBF03681B
:1063D000995443795A1C1FBF03791340437101201C
:1063E00008BF002010BD837942790179D21A0A4290
:1063F0001FBF0268D25C01330B401ABF8371104685
:106400004FF0FF307047FEF745BD7047F7B50F46B8
:10641000FEF72AFE03880446ADF80030BDF80060A0
:10642000FEF7EAFDB300023383420FD802340025A1
:10643000B5420BDA54F8040B01350190BDF8041095
:106440003846BDF80620FEF767FBF1E703B0F0BD64
:10645000FFF7D9BF831C0020023313F8042C1AB1B4
:1064600013F8032C1044F7E77047072B2DE9F84386
:106470000746884614461D4607DC084611461A465C
:10648000FEF756FC3870BDE8F8834FEAE309AAB17D
:10649000002608EB060021460822FEF749FCB85505
:1064A00001364E45F5D115F0070216D008EB06006F
:1064B0002146FEF73DFCB855BDE8F88318F80430D6
:1064C0003B5501344C45F9D115F0070205D008EBD6
:1064D00004000021FEF72CFC3855BDE8F8832DE9B7
:1064E000F341FEF7C1FD04460220FEF765FD08B941
:1064F000002044E06078237803EB002080B2FEF7B0
:10650000CFFC05460028F3D0FEF7AEFD8046287B81
:1065100010F0070318BF012303EBD000FEF74CFD7A
:106520000028E5D0AC680026023414F8023C2BB3F6
:10653000192B14F8017C08EBE60106F0070209D9D3
:1065400001A83B46FFF791FF14F8020C01A9FEF7E2
:1065500019FE10E00023ADF8043001A83B46FFF718
:1065600084FF9DF805109DF8043014F8020C43EAEE
:106570000121FEF7F9FD3E440234D6E7284602B079
:10658000BDE8F081C1F11001CB1A9A400378C2F343
:1065900007210B43037043781A4342707047072B5F
:1065A0002DE9F04780460C4617461D4601DC12785F
:1065B0002BE04FEAE30909B1002601E0084614E0A8
:1065C00008EB0600BA5D214608230136FFF7DAFF23
:1065D0004E45F5D115F007031BD0BA5DC3F1080095
:1065E0002044024108EB06000DE03B5C08F8003057
:1065F00001304845F9D115F007030AD03A5CC3F1E0
:1066000008010A4140440021D2B2BDE8F047FFF73B
:10661000B9BFBDE8F0872DE9F743047B054614F0C8
:10662000070318BF012303EBD404A01CFEF72EFDC3
:1066300098B3FEF7DDFCAB880370AB881B0A437090
:10664000FEF7D6FC871C224638460021FFF722FDC4
:10665000AC680025023414F8020CE8B1192814F8CB
:10666000016C07EBE50905F0070805D9FEF796FD73
:1066700041460246484609E0FEF77EFD8DF80400DB
:10668000000A8DF805004146484601AA3346FFF747
:1066900086FF35440234DEE7012003B0BDE8F08315
:1066A000FEF7EABB38B50D46FEF7FAFB044620B10B
:1066B00085602846FEF7DAFB207338BD10B5FEF77B
:1066C0007DFDFEF717FDFEF715FAFFF7E9FFBDE8C0
:1066D000104002204FF400714FF4F0524FF4E123C8
:1066E000FEF796BA0B880380704708B50222FFF7C1
:1066F00029FCB0FA80F0400908BD10B510B3037A48
:10670000022B07D1C4790379C4B1B3FA83F300240F
:106710005B0913E00378022B0ED003792BB9447A7E
:1067200014F0030418BF012400E00024C37913F01F
:10673000030318BF012301E000231C4601B10C60D4
:1067400002B1136010BD37B504460D460846062257
:106750000021FFF79FFC637DD9075CBF01232B70ED
:10676000237E012B0DD8E37D9A0708D0637E9B071B
:1067700005D0E28BA38B9A4201D1012300E00023D4
:10678000237504F11000694601AAFFF7B6FF009BCC
:106790000BB10223EB70019B0BB102236B70E37D05
:1067A00003F00303022B03D0032B0CBF08230023A9
:1067B000AB70637E03F00303022B03D0032B0CBFEB
:1067C000082300232B7103B030BD02280CBF022325
:1067D00008230B448B4205D013F8012DFF2AF9D072
:1067E000002070470120704707B56946FFF7ABFFEF
:1067F0009DF800009DF80130023018449DF80230E9
:106800009DF8032018449DF80430104403449DF87B
:106810000500184403B05DF804FB73B504460D464B
:106820006946FFF790FFA37C627C03F001031B0124
:1068300002F0010243EAC202237C03F0070342EAAA
:106840000301E37C03F0010341EA4312237D03F0DB
:10685000010342EA83132B70617D607EA27DE37D9C
:1068600001F0010102F0010241EA801003F003038C
:1068700040EA420141EA8302237E03F0030342EA35
:1068800003136B709DF80030012B02BFA37E03221F
:10689000AB709DF8013018BF0222022B08D1A18BEA
:1068A000531CA954A18BDBB20232090AD2B2E954BB
:1068B0009DF8026031469319DBB2581AC0B219B183
:1068C0000139635C2B54F6E79DF80320022A08D1B6
:1068D000E18B5A1CE954E18BD2B20233090ADBB2D4
:1068E000A9549DF8046032469819C0B2811AC9B201
:1068F00022B1013AA018007A6854F5E702B070BDE1
:1069000030B591B0FEF7B0FB0446FEF775FB6A4662
:1069100001462046FEF77EFC044610B94FF0FF30DA
:106920003BE0FEF749FB0028F8D014209DF810103A
:10693000FEF71AFC9DF81730ABB1BDF81C50FEF7FE
:1069400063FC854205D04FF6FF73BDF81C209A42C8
:10695000E4D19DF817006946FFF737FF18B91B20EF
:106960006946FEF70FFC02A91A20FEF70BFC132064
:106970009DF81210FEF7F8FB9DF815300A2013B9A8
:106980009DF81A1001E04FF6FF71FEF7EDFB0E20A7
:106990009DF81A10FEF7E8FB204611B030BD01202B
:1069A000FEF7F2BC0020FEF7EFBC10B5044630B194
:1069B000084611461A462346BDE81040184710BD48
:1069C00000207047704700207047FEF7C7BD70B5C4
:1069D00004460D4652B150681668FEF7FDFB20468E
:1069E0002946FEF713FE08B13246F3E770BDFEF705
:1069F0000DBE70472B6C200071252000CD25200096
:106A00000000000001000000010000000100000083
:106A100000C0004000410D400000000008000000E0
:106A20002C00000000000001FFFFFFFF0500000038
:106A300002000000020000000200000000D0004040
:106A400008410D4002000000080000002C0000007A
:106A500002010200FFFFFFFF06000000913420004A
:106A6000212F200099332000C5612000FD2F200038
:106A70005D332000B92E2000D12E2000E12E200011
:106A8000C1302000413220006D3120009D2F2000B8
:106A9000CD2F200007000000FF00000005000000CF
:106AA000ED00000003000000D50000000100000020
:106AB000C500000000000000B6000000FFFFFFFF5F
:106AC000B0000000FDFFFFFFA1000000FBFFFFFF83
:106AD00091000000F9FFFFFF88000000F7FFFFFFB3
:106AE00072000000F5FFFFFF62000000F3FFFFFFF0
:106AF00058000000F1FFFFFF42000000E8FFFFFF29
:106B0000000000008F6C20002F6220002762200010
:106B10002B622000A36C20006B62200063622000C7
:106B2000676220000D6420000B642000A14C20004F
:106B3000454C2000DF6420001766200055642000CB
:106B4000226F2000BD662000294F2000A56920008B
:106B50009F69200001692000276F2000C56920007F
:106B60002D55200039552000455520005155200055
:106B7000C169200004702000CB692000EF6920006B
:106B8000CF692000695520005D552000395720004D
:106B9000C7692000515720009957200061572000F5
:106BA0000C702000F36920001158200005582000C7
:106BB0003959200000000000C00000200000000043
:106BC0000000436F6E74696B692D616263633033DB
:106BD00064005A6F6C6572746961204669726566FB
:106BE0006C7920706C6174666F726D0052696D65AE
:106BF00020636F6E66696775726564207769746873
:106C000020616464726573732000253032783A0025
:106C1000253032780A00204E65743A2000204D411C
:106C2000433A2000205244433A2000427574746F66
:106C30006E002323232323232323232323232323FC
:106C400023232323232323232323232323204343D7
:106C5000323533385F494E544552525550542023F3
:106C600023232323232323232323232323232323F4
:106C70002323232323232323232323232300636387
:106C80003235333820524620647269766572004F7F
:106C90006E2D436869702054656D706572617475FE
:106CA000726500564444330030303030303030307C
:106CB00030303030303030303031323334353637B8
:106CC0003839414243444546003031323334353659
:106CD0003738396162636465660030780030580087
:106CE0002D002B00286E756C6C29002500202020BB
:106CF00020202020202020202020202020437469D4
:106D00006D65722070726F63657373004576656E92
:106D1000742074696D65720053657269616C2064DA
:106D200072697665720053656E736F72730000004E
:106D300025642E25643A206162633A206162635FB4
:106D400073656E64206F6E206368616E6E656C2083
:106D500025640A0025642E25643A206162633A2086
:106D60006162635F696E7075745F7061636B657497
:106D7000206F6E206368616E6E656C2025640A006A
:106D800025642E25643A206162633A206162635F64
:106D900073656E74206F6E206368616E6E656C2023
:106DA00025640A001A10000025642E25643A207319
:106DB000656E7420746F2025642E256420737461C1
:106DC000747573202564206E756D5F74782025645A
:106DD0000A0025642E25643A2062726F6164636143
:106DE00073743A2066726F6D2025642E25640A0044
:106DF00025642E25643A2062726F61646361737446
:106E00005F73656E640A000080C0E0F0F8FCFEFF6E
:106E100020283078253078292C200025642E256400
:106E20003A206368616D656C656F6E5F696E707541
:106E3000740A0025642E25643A206368616D656CD0
:106E4000656F6E5F696E707574206368616E6E65E4
:106E50006C2025640A0025642E25643A206368614D
:106E60006D656C656F6E5F696E70757420636861C7
:106E70006E6E656C206E6F7420666F756E64206632
:106E80006F7220696E636F6D696E67207061636BEE
:106E900065740A0025642E25643A206368616D6577
:106EA0006C656F6E5F6F7574707574206368616E6A
:106EB0006E656C2025640A0072696D653A20636F07
:106EC0006C6C6973696F6E206166746572202564ED
:106ED0002074780A0072696D653A206E6F61636B89
:106EE0002061667465722025642074780A007269D6
:106EF0006D653A2073656E74206166746572202535
:106F0000642074780A0072696D653A206572726F48
:106F1000722025642061667465722025642074786F
:106F20000A0052696D65006E756C6C6D6163006E70
:106F3000756C6C7264633A207061636B65745F6931
:106F40006E707574006E756C6C7264633A2069675C
:106F50006E6F7265642061636B006E756C6C726439
:106F6000633A206661696C656420746F2070617299
:106F700073652025750A006E756C6C7264633A2027
:106F80006E6F7420666F72207573006E756C6C7214
:106F900064633A2064726F70206475706C69636119
:106FA0007465206C696E6B206C617965722070610C
:106FB000636B65742025750A006E756C6C72646372
:106FC0003A204D41435F696E707574006E756C6C4C
:106FD0007264633A2073656E64206661696C6564EF
:106FE0002C20746F6F206C61726765206865616426
:106FF0006572006E756C6C726463207478206E6FBD
:1070000061636B006E756C6C726463006E756C6CA2
:107010007365630048656C6C6F004144445245538E
:10702000533A2025642025640A00434F554E5420CE
:107030003D2025640A00756E6963617374206D6577
:107040007373616765207265636569766564206640
:10705000726F6D2025642E25640A004578616D707D
:0B7060006C6520756E6963617374003D
:10706C00146B2000F4692000046B20000000000069
:10707C00000000007E6C2000713520000000000034
:10708C00956220000000000000000000FD6C200054
:10709C00F941200000000000000000000C6D2000F1
:1070AC00E14320000000000000000000186D2000EB
:1070BC00AD4720000000000000000000266D2000FD
:1070CC00454920000000000004000800260C0020A8
:1070DC008C040020BE0008001E0C0020E0040020E0
:1070EC00000000005B702000315820000000000000
:0370FC00CDAB1AFF
:0871000028E9FF7F01000000F7
:020000040027D3
:10FFD400FFFFFFF30000000000202000FFFFFFFFF1
:10FFE400FFFFFFFFFFFFFFFFFFFFFFFFFFFFFFFF1D
:0CFFF400FFFFFFFFFFFFFFFFFFFFFFFF0D
:040000050027FFD4FD
:00000001FF
