:020000040020DA
:10200000D04300208D2220004BD1200049D1200058
:1020100049D1200049D1200049D120000000000012
:1020200000000000000000000000000049D1200076
:1020300049D120000000000049D12000B1D120008A
:10204000D3D12000D9D12000DFD12000E5D120005C
:1020500000000000B7D12000BDD1200049D12000F0
:1020600049D1200000000000000000000000000036
:10207000000000000000000049D120000000000026
:10208000000000000000000049D1200049D12000DC
:1020900049D1200049D1200049D1200049D1200058
:1020A00049D1200049D1200049D1200049D1200048
:1020B00049D1200049D1200049D1200049D1200038
:1020C00049D1200049D1200049D1200049D1200028
:1020D00049D12000000000000000000000000000C6
:1020E00000000000000000000000000000000000F0
:1020F0000000000000000000493B2000593B200088
:1021000000000000000000000000000000000000CF
:1021100000000000000000000000000000000000BF
:1021200000000000000000000000000000000000AF
:10213000000000000000000000000000000000009F
:10214000000000000000000000000000000000008F
:10215000000000000000000000000000000000007F
:10216000000000000000000000000000000000006F
:10217000000000000000000000000000000000005F
:10218000000000000000000000000000000000004F
:10219000000000000000000000000000000000003F
:1021A000000000000000000000000000000000002F
:1021B000000000000000000000000000000000001F
:1021C000000000000000000000000000000000000F
:1021D00000000000000000000000000000000000FF
:1021E00000000000000000000000000000000000EF
:1021F00000000000000000000000000000000000DF
:1022000000000000000000000000000000000000CE
:1022100000000000000000000000000000000000BE
:1022200000000000000000000000000000000000AE
:10223000000000000000000000000000000000009E
:10224000000000000000000000000000000000008E
:10225000000000000000000000000000000000007E
:10226000000000000000000000000000000000006E
:1022700049D120003D3A2000553A20002533200066
:10228000B93C2000092D200049D1200008B5094B98
:10229000FF221A600848094A4824E3690849121ACB
:1022A00098470848084AA3690021121A984700F085
:1022B0000DF8FEE7B4200D40400000207C06002011
:1022C000C0F7200080060020CF3B00202DE9F0431E
:1022D00085B000F073FE00F017FF00F0B1FE00F0D3
:1022E00071FC01F0D7FC0BF02FF800F005FF00F0B7
:1022F000FBF820200AF02CFF02F0DEFA00F04AFE84
:10230000002000F05BFD012000F058FD6049002036
:1023100000F02AFE02F030FC0AF053FF08200AF019
:1023200017FF5C480AF082FF5B480AF07FFF00203D
:1023300002F044FC01F0A2FB0021584802F062FBCD
:1023400002F0FCF80AF030FF01F00EF801F02AF874
:10235000012000F07FFA09F033F8022000F07AFA49
:1023600009F02EF86846082101F0B8FC9DF8073006
:102370009DF806704A4C43EA07276B4603CB02AB35
:1023800083E803008022474E8DF8082020606160BA
:1023900003CB3060716044486D4601F0D9FC4FF0CA
:1023A000000814F80810414808F1010801F0D0FCB9
:1023B000B8F1070FF5D13A4B3D48D97901F0C8FC87
:1023C0003C4801F0C5FC4FF0000816F808103748EB
:1023D00008F1010801F0BCFCB8F1070FDFF8C49068
:1023E000F3D1354E99F80710314801F0B1FCF36A8A
:1023F0004AF6CD3102209847F36A394603209847C0
:10240000F36A1A210120984729460822736B0B2092
:1024100098472A4801F09CFC294B18680AF006FFEF
:10242000284801F095FC284B18680AF0FFFE274861
:1024300001F08EFC264B18680AF0F8FE254A236846
:10244000136063685360244AD9F800301360D9F8E8
:102450000430536009F016F92048002102F0D2FA46
:1024600000211F4802F0CEFA0AF044FF1D480AF08E
:1024700037FF00F095FD10200AF06AFE00F096FD8F
:1024800002F032FA10F0FF0FF8D101F09BFBF5E7F4
:10249000354B2000DCE92000ECE92000C4040020DA
:1024A000C73B0020BF3B002006EA200024EA2000B2
:1024B0002AEA200030EA20008C2C00205DEA20006F
:1024C00048E8200064EA200054E820006BEA20007D
:1024D0007CE82000542D00207C340020580500208A
:1024E000E404002000E9200008B500F019F8024BD0
:1024F00000221A7008BD00BF5A230020024A137838
:102500001843107000F014B85A230020034A1378BF
:1025100023EA0000107000F00BB800BF5A2300201F
:10252000024A136843F038031360704700C40D403B
:10253000014B1860704700BFE0C00D40034B002204
:102540001A60034B1B68002BFBD1704780A00D4025
:1025500020A00D40014BFF221A60704780A00D4063
:10256000054B1860054A1168C806FBD41168490775
:10257000FCD51868C0B27047088000400C8000404D
:1025800070B508B949BB00E00AB9012070BD99B91E
:1025900001460B1A934201DB002070BD184C00234A
:1025A0002360184B1D68EE06FBD41D686D07FCD533
:1025B000236801F8013BECE700239342ECDACC5CA2
:1025C0000F4D2C600F4C2668F606FBD42668760764
:1025D000FCD52C68C4540133EFE7002AD5D0084657
:1025E000431A9342D8DA10F8013B054C2360054B9F
:1025F0001D68EE06FBD41D686D07FCD52368EFE768
:10260000088000400C80004008B51A4A136823F087
:102610001003136052F8203C23F0100342F8203CD2
:1026200052F81C3C23F0100342F81C3C52F8183CB2
:1026300023F0100342F8183C0F4B1A6810B142F017
:10264000100201E022F010021A600C4A0421136803
:10265000012043F0100313600A4600F063FD0120DF
:1026600000F0CAFCBDE8084005480121042200F042
:10267000FBBC00BF20A40D400CA40D4010A40D40D5
:10268000A5D1200008B51A4A136823F0010313608E
:1026900052F8203C23F0010342F8203C52F81C3C45
:1026A00023F0010342F81C3C52F8183C23F00103CC
:1026B00042F8183C0F4B1A6810B142F0010201E0D9
:1026C00022F001021A600C4A00211368012043F035
:1026D00001031360042200F025FD012000F08CFCB2
:1026E000BDE8084005480121002200F0BDBC00BF44
:1026F00020A40D400CA40D4010A40D40A5D1200035
:1027000008B5074A04211368012043F01003136041
:102710000A4600F007FDBDE80840012000F06CBC4F
:1027200010A40D40024A136823F010031360704791
:1027300010A40D4008B5074A01201368002143F09A
:1027400001031360042200F0EDFCBDE80840012005
:1027500000F052BC10A40D40024A136823F001039C
:102760001360704710A40D40024B1868003018BF6A
:102770000120704740A00D40014B1868704700BF12
:1027800004A00D4010B51B4A02201368072123F056
:102790008003136052F8203CFF2443F0800342F88A
:1027A000203C082200F0BEFC134B05211C600120D8
:1027B00000F058FD002000F0D5FC104A136823F00B
:1027C000100313600E4B1968A3F5607321F010011C
:1027D000C3F88013116821F001011160D3F8802340
:1027E00022F00102C3F880231C60064B1B68002BFB
:1027F000FBD010BD20B40D4000B20D4020A40D4010
:1028000000A40D4020A00D4070B50E4D0E4B2C467F
:102810000E4E01221A600FCC0FC60FCC0FC60FCC84
:102820000FC694E8030086E803000FCD084E0FC6DC
:102830000FCD0FC60FCD0FC694E8030086E8030046
:1028400070BD00BFC8E82000A4060020C42C0020F2
:102850008C2C0020012870B502D1FFF7D5FF1DE0B8
:1028600002281BD10E4B0F4D0F4C00221A600FCCCB
:102870000FC50FCC0FC50FCC0FC594E8030085E83A
:1028800003000A4DA4F130060FCE0FC50FCE0FC5C1
:102890000FCE0FC594E8030085E80300012070BD4A
:1028A000A4060020C42C002080E720008C2C0020EF
:1028B00038B50588044615B1892D0ED019E0FFF70B
:1028C000A3FF0F4B2946186807F004F80D480121B3
:1028D0000AF011FD892323800FE00A480AF026FD43
:1028E00058B10220FFF7B6FF054B0021186806F02B
:1028F000F1FF00232380032038BD012038BD00BF35
:10290000900600209406002038B50588044615B1CD
:10291000982D0CD015E0FFF777FF284606F0AAFFA8
:102920000B4801210AF0E7FC982323800DE00848BA
:102930000AF0FCFC48B10220FFF78CFF002006F0F3
:1029400099FF00232380032038BD012038BD00BF3C
:10295000A8060020044B186818B1431E584258417D
:1029600070470220704700BFA4060020012802D152
:10297000044B18607047022803BF024B1860012007
:102980000020704788040020024B1868012818BFF7
:102990000220704788040020012810B5084C02D19D
:1029A000FFF732FF08E0022804D0FFF72DFF236A6B
:1029B00098470220FFF74EFF236A9847012010BD79
:1029C0008C2C0020012810B5084C02D1FFF71CFF09
:1029D00008E0022804D0FFF717FF636A9847022037
:1029E000FFF738FF636A9847012010BD8C2C002048
:1029F00008B5044B00211860034802F003F80120D9
:102A000008BD00BF900600206804002008B50348F8
:102A1000002101F0F7FF012008BD00BF780400206D
:102A200020B1012805D1044B18787047034B186872
:102A300070470020704700BF5B23002020900D40AE
:102A400010B5094A0020137801331370074B197829
:102A500001F0ACFFBDE81040054B06481968064A76
:102A6000002301F0A1BD00BF5B230020C23900207C
:102A7000E0060020B8060020412A2000812810B579
:102A80000C462AD0B0F5807F39D0802839D101F0AA
:102A90000BFF1D4B1D4A18701368002023F008031C
:102AA000136052F8203C032123F0080342F8203C35
:102AB00052F81C3C23F0080342F81C3C52F8183C26
:102AC00043F0080342F8183C042200F02BFB1048A6
:102AD0000021032200F0C8FA13E00E4B1A6831B14E
:102AE00042F008021A60002000F086FA05E022F0A9
:102AF00008021A60084600F08BFA204610BD064B0B
:102B00001960012010BD00BFC239002020940D4083
:102B10001D2B200010940D40E006002008B50F4842
:102B20000AF035FCC0B108210C480AF01EFC0C4B21
:102B3000196861B10B4B00221A700B4B0B481B68D4
:102B40001BB90B4A01F030FD01E001F06FFDBDE85B
:102B50000840084802F0D8B808BD00BFD8060020D9
:102B6000E00600205B23002020900D40B8060020E6
:102B7000412A2000E8E62000F8B500F083F80F4B6A
:102B80000024D3E900673A46B04238BF7A1C1546A4
:102B90000443C3E90045DFF828E0DEE90001821BB9
:102BA00061EB070312196B41CEE9002301F0E6FD4A
:102BB00018B1BDE8F84001F071BDF8BD80060020F5
:102BC000880600200F4B104A1A6053F8042C42F07C
:102BD000050243F8042C53F8042C42F0020243F897
:102BE000042C0A4A136843F001031360084B0022C7
:102BF0001A60042243F80C2C012243F8082C0F22FF
:102C0000DA62704714E000E047E8010008200D4058
:102C10000C000340034BD3E90023100A40EA036091
:102C2000704700BF80060020034BD3E90023D00B80
:102C300040EA4340704700BF88060020054B1860FB
:102C40001C3B1A6842F001021A601A68D207FCD4D1
:102C5000704700BF2800034010B5064C236823F0DE
:102C600001032360FFF788FF236843F0010323601B
:102C700010BD00BF10E000E0014B1868704700BFB6
:102C8000E4060020074B084A196804331B681268E1
:102C9000120442EA0323054A0B43106843EA00602A
:102CA000704700BF40500D4048500D404C500D4003
:102CB00010B50446114B1B68DB07FBD50AF085FAFB
:102CC000FFF7E0FF231A062BD8BFC41D0C4B220EC2
:102CD0001A60C4F3074243F8042CC4F3072243F8F4
:102CE000082CE2B243F80C2C0AF06BFA054B912049
:102CF0001C60BDE8104000F07FB900BF50500D408F
:102D00004C500D40E406002008B500F041FF064B92
:102D1000002291201A6000F087F9912000F078F9E4
:102D2000BDE8084001F096BEE40600200023084AF2
:102D30001068084A9958084205D01A44D268906928
:102D400010F0800003D02C33582BF0D101207047B5
:102D500028200D40F8E62000164A38B52C2303FB46
:102D600000234FF6BF72DC680546236C62649BB299
:102D700013F050020DD0A369DB0609D40E4B53F8B3
:102D800025301BB12068C0B29847F4E72368F2E70A
:102D900038BD13F4D06F0BD04FF440732363FF237F
:102DA0006360E36AE262E362236B43F0010323633F
:102DB00038BD00BFF8E62000E80600202DE9F04FFE
:102DC000012885B0064600F2BF802C244443604BA6
:102DD0001D1995F920A005F12007BAF1000F9946B9
:102DE000C0F2B28095F92230002BC0F2AD80594874
:102DF00000F040FF584A59F804301168EC680B4362
:102E0000136051686B6895F921B00B43536091686A
:102E1000AB6895F822800B4393600023C4F8C83F49
:102E20002B690BEBCA021A6095F823305FFA88FC15
:102E300001939DF80430604619462A7DCDF80CC0F8
:102E4000029300F079F9029BDDF80CC01946604648
:102E5000082200F067F94FFA88F840494FEA08382D
:102E60009DF9042058F80100012303FA02F20243FD
:102E700048F801204FEA0A3A5AF8010003FA0BF227
:102E800002434AF801205022A263A26B95F8240065
:102E900042F4D062A263022262634FF44072226362
:102EA000AA696262EA69A2627022E26242B2002A00
:102EB0000C4614DB95F92510294D41EAC201296021
:102EC0007979120315594FB2BB402B43135100229D
:102ED00000F028F9234A136843F4004313602C23BD
:102EE00003FB069393F8265020336FB2002F1CDBB0
:102EF00093F807A0EDB25FFA8AF82846414601220E
:102F00003F0300F019F94FFA8AFA3A59012303FAFC
:102F10000AF313433B5108222846414600F002F9C8
:102F2000104A136843F4804313602C2303FB069676
:102F3000F26896F82800136B43F00103136305B0A1
:102F4000BDE8F04F00F058B805B0BDE8F08F00BF05
:102F5000F8E620002D2D200028200D4020940D4063
:102F600004410D4030D0004001289CBF014B43F884
:102F700020107047E8060020012808D8044B2C22B6
:102F800002FB0030C3689A699206FCD4196070474E
:102F9000F8E62000014B00221A60704700500D40F7
:102FA000014B08221A60704700500D40024BA022CE
:102FB0001A6050221A60704700500D40074A084BB3
:102FC0001A60084B80321A60074B80321A60074B38
:102FD00080321A60064B074A1A60704700E100E031
:102FE000FC060020F0060020F4060020F806002071
:102FF00008ED00E000202000044B41091A6800F0B1
:103000001F000123834042F821307047FC06002056
:10301000044B41091A6800F01F000123834042F865
:1030200021307047F0060020044B41091A6800F077
:103030001F000123834042F821307047F80600202A
:10304000054A064B1A60064B1A68064B1340B3F14B
:10305000807FF8D1704700BF0101020100200D40C0
:1030600004200D4000000101024B02EBC10243F8B5
:103070002200704700070020F8B507460E46094DAC
:10308000002405EB411547FA04F3DB07E1B204D550
:1030900055F824300BB1304698470134082CF2D152
:1030A000F8BD00BF000700202DE9F04780464FEA39
:1030B0000837DFF8409007F1804505F5592500F005
:1030C00067FDD5F8186457F809404FEAC80A24FA92
:1030D0000AF446EA0400E4B2C0B24146F6B204FA89
:1030E0000AF4FFF7C9FFC5F81C6447F80940BDE8BA
:1030F000F08700BF18970D4002480021802209F098
:10310000B5BF00BF00070020034A044B1A60044B00
:10311000803A1A60704700BF80400D40840700204D
:1031200080070020034B01EBC0011B6843F82120FE
:10313000704700BF84070020034B01EBC0011B68F0
:1031400043F82120704700BF8007002001289FBF5F
:10315000034901230A6883409CBF13430B607047F7
:1031600018200D402DE9F04F012887B0044671D892
:1031700018235C43394D2E1996F811804FFA88FCBC
:10318000BCF1000FCDF814C064DBFFF7DFFFB37CA8
:103190002D5900275FFA83FB5FFA88F86F6040467D
:1031A0005946327AC5F8C87F0493FFF7C5FFF47C0F
:1031B000327BE3B20093337D009801939DF8043095
:1031C00064B219460293FFF7B7FF96F815A096F878
:1031D000169072684FFA8AF34FFA89F101EBC30037
:1031E000DDF814C0106003931D4A049B4FEA0C3CA9
:1031F0005CF802004FFA83FE012303FA0EFE40EA58
:103200000E004CF8020024039DF9040054F802E07B
:1032100003FA00F04EEA0000A05003988B40000330
:10322000845859462343835040463A46FFF77AFF75
:10323000009802993A46FFF775FF504649463A46CC
:10324000FFF770FF337C2B61C7232B606B6843F063
:1032500002036B6007B0BDE8F08F00BF50E72000AD
:1032600020940D4038B50B4A0403A35801258D4026
:1032700023EA0503A3500022FFF754FF064AA35890
:103280002B43A35004F1804404F55924FF2344F850
:10329000253038BD20940D4000940D400E2870B5A7
:1032A0000BD1164B164E1C6844F002051D603568A4
:1032B00025F03F0343F001033360124E336823F0DF
:1032C000FF031A431143014331600F4B1B681B0678
:1032D000FBD50E4B0E4A1B6812680E2803F0FC0348
:1032E00043EA022308BF064A9BB204BF1560034AA3
:1032F0009BB208BF146018B270BD00BF3400014417
:10330000F486084008700D4000700D400C700D40B0
:1033100010700D40024B1868B0FA80F040097047F9
:1033200000B7084010B58F20064CFFF77DFE8F20B8
:10333000FFF76EFE206818B101F07CFB00232360CC
:1033400010BD00BF88070020064A136843F002033F
:103350001360536843F002035360936843F0020321
:103360009360704748200D4007B50C4800F082FC80
:10337000FFF7EAFF0A4B1A6842F002021A600022C5
:103380000192019A0F2A02DC019A0132F8E71A68C9
:1033900022F002021A6003B05DF804FB153320002E
:1033A00054200D40064A136823F00203136053684B
:1033B00023F002035360936823F002039360704785
:1033C00048200D40084B93F90020002A09DB074AEA
:1033D000ED2111601160E32111601A7862F07F0223
:1033E0001A700120704700BF5C2300203888084015
:1033F000094B1B689B07FBD4084BED221A601A602F
:10340000074A12680AB1EF221A60064A01201378AF
:1034100003F07F03137070474C86084038880840DB
:103420002C8608405C23002038B5A0F10B04E3B2E1
:103430000F2B054613D80B4B1B6813F03F0302D02C
:10344000FFF7D6FF012304EB8404074A0B34146012
:103450000BB1FFF7B7FF054BE8B21D7000E0FF208E
:1034600040B238BD488608403C8608407A060020B5
:1034700010B50B4B1B68990603D1FFF7A3FF01237F
:1034800000E00023074A1268D207FBD5064A1468F9
:10349000C4F300140BB1FFF7ABFF204610BD00BF13
:1034A00048860840648608404C860840044B1868EB
:1034B00000F02200A0F1200358425841704700BF9D
:1034C0004C860840024B186800F04000704700BF6F
:1034D0004C86084038B50C4600296ED010286ED8AE
:1034E000DFE800F0090F1A1C236D3344496D6D6D40
:1034F0006D6062646900334B1B68003318BF0123A1
:1035000056E0314B05221B6803F07F030B3B93FB16
:10351000F2F30B33DBB24BE02C4B00E02C4B1A6880
:10352000043B1B6843EA022342E02A4B0020086068
:103530001A68243302F001020A601B6813F02003AA
:1035400037D042F002020A6038BD234B1A680023CC
:10355000D2B2224901EBC3000079904202D851F85F
:10356000333025E001330E2BF3D11FE01C4B1B68D9
:103570005BB2493B1CE01B4B1B68990603D1FFF76C
:1035800021FF012300E00023174A1268D207FBD570
:10359000164A1568493DEDB20BB1FFF729FF6DB230
:1035A000256006E00B2303E01A2301E06FF0170308
:1035B0002360002038BD0723FAE7022038BD012030
:1035C00038BD00BF2C8608403C860840CC850840AA
:1035D000D48508400086084040860840B8E72000AF
:1035E000588608404886084064860840608608403F
:1035F00038B505460C46134B1B689B07FBD4124B92
:1036000093F90030002B01DBFFF7DCFE0F4BEE22BD
:103610001A60691E1A60A21C43F8102C2144022073
:1036200000F044FA013C0A4924012143022000F041
:103630004FFA022000F056FA022000F06BFA002048
:1036400038BD00BF4C8608405C2300203888084005
:1036500002C001C0F8B51F4B93F90030002B0DDB01
:10366000FFF710FB0446FFF7ADFEFFF70BFB6FF013
:1036700009031B1BC342F8D4012600E00026FFF714
:10368000F7FE18B3144C236899061FD4134DE92391
:103690002B60042723689A0707D4013F17F0FF0720
:1036A00003D00620FFF7CAFAF4E723689B0704D487
:1036B000EE232B6001242B6004E0206810F0020050
:1036C000FBD1044626B1FFF793FE01E00220F8BDCE
:1036D0002046F8BD5C2300204C860840388808400E
:1036E000044B1A6810B142F0010201E022F001021D
:1036F0001A6070470086084038B50C46072855D830
:10370000DFE800F0040F1B1F26543B4F012903D1B3
:10371000FFF758FE002038BD002949D1FFF768FEA9
:10372000F8E7A1F10B030F2B42D8C8B2FFF77CFEDC
:10373000431C0CBF0320002038BD8CB2E2B21D4BED
:1037400002E08CB21C4BE2B2240A1A605C60E1E732
:1037500031F003052CD101F00100FFF7C1FF174B39
:1037600014F002001A681BBF284642F0200222F023
:1037700020021A6008BF1A6038BD01F118031F2B20
:1037800016D80D230E49DA0051F83300844204DCC8
:103790008B181A790B4B1A60BCE713F1FF33F1D287
:1037A000B8E7CCB2084B49341C60B3E7012038BD00
:1037B000022038BDC8850840D085084024860840CE
:1037C000B8E7200040860840588608400B280DD1F5
:1037D000082A0DD161B1074B013953F8042D01F8C6
:1037E000012F054A9342F8D100207047012070470D
:1037F00002207047C8850840A88508400B280DD1D5
:10380000082A0DD161B1074B083111F8012D43F899
:10381000042F054A9342F8D10020704701207047D9
:1038200002207047A4850840C485084070B52B4E1F
:10383000336813F0400308D0294D2B68DCB21B0617
:1038400005D5284BED221A601A60002070BD042CAB
:10385000F7D9023C8C42F4DCE4B2032C1BD00119F2
:103860000139032000F02AF9631E1F491B010320C0
:10387000194300F02DF9032000F034F9032000F083
:1038800049F9032000F052F90028FAD129682D687F
:103890002806D6D506E02B6803702B6843702B688A
:1038A0008370F3E7493949B289B2042007F0C0FEBA
:1038B000032005F07F0107F0BBFE33685A060BD5E5
:1038C000064B1B681B0603D5084801F0B3F803E05C
:1038D000044BED221A601A60204670BD4C860840E9
:1038E000288808403888084002C0010C9C04002049
:1038F000F8B52B4E357815F001054ED1294B012432
:103900001C605C609C60A3F59323A3F51473F822FC
:103910001A600922C3F89021152270331A6003F54A
:103920009B230B2203F59E731A60A3F59B23A3F53B
:10393000F07340221A601A687F2742F020021A6052
:10394000D52243F81C5CDF62DA61174B1878FFF769
:103950006BFD164A8D20136843F004031360FFF7D4
:103960004BFB134B8E201F60FFF746FB022000F03D
:10397000C5F81049022000F0A1F8032000F0BEF8BD
:1039800003200C4900F092F80B48294601F03AF860
:103990003378204623433370F8BD0020F8BD00BFC4
:1039A0005C230020A8200D407A0600208C86084069
:1039B00094860840288808409C04002038B5038875
:1039C00004460BB3B3F5717F03D0002303800320BB
:1039D00038BD82291BD107F0D1FD07F065FD80219C
:1039E000FFF724FF051E0BDD0220FEF7BFFF0F4887
:1039F00009F01CFCA8B207F015FD0D4B1B69984798
:103A00000C4B1A78520604D44FF4717323800120B2
:103A100038BD00221A70084B1D68FFF7E9FCFFF75C
:103A200067FFAB06F0D0FFF7CDFCEDE794EA20008E
:103A30007CE820005C2300204886084008B5034845
:103A400000F0F8FF024B00221A6008BD9C04002021
:103A500034880840064B07481A68042A1FBF0649E5
:103A60000A7842F040020A7000221A6000F0E2BFB9
:103A70002C8808409C0400205C23002010B5094CD1
:103A800000212046402209F0F1FA074B01221A607A
:103A90002E205C60FFF7B0FABDE810402F20FFF742
:103AA000ABBA00BF0000002004F00F4003289EBF07
:103AB000014B0001195070470000002003289EBFF1
:103AC000024B03EB00104160704700BF0000002074
:103AD00003289EBF024B03EB00108160704700BFBC
:103AE0000000002003289FBF034901230A68834088
:103AF0009CBF13430B60704728F00F4003289FBF03
:103B0000034901230A6883409CBF13430B6070473D
:103B100020F00F4003289FBF034901230A68834018
:103B20009CBF13430B60704714F00F4003289FBFE6
:103B3000044B03EB0010806800F0070088BF0020F2
:103B4000704700BF00000020024B4FF0FF321A60A8
:103B5000704700BF04F50F40014B01221A60704707
:103B60004CF00F40094B1A6812F4801F1A46F9D125
:103B7000043B196821F4803119601168C903FCD431
:103B80001A6842F400321A60704700BF04200D40EA
:103B900010B50A4B1A681C4612F0030F0CD0084BE4
:103BA0001A685101FBD41A685201FCD5FFF754F88A
:103BB000FFF7D8FF0023236010BD00BF58200D4041
:103BC00004200D4038B5254B1C6814F03F0413D178
:103BD000234B53F8243023B1984768B10134052CA6
:103BE000F6D1204D2B783BB1FFF746F80446FFF79E
:103BF00049F8201A092801D830BF38BD002CFBD065
:103C0000194B1A6822F400321A60184A1168C90266
:103C1000FBD4196841F4803119601368DB03FCD5CB
:103C2000FFF730F8201A092803D8BDE83840FFF71D
:103C300099BF63280E4C02D92B78022B00D00123A8
:103C4000236000F0A9FE20B1FFF78CFF0023236062
:103C500038BDFFF711F80028CED1F5E748860840B7
:103C60008C0700205D23002000200D4004200D4023
:103C700058200D400023064A52F82310814206D0F6
:103C800011B942F8230070470133052BF3D1704777
:103C90008C070020054B00221A60054A136843F088
:103CA00004031360034B01221A70704758200D4023
:103CB00010ED00E05D23002010B59020064CFFF7CA
:103CC000B3F99020FFF7A4F9206818B100F0B2FE14
:103CD0000023236010BD00BFA007002030B5184BA3
:103CE0001A78431E3AB9174A1278122A03D1164A93
:103CF00012784B2A03D001F52011273117E04A082A
:103D000002F12814B4F1281F04D014F8015D03F85F
:103D1000015FF7E701F5201127310023934205DA0F
:103D200011F801598418E5540133F7E730BD074A0B
:103D3000914204D011F8012903F8012FF7E730BDB3
:103D40002B0028002A00280029002800270028002E
:103D50000FB407B504AA52F8041B0448019200F0FE
:103D600039F803B05DF804EB04B07047AC040020F0
:103D70000EB43FB5094B07AA52F8041B01900493F7
:103D800004A801AB0392059300F024F8019B0022E4
:103D90001A7006B05DF804EB03B07047CBD2200078
:103DA00070B505460C46102C07D92B686868084981
:103DB0001022984750B9103CF5E734B12B68686879
:103DC0002246BDE8704002491847204670BD00BF3A
:103DD0004FEB20002DE9F04F80468FB006910792FF
:103DE0000026069B1B78002B00F05F83069B1C4679
:103DF00013F8012B1AB9069B9C4203D10FE0252A28
:103E0000F5D1F8E7069BD8F80400E51A0699D8F82A
:103E100000302A469847002840F02A832E44237811
:103E2000002B00F042836378611C002B00F03D837F
:103E300000240A4611F8013B2B2B11D006D8202B69
:103E400011D0232B12D144F00804F2E72D2B04D01B
:103E5000302B0BD144F01004EBE744F00104E8E709
:103E600044F00604E5E744F00204E2E7A3F131017F
:103E700008290DD8134600251A4613F8011BA1F195
:103E80003000092811D80A2202FB0515303DF3E75E
:103E90002A2B09D1079B01321D68191D002D07919E
:103EA000B8BF44F0010400E0002513782E2B1CD18C
:103EB0005178531CA1F1300009280ED8194600276B
:103EC0000A780B46A2F13000092801F101010FD850
:103ED0000A2303FB0727303FF2E72A2906D1931C68
:103EE000079A111D0791176802E013464FF0FF373C
:103EF0001A786C2A09D15A786C2A02D144F08004CD
:103F00000AE0013344F060040BE0682A09D15A78D2
:103F1000682A03D144F02004023302E0013344F064
:103F200040041A78642A3CD01FD8462A48D00DD8BD
:103F3000252A5AD003D8002A00F0B78257E0412A38
:103F40004AD0452A53D144F4424450E0582A31D053
:103F500004D8472A4BD144F4A13448E0612A38D030
:103F6000632A44D144F4A06441E06E2A3AD007D8D1
:103F7000662A22D027D3672A28D0692A11D036E0B2
:103F8000732A2CD006D86F2A11D0702A2FD144F46E
:103F900040742CE0752A07D0782A28D144F4C854FC
:103FA00025E044F4245422E044F410641FE044F477
:103FB00088541CE044F4B24419E044F4007416E060
:103FC00044F4844413E044F4024410E044F48134A3
:103FD0000DE044F4C1340AE044F4E13407E044F471
:103FE000806404E044F4E06401E044F4C06401331C
:103FF000069304F4E063B3F5806F00F0AA8116D84D
:10400000B3F5807F2BD0B3F5407F7FF4EAAE079BFA
:10401000A04914F4804F03F104029F4818BF0846DA
:104020000DF1330107920F461A680023C5E1B3F57D
:10403000C06F08D0B3F5E06F00F03182B3F5A06F28
:104040007FF4CFAE00E2D8F80030D8F804009349EE
:1040500001229847002840F00B820136C1E6002F6C
:10406000ACBF24F01004012714F40053039304F0B0
:10407000E00337D0402B17D008D8DBB1202B2AD152
:10408000079B1A1D079293F9002017E0602B11D0AF
:10409000802B20D1079B073323F0070303F108028D
:1040A0000792D3E900230AE0079B1A1D0792B3F990
:1040B000002003E0079B1A1D07921A68D317002AF5
:1040C00073F1000109DA524263EB4303CDE90023A7
:1040D0004FF0010933E000220023CDE900234FF027
:1040E00000092CE0402B16D007D8CBB1202B20D1D3
:1040F000079B1A1D07921A78EEE7602B10D0802BD1
:1041000017D1079B073323F0070303F10802079237
:10411000D3E90023E1E7079B1A1D07921A88DBE722
:10412000079B00211A1D07921B681846CDE9000164
:10413000D5E700220023CDE900234FF0000904F465
:10414000C053B3F5805F0CD0B3F5C05F33D0B3F587
:10415000006F4FD1DDE900230DF1360ACDE90423CC
:1041600004E0DDE900230DF1360A15E0DDE9042362
:1041700013433AD0DDE904010A22002308F092FB40
:10418000DDE9040130320AF8012D00230A2208F08B
:1041900089FBCDE90401E9E752EA030125D002F0E9
:1041A000070130310AF8011DD10841EA4371D808EE
:1041B0000A460346F0E7384B14F4804F0DF1360AF7
:1041C000344908BF1946DDE9002352EA03000CD048
:1041D00002F00F00085C4FEA131E0AF8010D1009E7
:1041E00040EA037002467346EFE70DF1360BCAEB67
:1041F0000B0B03E00DF1360A4FF0000B41F60802FD
:1042000041F208035F4502EA04028CBFCBEB0707CB
:1042100000279A4202D1002F08BF012741F608016A
:104220008A4207EB0B030DD1DDE9000150EA0102E0
:1042300008D01B4914F4804F1A4A4FF0020C18BFE3
:104240000A4602E04FF0000C62460399A1B1B9F1B1
:10425000000F0AD104F0060102290AD006291249EA
:1042600004BF4FF0010C0A4606E04FF0010C0F4A64
:1042700002E00F4A4FF0010C63449D428CBFED1ADF
:10428000002514F0010922D1E30613D52F444D4631
:104290001DE000BF1AEB20002BEB20004DEB2000AF
:1042A0003FEB20003CEB200044EB200042EB2000E1
:1042B00069EA200040462946CDF80CC00092FFF77D
:1042C0006FFD009ADDF80CC0002840F0D180BCF1F1
:1042D000000F0DD01146D8F800306246D8F804001F
:1042E000CDF800C09847DDF800C0002840F0C0803D
:1042F0003C465E44102CD8F800300DD9D8F80400A4
:104300006C491022CDF800C09847002840F0B080DA
:10431000103CDDF800C0EDE75CB1D8F80400654959
:104320002246CDF800C09847DDF800C0002840F0D4
:104330009F80D8F80030D8F8040051465A466644A9
:104340009847002840F094803E44B9F1000F79D09E
:1043500073E0079BD3F800A01A1D0792BAF1000F73
:1043600009D05346994699F800200133002AF9D123
:10437000CAEB090903E0DFF840A14FF00609002F5E
:1043800002DBB94528BFB9464D458CBFC9EB0505D1
:10439000002514F0010405D140462946FFF700FD31
:1043A000002865D1D8F80030D8F8040051464A46B4
:1043B000984700285CD14E443EE052EA030E0ED0EE
:1043C00002F00F0E10F80EE04FEA131C01F801ED99
:1043D0004FEA121E4EEA037E72466346EDE70B4635
:1043E0007F1A01BF3022012701F1FF3301F8012CB0
:1043F00003377822BD4203F8012C4FF0300203F856
:10440000022C88BFED1B4FF0230298BF002514F04B
:104410000104A3F1030903F8032C04D14046294603
:10442000FFF7BEFC20BBD8F80030D8F8040049469E
:104430003A469847E0B93E4424B140462946FFF742
:10444000AFFCA8B92E44CCE4079B012D03F1040274
:104450001B688CBF05F1FF35002514F0010407929D
:104460008DF8203008D140462946FFF799FC10B15D
:104470004FF0FF301AE02E44D8F80030D8F804008E
:1044800008A9012298470028F2D16F1C2CB14046A0
:104490002946FFF785FC0028EAD13E44A1E4079BAA
:1044A0001A1D1B6807921E609BE430460FB0BDE8E2
:1044B000F08F00BF0AEB200046EB2000F8B5038820
:1044C000064615462BB14A2B15D000230380032046
:1044D000F8BD174808F06CFF04462CB1201DA168F8
:1044E00008F009FF2468F8E7124B01221A704A23EA
:1044F00033800120F8BD8829FBD10D4808F058FF12
:104500000446002CF3D0231D9D420ED108482146BD
:1045100008F058FF084B62691F681A60A2691D46BF
:104520000AB1E06990472F60E1E72468E9E700BF3E
:10453000A40700205E230020B807002010B5064B1A
:10454000002406481C7008F030FF2146BDE81040EA
:10455000034800F057BA00BF5E230020A4070020E4
:10456000B404002070B50446E3610B4B049D1B7836
:104570006561A26143B1094D094B2E68201D2B6076
:1045800008F0B9FE2E6000E0A1602146BDE8704051
:10459000044808F02BBF00BF5E230020B8070020AE
:1045A000B4040020A407002013B5034C2468009431
:1045B000FFF7D8FF02B010BDB807002070B5094B57
:1045C00005461B783BB1084C084B26680430236035
:1045D00008F09AFE26602946BDE87040044808F0BD
:1045E00005BF00BF5E230020B8070020B4040020F0
:1045F000A407002070B5094B05461B783BB1084C59
:10460000084B26680430236008F087FE26602946A0
:10461000BDE87040044808F0E9BE00BF5E230020FA
:10462000B8070020B4040020A407002010B5084BF0
:1046300004461B781BB1043000F0A8F801E0C36009
:1046400003612146BDE81040024808F0BBBE00BF30
:104650005E230020A407002010B50E4C236813B978
:104660000D4A136010BDFEF7D5FA216891E80C00E1
:104670001A44131A8A6842B192E812002144091AB6
:104680008B4228BF0B469268F5E71844024B18602E
:1046900010BD00BFA8070020AC070020014800F0B3
:1046A000C9B900BFC4040020F8B5038805462BB182
:1046B000592B09D0002303800320F8BD1E4A136044
:1046C00059232B800120F8BD872920D08229F7D1DA
:1046D000194F00263C68002CF2D0204608F057FE07
:1046E00090B1E0688821224600F060F950B9E0609E
:1046F000A3680EB1B36000E03B600023A360FFF746
:10470000ABFFE5E7FFF7CAFF2646A468E3E70A49DF
:104710000B680BB90B60D3E7D868904201D19B6856
:10472000F7E70B6099680029CAD0C86890420ABFB1
:1047300089680B469960F5E7A807002010B5044684
:10474000FFF7ACFFE3680B4A4BB113683BB1A342E0
:1047500003D1094A1268DA6007E09B68F6E7064B66
:104760001B68E36013681460A360BDE81040FFF7A6
:1047700073BF00BFA8070020B8070020024B1868CD
:10478000003018BF01207047A807002010B50B4A61
:1047900004461368984206D18368136008E09A685B
:1047A000A24203D01346002BF9D103E0A2689A601D
:1047B000FFF752FF0023A360E36010BDA8070020AD
:1047C00038B5836804460D469BB10A480460022050
:1047D000A07304F10C0098470238012801D9832DF9
:1047E00005D120462146BDE8384000F005B8012338
:1047F000A37338BDB80700202DE9F8431C4A0446CE
:10480000156889462B4690461A4E3768A34204D055
:104810000BB11B68FAE7BDE8F88334B3A37BABB1F7
:104820000023A37345B1AC4204D028468721224619
:1048300008F084FD2D68F5E7A3683BB14C4505D031
:10484000346004F10C0083212A469847D8F80030E0
:104850009C4203D12268064B05E0134623B11A6837
:10486000A242FAD122681A603760BDE8F88300BF1F
:10487000BC070020B807002010B5094B00221A70B1
:10488000084B1C685CB1E37B3BB101230022A3739E
:10489000E27320468221FFF793FF2468F2E710BD00
:1048A00062230020BC070020024B1878421C1A70BB
:1048B000704700BF63230020064B8A221A70064A05
:1048C00000231370054A1370054A1360054A1360EC
:1048D000704700BF632300205F2300206123002076
:1048E000BC070020B80700202DE9F041214E3378A5
:1048F0000BB1FFF7C1FF204D2C78002C34D0DFF82E
:104900008CE00C229EF800301C495A4388181C4F3A
:10491000895CDFF87C804268DFF878C0806801330A
:1049200003F01F03013C3970C8F80020CCF80000E8
:104930008EF800302C7088B9124C134B1B68236022
:1049400023688BB133780BB1FFF796FF2068397875
:10495000D8F8002008F0F2FC2368EFE7812904BFB3
:104960000123837308F0EAFC337828781844BDE803
:10497000F08100BF6223002061230020C4070020D3
:1049800064230020C0070020BC0700205F23002014
:10499000B0070020B4070020024A034B10781B78B0
:1049A000184470476123002062230020F0B50C4EAC
:1049B0003478202C11D00B4B0B4D1B780B4F23441C
:1049C00003F01F032B700C256B430134FD18A86006
:1049D000F9546A6034700020F0BD0120F0BD00BFC2
:1049E000612300205F23002060230020C4070020F3
:1049F00038B5034C256808F0A1FC256038BD00BF20
:104A0000B807002010B50A4609490C6823468342BE
:104A10000DD00BB11B68FAE748B1046008600121B2
:104A2000817383818121BDE81040FFF7E1BF10BD94
:104A3000BC07002038B1837B013B012B9FBF024A9A
:104A40000123C3731370704762230020004870472E
:104A500080841E0010B5084C206858B100232360E4
:104A6000816843689847236823B1BDE810401868FF
:104A7000FEF71EB910BD00BF4409002010B5044662
:104A8000FEF7D2F894E80C001344C01A024B984287
:104A90008CBF0020012010BDFEFFFF7F38B50588C8
:104AA0000446672D09D0792D2ED0002D32D1FFF785
:104AB000FBFE1B4B18701B4B1D601B4808F029FDAB
:104AC000431C01D167231DE00A28164B07D01A6842
:104AD0007E2AF2DC511C1960144B9854EDE71968DA
:104AE00000254A1C1A60114A0D4B55542846197866
:104AF000FFF75CFF0E4B852118682A46FFF756FF2B
:104B000020B97923238009E0852907D1054B0022AC
:104B10001A60D2E700230380032038BD012038BD8E
:104B2000C73900205009002048090020E623002052
:104B3000B80700200D2810B5014615D00B4C23787E
:104B40002BB90B4808F0D1FC48B9012306E00A282C
:104B500005D1074808F0C9FC08B1002323700548B7
:104B6000FFF768FF012010BD002010BDE5230020E5
:104B700048090020D404002008B5054805498022D2
:104B800008F0ACFCBDE8084003480021FFF73ABF3D
:104B90004809002065230020D4040020054A13683A
:104BA00043F004031360044B1B68906943EA002040
:104BB00080B2704700700D4014700D40174A1368A2
:104BC00023F00C031360164B01221A601A68012AA5
:104BD000FCD1144B08221A60E322C3F8142203F517
:104BE00005731946104B1B68DB07FBD5102000230B
:104BF0000E4A0138126802F0010243EA02034FEA4A
:104C000043039BB2F4D1002BF0D0094A180A03F0F9
:104C1000FE0310601360EF230B60704700700D40BF
:104C2000A8200D4024860840648608409C860840E1
:104C300014700D4070B505880446772D30D07E2D58
:104C40003FD0002D4DD1FFF72FFE294B1870294B77
:104C50001D601D462B68284A264E52F823204AB173
:104C600026480021C1549368802098473368013357
:104C70003360EFE7224A1370772320E01F4AD256B1
:104C8000002A12DB1B4A136801331360194B1C4ABC
:104C90001B6812789342F1DB1A4B1B68002BEBD098
:104CA000184A00231360134AEFE7114A00201178D5
:104CB000114A52F82320FFF779FE30B97E23238072
:104CC00013E00B4B1B788B420FD10A4B0B491A6830
:104CD0008B5C03F07F038B540A4A13680133136023
:104CE000D0E700230380032070BD012070BD00BF0A
:104CF000C8390020580900208C040020C339002046
:104D00006624002054090020094B1A78002393429E
:104D100004DA084951F82310814207D106490748AF
:104D2000CA5C62F07F02CA54FFF784BE0133EEE72B
:104D3000662400208C040020C3390020E4040020F5
:104D40000C4AB82303FB0022002330B553821A46D5
:104D5000094CE1188D782DB11C5D844202BF0024FE
:104D60008C70013240F24C5171338B42F0D11046BD
:104D700030BD00BF780900207224002008B5064825
:104D800003F026FA054B01221A70FD2100225A7009
:104D90009970DA7008BD00BFE54F2000682400203C
:104DA00010B513780446087A83F0020398421DD1A7
:104DB000487A5378984219D1887A9378984215D1D5
:104DC000C87AD378984211D1087B137998420DD1D3
:104DD000487B5379984209D1887B9379984205D1D1
:104DE000C87BD379984201D103201BE00B890F4A7D
:104DF0006BB94B89B3F57F4F09D18B89FE2B06D157
:104E00001368C989022023F8021B13600AE01368A3
:104E100051F8080F083343F8080C486843F8040CAD
:104E200013600120A040C0B210BD00BF6409002083
:104E300010B50F4C0220A17906F0FAFBA379112BD3
:104E400001D0062B05D1238D618D9942A8BF19464B
:104E500008E03A2B05BF94F8281094F82930002177
:104E600043EA01210120BDE8104006F0E1BB00BF8C
:104E70005C2D002010B5084C01462378012B08D189
:104E8000A01C082207F0E6FF00280CBF20460020E7
:104E900010BD002010BD00BF6824002008B50146E9
:104EA000102006F0D3FB044B04489B680021984770
:104EB000BDE80840FEF77AB89CE82000C14E20000B
:104EC00010B508460C46114602F014FD044B1B6851
:104ED00013B19B6820469847024B1C6010BD00BF71
:104EE0007409002070090020F8B505460023114A16
:104EF000712404FB0324A278B2B9617006F09CFA15
:104F000026460D4F0D4A3B7806F8035BC01A15681C
:104F1000A0701D4406F090FA3A782946821A30466D
:104F200007F0CAFFA078F8BD01330C2BDFD14FF09A
:104F3000FF30F8BD72240020BE290020680900203F
:104F40002DE9F8434FEA1219B9F10F0F80461D46BB
:104F500002F00F040BD00F2C05D1B9F1000F0AD1CC
:104F60001024274619E0B9F1000F09D004E00F2CF6
:104F70004FF0100900D1102440464A4607F09CFF2C
:104F800009EB04020F2A274606DC08EB0900002182
:104F9000C2F1100208F06AF8BCB1114DC7F110005F
:104FA0002E6840443146224607F086FF022C08D185
:104FB000B9F10A0F9FBFFF2388F80B30FE2388F852
:104FC0000C3034442C60BDE8F883B9F1000F05D0F3
:104FD00040462946BDE8F84308F002BBBDE8F88327
:104FE000640900202DE9F04F8E4E8F4D002387B0CD
:104FF00033702B70044606F0C1FA06F055FA8B4A5E
:105000008B4B126818608DE8600099460AB1FFF773
:105010000FFF04A80CB9874900E0214609F023FAE4
:10502000854B864E1A8803933E2A40F20182D9F8B6
:1050300000B0834D0BF102032B60009B06F11800BA
:1050400093F80080002308F102080BF80830FFF7FE
:1050500011FF20B906F10800FFF70CFF20B10BF19A
:1050600003032B60802400E0044672783178130932
:1050700043EA0113DBB2980840EA8313DBB212F073
:105080000F0FDEB26E4F01F00F010CD16B4840885C
:1050900048B911B912F0F00F1FD03B6803F8016B4B
:1050A0003B6070261AE079B912F0F00F0CD1296834
:1050B00023F03F031A43634B0A701B88033121F826
:1050C000023C6826296009E05C4A2B681068186079
:1050D00003F8046B2B60602600E07826574B9A7922
:1050E0000293112A08BF46F0040673075EBF3B68AF
:1050F00003F8012B3B60029BDB79402B06D0FF2B92
:1051000007D0012B08D146F0010609E046F002065F
:1051100006E046F0030603E03A6802F8013B3A6015
:10512000029A464B128982B95A8972B99A8962B930
:10513000DA8952B91A8A42B95A8A32B99A8A22B994
:10514000DB8A13B944F0400013E03F48FFF792FEBA
:105150003E4B186078B142781BF80830042043EACF
:1051600002130BF808303849394AFFF719FE60F08E
:105170003F00C4B227E0029B30491A8948F2FE037F
:105180009A420CD14B8B53B98B8B43B9CB8B33B930
:10519000042008312E4AFFF703FE2043E9E73A686E
:1051A000DFF8A4C096460CF1100A634603CB5345C2
:1051B000CEF80000CEF804109C460EF1080EF4D193
:1051C0001F4B10321A60DFF874A09AF81830FF2BCA
:1051D00040F08A809AF8192044F0080E022A5FFAFB
:1051E0008EFE37D1BAF81A30A3BBBAF81C308BBB8D
:1051F000BAF81E3073BBBAF820305BBBBAF8223065
:1052000043BBBAF824302BBB9AF8263013BB3B685B
:105210009AF8272044F00B0003F8012BC4B23B603E
:105220009FE000BF67240020BE29002074090020F1
:105230006809002096F22000482D00205C2D0020F7
:10524000640900205E2D0020642D00205C090020F0
:10525000542D00209B4B588B194688BB988B78BBEC
:10526000D88BA8B9188C98B9588C88B993F82400B1
:1052700070B9296844F00A00C4B2084600F8012B4E
:1052800033F8252F043121F8032C9B78837015E027
:10529000C98B8C4BA1B9198C91B993F8221079B9AB
:1052A000296844F00900C4B2084600F8012B53F8FD
:1052B000232F063141F8052C1B790371296050E03A
:1052C000814ADFF818C214680CF1100827466346BB
:1052D00003CB4345386079609C4607F10807F6D157
:1052E0001034146074463CE00AF11800FFF7C2FD68
:1052F000764B186050B143781BF8081044F0040452
:105300000B43E4B20BF8083000200EE048F2FE0335
:10531000BAF818209A4210D1BAF81A306BB9BAF814
:105320001C3053B9BAF81E303BB90AF1180104AA6F
:10533000FFF736FD2043C4B213E0634ADFF89CC197
:1053400017680CF11008BE46634603CB4345CEF800
:105350000000CEF804109C460EF1080EF4D1103770
:105360001760019A5749282313708B79112B53D159
:105370004FF2B0030A8D52BA92B222F00F0080B2FF
:10538000984217D14B8D5BBA23F00F031B041B0C03
:1053900083420FD12868F32303704B8D02301A0A21
:1053A0000B8D1B0A02EB031303F5AA6300F8013C03
:1053B000286028E0029B43495B8D5BBA03F47F437E
:1053C000B3F5704F09D12B68F1221A700A8DA3F83A
:1053D00001204A8D120ADA700CE002F47F42B2F525
:1053E000704F2B6808D1F2221A700A8D120A5A7077
:1053F0004A8D5A80043305E0F0221A70886A05331A
:1054000043F8040C2B60324B1A882B6823F8022BCC
:10541000019A2B6030231370009BD9F800201B7871
:10542000D65413445C70284B1B689B1A009A1AE0F0
:10543000D9F8002041231370009B06F128051C7841
:10544000631CDBB21344324603CAAA421860596097
:10545000164603F10803F6D1009B29341C70019B0A
:10546000019A1B782833102013700DEB000106F011
:10547000EDF8184BDFF868801B68984730EA200089
:1054800028BF1520039BC0F17D051C88019BDFF818
:1054900054A01E78009BA21B93F800B00E4FCBEBDC
:1054A00005039A4240F3CD80C0F17803019306F0E2
:1054B000F7F8019B94FBF3F40134A04214DC0020C4
:1054C000D1E000BF5C2D0020640900205C090020B1
:1054D0008A2D002070E82000BE290020742D0020B5
:1054E000482D002067240020D9F800B05F4B3C789D
:1054F00000221A60594622460BF10400039307F07C
:1055000051FDB8F800205A496FEA82426FEA924290
:10551000C2F307228BF80020B8F8002004348BF87F
:1055200001200A88E4B2501C0880110ADFF850C13B
:105530008BF802102D1B9AF8001025F007054D4E30
:1055400061448BF803200BEB04002A46CDF808C019
:105550003C70356007F0B0FC281980B205F062FF9E
:1055600006F0A4F8039B04461D460028A7D00DF1C1
:10557000100B5846FFF792FC204606F0CFF8204665
:1055800006F0B6F82B68012B99D0043B012B96D975
:105590009AF800A0336853441FFA83FA05233B703E
:1055A000354B1A68B8F800306FEAC3436FEAD3434B
:1055B000C3F307231370B8F800305370019B23F036
:1055C000070737602D4B1B889A454BD2D9F800202E
:1055D0004FEADA0111713268CAEB03039342B8BF94
:1055E000244AD9F80000B8BF1360009B376893F8CD
:1055F0000080029B3A4603EB0A01404407F05CFC42
:1056000008EB070080B205F00DFF06F04FF80746E3
:1056100000283FF454AF5846FFF740FC384606F0E8
:105620007DF8384606F064F8124B1B689A442B68E4
:105630001FFA8AFA012B3FF442AF043B012BC1D879
:105640003DE7D9F800000E495844314407F034FCD6
:10565000B8F800005844801B80B205F0E3FE04A8AF
:10566000FFF71CFC012007B0BDE8F08F7009002097
:10567000981900206C09002068090020482D00209E
:105680005C2D00202DE9F047074688461646002A83
:1056900047D0434C0025A146238ABB4215D1638ADB
:1056A0009BB10F2005F0DEFF0146204608F0E0FE2A
:1056B00058B1ECB220463146FFF716FC002827DA35
:1056C0000027DFF8E0A0B8460DE0B834002D5DD12A
:1056D0000125E1E7A8450BD10AF1B80AB8F1000F9E
:1056E00010D14FF001083AF8063C002BF4D0F1E756
:1056F000504607F04CFE0028EED04046FFF720FB56
:105700000744E9E7002F41DD20463146FFF7ECFB77
:1057100000283BDDB82303FB0595AB8A1844A8821B
:105720003AE0204DFF2435F8063C4FFA84F97BB36C
:10573000284607F02CFE10B13046FFF701FBB9F107
:10574000FF3F03D135F8063C03B9F4B2012E05F151
:10575000B80501D00126E6E765B26B1C16D0B82368
:105760005D43DFF83C900F2009EB0506A6F8128098
:10577000378205F077FF0146304608F074FE05F1E8
:1057800018004844402107F0F0FD05E0FF2403E045
:10579000B9F1FF3FDAD1D8E760B2BDE8F08700BFCA
:1057A00078090020900900202DE9F04FA44CDFF883
:1057B000C8A287B000268AF80060267005F074FE43
:1057C000A04DA0462860042005F03AFF9E4B2A68B1
:1057D00000B218605778137847EA032703F0F803FC
:1057E000C02B02D0E02B19D03AE090782378D27801
:1057F000C7F30A07043342EA0020394632462370D1
:10580000FFF740FFB0F1FF3F814600F081828F4CEF
:10581000B82303FB00440126223424E01379D17815
:1058200090782278C7F30A070532227041EA0020F7
:105830001A4639460093FFF725FFB0F1FF3F814636
:1058400000F066828149B82202FB0012958A4FF06F
:10585000010BBD4234BF002501253446009BE0E129
:10586000B1464F467A4C296898F800504A5D02F0DC
:10587000E003602B40F0B781A81C084429444D7810
:10588000744B5FFA85FC1CF0800F18601CBF013060
:10589000186012F0100F02F0080130D1D1B9196868
:1058A00031F8010FA4F801008978E170196811F846
:1058B000040B1960830803F00F0141F060012170AF
:1058C000617803F0300343EA801301F00F010B43CA
:1058D000637030E018686021864621701EF8011B55
:1058E00003304FEA910B0BF0300B01F00F014BEA44
:1058F00001016170BEF80010186061801BE001F0CA
:10590000FF0E99B919680878C0F3830040F0600071
:10591000207011F801BBA4F802E04FEA9B0000F0F0
:10592000300040EA8B106070196004E0602323703F
:1059300000236370638002F0040303F0FF01009111
:105940002BB944490B6813F8010BA0710B6012F0DE
:1059500003020BBF3F4A404B13689B5C09BF13F81F
:10596000011BE3711360E1716B06C5F3011233D5BE
:105970001CF0800F1DBF334998F8003009680021E2
:105980001EBF5B189978090922B904F1080B9AB96E
:10599000114614E0314B1878012805D15878884217
:1059A0000CBF1946002100E000212D4B1960002991
:1059B000EBD1B3460D4633E1294B19680231294B2F
:1059C0000F209A5C0391CDF808C0019205F04AFEC1
:1059D0000399034658460BE0234B0F209A5CCDF801
:1059E00008C0019205F03EFE2049034604F108007C
:1059F000019AFFF7A5FA05F00800DDF808C005F0E8
:105A0000030200F0FF0105F00403002836D0002B4C
:105A10006CD1174B1B88ADF81430531E012B9FBF60
:105A20000C490B6813F8010B0B60124B98BF8DF8F3
:105A300015009A5C04F1180005A9002354E000BF8A
:105A4000BE29002068090020600900207809002094
:105A50005C2D00206409002092EB200068240020C7
:105A60005C090020ABEB200096EB20009AEB2000B5
:105A700090EB20009CEB20006724002053B31CF027
:105A8000800F1DBFA44998F8003009680B4618BF65
:105A90005B18A24918BF9D78087818BF05F00F035E
:105AA000012805D14D789D420CBF0D46002500E030
:105AB00000259B4B1D60002D00F0AE80994B1020FF
:105AC0009A5C019205F0CEFDA91C0346019A04F1EF
:105AD000180009E0944B10209D5C05F0C3FD2A4698
:105AE0009249034604F11800FFF72AFA9AF80000D9
:105AF0008F4900F128038AF80030009B002B53D017
:105B00000B681A7802F0F802F02A4DD11122A27126
:105B10001A7802F0040502F0F302F03AEDB2032A1B
:105B20007CD8DFE802F0020A1622B3F80120053320
:105B3000228533F8022C62852CE0B3F801202285FF
:105B4000DA78A2F5805292B2120242F0F002628537
:105B500009E05A78A2F5805292B2120242F0F002A5
:105B600022855A886285043314E05A780233120978
:105B7000A2F5756292B2120242F0F002228513F889
:105B8000012C02F00F02A2F5756292B2120242F0ED
:105B9000F00262850B6025B90B6833F8022BE285B1
:105BA0000B6030308AF800005B4A0B6812689B1A61
:105BB00088F8003067B905F03FFC5E4B1B78C01ACF
:105BC0009AF800301844283803122371607104E0F9
:105BD000A7F128031A1222716371A379112B1DD129
:105BE000A388A3851AE0412A40F092806A1CD2B2B1
:105BF0008B18224603F1280153F8040B8B4242F81C
:105C0000040BF9D105F1290388F800309AF8003027
:105C100028338AF8003001E0B34601E0B34600259E
:105C20002B46009305F008FC98F8002082426FD8BC
:105C300005F002FC3F4A40491278009BC2EB000885
:105C4000C1F8008040F214519AF800A0DB009BB22A
:105C5000534443448B425BD83CB12F4B04EB0A00C6
:105C600019681144424607F027F9002F39D056B180
:105C700032484FFA89F3B82404FB030308EB0A0106
:105C800089B29982198495B3B8224FFA89F402FB3C
:105C900004F32A492A48CA18114697822231128CE5
:105CA00007F00AF9274D05F24C5615F8012C5AB1A8
:105CB00015F8033CA34207D115F8020C204B2946E6
:105CC00003EBC00007F0F8F87135B542EDD15FFA8B
:105CD00089F0FFF735F8BBF1000F0BD01A4B1F808E
:105CE0000CE0BBF1000F05D0002DF7D110E0BBF1A7
:105CF000000F0DD1144BD044A3F80080134C23683F
:105D000023B1FFF795F823685B68984702F086FA9D
:105D100007B0BDE8F08F00BF6809002068240020AC
:105D20005C090020ABEB200096EB20009AEB2000F2
:105D300064090020BE2900206C0900207809002099
:105D40005C2D002075240020482D002074090020BF
:105D500073B50646154C164D23792A786179C2EB46
:105D600003230B449BB2ADF80630BDF80610283271
:105D700089B21048FDF7ECFFBDF8060004F10801F8
:105D80003044202280B207F0D4FB2978BDF80620E9
:105D90002831214492B207F0CCFB10B140BA80B256
:105DA00001E04FF6FF7002B070BD00BF5C2D002017
:105DB000BF290020AFEB2000F8B5334E022333702B
:105DC000324F334D3A78304C02F128014B195B7851
:105DD0003278DB000733934251DB0A44515D0129DD
:105DE00009D002D3632913D027E02A4807F01EFA0E
:105DF000237801330AE0284807F018FA3B78227824
:105E0000283313441D446B78134402332370D7E7BF
:105E1000224807F00BFA207802F0AEFF18B12048B4
:105E200007F004FA2DE03B782278283313441D4410
:105E30006B78134402332370F8BD1A48FDF788FFCE
:105E40003978227801F12803134458195B5D03F077
:105E5000C003802B0BD0C02B06D0402B11D0437831
:105E60001A4402322270ABE72B7EFF2B09D00A4482
:105E700004200221283202F08FF80220F8BD002011
:105E8000F8BD0120F8BD00BFC5290020BF290020B2
:105E90005C2D0020D6EB2000EDEB200004EC200070
:105EA0001AEC20003CEC2000F0B5C578124A0D44F5
:105EB000EDB2D57083780F0A3B44DBB2937044781F
:105EC000BB4254700678167005D2601CC0B2507088
:105ED00008B901361670C9B28D420CDA0133DBB253
:105EE000054993703BB94B780133DBB24B7013B962
:105EF0000B7801330B70F0BD502D002010B5084C0D
:105F0000014620681430FFF7CFFF064A2368117856
:105F10001975517859759178D2789975DA7510BDDF
:105F200080320020502D002008B501F0AFFB02F0B8
:105F300025F907F08CFB00231149002221F81320DA
:105F40000133DBB2082BF7D10E49302303FB0211DA
:105F50000132D2B200230A2A81F82530F4D10A4A4C
:105F60004FF480611180094A002102EB4312013392
:105F7000DBB20A2B1182F6D1054A137008BD00BFAF
:105F80006C340020843200209C19002088340020CA
:105F9000C62900202DE9F041164D297839B3164F56
:105FA00016483A88FDF7D4FE95F800803C8808F141
:105FB0002703A34205DB124807F038F900233B8092
:105FC00014E0104EA4F1280208F12801C8EB0404E3
:105FD000A4B206F128003144C8EB020206F0E2FF49
:105FE0003C80283C23123371747100232B70BDE870
:105FF000F08100BFBF290020482D00205EEC20006A
:106000009DEC20005C2D00202DE9F0410346264840
:106010000288013292B2B2F5FA4F28BF4FF4805293
:1060200000240A2C0AD0214D05EB44152E8A55BABE
:10603000ADB2AE4204F10104F3D1EAE7DFF874E057
:10604000028000220A2A18D0184E55017419B4F89B
:106050001080571CFFB2B8F1000F0CD18EF8002051
:106060000288618252BA228263B920461946102200
:1060700006F0FCFF11E03A46E4E78EF8002000202D
:10608000BDE8F081274603F1100E3A4618685968BA
:10609000083303C273451746F7D1054B35441B79C6
:1060A00020462B75BDE8F0819C1900208834002023
:1060B000D0350020C629002030B50A490023082B1E
:1060C0000DD0094C5A1C34F81350D2B2854204D179
:1060D00000220B7024F8132030BD1346EFE70B703D
:1060E00030BD00BFC62900206C3400202DE9F04FE0
:1060F0008A4D042893B02C68894E00F01783894993
:10610000894F8A4A03280F6017608A4616D194F88F
:10611000253003F00F03032B08D1A38B002B40F095
:10612000C487834B08221A7000F08DBE022B40F00A
:10613000BC87002307F8073C00F0BEBC02287BD1D7
:106140007C4A002313707C4A338013807B4AD378C7
:106150000133DBB2D37063B993780133DBB2937050
:106160003BB953780133DBB2537013B91378013361
:10617000137094F8253003F0FD02052A0DD194F830
:1061800026300133DBB2782B84F8263040F08D873F
:10619000002384F8253000F088BF002B00F08587AD
:1061A000A28B6348002A3ED094F82620511E84F822
:1061B0002610002A40F0798794F82720082A04D076
:1061C000591E01290AD8052A08D1002384F8253050
:1061D0008023037002F0AAF900F043BE042A9CBF9A
:1061E0000321914003F00F0394BFC9B23021013263
:1061F000013B84F8261084F82720072B00F25587EE
:10620000DFE813F0560408000B00E8055307E80523
:106210005307E805002200F04CBC0423037002F091
:1062200085F900F051BE03F00F03032B40F03D87CA
:106230000823037000F007BE052811D1404B1B68EE
:106240001B8A002B00F031870C3F17603A4A00236D
:1062500013802B603380364B08220F601A7063E284
:1062600017F83C3CA7F13C0403F0F003602B2546F3
:1062700040F01B8717F8383C17F8372C1B02318881
:106280009818884200F31187A046283213442D48FD
:106290003380FDF75DFDA7F1340002F07BF92A4859
:1062A000FDF756FDA7F1240002F074F90A2006F06C
:1062B000A5FF18F8083FFF2BA7F12403009301D195
:1062C000224826E0224C363F224B2760194F0022FD
:1062D0003A701A70AA799946002A41D1012389F8A7
:1062E0000030FFF769FD012812D006D3022837D10C
:1062F000194806F09BFF00F0CBBE3B7803F1280263
:106300002A4422605278083303EBC2033B7027E033
:10631000124806F08BFF00F0C8BE00BF803200209C
:10632000482D00207C320020982D00204C2D00208C
:1063300070320020BF29002084340020C1290020B1
:1063400078320020CAEC2000B6EF2000E5EC2000F7
:1063500074320020C029002035ED200003ED20001C
:106360009B4800F017FF002840F0BC80984801F0DF
:106370005DF8002840F0B680954800F021FF002825
:1063800040F0B080924801F0C9F8002840F0AA809F
:106390002A7E904BFF2A5AD048F2FE00198B814288
:1063A00055D01989814252D079B9598969B99B89E7
:1063B0005BB9E989874B41B9198A31B9598A21B941
:1063C000998A11B9DB8A002B41D0298B814B79B98D
:1063D000598B69B9998B59B9D98B49B9198C39B984
:1063E000598C29B9998C19B9DB8CB3F5807F2ED0E3
:1063F0003388B3F5A06F04D9022000214FF4A062C6
:1064000006E0EB79734C012B06D800210A460320E5
:1064100001F0C2FD00F03CBE02F038FD08B16E484C
:1064200077E7E3796D48013BE371FDF791FC04F1F7
:10643000180002F0AFF80A2006F0E0FE684B0122D7
:106440001A70684A13680133136000F021BE48F2E5
:10645000FE032989994220D1298B5E4B79B9598B4A
:1064600069B9998B59B9D98B49B9198C39B9598CF2
:1064700029B9998C19B9DB8CB3F5807F0DD0FF2A2F
:106480000BD0534800F066FE044630B9564806F07B
:10649000CDFE012002212246BAE7544839E728D927
:1064A000BBF13A0F00F082802FD9BBF13B0F00F017
:1064B000FC85BBF13C0F74D14D4806F0B7FE99F84E
:1064C00000304C4A98073DD559066AD443F0400342
:1064D0001370FFF771FC012800F0E78535D302281F
:1064E00000F0D685236893F800B0BBF12B0FD6D10E
:1064F00036E0BBF1060F00F05881BBF1110F00F040
:10650000A580BBF1000F4CD104E0BBF12C0F00F0D3
:10651000CC8546E0384806F089FE99F80030DA0765
:106520003FD4344A43F001031370FFF745FC0128C0
:1065300000F0BB85D3D23B78304903F128022A44CE
:106540000A6007E043F00203C2E73B7803F1280248
:106550002A4422605278083303EBC2033B70C1E740
:1065600099F8003003F0040202F0FF0BCAB9214A87
:1065700043F004032248137006F058FE3A7802F103
:1065800028032B44D87818B1042059462A323FE713
:106590001A4908320B605B7802EBC302194B1A7080
:1065A000A0E7226804200121521B31E73B783188A3
:1065B0002833EA5C1448FDF7CBFB06F0D6FF4FF614
:1065C000FF7398420F4C034F22D01048A1E600BF42
:1065D000742D00205C2D00206DED200086ED200044
:1065E000C03900201C2D00209CED2000D2ED2000A1
:1065F00020EE2000C02900200AEE20007432002086
:1066000038EE2000BF29002052EE200074EE20005A
:1066100023782833F85C01F0EDFD23782833DA196C
:10662000F85C517801F096FC012809D123788F4855
:106630002833F95CFDF78CFB8D4A0023138023700F
:106640003388002B00F0318500F022BDFFF7A2FC5B
:1066500085F806B0874806F0E9FDEB8D63B106F0DA
:106660008AFF4FF6FF73984206D0834BDC8D06F00D
:1066700082FF02468148ABE0B5F82A80B8F1000FEE
:1066800001D17F4845E67F4F7F4B3B603C687F4BA5
:106690009C422FD294E80F000DF1280E8EE80F00D7
:1066A000238A23B3984522D1638A13B12A8D9A4253
:1066B0001DD1BDF82830A3B9BDF82A308BB9BDF87B
:1066C0002C3073B9BDF82E305BB9BDF8303043B90A
:1066D000BDF832302BB9BDF8343013B9BDF83630BF
:1066E0007BB16B487146102206F0B4FB48B12034F0
:1066F0003C60CBE7674806F099FD012004210022A9
:1067000086E6654806F092FD33886449303B338065
:1067100000230B6062490220624A08706249CAF88D
:1067200000200A60614A138001F000FF604806F013
:106730007DFD5E4B1A88002A00F0B78402F1300319
:106740004D4C9BB23380283B191263714D4B08327C
:106750001B6852BA2171197DA2850022E2851A8A2E
:10676000E17122855A8A11216285A17104F118070D
:1067700002AD0FCB85E80F0087E80F0004F1080099
:10678000394600F0E1FE4B4B04F13C021A6006F082
:10679000F2FEC04380B208B1E08502E04FF6FF731D
:1067A000E38502F0B9FC00F06DBCFFF7F3FB85F860
:1067B00006B0414806F03AFD06F0DAFE4FF6FF73E8
:1067C00098422D4C09D0248F06F0D2FE02463B4859
:1067D0002146FDF7BDFA00F068BCB4F82A90B9F183
:1067E000000F04D0B4F828C0BCF1000F04D1344825
:1067F000FDF7AEFA00F059BC224B12AC1B680FCB70
:1068000004E90F002F4CA34694F825308BB1238A5E
:106810004B450ED1638A63450BD11D480EA910224A
:10682000CDF804C006F016FBDDF804C0002800F027
:106830005981254B30349C42E6D195F8353003F030
:106840003F03022B4AD1214FDFF888A0A7F8009020
:106850000023082B40D01E495A1C31F81310D2B225
:10686000494500F08F801346F3E700BF8AEE200011
:10687000482D0020AFEE20005C2D0020C4EE20004B
:10688000E5EE20007832002088340020C835002052
:10689000642D0020F5EE200017EF2000803200204C
:1068A000703200208C2D00204C2D002084340020DC
:1068B00024EF20007C32002030EF200045EF200044
:1068C00066EF200084320020643400209A190020F2
:1068D0006C340020C62900208AF80030A44806F055
:1068E000A5FC95F83520A34B520700F1DE83142256
:1068F00083F835203C223280502283F8342093F8EC
:10690000332093F8314093F82F0083F82F2093F829
:10691000322093F82E10984F83F82E2093F82D20D4
:1069200083F82D4093F82C4001303C7093F8307080
:10693000C0B283F8321083F8312083F82C7083F8CA
:10694000304083F8330060B90131C9B283F83210A6
:1069500039B90132D2B283F8312012B9621C83F8FE
:1069600030202B8D854A009C13806A8D6B852A858B
:1069700098E80F0084E80F00814800F1100100F052
:10698000E3FD6AE37F488AF8003006F04FFC0023FD
:106990001C468AF800300A2B18D0302202FB03B2C2
:1069A00002F12001487918B98AF80030144612E043
:1069B000072808D124B1897994F82620914202D978
:1069C000302404FB03B40133DBB2E4E78AF800307F
:1069D000002C00F06A836C4B4FF000091C6003230D
:1069E00084F8263084F82430042384F823306B8D17
:1069F00084F8229023822B8D84F82790638298E874
:106A00000F0084E80F00614B01201A7884F82500FC
:106A100022765A78A08362769A78DB78A276E3763B
:106A200095F82C30237595F82D30637595F82E3038
:106A3000A37595F82F30E375FFF760FA95F83430B9
:106A400003F0F002502A33D9514A1B09053B980044
:106A500096464B461178834226DAEA1892F83C10A3
:106A600011B3012901D101331CE0022915D192F89B
:106A70003DC0BCF1040F10D18EF800108AF8003030
:106A800092F83E1092F83F3043EA0123402B3B80BE
:106A900028BF4023E38323840AE0EA1892F83D20CC
:106AA00012B11344DBB2D6E78EF800108AF800303A
:106AB0001022304B83F835202E4B93F8352042F0CE
:106AC000020283F83520022283F83C20042283F856
:106AD0003D20002283F83E20402283F83F20328070
:106AE000602267E201902B4806F0A0FB264B95F848
:106AF00035201C602848019B02F00401037001F05E
:106B0000FF0921B184F825302023037000E2194BDE
:106B100093F834301B099900174B19703388283BC0
:106B20005B1A94F825109BB201F00F010229338003
:106B300003D102F03F00122804E0012903D102F042
:106B40003F0002282AD00BB9930727D0A88DA38A2B
:106B5000984204D1074BD88DE38A98421ED0900703
:106B600040F121820129A3D0022940F01C82A3E731
:106B700076EF20005C2D0020C62900209A19002005
:106B8000642D00207FEF200080320020C1290020EA
:106B9000C72900208FEF200070320020D10652D587
:106BA000A18B00294FD004F11800FFF77DF9B54BF8
:106BB00095F830101878B44A884244D192F83110D0
:106BC00093F801C08C453ED192F832E09978714536
:106BD00039D192F83320DB78934234D1E37694F8BC
:106BE0002730207684F819C0A1761BBB94F8243096
:106BF00094F8261094F82200591AA1EBD001C9B2DA
:106C00005FFA81FE1EF0800F94F82330084418BF0D
:106C10004942A3EB930318BF5FFA81FE03EB0E0218
:106C2000C0B2D3B284F8233003EBD00384F822003F
:106C300084F82430954B01221A7094F8243084F89B
:106C400026300023A38394F82520DFF840B202F019
:106C50000F03013B072B00F22882DFE813F0080046
:106C6000250096005C017E019801A4014E019BF86D
:106C70000020864BD2070FD5032284F825203088C8
:106C800040221A700022A283002800F0D9804222FC
:106C90001A70FFF733F9D3E095F8353003F03F036E
:106CA000022B40F0028203E79BF80030DB0761D53E
:106CB00095F8353003F03F03122B5BD1724B93F8FC
:106CC000343003F0F002502A38D9714A1B09964635
:106CD000053B11786F489B0099452BDA05EB0902BB
:106CE00092F83C1031B3012902D109F101091EE0EB
:106CF000022916D192F83DC0BCF1040F11D192F8CF
:106D00003F308EF8001092F83E10634A43EA0123A8
:106D1000402B138028BF402380F80090E383238416
:106D20000CE005EB090292F83D201AB191445FFA9C
:106D300089F9D1E78EF8001080F80090032384F8D9
:106D4000253095F82C300120237595F82D3063758A
:106D500095F82E30A37595F82F30E375FFF7CEF830
:106D600042234E4A8BF800300023A38333803B70CC
:106D7000138068E020238BF8003001F0D7FB484BEC
:106D800000221B6883F82520A8E595F83530D80740
:106D900025D5D10623D4A38B002B40F086813088E3
:106DA000013080B2FFF7AAF89BF8003043F01002E0
:106DB0008BF8002032881AB1344A43F01203137062
:106DC00001F0B4FB0123A383082384F825300023BA
:106DD00084F8273011222C4B83F83520E6E09B06FF
:106DE0000DD595F83A1095F83B3043EA0123DAF8CF
:106DF00000101944CAF800103188CB1A338030884B
:106E000048B1D70607D49BF8003043F002038BF853
:106E10000030FFF773F895F8362095F83730218C5D
:106E200003EB02239BB21C4A8B42138000D803B9A8
:106E300011801388E3839BF80030990700F03581B7
:106E4000164B00221A8001F071FB104B1A78134B7D
:106E500002F0200000F0FF0128B100221A8084F81F
:106E600025201422B7E702F0100000F0FF05C8B19A
:106E700019800123A383042384F8253084F8271084
:106E8000A8E700BF502D00205C2D002070320020AC
:106E9000C7290020C62900209A1900208434002028
:106EA00080320020198861B1D20748BFA583A28B28
:106EB00032B9E28B914288BF1A801B88A38300E01D
:106EC0001A80002384F827307D4B1B68CAF80030F5
:106ED0007C4B1B882BB1A38B1BB13C333380182216
:106EE00007E0794B1B789F0740F1DF803C2333801C
:106EF0001022764B83F835205AE09BF80030DD07EE
:106F000040F1D380002384F825306F4B10221A7093
:106F100001F00CFBC9E0308808B1FEF7EFFF95F8EF
:106F2000353013F001030FD09BF80030D80745BF70
:106F3000072384F825300623002346BF84F8263033
:106F4000A38384F8253016E09BF80020D1071BD5D9
:106F5000052284F82520A383A7E0308808B1FEF736
:106F6000CDFF95F83530DA070ED5072384F82530A4
:106F7000002384F826300120FEF7C0FF10238BF891
:106F8000003001F0D3FA0EE0338863B98DE09BF84E
:106F90000030DB0740F18980072384F82530002387
:106FA00084F8263081E0102385F835303C23338087
:106FB000464B502283F83420454806F037F9434DBC
:106FC000237D05F1180885F83030637D06AF85F81C
:106FD0003130A37D85F83230E37D85F83330237E70
:106FE00085F82C30637E85F82D30A37E85F82E3011
:106FF000E37E85F82F30238A2B85638A6B85354B9A
:107000001B680FCB87E80F0088E80F00414605F1A9
:10701000080000F099FA3048FCF79AFE404601F06B
:10702000B9FA2E48FCF794FE05F1080001F0B2FA17
:107030000A2006F0E3F894F8253003F0100303F07B
:10704000FF022BB1002385F8373085F8363004E095
:10705000402385F8362085F837301C4C0623A37171
:107060001F4B1B79E3713388283B1A12637100238D
:10707000227184F83B3084F83A30238706F078FA9E
:10708000C0432087114B60221A7000225A705A8028
:107090000E4B14481A795B79318843EA0222FCF7D7
:1070A00057FE094B00221A7007E00F4A00231370A5
:1070B0000E4A33801370044A137013B0BDE8F08F8A
:1070C0004C2D002084340020703200205C2D0020E4
:1070D00098EF200078320020A4EF2000DEEC2000A2
:1070E000D0350020BBEF2000BF290020C0290020A0
:1070F0002DE9F3410446154D00910E4690461F467A
:107100000195234612480321202206F041FA012866
:107110002B4616D12A6804F11001107020462A6807
:10712000023250F8044B884242F8044BF9D11868F7
:10713000089B86744361099B80F8138007778361FD
:1071400000E0002002B0BDE8F08100BFEC0A0020A2
:10715000CC36002070B506460B4D0C4B2B602C68CE
:107160000B4B9C420BD2237833B1A27CA01C31463E
:10717000D20805F06FFE20B120342C60EFE700202C
:1071800070BD012070BD00BFEC0A0020CC3600208D
:107190002C37002013B5084C80220346009201943E
:1071A00006480321202206F0F3F908B9206800E020
:1071B000002002B010BD00BFF00A0020E83500201A
:1071C00013B5084C8022034600920194064803211F
:1071D000202206F0DDF908B9206800E0002002B0A6
:1071E00010BD00BFF00A00205437002010B50C4A33
:1071F0000C4B136013680C498B420DD2197849B1BE
:10720000411C02D0997C814204D148F2FE015C8885
:107210008C4202D02033ECE70023184610BD00BF9B
:10722000F00A0020E83500204836002010B50C4A4E
:107230000C4B136013680C498B420DD2197849B17D
:10724000411C02D0997C814204D148F2FE015C8845
:107250008C4202D02033ECE70023184610BD00BF5B
:10726000F00A002054370020B437002037B5044618
:107270000F4D80230093019523460E4805211222CD
:1072800006F086F901282B460ED12A6804F1100178
:10729000107020462A68023250F8044B884242F8A7
:1072A000044BF9D1186800E0002003B030BD00BFE6
:1072B000E80A00206C360020F7B50546204C8023F4
:1072C00000930E46174601941E48032120222B46A8
:1072D00006F05EF9012830D12A46236805F1100135
:1072E00018702368023352F8040B8A4243F8040BE7
:1072F000F9D12068C77416B90123037505E000238E
:1073000003753146183006F021F823680E48012134
:10731000997402234370FF2200230270438083800C
:10732000C38003818372C17202736B7B4373EB89E9
:10733000C381FFF79BFF206800E0002003B0F0BD91
:10734000F00A0020E83500209E190020F7B5054618
:10735000204C802300930E46174601941E480321BB
:1073600020222B4606F014F9012830D12A46236842
:1073700005F1100118702368023352F8040B8A4299
:1073800043F8040BF9D12068C77416B901230375BB
:1073900005E0002303753146183005F0D7FF236858
:1073A0000E480121997402234370FF2200230270CA
:1073B00043808380C38003818372C17202736B7BBD
:1073C0004373EB89C381FFF751FF206800E0002081
:1073D00003B0F0BDF00A0020543700209E190020B1
:1073E00037B504460F4D80230093019523460E4880
:1073F0000521122206F0CCF801282B460ED12A686E
:1074000004F11001107020462A68023250F8044B33
:10741000884242F8044BF9D1186800E0002003B01C
:1074200030BD00BFE80A0020D837002013B5084C53
:10743000802203460092019406480521122206F09C
:10744000A7F808B9206800E0002002B010BD00BF16
:10745000E80A00206C36002038B50546C8B10D4852
:10746000022200244270FF230122C27244808480E1
:10747000C4800481847203730370EB7B43732B8A93
:10748000C381FFF7D3FF044A106008B106F0A4F8E7
:107490002C7038BD9E190020E80A002038B5194C20
:1074A000194B23602068194B164D98420DD2037872
:1074B00043B1037D33B91830FDF7E0FA10B1286805
:1074C000FFF7CAFF23682033EBE7114B2B602068DE
:1074D000104B98420FD203784BB1037D3BB9183063
:1074E000FDF7CCFA18B1074B1868FFF7B5FF236812
:1074F00020332360EBE700F021FCBDE8384006486C
:1075000005F002BFF00A0020E835002048360020D0
:1075100054370020B43700202C37002013B5084C16
:10752000802203460092019406480521122206F0AB
:107530002FF808B9206800E0002002B010BD00BF9D
:10754000E80A0020D83700202DE9F8430E4604460B
:10755000FBF700FA012848F2FE03328840D19A4234
:1075600023D03378FF2B20D0394B0027B9469846DB
:10757000384A1A60D8F80050374A954219D22B7809
:107580007BB1AB7C012B0CD148F2FE036A889A4296
:1075900007D03046A91C06F02CF8484524BF2F46DA
:1075A00081462035C8F80050E4E70120FFF73EFE91
:1075B000074657B9002323806380A380E38023819B
:1075C0006381A381E381BDE8F883BB1C07F112004E
:1075D00053F8042B834244F8042BF9D1BDE8F88317
:1075E0009A4223D03378FF2B20D0194B0027B9467D
:1075F00098461A4A1A60D8F80050194A954219D28A
:107600002B787BB1AB7C012B0CD148F2FE036A884E
:107610009A4207D03046A91C05F0EBFF484524BF2D
:107620002F4681462035C8F80050E4E70120FFF7D7
:10763000DDFD0746002FBDD0BB1C07F1120053F83B
:10764000042B834244F8042BF9D1BDE8F88300BF32
:10765000F00A002054370020B4370020E83500201D
:107660004836002010B5FDF799FA0446FDF796FA62
:10767000054B24029A68A4B22044B0FBF2F302FB4B
:10768000130000EB520010BDD03500202DE9F34768
:10769000534E544D00F0BAF8F82400F065F900217B
:1076A0006022514805F0E2FC22463046002105F0F8
:1076B000DDFC00212246284605F0D8FC4B4B202259
:1076C0001A70DFF844914A4B402718224FF4A06A01
:1076D0001A70C6F800A03771C6F8089042F2107808
:1076E000FFF7C0FF0024C6F810803475C5F800A06D
:1076F0002F71C5F80890F060FFF7B4FF48F2FE0A5A
:1077000040F2FF26E860C5F810802C75394D2346FD
:10771000A5F800A06C80AC80EC802246394600942D
:1077200001942846FFF7E4FC2846334905F058FF4A
:10773000214601222846FFF709FE4FF480794FF4D5
:10774000007828462E806C80AC80EC802C816C8187
:10775000AC81A5F80E90FFF743FE2E806C80AC80C4
:10776000EC802C816C81AC81A5F80E802846234DDD
:10777000FFF736FE2346A5F800A06C80AC80EC80B5
:1077800022463946009401942846FFF7B1FC28466A
:107790001B4905F025FF214601222846FFF78CFDF5
:1077A00028462E806C80AC80EC802C816C81AC8172
:1077B000A5F80E90FFF75AFD28462E806C80AC800D
:1077C000EC802C816C81AC81A5F80E80FFF74EFD1A
:1077D0000C480C2102B0BDE8F04705F08CBD00BF9D
:1077E000D03500203C370020CC360020C9360020A0
:1077F000C8360020AE1900207C3400209E190020DD
:10780000542D00202C370020C0270900024B0349CB
:10781000186803F0CFBC00BFF40400207D7820007E
:10782000F8B51E460F4B04469DF818201868079BB4
:107830000F4603F0EDFC054639460B4806F04DFEB9
:107840006DB120462B4604F1100250F8041B904203
:1078500043F8041BF9D16E74284600F077FF2846E0
:10786000F8BD00BFF4040020C9390020024B0146D6
:10787000186806F08FBE00BFF404002010B504465F
:1078800078B1FFF7F3FF0146064806F041FE2046B7
:1078900000F05CFF044B2146BDE81040186803F07F
:1078A00065BD10BDC9390020F404002070B50C4D31
:1078B0000646286803F092FC044666B9002070BDB5
:1078C00020463146102205F0C5FA38B12146286815
:1078D00006F030FE0446002CF2D1EFE7204670BDE2
:1078E000F4040020024B0146186806F03ABE00BFBF
:1078F000F404002070B5054610200C4603F0B2FEDB
:107900000649064606F0B4FD30B9304629462246FF
:10791000BDE8704000F0E2BE70BD00BF96F22000EE
:107920002DE9F04105460D480F46904605F040FD13
:10793000044688B1012D04D8094805F06FFD0346BF
:1079400001E0084B1B682846666839464246B04746
:10795000204605F06AFDEBE7BDE8F08190100020BD
:10796000380B0020340B002008B50B4805F060FDF3
:107970000A4805F01AFD0A4B0A49186803F01AFC78
:10798000094805F055FD094805F00FFDBDE8084020
:10799000074805F00ABD00BF28050020CC0C0020D8
:1079A000240500204BD6200008050020380B0020BD
:1079B0009010002008B5034640B1054A5968106888
:1079C00006F0E8FDBDE8084005F030BE08BD00BF88
:1079D00024050020014805F0EBBC00BFCC0C0020C2
:1079E00008B505F025FE014638B1044B186806F0CD
:1079F000B8FD003018BF012008BD08BD24050020D7
:107A00002DE9F0418046FFF7E5FF002604463746A2
:107A10009CB194F82450B5420AD3404604F10801C1
:107A2000EA0805F017FA18B9802D08D02E46274627
:107A3000204605F006FE0446EAE73C4667B10848E2
:107A400005F0B6FC844207D00548214605F0BAFC93
:107A50000348214605F0D9FC2046BDE8F08100BF6F
:107A6000CC0C002038B5044600283ED04368002BDB
:107A70003BD01E48214605F0A5FC6368586805F018
:107A800097FC054630B14368A34207D0284605F06D
:107A9000CCFCF6E704F1080000F07CFD63682946A1
:107AA000586805F08FFC6368586805F081FC28B9B8
:107AB00063680F4A5968106803F058FC21460D4866
:107AC00005F0DAFC29460C4805F0D6FC0B4A2046A6
:107AD0001368013B1360FFF76DFF04F108010246D4
