:020000040020DA
:10200000304900208D2220009BEE200099EE200018
:1020100099EE200099EE200099EE200000000000CB
:1020200000000000000000000000000099EE200009
:1020300099EE20000000000099EE20004D2E2000B7
:102040001FEF200025EF20002BEF200031EF2000B4
:102050000000000003EF200009EF200099EE2000AF
:1020600099EE2000000000000000000000000000C9
:10207000000000000000000099EE200000000000B9
:10208000000000000000000099EE200099EE200002
:1020900099EE200099EE200099EE200099EE2000A4
:1020A00099EE200099EE200099EE200099EE200094
:1020B00099EE200099EE200099EE200099EE200084
:1020C00099EE200099EE200099EE200099EE200074
:1020D00099EE200000000000000000000000000059
:1020E00000000000000000000000000000000000F0
:1020F0000000000000000000513F2000613F200070
:1021000000000000000000000000000000000000CF
:1021100000000000000000000000000000000000BF
:1021200000000000000000000000000000000000AF
:10213000000000000000000000000000000000009F
:10214000000000000000000000000000000000008F
:10215000000000000000000000000000000000007F
:10216000000000000000000000000000000000006F
:10217000000000000000000000000000000000005F
:10218000000000000000000000000000000000004F
:10219000000000000000000000000000000000003F
:1021A000000000000000000000000000000000002F
:1021B000000000000000000000000000000000001F
:1021C000000000000000000000000000000000000F
:1021D00000000000000000000000000000000000FF
:1021E00000000000000000000000000000000000EF
:1021F00000000000000000000000000000000000DF
:1022000000000000000000000000000000000000CE
:1022100000000000000000000000000000000000BE
:1022200000000000000000000000000000000000AE
:10223000000000000000000000000000000000009E
:10224000000000000000000000000000000000008E
:10225000000000000000000000000000000000007E
:10226000000000000000000000000000000000006E
:1022700099EE2000D93D2000213E2000CD352000E0
:10228000DD412000192F200099EE200008B5094BF0
:10229000FF221A600848094A4824E3690849121ACB
:1022A00098470848084AA3690021121A984700F085
:1022B0000DF8FEE7B4200D4040000020900A0020F9
:1022C00010122100900A00202B4100202DE9F04738
:1022D00088B000F0ADFF01F06BF800F0EBFF00F00C
:1022E0005BFD01F069FF0CF0AFFF01F059F800F061
:1022F000E7F920200CF0D4FD03F022FA00F084FF6F
:10230000002000F095FE012000F092FE9949002087
:1023100000F064FF03F084FB0CF0F9FD08200CF0E2
:10232000BFFD95480CF028FE94480CF025FE0020D7
:1023300003F098FB01F0A6FD0021914803F0A6FAF6
:1023400002F056FF0CF0D8FD03F0CAF88D480CF0EF
:1023500013FE8D4B642218688C4902F081FA014605
:102360008B4802F04FFB8B480CF006FE01F06AF937
:1023700001F086F9012000F057FB09F0D3FF02209D
:1023800000F052FB09F0CEFF6846082101F052FF31
:102390009DF807309DF8068004AE43EA08286B4696
:1023A00003CB802386E803008DF810303346DFF836
:1023B0004492794C6D462060616003CBC9F80000FF
:1023C0007648C9F80410CA4602F01CFB0027E15DFC
:1023D0007348013702F016FB072FF8D16E4B714896
:1023E000D97902F00FFB704802F00CFB00271AF8B5
:1023F00007106B48013702F005FB072FDFF8F49157
:10240000F5D16A4F99F80710664802F0FBFAFB6AAB
:102410004AF6CD3102209847FB6A4146032098478F
:10242000FB6A1A2101209847082229467B6B0B2062
:1024300098475F4802F0E6FA5E4B5F4F18680CF071
:102440009BFD5E4802F0DEFA5D4B4FF0FD08186818
:102450000CF092FD5B4802F0D5FA5B4B18680CF06B
:102460008BFD5A49236828460B60636800244B6043
:10247000D9F80030ADF800803B60D9F80430ADF8F1
:1024800002407B60ADF80440ADF80640ADF808406E
:10249000ADF80A40ADF80C40ADF80E400DF01DF857
:1024A00022462146284605F051FD30463946ADF812
:1024B0001080ADF81240ADF81440ADF81640ADF8FC
:1024C0001840ADF81A40ADF81C40ADF81E400DF0B4
:1024D00004F830462146224605F082FD3C4802F0D1
:1024E00091FA2B19295D3B485A78023402F08AFA96
:1024F0000E2CF6D19DF80E109DF80F20364802F0F4
:1025000081FA364802F07EFA00243319315D3148F1
:102510005A78023402F076FA0E2CF6D19DF81F207C
:102520009DF81E102C4802F06DFA0AF05DF82C4858
:10253000002103F0ABF900212A4803F0A7F902F0CB
:10254000E5FE00F0A7FC284B01221860274B284825
:102550001A700CF046FE00F05DFE10200CF0A0FC9E
:1025600000F05EFE03F004F910F0FF0FF8D101F067
:102570007FFDF5E7DD592000640821007408210083
:10258000C40400208E082100A0320020A6082100EB
:10259000BF082100CE08210023410020D3082100DC
:1025A0005609210060092100F10821005431002062
:1025B0001E092100D0062100D8390020250921005C
:1025C000DC0621002C09210004072100B032002084
:1025D00033092100520921005C092100660921000C
:1025E00058050020E4040020683200205832002002
:1025F000880721001B410020F8B52D4C257820705C
:102600004540EA0618D500F0100000F0FF07294EFB
:1026100030B100F03FFC284BD8600123F3700BE091
:10262000F3784BB100F036FC244A2349D368C968DB
:10263000F7705B1A1844D06015F0300F17D023786C
:102640001C4F13F0300606D000F024FC1A4B186122
:1026500001233B710BE03B794BB100F01BFC174AA7
:102660001549136909693E715B1A18441061AB067C
:1026700019D523780F4D03F0200303F0FF0633B183
:1026800000F008FC0C4B586101236B710BE06B7977
:102690004BB100F0FFFB094A0749536949696E7164
:1026A0005B1A184450612078BDE8F84000F02AB861
:1026B0002228002058320020683200201C320020DE
:1026C00008B500F017F8024B00221A7008BD00BFD1
:1026D00022280020024B1B781843FFF78DBF00BF54
:1026E00022280020024B1B7823EA0000FFF784BF5A
:1026F00022280020024A136843F038031360704711
:1027000000C40D40014B1860704700BFE0C00D4091
:10271000034B00221A60034B1B68002BFBD1704750
:1027200080A00D4020A00D40014BFF221A60704791
:1027300080A00D40054B1860054A1168C806FBD4FF
:1027400011684907FCD51868C0B27047088000407E
:102750000C80004070B508B949BB00E00AB90120FF
:1027600070BD99B901460B1A934201DB002070BD80
:10277000184C00232360184B1D68EE06FBD41D681F
:102780006D07FCD5236801F8013BECE70023934279
:10279000ECDACC5C0F4D2C600F4C2668F606FBD4AF
:1027A00026687607FCD52C68C4540133EFE7002A6D
:1027B000D5D00846431A9342D8DA10F8013B054CAD
:1027C0002360054B1D68EE06FBD41D686D07FCD524
:1027D0002368EFE7088000400C80004008B51A4AE3
:1027E000136823F01003136052F8203C23F0100309
:1027F00042F8203C52F81C3C23F0100342F81C3CE9
:1028000052F8183C23F0100342F8183C0F4B1A689A
:1028100010B142F0100201E022F010021A600C4ADE
:1028200004211368012043F0100313600A4600F0EE
:10283000CDFD012000F01AFDBDE80840054801214A
:10284000042200F04BBD00BF20A40D400CA40D409D
:1028500010A40D40F5EE200008B51A4A136823F0C5
:102860000103136052F8203C23F0010342F8203C9E
:1028700052F81C3C23F0010342F81C3C52F8183C6F
:1028800023F0010342F8183C0F4B1A6810B142F0D4
:10289000010201E022F001021A600C4A00211368D3
:1028A000012043F001031360042200F08FFD01209A
:1028B00000F0DCFCBDE8084005480121002200F0E2
:1028C0000DBD00BF20A40D400CA40D4010A40D4070
:1028D000F5EE200008B5074A04211368012043F0F3
:1028E000100313600A4600F071FDBDE808400120A6
:1028F00000F0BCBC10A40D40024A136823F0100382
:102900001360704710A40D4008B5074A01201368F2
:10291000002143F001031360042200F057FDBDE8DD
:102920000840012000F0A2BC10A40D40024A136828
:1029300023F001031360704710A40D40024B186888
:10294000003018BF0120704740A00D40014B1868AF
:10295000704700BF04A00D4010B51B4A0220136849
:10296000072123F08003136052F8203CFF2443F03A
:10297000800342F8203C082200F028FD134B05217B
:102980001C60012000F0C2FD002000F03FFD104A55
:10299000136823F0100313600E4B1968A3F56073DE
:1029A00021F01001C3F88013116821F001011160BA
:1029B000D3F8802322F00102C3F880231C60064B69
:1029C0001B68002BFBD010BD20B40D4000B20D40A1
:1029D00020A40D4000A40D4020A00D4070B50E4D68
:1029E0000E4B2C460E4E01221A600FCC0FC60FCC98
:1029F0000FC60FCC0FC694E8030086E803000FCD86
:102A0000084E0FC60FCD0FC60FCD0FC694E80300BA
:102A100086E8030070BD00BF50072100A40A002013
:102A20008C31002054310020012870B502D1FFF70D
:102A3000D5FF1DE002281BD10E4B0F4D0F4C00227D
:102A40001A600FCC0FC50FCC0FC50FCC0FC594E883
:102A5000030085E803000A4DA4F130060FCE0FC530
:102A60000FCE0FC50FCE0FC594E8030085E8030015
:102A7000012070BDA40A00208C310020D005210067
:102A80005431002038B50588044615B1892D0ED083
:102A900019E0FFF7A3FF0F4B2946186807F062FD06
:102AA0000D4801210CF0A7FB892323800FE00A4881
:102AB0000CF0BCFB58B10220FFF7B6FF054B00211C
:102AC000186807F04FFD00232380032038BD012044
:102AD00038BD00BFA00A0020A80A002038B505882C
:102AE000044615B1982D0CD015E0FFF777FF284666
:102AF00007F008FD0B4801210CF07DFB9823238093
:102B00000DE008480CF092FB48B10220FFF78CFF63
:102B1000002007F0F7FC00232380032038BD0120AC
:102B200038BD00BFB80A0020044B186818B1431E16
:102B30005842584170470220704700BFA40A002045
:102B4000012802D1044B18607047022803BF024BD2
:102B5000186001200020704768040020024B1868AC
:102B6000012818BF0220704768040020012810B512
:102B7000084C02D1FFF732FF08E0022804D0FFF72B
:102B80002DFF236A98470220FFF74EFF236A9847DC
:102B9000012010BD54310020012810B5084C02D18D
:102BA000FFF71CFF08E0022804D0FFF717FF636A55
:102BB00098470220FFF738FF636A9847012010BD4D
:102BC0005431002008B5044B00211860034802F07E
:102BD0005DFE012008BD00BFA00A00206C0400209B
:102BE00008B50348002102F051FE012008BD00BFD6
:102BF0007C04002020B1012805D1044B18787047CF
:102C0000034B186870470020704700BF232800203E
:102C100020900D4010B5094A00201378013313703D
:102C2000074B197802F006FEBDE81040054B064838
:102C30001968064A002302F011BB00BF23280020B8
:102C40001E3F0020F00A0020C80A0020152C20009A
:102C5000812810B50C462AD0B0F5807F39D0802865
:102C600039D102F065FD1D4B1D4A18701368002014
:102C700023F00803136052F8203C032123F00803DB
:102C800042F8203C52F81C3C23F0080342F81C3C5C
:102C900052F8183C43F0080342F8183C042200F0B4
:102CA00095FB10480021032200F018FB13E00E4BA7
:102CB0001A6831B142F008021A60002000F0D6FA1A
:102CC00005E022F008021A60084600F0DBFA204610
:102CD00010BD064B1960012010BD00BF1E3F002033
:102CE00020940D40F12C200010940D40F00A00209B
:102CF00008B50F480CF0CBFAC0B108210C480CF015
:102D0000B4FA0C4B196861B10B4B00221A700B4BD3
:102D10000B481B681BB90B4A02F0A0FA01E002F055
:102D2000DFFABDE80840084802F042BF08BD00BF16
:102D3000E80A0020F00A00202328002020900D40FF
:102D4000C80A0020152C200038052100F8B500F035
:102D5000A1F80F4B0024D3E900673A46B04238BFD0
:102D60007A1C15460443C3E90045DFF828E0DEE994
:102D70000001821B61EB070312196B41CEE90023AE
:102D800002F08CFB18B1BDE8F84002F017BBF8BDAB
:102D9000900A0020980A00200F4B104A1A6053F83E
:102DA000042C42F0050243F8042C53F8042C42F0A2
:102DB000020243F8042C0A4A136843F0010313602B
:102DC000084B00221A60042243F80C2C012243F81D
:102DD000082C0F22DA62704714E000E047E8010097
:102DE00008200D400C000340034BD3E90023100AD8
:102DF00040EA0360704700BF900A0020034BD3E90C
:102E00000023D00B40EA4340704700BF980A0020DF
:102E1000054B18601C3B1A6842F001021A601A68E0
:102E2000D207FCD4704700BF2800034010B5064C01
:102E3000236823F001032360FFF788FF236843F032
:102E40000103236010BD00BF10E000E038B500F0C2
:102E500021F80A4C0A4D0123A370A860FFF776FF02
:102E6000A3784BB100F016F8064AA96893685B1A7C
:102E7000184400239060A37038BD00BF5832002072
:102E8000683200201C320020014B1868704700BFD8
:102E9000F40A0020074B084A196804331B681268BB
:102EA000120442EA0323054A0B43106843EA006018
:102EB000704700BF40500D4048500D404C500D40F1
:102EC00010B50446114B1B68DB07FBD50CF023F84B
:102ED000FFF7E0FF231A062BD8BFC41D0C4B220EB0
:102EE0001A60C4F3074243F8042CC4F3072243F8E2
:102EF000082CE2B243F80C2C0CF009F8054B912099
:102F00001C60BDE8104000F0B1B900BF50500D404A
:102F10004C500D40F40A002070B501F073F8FFF733
:102F2000B9FF0E4C01230E4EA3700E4BB06000256E
:102F300091201D6000F0B2F9912000F0A3F902F099
:102F4000DDFCA37843B1FFF7A5FF074AB16893689A
:102F5000A5705B1A1844906070BD00BF5832002005
:102F600068320020F40A00201C3200200023084AA6
:102F70001068084A9958084205D01A44D2689069E6
:102F800010F0800003D02C33582BF0D10120704773
:102F900028200D4048052100F8B50646FFF77AFFC6
:102FA0001E4A01231E4993702C2303FB06134FF680
:102FB000BF711C4DDC68A860236C61649BB213F088
:102FC000500117460CD0A369DB0618D4164B53F8F2
:102FD00026301BB12068C0B29847F4E72368F2E7B7
:102FE00013F4D06F0BD04FF440732363FF2363605F
:102FF000E36AE162E362236B43F001032363BB787E
:1030000053B1FFF747FF094AA96893685B1A184450
:10301000024B906000229A70F8BD00BF5832002029
:103020004805210068320020F80A00201C320020E8
:103030002DE9F04F012885B0064600F2BF802C2410
:103040004443604B1D1995F920A005F12007BAF102
:10305000000F9946C0F2B28095F92230002BC0F2E1
:10306000AD80594801F098F8584A59F80430116871
:10307000EC680B43136051686B6895F921B00B4302
:1030800053609168AB6895F822800B4393600023EE
:10309000C4F8C83F2B690BEBCA021A6095F82330BD
:1030A0005FFA88FC01939DF80430604619462A7D3A
:1030B000CDF80CC0029300F093F9029BDDF80CC030
:1030C00019466046082200F081F94FFA88F8404915
:1030D0004FEA08389DF9042058F80100012303FA4B
:1030E00002F2024348F801204FEA0A3A5AF8010076
:1030F00003FA0BF202434AF801205022A263A26BAA
:1031000095F8240042F4D062A263022262634FF475
:1031100040722263AA696262EA69A2627022E26274
:1031200042B2002A0C4614DB95F92510294D41EADC
:10313000C20129607979120315594FB2BB402B4364
:103140001351002200F042F9234A136843F400436C
:1031500013602C2303FB069393F8265020336FB2A1
:10316000002F1CDB93F807A0EDB25FFA8AF828461F
:10317000414601223F0300F033F94FFA8AFA3A59E7
:10318000012303FA0AF313433B5108222846414620
:1031900000F01CF9104A136843F4804313602C2399
:1031A00003FB0696F26896F82800136B43F00103C0
:1031B000136305B0BDE8F04F00F058B805B0BDE8A6
:1031C000F08F00BF480521006D2F200028200D4002
:1031D00020940D4004410D4030D0004001289CBF98
:1031E000014B43F820107047F80A0020012808D846
:1031F000044B2C2202FB0030C3689A699206FCD46F
:103200001960704748052100014B00221A60704781
:1032100000500D40014B08221A60704700500D40CD
:10322000024BA0221A6050221A60704700500D40D5
:10323000074A084B1A60084B80321A60074B8032ED
:103240001A60074B80321A60064B074A1A607047B3
:1032500000E100E00C0B0020000B0020040B00201C
:10326000080B002008ED00E000202000044B41097D
:103270001A6800F01F000123834042F82130704794
:103280000C0B0020044B41091A6800F01F000123B9
:10329000834042F821307047000B0020044B410965
:1032A0001A6800F01F000123834042F82130704764
:1032B000080B0020054A064B1A60064B1A68064B9D
:1032C0001340B3F1807FF8D1704700BF01010201C4
:1032D00000200D4004200D4000000101024B02EBD4
:1032E000C10243F822007047100B0020F8B50746D2
:1032F0000E46094D002405EB411547FA04F3DB07A0
:10330000E1B204D555F824300BB13046984701346A
:10331000082CF2D1F8BD00BF100B00202DE9F74FAB
:10332000019000F06FFEFFF7B5FD0199184E4FEACE
:103330000139184F0123DFF864A009F18045B86016
:10334000B37005F55925D5F8188459F80A404FEAA5
:10335000C10B24FA0BF448EA0400C0B2E4B2FFF750
:10336000C5FF04FA0BF45FFA88F3C5F81C3449F87A
:103370000A40B3784BB1FFF78DFD074AB9689368EF
:103380005B1A184400239060B37003B0BDE8F08F5F
:1033900058320020683200201C32002018970D405F
:1033A0000248002180220BF05DBA00BF100B002004
:1033B000034A044B1A60044B803A1A60704700BFFE
:1033C00080400D40940B0020900B0020034B01EB3C
:1033D000C0011B6843F82120704700BF940B0020F8
:1033E000034B01EBC0011B6843F82120704700BF6D
:1033F000900B002001289FBF034901230A688340E6
:103400009CBF13430B60704718200D402DE9F04F0F
:10341000012887B0044671D818235C43394D2E1912
:1034200096F811804FFA88FCBCF1000FCDF814C05B
:1034300064DBFFF7DFFFB37C2D5900275FFA83FBC6
:103440005FFA88F86F6040465946327AC5F8C87FFF
:103450000493FFF7C5FFF47C327BE3B20093337D26
:10346000009801939DF8043064B219460293FFF767
:10347000B7FF96F815A096F8169072684FFA8AF37F
:103480004FFA89F101EBC300DDF814C0106003931B
:103490001D4A049B4FEA0C3C5CF802004FFA83FE85
:1034A000012303FA0EFE40EA0E004CF8020024034A
:1034B0009DF9040054F802E003FA00F04EEA00001F
:1034C000A05003988B4000038458594623438350EF
:1034D00040463A46FFF77AFF009802993A46FFF7CE
:1034E00075FF504649463A46FFF770FF337C2B6123
:1034F000C7232B606B6843F002036B6007B0BDE825
:10350000F08F00BFA005210020940D4038B50B4A74
:103510000403A35801258D4023EA0503A35000228C
:10352000FFF754FF064AA3582B43A35004F18044ED
:1035300004F55924FF2344F8253038BD20940D406C
:1035400000940D400E2870B50BD1164B164E1C681A
:1035500044F002051D60356825F03F0343F0010388
:103560003360124E336823F0FF031A4311430143C3
:1035700031600F4B1B681B06FBD50E4B0E4A1B68B8
:1035800012680E2803F0FC0343EA022308BF064A30
:103590009BB204BF1560034A9BB208BF146018B207
:1035A00070BD00BF34000144F486084008700D402F
:1035B00000700D400C700D4010700D40024B1868EB
:1035C000B0FA80F04009704700B7084070B5FFF7C7
:1035D00061FC104E104C0123B060104D8F20A37081
:1035E000FFF75CFE8F20FFF74DFE286818B102F050
:1035F00065F900232B60A37853B1FFF74BFC084A11
:10360000B16893685B1A1844034B906000229A706B
:1036100070BD00BF6832002058320020980B002097
:103620001C320020064A136843F0020313605368FB
:1036300043F002035360936843F0020393607047C2
:1036400048200D4007B50C4800F0A6FDFFF7EAFF43
:103650000A4B1A6842F002021A6000220192019A93
:103660000F2A02DC019A0132F8E71A6822F00202FE
:103670001A6003B05DF804FBBD35200054200D40F6
:10368000064A136823F002031360536823F0020311
:103690005360936823F002039360704748200D4005
:1036A000044B186800F02200A0F120035842584152
:1036B000704700BF4C860840024B186800F040007D
:1036C000704700BF4C86084008B50B4B93F90020AB
:1036D000002A09DB094AED2111601160E321116024
:1036E0001A7862F07F021A70FFF7D4FB044BD8619E
:1036F000044B0120D87108BD2428002038880840D8
:10370000683200205832002038B505460C46134B6D
:103710001B689B07FBD4124B93F90030002B01DB95
:10372000FFF7D2FF0F4BEE221A60691E1A60A21C2F
:1037300043F8102C2144022000F0BCFB013C0A4954
:1037400024012143022000F0C7FB022000F0CEFB41
:10375000022000F0E3FB002038BD00BF4C8608408B
:10376000242800203888084002C001C0044B1A6891
:1037700010B142F0010201E022F001021A6070472C
:10378000008608400B280DD1082A0DD161B1074BE6
:10379000013953F8042D01F8012F054A9342F8D15D
:1037A000002070470120704702207047C8850840FC
:1037B000A88508400B280DD1082A0DD161B1074B0F
:1037C000083111F8012D43F8042F054A9342F8D12E
:1037D000002070470120704702207047A4850840F0
:1037E000C485084070B52B4E336813F0400308D0F1
:1037F000294D2B68DCB21B0605D5284BED221A603B
:103800001A60002070BD042CF7D9023C8C42F4DC15
:10381000E4B2032C1BD001190139032000F052FB44
:10382000631E1F491B010320194300F055FB0320B1
:1038300000F05CFB032000F071FB032000F07AFB3A
:103840000028FAD129682D682806D6D506E02B680D
:1038500003702B6843702B688370F3E7493949B2D2
:1038600089B2042008F096FE032005F07F0108F0DD
:1038700091FE33685A060BD5064B1B681B0603D511
:10388000084802F01BF803E0044BED221A601A60AE
:10389000204670BD4C86084028880840388808407B
:1038A00002C0010C9C04002010B5114B1B689B0743
:1038B000FBD4104BED221A601A600F4A12680AB14D
:1038C000EF221A600D4A0E4C137803F07F03137039
:1038D000E37953B1FFF7DEFA0A4A0B49D369C969A4
:1038E0005B1A18440023D061E371012010BD00BFB2
:1038F0004C860840388808402C8608402428002040
:10390000583200201C3200206832002038B5A0F167
:103910000B04E3B20F2B054613D80B4B1B6813F0B7
:103920003F0302D0FFF7C0FF012304EB8404074AE2
:103930000B3414600BB1FFF7C7FE054BE8B21D70E6
:1039400000E0FF2040B238BD488608403C86084071
:103950008E0A002038B50C46072855D8DFE800F05D
:10396000040F1B1F26543B4F012903D1FFF7ACFE68
:10397000002038BD002949D1FFF796FFF8E7A1F1F3
:103980000B030F2B42D8C8B2FFF7C0FF431C0CBF7C
:103990000320002038BD8CB2E2B21D4B02E08CB295
:1039A0001C4BE2B2240A1A605C60E1E731F00305C7
:1039B0002CD101F00100FFF7D9FE174B14F00200E3
:1039C0001A681BBF284642F0200222F020021A602B
:1039D00008BF1A6038BD01F118031F2B16D80D233C
:1039E0000E49DA0051F83300844204DC8B181A794E
:1039F0000B4B1A60BCE713F1FF33F1D2B8E7CCB23E
:103A0000084B49341C60B3E7012038BD022038BDA3
:103A1000C8850840D0850840248608400806210053
:103A2000408608405886084038B50C4600296ED0BC
:103A300010286ED8DFE800F0090F1A1C236D3344FC
:103A4000496D6D6D6D6062646900334B1B680033B6
:103A500018BF012356E0314B05221B6803F07F039A
:103A60000B3B93FBF2F30B33DBB24BE02C4B00E050
:103A70002C4B1A68043B1B6843EA022342E02A4BA2
:103A8000002008601A68243302F001020A601B68F3
:103A900013F0200337D042F002020A6038BD234BF6
:103AA0001A680023D2B2224901EBC3000079904288
:103AB00002D851F8333025E001330E2BF3D11FE04B
:103AC0001C4B1B685BB2493B1CE01B4B1B689906F7
:103AD00003D1FFF7F9FD012300E00023174A126824
:103AE000D207FBD5164A1568493DEDB20BB1FFF779
:103AF000DBFE6DB2256006E00B2303E01A2301E034
:103B00006FF017032360002038BD0723FAE7022077
:103B100038BD012038BD00BF2C8608403C860840D7
:103B2000CC850840D485084000860840408608407F
:103B300008062100588608404886084064860840E8
:103B40006086084010B50B4B1B68990603D1FFF740
:103B5000BBFD012300E00023074A1268D207FBD512
:103B6000064A1468C4F300140BB1FFF79DFE20460B
:103B700010BD00BF48860840648608404C86084057
:103B80002DE9F843364B93F90030002B0EDBFFF79D
:103B900081F90446FFF798FDFFF77CF96FF0090300
:103BA0001B1BC342F8D44FF0010801E04FF000089E
:103BB000FFF7C8FF00284CD02A4E336813F02004CA
:103BC00047D1294D294FEB7943B1FFF763F9284AD3
:103BD000F969D369EC715B1A1844D061FFF75AF99F
:103BE000244C0123AB71E923B8614FF00409236031
:103BF00033689A0708D409F1FF3919F0FF0903D097
:103C00000620FFF705F9F3E733689B0704D4EE239A
:103C100023602360012404E0306810F00200FBD12F
:103C20000446AB7953B1FFF735F9114AB969936985
:103C30005B1A18440C4B906100229A71FFF72AF925
:103C40000123F861EB71B8F1000F05D0FFF72CFEEE
:103C500002E00220BDE8F8832046BDE8F88300BFFB
:103C6000242800204C86084058320020683200206A
:103C70001C32002038880840F8B52E4E357815F0F3
:103C8000010554D12C4B01241C605C609C60A3F5A1
:103C90009323A3F51473F8221A600922C3F8902124
:103CA000152270331A6003F59B230B2203F59E73D4
:103CB0001A60A3F59B23A3F5F07340221A601A68DB
:103CC0007F2742F020021A60D52243F81C5CDF6295
:103CD000DA611A4B1878FFF719FE194A8D2013681C
:103CE00043F004031360FFF7C1FA164B8E201F60E8
:103CF000FFF7BCFA022000F005F91349022000F09A
:103D0000E1F8032000F0FEF803200F4900F0D2F89C
:103D100029460E4801F0BAFD337823433370FFF78C
:103D2000B9F80B4BD8610B4B2046DC71F8BD002075
:103D3000F8BD00BF24280020A8200D408E0A0020D6
:103D40008C86084094860840288808409C040020FF
:103D5000683200205832002038B5038804460BB37F
:103D6000B3F5717F03D000230380032038BD82297F
:103D70001BD108F0B5FB08F049FB8021FFF732FDAD
:103D8000051E0BDD0220FEF7DBFE0F480BF0F4F8FA
:103D9000A8B208F0F9FA0D4B1B6998470C4B1A783A
:103DA000520604D44FF471732380012038BD0022E1
:103DB0001A70084B1D68FFF777FDFFF75DFFAB0634
:103DC000F0D0FFF781FCEDE7B209210004072100E4
:103DD000242800204886084070B5FFF75BF80B4E9A
:103DE0000B4C0123B0600B48A37001F067FD0A4B38
:103DF00000251D60A37843B1FFF74CF8074AB1686E
:103E00009368A5705B1A1844906070BD68320020FA
:103E1000583200209C040020348808401C320020C6
:103E200070B5FFF737F8114B01221D46104C9A7000
:103E3000104AA06011680026042918BF0E490F48D7
:103E40001EBF0B7843F040030B70166001F036FD87
:103E5000AB784BB1FFF71EF8094AA16893685B1A6B
:103E60001844024B90609E7070BD00BF5832002015
:103E7000683200202C880840242800209C04002060
:103E80001C32002010B5094C0021204640220AF0C7
:103E9000E9FC074B01221A602E205C60FFF7E6F96F
:103EA000BDE810402F20FFF7E1B900BF000000205F
:103EB00004F00F4003289EBF014B000119507047CA
:103EC0000000002003289EBF024B03EB001041605E
:103ED000704700BF0000002003289EBF024B03EB89
:103EE00000108160704700BF0000002003289FBFC2
:103EF000034901230A6883409CBF13430B6070474A
:103F000028F00F4003289FBF034901230A6883401C
:103F10009CBF13430B60704720F00F4003289FBFE6
:103F2000034901230A6883409CBF13430B60704719
:103F300014F00F4003289FBF044B03EB0010806870
:103F400000F0070088BF0020704700BF000000207D
:103F5000024B4FF0FF321A60704700BF04F50F406C
:103F6000014B01221A6070474CF00F40094B1A6850
:103F700012F4801F1A46F9D1043B196821F48031EC
:103F800019601168C903FCD41A6842F400321A603F
:103F9000704700BF04200D4070B5164CFEF77AFF45
:103FA0002378154D3BB1154A296813685B1A034401
:103FB000136000232370124E6860012302203168D1
:103FC000637001F0D3F930BF022001F0B3F9306023
:103FD000FEF760FF63784BB1084A074953684968A8
:103FE0005B1A03445360034B00225A70012328607C
:103FF000237070BD58320020683200201C3200202F
:104000009C0B002070B5144B1A681C4612F0030F6D
:1040100021D0124B1A685101FBD41A685201FCD509
:104020000025FEF703FFFFF7A1FF2560022001F046
:1040300081F90B4B1860FEF72DFF0A4B0A495A789D
:1040400032B10A4C4E6862685D70921B0244626035
:10405000012208601A7070BD58200D4004200D40E8
:104060009C0B002058320020683200201C320020B7
:104070002DE9F0413E4B1C6814F03F0413D13D4B39
:1040800053F8243023B1984768B10134052CF6D198
:10409000394D2B783BB1FEF7F7FE0446FEF7FAFEEA
:1040A000201A092803D8BDE8F041FFF775BF002C9E
:1040B000F9D0324B1A6822F400321A60304A116883
:1040C000C902FBD4196841F4803119601368DB031D
:1040D000FCD5FEF7DFFE201A092803D8BDE8F04121
:1040E000FFF744BF6328274F02D92B78022B00D05B
:1040F0000123254E3B60254C0220316801F036F942
:10410000FEF7C8FE2378224D3BB1224A2968136886
:104110005B1A0344136000232370012368606370FB
:1041200001F07EFBB8B14FF00008FFF71FFFC7F8A2
:104130000080022001F0FEF83060FEF7ABFE6378ED
:1041400083B1144A696853685B1A034453600F4B88
:1041500083F8018006E0FEF797FE0028E3D030BF29
:10416000BDE8F081012328602370BDE8F08100BF25
:1041700048860840A00B00202528002000200D4084
:1041800004200D4058200D409C0B00205832002088
:10419000683200201C3200200023064A52F8231007
:1041A000814206D011B942F8230070470133052B34
:1041B000F3D17047A00B0020054B00221A60054A7E
:1041C000136843F004031360034B01221A70704715
:1041D00058200D4010ED00E02528002070B5FEF7B6
:1041E00059FE104E104C0123B060104D9020A3706A
:1041F000FFF754F89020FFF745F8286818B101F050
:104200005DFB00232B60A37853B1FEF743FE084A01
:10421000B16893685B1A1844034B906000229A704F
:1042200070BD00BF6832002058320020B40B00205F
:104230001C32002030B5184B1A78431E3AB9174A81
:104240001278122A03D1164A12784B2A03D001F5AC
:104250002011273117E04A0802F12814B4F1281F71
:1042600004D014F8015D03F8015FF7E701F52011B0
:1042700027310023934205DA11F801598418E554D7
:104280000133F7E730BD074A914204D011F8012904
:1042900003F8012FF7E730BD2B0028002A00280083
:1042A0002900280027002800164A70B515464FF04F
:1042B000FF340023B2F9066056B1967A0C32002E14
:1042C00008BF1C460133052BF4D12346013417D017
:1042D0000C2404FB03F6AA1990804FF0FF30A8517C
:1042E000C8880026D080D672497A04FB0353090798
:1042F00044BF0121D1724FF6FF711981104670BD84
:10430000002070BDF40B0020F0B5224D06462F466C
:104310008FB00024B5F90630A3B101A8B5F9041097
:104320000AF071FE9DF80D3003F03603022B09D11F
:1043300030460DF10E010AF019FB18B90C2000FBF4
:10434000047024E00134052C05F10C05E2D10020B5
:1043500004B2214601A80AF056FE9DF80D5005F062
:104360003603022B0AD130460DF10E010AF0FEFA97
:1043700020B9204601A9FFF797FF08E02046BDF9C4
:104380000A102A460AF073FE1F28E1DD00200FB054
:10439000F0BD00BFF40B00201E4B2DE9F041074695
:1043A0004FF6FF7498461E888EB035B21F2D0DDC77
:1043B00001A829460AF027FE9DF80D2093071CD47A
:1043C00023B2013306D1EB191F2B02DD4FF6FF702C
:1043D0001CE034462846BDF90A100AF048FE23B214
:1043E000DA1982420646E0DCB8F9002020469A42FB
:1043F00002BF084B3F191F8008E02846BDF90A108C
:104400000AF035FE4FF6FF740646CEE700B20EB056
:10441000BDE8F0815E1E002070B504468EB00E46E9
:1044200001A8214615460AF0EEFD9DF80D3003F077
:104430000602022A02D04FF0FF3041E003F02002D2
:1044400002F0FF01002AF6D176B99DF80D3001A8DF
:1044500043F0040321468DF80D300AF000FE194A9E
:104460000023137055B916E01B07EED5BDF9040003
:104470000A46FFF7D1FF0028E7DADCE7124A1A44C0
:10448000516829B1B1F90410A14204BF0021117291
:104490000C333C2BF2D10D4B03F13C01B3F904205A
:1044A0000C33A24201BF4FF6FF7223F8082C002202
:1044B00003F8022C08BF23F8062C8B42EED1002013
:1044C0000EB070BD27280020B80B0020F40B002090
:1044D0002DE9F04F95B0019088463AB14046FFF77C
:1044E0005BFF411C044640F0D98004E0FFF70CFF5D
:1044F0000028F3D0D0E0794A13780292002B40F0E4
:10450000CB809A46082600230593ADF81830DFF8D3
:10451000D4B1734BBAF1000F03D1ABF800A083F80C
:1045200000A01FFA8AF91D784FEAC907BFB25DB132
:10453000BBF800502BB2072B16DD0823ADF8143062
:10454000684B083D1D806BE0BBF8004023B2072B91
:104550000BDD0823083CA4B2ADF81630614BA2B2C3
:10456000072C1A805DD95BE00024BBF800303B4487
:104570009BB219B232B291422ADA07A803930AF029
:1045800042FD5748002202709DF82520039B02F04F
:104590000601022902F0200109D141B9012202706D
:1045A000BDF82220134415449BB2ADB2E1E719B126
:1045B00001339BB2013406E0520706D5BDF8222034
:1045C00013449BB21444A4B2D3E7F31A9BB200E0A5
:1045D0000023A9B2A0B20A18083A1A4492B20FFAFC
:1045E00082FEBEF1000FABF80020DFF8F4C00BDD57
:1045F0009CF800B0BBF1000F03D0C0F10805ADB2CC
:1046000002E0C1F10804A4B2ADF818309CF8003003
:10461000ADF81450ADF8164013B9BEF1070F00DD28
:104620000022BDF91430002B25DCBDF91630002B1B
:1046300021DD2D4BB9B2B3F9004008B2844214B267
:10464000C8BF1980002C13DD07A8002132220AF010
:1046500009F922238DF82530002507F108012944A6
:1046600007A809B201350AF0FAFC2BB2A342F4DB29
:1046700048460AF018FD0AF1010A0836BAF1040F9B
:10468000B6B27FF440AF4046FFF786FE431C0446B7
:1046900004D1029A0123137000201BE00021322272
:1046A00007A80AF0DFF824B2019927220DF12600AD
:1046B0000AF098FA022307A82146ADF822808DF867
:1046C00025300AF0CCFC204607A9FFF7EDFD08B124
:1046D0000023036015B0BDE8F08F00BF272800203D
:1046E000262800205C1E00205E1E00202DE9F843D5
:1046F00081460D460024234E4FF00C0808FB046849
:1047000098F808304BB988F808304846FFF7FCFDA8
:104710000746C8F80400B0B906E00134052CEAD118
:104720004FF0FF30BDE8F88305F00303012BF7D00D
:10473000484608210122FFF7CBFEC8F804000028F4
:10474000EED0076007E00368013304D1B0F904003C
:104750000AF05DFC38600C2303FB0462117A6343AA
:10476000294315F00405117218BF5268204618BF7E
:104770001568F2185268F550937A01339372BDE8C8
:10478000F88300BFB80B002004280CD8064B0C227D
:1047900002FB0030037A33B14168002202728B7A47
:1047A000013B8B7242607047B80B0020042870B543
:1047B00025D80C244443134B1E19357AFDB142B160
:1047C000022A02D17268126802E0012A17D11A592E
:1047D0001144002913DB0C2202FB00325268B2F9AB
:1047E0000640B1EB042F0ADC14688C4202DAAC07F5
:1047F00005D511600C2250431950084670BD4FF08A
:10480000FF3070BDB80B00200428F8B506461446EA
:1048100021D80C234343114DEA18177ADFB1F8076A
:1048200019D55768EA583B68A018984288BF9C1A67
:10483000FB7ADB070DD4B7F904303232084602EBBD
:10484000032221460AF0A8FC0C2070432B58234475
:104850002B502046F8BD4FF0FF30F8BDB80B0020BC
:104860002DE9F04F9FB0042800AF8046B960144690
:1048700002D94FF0FF30BFE0614D0C2303FB005322
:104880001A7A002AF5D09207F3D55E680C2303FB51
:1048900008F305EB0309EB58B6F9061003F13202F1
:1048A0002244B2EB012F40F29080B6F904A007F148
:1048B000100051460AF0A7FB07F11A000121FFF78B
:1048C00015FF061ED5DBB7F9161007F11A004900CF
:1048D00009B20122FFF7FCFD8346002852D04FF0B9
:1048E0000009BA8AC7F80CD0002A08BF4FF48072BA
:1048F000D11D21F00701ADEB010D30466946FFF7F0
:1049000083FF031E0BDA00210A46BBF90400FFF700
:1049100083FD3046FFF738FFD7F80CD0A9E70BD05E
:10492000BBF90420194609EB0222684632327B604B
:104930000AF0CBFB7B689944D7F80CD0002BD0D180
:104940002F4A02F13C00117A59B15168B1F90410B3
:10495000514501BFC2F804B09BF80A1001318BF831
:104960000A100C328242EED1012150460022FFF79C
:1049700053FD0028BBF9041008DA084600210A4656
:10498000FFF74AFD3046FFF7FFFE72E707F14400EC
:104990000AF039FBBA8A07F14400A7F848207A8A5E
:1049A000BBF90410A7F846200AF059FB9BF80B202E
:1049B000CBF8009022F001028BF80B203046FFF775
:1049C000E3FE0C2303FB08535FE732689342FFF6D4
:1049D00050AFB6F90420B86803EB02223232214608
:1049E0000AF073FB2046D9F800302344C9F80030A0
:1049F00032689342C8BF33607C37BD46BDE8F08F54
:104A0000B80B00200FB407B504AA52F8041B0448E1
:104A1000019200F039F803B05DF804EB04B0704780
:104A2000AC0400200EB43FB5094B07AA52F8041B92
:104A30000190049304A801AB0392059300F024F8BD
:104A4000019B00221A7006B05DF804EB03B07047BA
:104A5000CDF1200070B505460C46102C07D92B6807
:104A6000686808491022984750B9103CF5E734B1FE
:104A70002B6868682246BDE8704002491847204606
:104A800070BD00BF6D0A21002DE9F04F80468FB048
:104A9000069107920026069B1B78002B00F05F838F
:104AA000069B1C4613F8012B1AB9069B9C4203D1A6
:104AB0000FE0252AF5D1F8E7069BD8F80400E51A9F
:104AC0000699D8F800302A469847002840F02A83F3
:104AD0002E442378002B00F042836378611C002B66
:104AE00000F03D8300240A4611F8013B2B2B11D026
:104AF00006D8202B11D0232B12D144F00804F2E762
:104B00002D2B04D0302B0BD144F01004EBE744F0F4
:104B10000104E8E744F00604E5E744F00204E2E7B4
:104B2000A3F1310108290DD8134600251A4613F8C0
:104B3000011BA1F13000092811D80A2202FB05153A
:104B4000303DF3E72A2B09D1079B01321D68191D5F
:104B5000002D0791B8BF44F0010400E00025137850
:104B60002E2B1CD15178531CA1F1300009280ED8EE
:104B7000194600270A780B46A2F13000092801F1F6
:104B800001010FD80A2303FB0727303FF2E72A2948
:104B900006D1931C079A111D0791176802E013466E
:104BA0004FF0FF371A786C2A09D15A786C2A02D153
:104BB00044F080040AE0013344F060040BE0682A0A
:104BC00009D15A78682A03D144F02004023302E064
:104BD000013344F040041A78642A3CD01FD8462A96
:104BE00048D00DD8252A5AD003D8002A00F0B78221
:104BF00057E0412A4AD0452A53D144F4424450E078
:104C0000582A31D004D8472A4BD144F4A13448E083
:104C1000612A38D0632A44D144F4A06441E06E2A6A
:104C20003AD007D8662A22D027D3672A28D0692A03
:104C300011D036E0732A2CD006D86F2A11D0702AF2
:104C40002FD144F440742CE0752A07D0782A28D15B
:104C500044F4C85425E044F4245422E044F410649D
:104C60001FE044F488541CE044F4B24419E044F4D6
:104C7000007416E044F4844413E044F4024410E069
:104C800044F481340DE044F4C1340AE044F4E134E6
:104C900007E044F4806404E044F4E06401E044F498
:104CA000C0640133069304F4E063B3F5806F00F051
:104CB000AA8116D8B3F5807F2BD0B3F5407F7FF45F
:104CC000EAAE079BA04914F4804F03F104029F4809
:104CD00018BF08460DF1330107920F461A680023EA
:104CE000C5E1B3F5C06F08D0B3F5E06F00F03182D5
:104CF000B3F5A06F7FF4CFAE00E2D8F80030D8F85B
:104D00000400934901229847002840F00B820136A5
:104D1000C1E6002FACBF24F01004012714F40053A7
:104D2000039304F0E00337D0402B17D008D8DBB151
:104D3000202B2AD1079B1A1D079293F9002017E018
:104D4000602B11D0802B20D1079B073323F0070362
:104D500003F108020792D3E900230AE0079B1A1D1A
:104D60000792B3F9002003E0079B1A1D07921A6807
:104D7000D317002A73F1000109DA524263EB4303AF
:104D8000CDE900234FF0010933E000220023CDE9F3
:104D900000234FF000092CE0402B16D007D8CBB1F0
:104DA000202B20D1079B1A1D07921A78EEE7602B63
:104DB00010D0802B17D1079B073323F0070303F193
:104DC00008020792D3E90023E1E7079B1A1D079227
:104DD0001A88DBE7079B00211A1D07921B681846FB
:104DE000CDE90001D5E700220023CDE900234FF0F3
:104DF000000904F4C053B3F5805F0CD0B3F5C05F75
:104E000033D0B3F5006F4FD1DDE900230DF1360A41
:104E1000CDE9042304E0DDE900230DF1360A15E0B5
:104E2000DDE9042313433AD0DDE904010A2200231B
:104E300008F09EFEDDE9040130320AF8012D00235E
:104E40000A2208F095FECDE90401E9E752EA0301E0
:104E500025D002F0070130310AF8011DD10841EADE
:104E60004371D8080A460346F0E7384B14F4804FE4
:104E70000DF1360A344908BF1946DDE9002352EA2C
:104E800003000CD002F00F00085C4FEA131E0AF872
:104E9000010D100940EA037002467346EFE70DF179
:104EA000360BCAEB0B0B03E00DF1360A4FF0000B8B
:104EB00041F6080241F208035F4502EA04028CBF92
:104EC000CBEB070700279A4202D1002F08BF01272A
:104ED00041F608018A4207EB0B030DD1DDE9000121
:104EE00050EA010208D01B4914F4804F1A4A4FF0CF
:104EF000020C18BF0A4602E04FF0000C624603990C
:104F0000A1B1B9F1000F0AD104F0060102290AD0BB
:104F10000629124904BF4FF0010C0A4606E04FF083
:104F2000010C0F4A02E00F4A4FF0010C63449D420E
:104F30008CBFED1A002514F0010922D1E30613D528
:104F40002F444D461DE000BF380A2100490A2100C8
:104F50006B0A21005D0A21005A0A2100620A210021
:104F6000600A21002A09210040462946CDF80CC0DC
:104F70000092FFF76FFD009ADDF80CC0002840F0AA
:104F8000D180BCF1000F0DD01146D8F80030624638
:104F9000D8F80400CDF800C09847DDF800C000281C
:104FA00040F0C0803C465E44102CD8F800300DD94B
:104FB000D8F804006C491022CDF800C098470028AA
:104FC00040F0B080103CDDF800C0EDE75CB1D8F8EF
:104FD000040065492246CDF800C09847DDF800C0BE
:104FE000002840F09F80D8F80030D8F804005146DF
:104FF0005A4666449847002840F094803E44B9F1F0
:10500000000F79D073E0079BD3F800A01A1D079218
:10501000BAF1000F09D05346994699F800200133A0
:10502000002AF9D1CAEB090903E0DFF840A14FF0EB
:105030000609002F02DBB94528BFB9464D458CBF94
:10504000C9EB0505002514F0010405D140462946A9
:10505000FFF700FD002865D1D8F80030D8F804002B
:1050600051464A46984700285CD14E443EE052EAF9
:10507000030E0ED002F00F0E10F80EE04FEA131CD4
:1050800001F801ED4FEA121E4EEA037E72466346B6
:10509000EDE70B467F1A01BF3022012701F1FF33F4
:1050A00001F8012C03377822BD4203F8012C4FF0A0
:1050B000300203F8022C88BFED1B4FF0230298BF8B
:1050C000002514F00104A3F1030903F8032C04D113
:1050D00040462946FFF7BEFC20BBD8F80030D8F880
:1050E000040049463A469847E0B93E4424B1404658
:1050F0002946FFF7AFFCA8B92E44CCE4079B012D4D
:1051000003F104021B688CBF05F1FF35002514F084
:10511000010407928DF8203008D140462946FFF758
:1051200099FC10B14FF0FF301AE02E44D8F800304F
:10513000D8F8040008A9012298470028F2D16F1C72
:105140002CB140462946FFF785FC0028EAD13E44B1
:10515000A1E4079B1A1D1B6807921E609BE4304662
:105160000FB0BDE8F08F00BF280A2100640A2100BB
:10517000F8B50388064615462BB14A2B15D00023F7
:1051800003800320F8BD17480AF092F804462CB1BA
:10519000201DA1680AF02FF82468F8E7124B0122BD
:1051A0001A704A2333800120F8BD8829FBD10D48AD
:1051B0000AF07EF80446002CF3D0231D9D420ED148
:1051C000084821460AF07EF8084B62691F681A6099
:1051D000A2691D460AB1E06990472F60E1E72468A3
:1051E000E9E700BF300C002028280020480C0020F0
:1051F00010B5064B002406481C700AF056F82146EC
:10520000BDE81040034800F041BB00BF2828002043
:10521000300C0020B404002070B50446E3610B4B51
:10522000049D1B786561A26143B1094D094B2E684D
:10523000201D2B6009F0DFFF2E6000E0A1602146F9
:10524000BDE8704004480AF051B800BF282800208B
:10525000480C0020B4040020300C002013B5034C8F
:1052600024680094FFF7D8FF02B010BD480C00205E
:1052700070B5094B05461B783BB1084C084B2668B6
:105280000430236009F0C0FF26602946BDE8704065
:1052900004480AF02BB800BF28280020480C002042
:1052A000B4040020300C002070B5094B05461B7873
:1052B0003BB1084C084B26680430236009F0ADFF71
:1052C00026602946BDE8704004480AF00FB800BFC8
:1052D00028280020480C0020B4040020300C0020B6
:1052E00010B5084B04461B781BB1043000F0DEF803
:1052F00001E0C36003612146BDE81040024809F0A7
:10530000E1BF00BF28280020300C00200023064900
:10531000002241F82320054941F8232004495A542A
:1053200001330E2BF3D17047683200201C3200206D
:105330005832002038B50A4B04461B5C094D63B156
:10534000FDF7A8FD084A55F8243052F8241042F819
:1053500024005B1A034445F8243055F8240038BD76
:10536000583200201C32002068320020014B43F8E4
:10537000201070471C32002010B50E4C236813B962
:105380000D4A136010BDFDF72FFD216891E80C0058
:105390001A44131A8A6842B192E812002144091A89
:1053A0008B4228BF0B469268F5E71844024B186001
:1053B00010BD00BF340C0020380C0020014800F064
:1053C0007DBA00BFC4040020F8B5038805462BB1A0
:1053D000592B09D0002303800320F8BD1E4A136017
:1053E00059232B800120F8BD872920D08229F7D1AD
:1053F000194F00263C68002CF2D0204609F047FFE8
:1054000090B1E0688821224600F014FA50B9E060BB
:10541000A3680EB1B36000E03B600023A360FFF718
:10542000ABFFE5E7FFF7CAFF2646A468E3E70A49B2
:105430000B680BB90B60D3E7D868904201D19B6829
:10544000F7E70B6099680029CAD0C86890420ABF84
:1054500089680B469960F5E7340C002010B50446C6
:10546000FFF7ACFFE3680B4A4BB113683BB1A342B3
:1054700003D1094A1268DA6007E09B68F6E7064B39
:105480001B68E36013681460A360BDE81040FFF779
:1054900073BF00BF340C0020480C0020024B18687A
:1054A000003018BF01207047340C002010B50B4AA3
:1054B00004461368984206D18368136008E09A682E
:1054C000A24203D01346002BF9D103E0A2689A60F0
:1054D000FFF752FF0023A360E36010BD340C0020EF
:1054E0003A4B70B500241C60394B9EB01C60394BA0
:1054F00001251C60384B05261C60384B29461C6072
:10550000374B2A461C60374B37481C60374B1C60B2
:10551000374B1C60374B1C60374B1C60374B1C6093
:10552000374B1C60374B1C60374B1C60374B1C6083
:10553000374B1C60374B1C602B460195039500963A
:105540000294FFF75FFA344A21463448FFF75AFACB
:1055500031463348FFF756FA29463248FFF7C6F876
:10556000314D2860314809F007FD2B68A34203DA6A
:105570002F4809F001FD1DE02E48FFF743FA2146B0
:1055800000222868FFF712F9286805A96422FFF7AE
:105590003BF9002804F1640407DC234B1868FFF78B
:1055A000F3F82548FFF72EFA04E005A92348FFF792
:1055B00029FAE4E7224809F0DFFC06211948FFF741
:1055C00095F8204B18601EB070BD00BFD831002088
:1055D000CC310020DC3100201832002000320020C5
:1055E000D431002004320020980A2100E831002044
:1055F000E431002014320020F0310020D0310020AE
:10560000C4310020F4310020F8310020083200209D
:10561000E03100200C32002080841E00210B21008C
:10562000560B2100620B21003C0C00206E0B210068
:10563000800B2100990B2100A40B2100AD0B210050
:10564000B00B2100A032002038B5836804460D4617
:105650009BB10A4804600220A07304F10C00984733
:105660000238012801D9832D05D120462146BDE805
:10567000384000F005B80123A37338BD480C002062
:105680002DE9F8431C4A0446156889462B46904686
:105690001A4E3768A34204D00BB11B68FAE7BDE885
:1056A000F88334B3A37BABB10023A37345B1AC4201
:1056B00004D028468721224609F0C0FD2D68F5E771
:1056C000A3683BB14C4505D0346004F10C00832144
:1056D0002A469847D8F800309C4203D12268064BEE
:1056E00005E0134623B11A68A242FAD122681A6073
:1056F0003760BDE8F88300BF4C0C0020480C002048
:1057000010B5094B00221A70084B1C685CB1E37B92
:105710003BB101230022A373E27320468221FFF7ED
:1057200093FF2468F2E710BD2C2800204C0C0020C9
:10573000024B1878421C1A70704700BF2D280020B9
:10574000064B8A221A70064A00231370054A13700A
:10575000054A1360054A1360704700BF2D280020DA
:10576000292800202B2800204C0C0020480C002069
:105770002DE9F041214E33780BB1FFF7C1FF204DE9
:105780002C78002C34D0DFF88CE00C229EF800300E
:105790001C495A4388181C4F895CDFF87C8042689A
:1057A000DFF878C08068013303F01F03013C3970D3
:1057B000C8F80020CCF800008EF800302C7088B9B2
:1057C000124C134B1B68236023688BB133780BB1E9
:1057D000FFF796FF20683978D8F8002009F02EFDF1
:1057E0002368EFE7812904BF0123837309F026FDB5
:1057F000337828781844BDE8F08100BF2C280020B9
:105800002B280020540C00202E280020500C0020B3
:105810004C0C002029280020400C0020440C0020C3
:10582000024A034B10781B78184470472B2800203D
:105830002C280020F0B50C4E3478202C11D00B4BC6
:105840000B4D1B780B4F234403F01F032B700C25CB
:105850006B430134FD18A860F9546A60347000206D
:10586000F0BD0120F0BD00BF2B280020292800201A
:105870002A280020540C002038B5034C256809F074
:10588000DDFC256038BD00BF480C002010B50A467D
:1058900009490C68234683420DD00BB11B68FAE717
:1058A00048B1046008600121817383818121BDE8D2
:1058B0001040FFF7E1BF10BD4C0C002038B1837BD6
:1058C000013B012B9FBF024A0123C3731370704732
:1058D0002C28002006480023064A074952F82320B6
:1058E00051F8231001330E2B01FB1200F4D1704745
:1058F00080841E00980621001C32002010B5084C40
:10590000206858B100232360816843689847236862
:1059100023B1BDE810401868FDF7D2BA10BD00BF32
:10592000D40D002010B50446FDF768FA94E80C0089
:105930001344C01A024B98428CBF0020012010BDB6
:10594000FEFFFF7F38B505880446672D09D0792D05
:105950002ED0002D32D1FFF7EBFE1B4B18701B4BE6
:105960001D601B4809F055FD431C01D167231DE054
:105970000A28164B07D01A687E2AF2DC511C1960DF
:10598000144B9854EDE7196800254A1C1A60114A17
:105990000D4B555428461978FFF74CFF0E4B8521C7
:1059A00018682A46FFF746FF20B97923238009E0CB
:1059B000852907D1054B00221A60D2E70023038016
:1059C000032038BD012038BD233F0020E00D00201A
:1059D000D80D0020B0280020480C00200D2810B55C
:1059E000014615D00B4C23782BB90B4809F0FDFC70
:1059F00048B9012306E00A2805D1074809F0F5FC5B
:105A000008B1002323700548FFF758FF012010BD9F
:105A1000002010BDAF280020D80D0020D4040020A5
:105A200008B505480549802209F0D8FCBDE80840C2
:105A300003480021FFF72ABFD80D00202F2800209F
:105A4000D4040020054A136843F004031360044B98
:105A50001B68906943EA002080B2704700700D40D7
:105A600014700D40174A136823F00C031360164B93
:105A700001221A601A68012AFCD1144B08221A600C
:105A8000E322C3F8142203F505731946104B1B6873
:105A9000DB07FBD5102000230E4A0138126802F004
:105AA000010243EA02034FEA43039BB2F4D1002B05
:105AB000F0D0094A180A03F0FE0310601360EF23C8
:105AC0000B60704700700D40A8200D4024860840F0
:105AD000648608409C86084014700D4070B50588A7
:105AE0000446772D30D07E2D3FD0002D4DD1FFF7CD
:105AF0001FFE294B1870294B1D601D462B68284A34
:105B0000264E52F823204AB126480021C1549368FA
:105B100080209847336801333360EFE7224A1370DF
:105B2000772320E01F4AD256002A12DB1B4A136853
:105B300001331360194B1C4A1B6812789342F1DB46
:105B40001A4B1B68002BEBD0184A00231360134A32
:105B5000EFE7114A00201178114A52F82320FFF78D
:105B600069FE30B97E23238013E00B4B1B788B42F8
:105B70000FD10A4B0B491A688B5C03F07F038B54DF
:105B80000A4A136801331360D0E70023038003201F
:105B900070BD012070BD00BF243F0020E40D002037
:105BA0008C0400201F3F002030290020E80D002039
:105BB000094B1A780023934204DA084951F823105C
:105BC000814207D106490748CA5C62F07F02CA5485
:105BD000FFF774BE0133EEE7302900208C0400206B
:105BE0001F3F0020E40400200C4AB82303FB0022DE
:105BF000002330B553821A46094CE1188D782DB137
:105C00001C5D844202BF00248C70013240F24C5172
:105C100071338B42F0D1104630BD00BF080E00201A
:105C20003C29002008B5064803F01CF9054B012269
:105C30001A70FD2100225A709970DA7008BD00BFF9
:105C40008D5E20003229002010B513780446087AB2
:105C500083F0020398421DD1487A5378984219D1B3
:105C6000887A9378984215D1C87AD378984211D11E
:105C7000087B137998420DD1487B5379984209D11A
:105C8000887B9379984205D1C87BD379984201D11A
:105C900003201BE00B890F4A6BB94B89B3F57F4F8B
:105CA00009D18B89FE2B06D11368C989022023F8FC
:105CB000021B13600AE0136851F8080F083343F819
:105CC000080C486843F8040C13600120A040C0B2DF
:105CD00010BD00BFF40D002010B50F4C0220A179BB
:105CE00006F058FCA379112B01D0062B05D1238D8A
:105CF000618D9942A8BF194608E03A2B05BF94F878
:105D0000281094F82930002143EA01210120BDE840
:105D1000104006F03FBC00BFB832002010B5084C60
:105D200001462378012B08D1A01C082208F08EFC24
:105D300000280CBF2046002010BD002010BD00BF71
:105D40003229002008B50146102006F031FC044B32
:105D500004489B6800219847BDE80840FDF760BAF9
:105D600024072100695D200010B508460C46114645
:105D700002F00AFC044B1B6813B19B68204698474D
:105D8000024B1C6010BD00BF040E0020000E00205E
:105D9000F8B505460023114A712404FB0324A278B8
:105DA000B2B9617006F0FAFA26460D4F0D4A3B78FB
:105DB00006F8035BC01A1568A0701D4406F0EEFAE1
:105DC0003A782946821A304608F072FCA078F8BD6D
:105DD00001330C2BDFD14FF0FF30F8BD3C29002000
:105DE000882E0020F80D00202DE9F8434FEA121903
:105DF000B9F10F0F80461D4602F00F040BD00F2C97
:105E000005D1B9F1000F0AD11024274619E0B9F1E4
:105E1000000F09D004E00F2C4FF0100900D110241E
:105E200040464A4608F044FC09EB04020F2A274684
:105E300006DC08EB09000021C2F1100208F012FD97
:105E4000BCB1114DC7F110002E68404431462246C6
:105E500008F02EFC022C08D1B9F10A0F9FBFFF23D6
:105E600088F80B30FE2388F80C3034442C60BDE8F1
:105E7000F883B9F1000F05D040462946BDE8F84344
:105E800009F02BBBBDE8F883F40D00202DE9F04F9D
:105E90008E4E8F4D002387B033702B70044606F072
:105EA0001FFB06F0B3FA8B4A8B4B126818608DE823
:105EB000600099460AB1FFF70FFF04A80CB98749A3
:105EC00000E021460AF019FA854B864E1A880393A2
:105ED0003E2A40F20182D9F800B0834D0BF1020353
:105EE0002B60009B06F1180093F80080002308F156
:105EF00002080BF80830FFF711FF20B906F108007F
:105F0000FFF70CFF20B10BF103032B60802400E0AE
:105F1000044672783178130943EA0113DBB298081A
:105F200040EA8313DBB212F00F0FDEB26E4F01F0C6
:105F30000F010CD16B48408848B911B912F0F00F2D
:105F40001FD03B6803F8016B3B6070261AE079B9FB
:105F500012F0F00F0CD1296823F03F031A43634B72
:105F60000A701B88033121F8023C6826296009E089
:105F70005C4A2B681068186003F8046B2B6060267D
:105F800000E07826574B9A790293112A08BF46F011
:105F9000040673075EBF3B6803F8012B3B60029B5E
:105FA000DB79402B06D0FF2B07D0012B08D146F020
:105FB000010609E046F0020606E046F0030603E0AB
:105FC0003A6802F8013B3A60029A464B128982B95C
:105FD0005A8972B99A8962B9DA8952B91A8A42B968
:105FE0005A8A32B99A8A22B9DB8A13B944F040003E
:105FF00013E03F48FFF792FE3E4B186078B14278BD
:106000001BF80830042043EA02130BF80830384923
:10601000394AFFF719FE60F03F00C4B227E0029B47
:1060200030491A8948F2FE039A420CD14B8B53B97E
:106030008B8B43B9CB8B33B9042008312E4AFFF741
:1060400003FE2043E9E73A68DFF8A4C096460CF166
:10605000100A634603CB5345CEF80000CEF8041077
:106060009C460EF1080EF4D11F4B10321A60DFF877
:1060700074A09AF81830FF2B40F08A809AF8192003
:1060800044F0080E022A5FFA8EFE37D1BAF81A30B1
:10609000A3BBBAF81C308BBBBAF81E3073BBBAF87E
:1060A00020305BBBBAF8223043BBBAF824302BBB9C
:1060B0009AF8263013BB3B689AF8272044F00B006F
:1060C00003F8012BC4B23B609FE000BF31290020E0
:1060D000882E0020040E0020F80D0020DD0C210089
:1060E000A4320020B8320020F40D0020BA32002083
:1060F000C0320020EC0D0020B03200209B4B588BAA
:10610000194688BB988B78BBD88BA8B9188C98B9DE
:10611000588C88B993F8240070B9296844F00A00B3
:10612000C4B2084600F8012B33F8252F043121F8BA
:10613000032C9B78837015E0C98B8C4BA1B9198C0B
:1061400091B993F8221079B9296844F00900C4B2D2
:10615000084600F8012B53F8232F063141F8052C8F
:106160001B790371296050E0814ADFF818C2146876
:106170000CF110082746634603CB4345386079602D
:106180009C4607F10807F6D11034146074463CE0D1
:106190000AF11800FFF7C2FD764B186050B1437842
:1061A0001BF8081044F004040B43E4B20BF8083069
:1061B00000200EE048F2FE03BAF818209A4210D1EF
:1061C000BAF81A306BB9BAF81C3053B9BAF81E30A5
:1061D0003BB90AF1180104AAFFF736FD2043C4B207
:1061E00013E0634ADFF89CC117680CF11008BE4643
:1061F000634603CB4345CEF80000CEF804109C461E
:106200000EF1080EF4D110371760019A5749282370
:1062100013708B79112B53D14FF2B0030A8D52BA00
:1062200092B222F00F0080B2984217D14B8D5BBA28
:1062300023F00F031B041B0C83420FD12868F323A8
:1062400003704B8D02301A0A0B8D1B0A02EB0313ED
:1062500003F5AA6300F8013C286028E0029B43494B
:106260005B8D5BBA03F47F43B3F5704F09D12B68A4
:10627000F1221A700A8DA3F801204A8D120ADA70F1
:106280000CE002F47F42B2F5704F2B6808D1F22285
:106290001A700A8D120A5A704A8D5A80043305E02A
:1062A000F0221A70886A053343F8040C2B60324BD5
:1062B0001A882B6823F8022B019A2B603023137065
:1062C000009BD9F800201B78D65413445C70284BEF
:1062D0001B689B1A009A1AE0D9F80020412313701A
:1062E000009B06F128051C78631CDBB21344324680
:1062F00003CAAA4218605960164603F10803F6D192
:10630000009B29341C70019B019A1B7828331020B4
:1063100013700DEB000106F04BF9184BDFF86880A5
:106320001B68984730EA200028BF1520039BC0F166
:106330007D051C88019BDFF854A01E78009BA21BE2
:1063400093F800B00E4FCBEB05039A4240F3CD809B
:10635000C0F17803019306F055F9019B94FBF3F427
:106360000134A04214DC0020D1E000BFB83200208C
:10637000F40D0020EC0D0020E6320020F80621008C
:10638000882E0020D0320020A432002031290020A5
:10639000D9F800B05F4B3C7800221A60594622467B
:1063A0000BF10400039308F0F9F9B8F800205A49FA
:1063B0006FEA82426FEA9242C2F307228BF8002012
:1063C000B8F8002004348BF801200A88E4B2501C8D
:1063D0000880110ADFF850C18BF802102D1B9AF8C3
:1063E000001025F007054D4E61448BF803200BEBA0
:1063F00004002A46CDF808C03C70356008F058F912
:10640000281980B205F0C0FF06F002F9039B04468C
:106410001D460028A7D00DF1100B5846FFF792FC3F
:10642000204606F02DF9204606F014F92B68012BC2
:1064300099D0043B012B96D99AF800A033685344B5
:106440001FFA83FA05233B70354B1A68B8F8003001
:106450006FEAC3436FEAD343C3F307231370B8F85B
:1064600000305370019B23F0070737602D4B1B88CA
:106470009A454BD2D9F800204FEADA0111713268FF
:10648000CAEB03039342B8BF244AD9F80000B8BF4F
:106490001360009B376893F80080029B3A4603EB39
:1064A0000A01404408F004F908EB070080B205F047
:1064B0006BFF06F0ADF8074600283FF454AF58468E
:1064C000FFF740FC384606F0DBF8384606F0C2F825
:1064D000124B1B689A442B681FFA8AFA012B3FF46F
:1064E00042AF043B012BC1D83DE7D9F800000E496B
:1064F0005844314408F0DCF8B8F800005844801BD8
:1065000080B205F041FF04A8FFF71CFC012007B092
:10651000BDE8F08F000E0020601E0020FC0D002062
:10652000F80D0020A4320020B83200202DE9F047F9
:10653000074688461646002A47D0434C0025A14608
:10654000238ABB4215D1638A9BB10F2006F03CF829
:106550000146204609F0D6FE58B1ECB2204631463D
:10656000FFF716FC002827DA0027DFF8E0A0B8467E
:106570000DE0B834002D5DD10125E1E7A8450BD130
:106580000AF1B80AB8F1000F10D14FF001083AF83B
:10659000063C002BF4D0F1E7504608F078FE0028C6
:1065A000EED04046FFF720FB0744E9E7002F41DD2E
:1065B00020463146FFF7ECFB00283BDDB82303FB08
:1065C0000595AB8A1844A8823AE0204DFF2435F89F
:1065D000063C4FFA84F97BB3284608F058FE10B108
:1065E0003046FFF701FBB9F1FF3F03D135F8063C18
:1065F00003B9F4B2012E05F1B80501D00126E6E792
:1066000065B26B1C16D0B8235D43DFF83C900F20B9
:1066100009EB0506A6F81280378205F0D5FF014682
:10662000304609F06AFE05F118004844402108F0A0
:106630001CFE05E0FF2403E0B9F1FF3FDAD1D8E703
:1066400060B2BDE8F08700BF080E0020200E0020D9
:106650002DE9F04FA44CDFF8C8A287B000268AF8D5
:106660000060267005F0D2FEA04DA04628600420F0
:1066700005F098FF9E4B2A6800B21860577813788F
:1066800047EA032703F0F803C02B02D0E02B19D010
:106690003AE090782378D278C7F30A07043342EAC5
:1066A0000020394632462370FFF740FFB0F1FF3F2C
:1066B000814600F081828F4CB82303FB0044012601
:1066C000223424E01379D17890782278C7F30A072E
:1066D0000532227041EA00201A4639460093FFF73E
:1066E00025FFB0F1FF3F814600F066828149B82264
:1066F00002FB0012958A4FF0010BBD4234BF00250A
:1067000001253446009BE0E1B1464F467A4C2968AA
:1067100098F800504A5D02F0E003602B40F0B7812A
:10672000A81C084429444D78744B5FFA85FC1CF082
:10673000800F18601CBF0130186012F0100F02F0BB
:10674000080130D1D1B9196831F8010FA4F801005E
:106750008978E170196811F8040B1960830803F057
:106760000F0141F060012170617803F0300343EACA
:10677000801301F00F010B43637030E01868602153
:10678000864621701EF8011B03304FEA910B0BF077
:10679000300B01F00F014BEA01016170BEF80010EF
:1067A000186061801BE001F0FF0E99B91968087844
:1067B000C0F3830040F06000207011F801BBA4F822
:1067C00002E04FEA9B0000F0300040EA8B1060705E
:1067D000196004E06023237000236370638002F07B
:1067E000040303F0FF0100912BB944490B6813F82F
:1067F000010BA0710B6012F003020BBF3F4A404B2C
:1068000013689B5C09BF13F8011BE3711360E1710E
:106810006B06C5F3011233D51CF0800F1DBF334941
:1068200098F80030096800211EBF5B1899780909A3
:1068300022B904F1080B9AB9114614E0314B1878CB
:10684000012805D1587888420CBF1946002100E084
:1068500000212D4B19600029EBD1B3460D4633E1E1
:10686000294B19680231294B0F209A5C0391CDF80E
:1068700008C0019205F0A8FE0399034658460BE0B4
:10688000234B0F209A5CCDF808C0019205F09CFEC6
:106890002049034604F10800019AFFF7A5FA05F024
:1068A0000800DDF808C005F0030200F0FF0105F064
:1068B0000403002836D0002B6CD1174B1B88ADF891
:1068C0001430531E012B9FBF0C490B6813F8010BAA
:1068D0000B60124B98BF8DF815009A5C04F11800FC
:1068E00005A9002354E000BF882E0020F80D0020E9
:1068F000F00D0020080E0020B8320020F40D00201A
:106900000C0C210032290020EC0D0020250C210068
:10691000100C2100140C21000A0C2100160C21007F
:106920003129002053B31CF0800F1DBFA44998F8F3
:10693000003009680B4618BF5B18A24918BF9D7844
:10694000087818BF05F00F03012805D14D789D4246
:106950000CBF0D46002500E000259B4B1D60002D5F
:1069600000F0AE80994B10209A5C019205F02CFE4D
:10697000A91C0346019A04F1180009E0944B102069
:106980009D5C05F021FE2A469249034604F1180059
:10699000FFF72AFA9AF800008F4900F128038AF8D5
:1069A0000030009B002B53D00B681A7802F0F802DD
:1069B000F02A4DD11122A2711A7802F0040502F0DA
:1069C000F302F03AEDB2032A7CD8DFE802F0020AC3
:1069D0001622B3F801200533228533F8022C628594
:1069E0002CE0B3F801202285DA78A2F5805292B229
:1069F000120242F0F002628509E05A78A2F5805254
:106A000092B2120242F0F00222855A886285043363
:106A100014E05A7802331209A2F5756292B212029A
:106A200042F0F002228513F8012C02F00F02A2F5C9
:106A3000756292B2120242F0F00262850B6025B9D3
:106A40000B6833F8022BE2850B6030308AF80000C7
:106A50005B4A0B6812689B1A88F8003067B905F02A
:106A60009DFC5E4B1B78C01A9AF8003018442838F9
:106A700003122371607104E0A7F128031A12227136
:106A80006371A379112B1DD1A388A3851AE0412A34
:106A900040F092806A1CD2B28B18224603F1280182
:106AA00053F8040B8B4242F8040BF9D105F129038A
:106AB00088F800309AF8003028338AF8003001E076
:106AC000B34601E0B34600252B46009305F066FC73
:106AD00098F8002082426FD805F060FC3F4A404998
:106AE0001278009BC2EB0008C1F8008040F21451FC
:106AF0009AF800A0DB009BB2534443448B425BD81E
:106B00003CB12F4B04EB0A0019681144424607F0D0
:106B1000CFFD002F39D056B132484FFA89F3B8244F
:106B200004FB030308EB0A0189B29982198495B327
:106B3000B8224FFA89F402FB04F32A492A48CA18FA
:106B4000114697822231128C07F0B2FD274D05F2D3
:106B50004C5615F8012C5AB115F8033CA34207D145
:106B600015F8020C204B294603EBC00007F0A0FDEE
:106B70007135B542EDD15FFA89F0FFF735F8BBF119
:106B8000000F0BD01A4B1F800CE0BBF1000F05D09B
:106B9000002DF7D110E0BBF1000F0DD1144BD04404
:106BA000A3F80080134C236823B1FFF795F82368FE
:106BB0005B68984702F07CF907B0BDE8F08F00BF32
:106BC000F80D002032290020EC0D0020250C2100BA
:106BD000100C2100140C2100F40D0020882E002040
:106BE000FC0D0020080E0020B83200203F290020B4
:106BF000A4320020040E002037B5124B124D1C7831
:106C00002B796A79C4EB032313449BB2ADF80630A9
:106C1000BDF8063005F108011844202280B208F0C2
:106C200008FCBDF8062004F12801294492B208F0BE
:106C300000FC10B140BA80B201E04FF6FF7003B023
:106C400030BD00BF892E0020B832002028492DE930
:106C5000F04188460D78274E2835AB195C782648D8
:106C6000E400073402239C423DDBE9187218715C92
:106C7000204F012932D002D3632902D013E001331F
:106C80002FE0037018461C4C02F0BEFED8B998F8ED
:106C900000302278283313443B445B78134402339A
:106CA0002370BDE8F08101F0C001802905D0C02922
:106CB00005D0402912D1037005E0037006E03A7E4A
:106CC0000370FF2A02D10120BDE8F08104200221D7
:106CD000EA1801F0ABFF0220BDE8F08152780232E1
:106CE0001344DBB2BFE703700020BDE8F08100BFB2
:106CF000892E0020B83200208F2E0020F0B5C578F4
:106D0000124A0D44EDB2D57083780F0A3B44DBB2D2
:106D100093704478BB4254700678167005D2601C9C
:106D2000C0B2507008B901361670C9B28D420CDA83
:106D30000133DBB2054993703BB94B780133DBB2C9
:106D40004B7013B90B7801330B70F0BDAC320020DF
:106D500010B5084C014620681430FFF7CFFF064AF3
:106D6000236811781975517859759178D278997589
:106D7000DA7510BDDC370020AC32002008B501F018
:106D8000CFFA02F045F808F0DFFB0023114900229A
:106D900021F813200133DBB2082BF7D10E49302341
:106DA00003FB02110132D2B200230A2A81F82530F6
:106DB000F4D10A4A4FF480611180094A002102EBA4
:106DC00043120133DBB20A2B1182F6D1054A13704C
:106DD00008BD00BFC8390020E0370020641E002035
:106DE000E4390020902E00202DE9F041124F3D782B
:106DF00005B3DFF84C8005F12703B8F80040A34243
:106E000003DB0023A8F8003013E00C4EA4F12802A5
:106E100005F12801641BA4B206F128003144521B7D
:106E200007F0BCFCA8F80040283C231233717471B1
:106E300000233B70BDE8F081892E0020B83200208D
:106E4000A43200202DE9F041034626480288013291
:106E500092B2B2F5FA4F28BF4FF4805200240A2CA8
:106E60000AD0214D05EB44152E8A55BAADB2AE427B
:106E700004F10104F3D1EAE7DFF874E002800022B4
:106E80000A2A18D0184E55017419B4F81080571CEE
:106E9000FFB2B8F1000F0CD18EF800200288618299
:106EA00052BA228263B920461946102207F0DAFC52
:106EB00011E03A46E4E78EF800200020BDE8F081BA
:106EC000274603F1100E3A4618685968083303C282
:106ED00073451746F7D1054B35441B7920462B7572
:106EE000BDE8F081641E0020E43900202C3B002026
:106EF000902E002030B50A490023082B0DD0094CF4
:106F00005A1C34F81350D2B2854204D100220B70BF
:106F100024F8132030BD1346EFE70B7030BD00BFDF
:106F2000902E0020C83900202DE9F04FA14F0428F1
:106F300093B03C68A04E00F0B382A049A04DA14A96
:106F400003280D6015608A4616D194F8253003F0A9
:106F50000F03032B08D1A38B002B40F0F5869A4B2F
:106F600008221A7000F0ECBD022B40F0ED860023E1
:106F700005F8073C00F023BC02287AD1934A00238D
:106F80001370934A33801380924AD3780133DBB273
:106F9000D37063B993780133DBB293703BB9537804
:106FA0000133DBB2537013B913780133137094F8C3
:106FB000253003F0FD02052A0DD194F82630013367
:106FC000DBB2782B84F8263040F0BE86002384F8AC
:106FD000253000F0B9BE002B00F0B686A28B7A48AF
:106FE000002A3DD094F82620511E84F82610002A4D
:106FF00040F0AA8694F82720082A04D0591E0129B7
:107000000AD8052A08D1002384F82530802303708C
:1070100002F0D4F800F0A2BD042A9CBF03219140E5
:1070200003F00F0394BFC9B230210132013B84F851
:10703000261084F82720072B00F28686DFE813F05D
:10704000BB0308000A004705840647058406470578
:107050000022B1E30423037002F0B0F800F0A0BDF9
:1070600003F00F03032B40F06F860823037000F03A
:1070700067BD052811D1584B1B681B8A002B00F0F7
:1070800063860C3D1560524A002313803B603380B9
:107090004D4B08220D601A7000E215F83C3C3C3D57
:1070A00003F0F003602B40F04F862B796A791B02C6
:1070B00031889818884200F3478628321344338079
:1070C0002B7AFF2B00F04086444BAA1D1A60444CDB
:1070D0003E4A002111702170A97990469946C1B9A4
:1070E00001232370FFF7B2FD012800F02D8603D3A2
:1070F000022800F025860CE098F8003003F1280201
:107100002A44C9F800205278083303EBC20388F8F8
:107110000030344800F088FE324F002840F0D08024
:10712000384600F0CDFF002840F0CA80384600F015
:1071300091FE002840F0C480384601F039F800285C
:1071400040F0BE802A7E183FFF2A6BD048F2FE0135
:107150003B8B8B4266D03B898B4263D073B97B8972
:1071600063B9BB8953B9E98941B9398A31B9798A97
:1071700021B9B98A11B9FB8A002B53D0298B1A4B3C
:1071800079B9598B69B9998B59B9D98B49B9198C86
:1071900039B9598C29B9998C19B9DB8CB3F5807F31
:1071A00040D03388B3F5A06F20D9022000214FF4DE
:1071B000A06222E0DC370020A4320020D837002073
:1071C000F4320020A8320020CC370020892E002085
:1071D000E03900208B2E0020D4370020D03700204B
:1071E0008A2E0020D0320020B8320020EB79984C53
:1071F000012B06D800210A46032001F017FD00F0FC
:107200009FBD02F08BFC002840F09E85E3790122AF
:10721000013BE3718F4B1A708F4A1368013313607F
:1072200000F08EBD48F2FE032989994240F08C851A
:10723000298B874B81B9598B71B9998B61B9D98BDE
:1072400051B9198C41B9598C31B9998C21B9DB8C60
:10725000B3F5807F00F07885FF2A00F075857F48C0
:1072600000F0C2FD0246002840F06E850120022198
:10727000C3E72ED8BBF1060F00F04381BBF1110F1D
:1072800000F0A180BBF1000F78D121780093CB07EB
:1072900074D4734A41F001011170FFF7D7FC012843
:1072A00000F05285009B36D298F8002002F12801A8
:1072B000294419604B78083202EBC30288F8002099
:1072C000D9F80020674B92F800B0BBF12B0FD0D15A
:1072D00033E0BBF13A0F55D004D8BBF12C0F00F0CE
:1072E00033854BE0BBF13B0F00F02E85BBF13C0F2B
:1072F00044D123785A49980704D558063ED443F020
:10730000400301E043F002030B70FFF79FFC0128EC
:1073100000F01A8503D3022800F01285D0E798F810
:10732000003003F128022A44C9F8002052780833BB
:1073300003EBC20388F80030C2E7207800F0040EA7
:107340000EF0FF01BEF1000F18D1454A40F00400D5
:10735000107098F8002002F12800284490F803E00B
:10736000BEF1000F02D004202A3246E718604378AD
:10737000083202EBC3023C4B1A70A1E70420012142
:10738000521B3AE708F071F84FF6FF73984240F04D
:10739000DB8498F800302833E85C01F075FD98F83C
:1073A00000302833EA18E85C517801F01DFC012810
:1073B00001BF00232C4A338013703388002B00F068
:1073C000C38400F0BDBCFFF70FFDB5F82A8085F837
:1073D00006B0B8F1000F00F0B784244F244B3B6097
:1073E0003C68244B9C422FD294E80F000DF1280EEC
:1073F0008EE80F00238A23B3984522D1638A13B104
:107400002A8D9A421DD1BDF82830A3B9BDF82A3083
:107410008BB9BDF82C3073B9BDF82E305BB9BDF80F
:10742000303043B9BDF832302BB9BDF8343013B920
:10743000BDF8363013B310487146102207F006F934
:10744000E0B120343C60CBE7012004210022D4E6E7
:10745000B8320020FC310020E8310020D03200207A
:107460008A2E0020D0370020892E0020D43700201B
:10747000E4390020243B0020C03200203388BC497E
:10748000303B338000230B60BA490220BA4A0870AF
:10749000BA49CAF800200A60B94A138001F08EFE8A
:1074A000B74B1A88002A00F04F8402F13003B54C24
:1074B0009BB23380283B63711912B34B08321B68AF
:1074C00052BA2171197DA2850022E2851A8AE171E2
:1074D00022855A8A11216285A17104F1180602AD34
:1074E0000FCB85E80F0086E80F0004F10800314655
:1074F00000F074FEA54B3C341C6002F055FC00F01B
:1075000019BCFFF771FC85F806B007F0B1FF4FF624
:10751000FF7398429B4C40F01784B4F82A90B9F15D
:10752000000F00F01184B4F828B0BBF1000F00F098
:107530000B84954B12AC1B680FCB04E90F00944CE5
:10754000234694F825C0BCF1000F13D0228A4A4587
:1075500010D1628A5A450DD18E480EA9102201938E
:10756000CDF800C007F072F8DDF800C0019B0028DC
:1075700000F03B81884A30349442E2D195F83520BE
:1075800002F03F02022A16D18449DFF820828A469F
:10759000A1F800900022082A0BD0814931F812107E
:1075A00001328945D2B2F6D1002288F80020144673
:1075B00058E088F8002095F83520724B510700F10B
:1075C000C383142283F835203C223280502283F872
:1075D000342093F8332093F8314093F82F0083F848
:1075E0002F2093F8322093F82E10DFF8C0E183F8B3
:1075F0002E2093F82D2083F82D4093F82C40013055
:107600008EF8004093F830E0C0B283F8321083F86F
:10761000312083F82CE083F8304083F8330060B9E0
:107620000131C9B283F8321039B90132D2B283F8CC
:10763000312012B9621C83F830202B8D574A554CEB
:1076400013806A8D6B852A8594E80F0087E80F0008
:10765000204604F1100100F0C1FD56E3072F0FD0C2
:107660000132D2B20A2A15D0302101FB023101F1D8
:1076700020004779002FF1D188F800200C460EE059
:1076800024B1807994F826108842E9D9302404FB8B
:107690000234E5E788F80020002C00F05583344BD5
:1076A00000271C60032384F8263084F82430042348
:1076B00084F82330374B84F822700FCB84E80F0016
:1076C000384B01201A7884F8250022765A78A08356
:1076D00062769A78DB78A276E37695F82C3084F897
:1076E0002770237595F82D30A4F81090637595F8E0
:1076F0002E30A4F812B0A37595F82F30E375FFF77C
:1077000027FB95F8343003F0F002502A53D9264A6B
:107710001B09053B98003B4617461178834247DA20
:10772000EA1892F83C10002942D0012901D1013316
:107730001CE0022915D192F83DE0BEF1040F10D1F2
:10774000397088F8003092F83E1092F83F3043EAE2
:107750000123402BAAF8003028BF4023E383238471
:1077600029E0EA1892F83D2012B31344DBB2D5E7C2
:10777000DC370020CC370020E8320020A83200207F
:10778000E0390020B8320020D4370020D83700205C
:10779000E0370020C0320020C0390020621E0020E7
:1077A000C83900208B2E0020912E0020902E002022
:1077B000397088F800301022AA4B83F83520A94B85
:1077C00093F8352042F0020283F83520022283F834
:1077D0003C20042283F83D20002283F83E204022F2
:1077E00083F83F20328060224FE29F4B9F4A1C600B
:1077F00095F83530107003F0040101F0FF0921B154
:10780000202384F825001370EEE1964A0CF00F0C4B
:1078100092F83420BCF1020F4FEA12124FEA8201B3
:10782000934A11703288A2F12802A2EB010292B2AF
:10783000328003D103F03F01122905E0BCF1010FB2
:1078400003D103F03F01022916D00AB99A0713D0D9
:10785000A98DA28A914204D1824AD18DE28A9142B5
:107860000AD09F0740F10A82BCF1010FA3D0BCF1FE
:10787000020F40F00382A2E7D80652D5A18B00295F
:107880004FD004F11800FFF739FA7A4B95F8301011
:107890001878744A884244D192F8311093F801C0A4
:1078A0008C453ED192F832E09978714539D192F801
:1078B0003320DB78934234D1E37694F82730207676
:1078C00084F819C0A1761BBB94F8243094F82610D4
:1078D00094F82200591AA1EBD001C9B25FFA81FED7
:1078E0001EF0800F94F82330084418BF4942A3EBE0
:1078F000930318BF5FFA81FE03EB0E02C0B2D3B24E
:1079000084F8233003EBD00384F8220084F8243079
:10791000564B01221A7094F8243084F82630002344
:10792000A38394F82510DFF844B101F00F02013A67
:10793000072A00F20982DFE812F008002500A500FE
:107940005A017C019601A1014C019BF80030474A85
:10795000D9070FD5032384F82530308840231370CE
:107960000023A383002800F0E88042231370FFF770
:10797000EFF9E2E095F8353003F03F03022B40F0D9
:10798000E38118E79BF80020D30760D595F83520F0
:1079900002F03F02122A5AD1324B93F8343003F0EE
:1079A000F002502A36D9344A1B091746053B117894
:1079B0002F489B0099452ADA05EB090292F83C1002
:1079C00029B3012902D109F101091DE0022915D1CC
:1079D00092F83DE0BEF1040F10D192F83F303970BB
:1079E00092F83E10254A43EA0123402B138028BF1A
:1079F000402380F80090E38323840BE005EB090229
:107A000092F83D201AB191445FFA89F9D2E73970B2
:107A100080F80090032384F8253095F82C3001205D
:107A2000237595F82D30637595F82E30A37595F86C
:107A30002F30E375FFF78CF90C4A42231370104A7C
:107A40000023A383338088F80030138078E020225D
:107A50008BF8002001F0B2FB034B00221B6883F877
:107A60002520A8E5B8320020DC370020CC370020E4
:107A7000902E0020AC320020912E0020621E0020AB
:107A8000E039002095F83520D70725D5C80623D43E
:107A9000A28B002A40F058813088013080B2FFF775
:107AA00057F99BF80020338842F010018BF8001042
:107AB0001BB1AB4B42F012021A7001F07FFB0123A5
:107AC000A383082384F82530002384F8273011226B
:107AD000A44B83F83520D4E093060DD595F83A00F1
