:020000040020DA
:10200000804300208D2220004FD320004DD320009C
:102010004DD320004DD320004DD320000000000000
:102020000000000000000000000000004DD3200070
:102030004DD32000000000004DD32000B5D3200078
:10204000D7D32000DDD32000E3D32000E9D3200044
:1020500000000000BBD32000C1D320004DD32000DE
:102060004DD3200000000000000000000000000030
:1020700000000000000000004DD320000000000020
:1020800000000000000000004DD320004DD32000D0
:102090004DD320004DD320004DD320004DD3200040
:1020A0004DD320004DD320004DD320004DD3200030
:1020B0004DD320004DD320004DD320004DD3200020
:1020C0004DD320004DD320004DD320004DD3200010
:1020D0004DD32000000000000000000000000000C0
:1020E00000000000000000000000000000000000F0
:1020F0000000000000000000493B2000593B200088
:1021000000000000000000000000000000000000CF
:1021100000000000000000000000000000000000BF
:1021200000000000000000000000000000000000AF
:10213000000000000000000000000000000000009F
:10214000000000000000000000000000000000008F
:10215000000000000000000000000000000000007F
:10216000000000000000000000000000000000006F
:10217000000000000000000000000000000000005F
:10218000000000000000000000000000000000004F
:10219000000000000000000000000000000000003F
:1021A000000000000000000000000000000000002F
:1021B000000000000000000000000000000000001F
:1021C000000000000000000000000000000000000F
:1021D00000000000000000000000000000000000FF
:1021E00000000000000000000000000000000000EF
:1021F00000000000000000000000000000000000DF
:1022000000000000000000000000000000000000CE
:1022100000000000000000000000000000000000BE
:1022200000000000000000000000000000000000AE
:10223000000000000000000000000000000000009E
:10224000000000000000000000000000000000008E
:10225000000000000000000000000000000000007E
:10226000000000000000000000000000000000006E
:102270004DD320003D3A2000553A20002533200060
:10228000B93C2000092D20004DD3200008B5094B92
:10229000FF221A600848094A4824E3690849121ACB
:1022A00098470848084AA3690021121A984700F085
:1022B0000DF8FEE7B4200D40400000207806002015
:1022C000B0FC2000780600207F3B00202DE9F04381
:1022D00085B000F073FE00F017FF00F0B1FE00F0D3
:1022E00071FC01F0D7FC0BF026F900F005FF00F0BF
:1022F000FBF820200BF02EF802F0C6FA00F04AFEA0
:10230000002000F05BFD012000F058FD6049002036
:1023100000F02AFE02F014FC0BF055F808200BF038
:1023200019F85C480BF084F85B480BF081F800204A
:1023300002F028FC01F0A2FB0021584802F04AFB01
:1023400002F0E4F80BF032F801F00EF801F02AF890
:10235000012000F07FFA09F08FFA022000F07AFAEB
:1023600009F08AFA6846082101F0B8FC9DF80730A8
:102370009DF806704A4C43EA07276B4603CB02AB35
:1023800083E803008022474E8DF8082020606160BA
:1023900003CB3060716044486D4601F0D9FC4FF0CA
:1023A000000814F80810414808F1010801F0D0FCB9
:1023B000B8F1070FF5D13A4B3D48D97901F0C8FC87
:1023C0003C4801F0C5FC4FF0000816F808103748EB
:1023D00008F1010801F0BCFCB8F1070FDFF8C49068
:1023E000F3D1354E99F80710314801F0B1FCF36A8A
:1023F0004AF6CD3102209847F36A394603209847C0
:10240000F36A1A210120984729460822736B0B2092
:1024100098472A4801F09CFC294B18680BF008F8F3
:10242000284801F095FC284B18680BF001F8274864
:1024300001F08EFC264B18680AF0FAFF254A236843
:10244000136063685360244AD9F800301360D9F8E8
:102450000430536009F072FB2048002102F0BAFA00
:1024600000211F4802F0B6FA0BF03BF81D480BF0B4
:102470002EF800F095FD10200AF06CFF00F096FD9C
:1024800002F01AFA10F0FF0FF8D101F09BFBF5E70C
:10249000FD4A20003CEB20004CEB2000C40400204F
:1024A000773B00206F3B002066EB200084EB200090
:1024B00084F920008AEB20003C2C0020B7EB2000A0
:1024C000A8E92000BEEB2000B4E92000C5EB200005
:1024D000DCE92000042D00202C34002058050020C9
:1024E000E404002060EA200008B500F019F8024B6F
:1024F00000221A7008BD00BF0A230020024A137888
:102500001843107000F014B80A230020034A13780F
:1025100023EA0000107000F00BB800BF0A2300206F
:10252000024A136843F038031360704700C40D403B
:10253000014B1860704700BFE0C00D40034B002204
:102540001A60034B1B68002BFBD1704780A00D4025
:1025500020A00D40014BFF221A60704780A00D4063
:10256000054B1860054A1168C806FBD41168490775
:10257000FCD51868C0B27047088000400C8000404D
:1025800070B508B949BB00E00AB9012070BD99B91E
:1025900001460B1A934201DB002070BD184C00234A
:1025A0002360184B1D68EE06FBD41D686D07FCD533
:1025B000236801F8013BECE700239342ECDACC5CA2
:1025C0000F4D2C600F4C2668F606FBD42668760764
:1025D000FCD52C68C4540133EFE7002AD5D0084657
:1025E000431A9342D8DA10F8013B054C2360054B9F
:1025F0001D68EE06FBD41D686D07FCD52368EFE768
:10260000088000400C80004008B51A4A136823F087
:102610001003136052F8203C23F0100342F8203CD2
:1026200052F81C3C23F0100342F81C3C52F8183CB2
:1026300023F0100342F8183C0F4B1A6810B142F017
:10264000100201E022F010021A600C4A0421136803
:10265000012043F0100313600A4600F063FD0120DF
:1026600000F0CAFCBDE8084005480121042200F042
:10267000FBBC00BF20A40D400CA40D4010A40D40D5
:10268000A9D3200008B51A4A136823F00103136088
:1026900052F8203C23F0010342F8203C52F81C3C45
:1026A00023F0010342F81C3C52F8183C23F00103CC
:1026B00042F8183C0F4B1A6810B142F0010201E0D9
:1026C00022F001021A600C4A00211368012043F035
:1026D00001031360042200F025FD012000F08CFCB2
:1026E000BDE8084005480121002200F0BDBC00BF44
:1026F00020A40D400CA40D4010A40D40A9D320002F
:1027000008B5074A04211368012043F01003136041
:102710000A4600F007FDBDE80840012000F06CBC4F
:1027200010A40D40024A136823F010031360704791
:1027300010A40D4008B5074A01201368002143F09A
:1027400001031360042200F0EDFCBDE80840012005
:1027500000F052BC10A40D40024A136823F001039C
:102760001360704710A40D40024B1868003018BF6A
:102770000120704740A00D40014B1868704700BF12
:1027800004A00D4010B51B4A02201368072123F056
:102790008003136052F8203CFF2443F0800342F88A
:1027A000203C082200F0BEFC134B05211C600120D8
:1027B00000F058FD002000F0D5FC104A136823F00B
:1027C000100313600E4B1968A3F5607321F010011C
:1027D000C3F88013116821F001011160D3F8802340
:1027E00022F00102C3F880231C60064B1B68002BFB
:1027F000FBD010BD20B40D4000B20D4020A40D4010
:1028000000A40D4020A00D4070B50E4D0E4B2C467F
:102810000E4E01221A600FCC0FC60FCC0FC60FCC84
:102820000FC694E8030086E803000FCD084E0FC6DC
:102830000FCD0FC60FCD0FC694E8030086E8030046
:1028400070BD00BF28EA20009C060020742C0020E8
:102850003C2C0020012870B502D1FFF7D5FF1DE008
:1028600002281BD10E4B0F4D0F4C00221A600FCCCB
:102870000FC50FCC0FC50FCC0FC594E8030085E83A
:1028800003000A4DA4F130060FCE0FC50FCE0FC5C1
:102890000FCE0FC594E8030085E80300012070BD4A
:1028A0009C060020742C0020E0E820003C2C002036
:1028B00038B50588044615B1892D0ED019E0FFF70B
:1028C000A3FF0F4B2946186807F066F90D48012150
:1028D0000AF008FE892323800FE00A480AF01DFE53
:1028E00058B10220FFF7B6FF054B0021186807F02A
:1028F00053F900232380032038BD012038BD00BFD9
:10290000880600208C06002038B50588044615B1DD
:10291000982D0CD015E0FFF777FF284607F0FEF85A
:102920000B4801210AF0DEFD982323800DE00848C2
:102930000AF0F3FD48B10220FFF78CFF002007F0FA
:10294000EDF800232380032038BD012038BD00BFEF
:10295000A0060020044B186818B1431E5842584185
:1029600070470220704700BF9C060020012802D15A
:10297000044B18607047022803BF024B1860012007
:102980000020704788040020024B1868012818BFF7
:102990000220704788040020012810B5084C02D19D
:1029A000FFF732FF08E0022804D0FFF72DFF236A6B
:1029B00098470220FFF74EFF236A9847012010BD79
:1029C0003C2C0020012810B5084C02D1FFF71CFF59
:1029D00008E0022804D0FFF717FF636A9847022037
:1029E000FFF738FF636A9847012010BD3C2C002098
:1029F00008B5044B00211860034801F0EBFF0120EB
:102A000008BD00BF880600206804002008B5034800
:102A1000002101F0DFFF012008BD00BF7804002085
:102A200020B1012805D1044B18787047034B186872
:102A300070470020704700BF0B23002020900D40FE
:102A400010B5094A0020137801331370074B197829
:102A500001F094FFBDE81040054B06481968064A8E
:102A6000002301F089BD00BF0B2300207239002034
:102A7000D8060020B0060020412A2000812810B589
:102A80000C462AD0B0F5807F39D0802839D101F0AA
:102A9000F3FE1D4B1D4A18701368002023F0080335
:102AA000136052F8203C032123F0080342F8203C35
:102AB00052F81C3C23F0080342F81C3C52F8183C26
:102AC00043F0080342F8183C042200F02BFB1048A6
:102AD0000021032200F0C8FA13E00E4B1A6831B14E
:102AE00042F008021A60002000F086FA05E022F0A9
:102AF00008021A60084600F08BFA204610BD064B0B
:102B00001960012010BD00BF7239002020940D40D3
:102B10001D2B200010940D40D806002008B50F484A
:102B20000AF024FDC0B108210C480AF00DFD0C4B41
:102B3000196861B10B4B00221A700B4B0B481B68D4
:102B40001BB90B4A01F018FD01E001F057FDBDE88B
:102B50000840084802F0BCB808BD00BFD0060020FD
:102B6000D80600200B23002020900D40B006002046
:102B7000412A200048E82000F8B500F083F80F4B08
:102B80000024D3E900673A46B04238BF7A1C1546A4
:102B90000443C3E90045DFF828E0DEE90001821BB9
:102BA00061EB070312196B41CEE9002301F0CEFD62
:102BB00018B1BDE8F84001F059BDF8BD7806002015
:102BC000800600200F4B104A1A6053F8042C42F084
:102BD000050243F8042C53F8042C42F0020243F897
:102BE000042C0A4A136843F001031360084B0022C7
:102BF0001A60042243F80C2C012243F8082C0F22FF
:102C0000DA62704714E000E047E8010008200D4058
:102C10000C000340034BD3E90023100A40EA036091
:102C2000704700BF78060020034BD3E90023D00B88
:102C300040EA4340704700BF80060020054B186003
:102C40001C3B1A6842F001021A601A68D207FCD4D1
:102C5000704700BF2800034010B5064C236823F0DE
:102C600001032360FFF788FF236843F0010323601B
:102C700010BD00BF10E000E0014B1868704700BFB6
:102C8000DC060020074B084A196804331B681268E9
:102C9000120442EA0323054A0B43106843EA00602A
:102CA000704700BF40500D4048500D404C500D4003
:102CB00010B50446114B1B68DB07FBD50AF087FBF8
:102CC000FFF7E0FF231A062BD8BFC41D0C4B220EC2
:102CD0001A60C4F3074243F8042CC4F3072243F8F4
:102CE000082CE2B243F80C2C0AF06DFB054B912046
:102CF0001C60BDE8104000F07FB900BF50500D408F
:102D00004C500D40DC06002008B500F041FF064B9A
:102D1000002291201A6000F087F9912000F078F9E4
:102D2000BDE8084001F07ABEDC0600200023084A16
:102D30001068084A9958084205D01A44D268906928
:102D400010F0800003D02C33582BF0D101207047B5
:102D500028200D4058E82000164A38B52C2303FBE4
:102D600000234FF6BF72DC680546236C62649BB299
:102D700013F050020DD0A369DB0609D40E4B53F8B3
:102D800025301BB12068C0B29847F4E72368F2E70A
:102D900038BD13F4D06F0BD04FF440732363FF237F
:102DA0006360E36AE262E362236B43F0010323633F
:102DB00038BD00BF58E82000E00600202DE9F04FA4
:102DC000012885B0064600F2BF802C244443604BA6
:102DD0001D1995F920A005F12007BAF1000F9946B9
:102DE000C0F2B28095F92230002BC0F2AD80594874
:102DF00000F040FF584A59F804301168EC680B4362
:102E0000136051686B6895F921B00B43536091686A
:102E1000AB6895F822800B4393600023C4F8C83F49
:102E20002B690BEBCA021A6095F823305FFA88FC15
:102E300001939DF80430604619462A7DCDF80CC0F8
:102E4000029300F079F9029BDDF80CC01946604648
:102E5000082200F067F94FFA88F840494FEA08382D
:102E60009DF9042058F80100012303FA02F20243FD
:102E700048F801204FEA0A3A5AF8010003FA0BF227
:102E800002434AF801205022A263A26B95F8240065
:102E900042F4D062A263022262634FF44072226362
:102EA000AA696262EA69A2627022E26242B2002A00
:102EB0000C4614DB95F92510294D41EAC201296021
:102EC0007979120315594FB2BB402B43135100229D
:102ED00000F028F9234A136843F4004313602C23BD
:102EE00003FB069393F8265020336FB2002F1CDBB0
:102EF00093F807A0EDB25FFA8AF82846414601220E
:102F00003F0300F019F94FFA8AFA3A59012303FAFC
:102F10000AF313433B5108222846414600F002F9C8
:102F2000104A136843F4804313602C2303FB069676
:102F3000F26896F82800136B43F00103136305B0A1
:102F4000BDE8F04F00F058B805B0BDE8F08F00BF05
:102F500058E820002D2D200028200D4020940D4001
:102F600004410D4030D0004001289CBF014B43F884
:102F700020107047E0060020012808D8044B2C22BE
:102F800002FB0030C3689A699206FCD4196070474E
:102F900058E82000014B00221A60704700500D4095
:102FA000014B08221A60704700500D40024BA022CE
:102FB0001A6050221A60704700500D40074A084BB3
:102FC0001A60084B80321A60074B80321A60074B38
:102FD00080321A60064B074A1A60704700E100E031
:102FE000F4060020E8060020EC060020F006002091
:102FF00008ED00E000202000044B41091A6800F0B1
:103000001F000123834042F821307047F40600205E
:10301000044B41091A6800F01F000123834042F865
:1030200021307047E8060020044B41091A6800F07F
:103030001F000123834042F821307047F006002032
:10304000054A064B1A60064B1A68064B1340B3F14B
:10305000807FF8D1704700BF0101020100200D40C0
:1030600004200D4000000101024B02EBC10243F8B5
:1030700022007047F8060020F8B507460E46094DB5
:10308000002405EB411547FA04F3DB07E1B204D550
:1030900055F824300BB1304698470134082CF2D152
:1030A000F8BD00BFF80600202DE9F04780464FEA42
:1030B0000837DFF8409007F1804505F5592500F005
:1030C00067FDD5F8186457F809404FEAC80A24FA92
:1030D0000AF446EA0400E4B2C0B24146F6B204FA89
:1030E0000AF4FFF7C9FFC5F81C6447F80940BDE8BA
:1030F000F08700BF18970D400248002180220AF097
:10310000B7B800BFF8060020034A044B1A60044B0E
:10311000803A1A60704700BF80400D407C07002055
:1031200078070020034B01EBC0011B6843F8212006
:10313000704700BF7C070020034B01EBC0011B68F8
:1031400043F82120704700BF7807002001289FBF67
:10315000034901230A6883409CBF13430B607047F7
:1031600018200D402DE9F04F012887B0044671D892
:1031700018235C43394D2E1996F811804FFA88FCBC
:10318000BCF1000FCDF814C064DBFFF7DFFFB37CA8
:103190002D5900275FFA83FB5FFA88F86F6040467D
:1031A0005946327AC5F8C87F0493FFF7C5FFF47C0F
:1031B000327BE3B20093337D009801939DF8043095
:1031C00064B219460293FFF7B7FF96F815A096F878
:1031D000169072684FFA8AF34FFA89F101EBC30037
:1031E000DDF814C0106003931D4A049B4FEA0C3CA9
:1031F0005CF802004FFA83FE012303FA0EFE40EA58
:103200000E004CF8020024039DF9040054F802E07B
:1032100003FA00F04EEA0000A05003988B40000330
:10322000845859462343835040463A46FFF77AFF75
:10323000009802993A46FFF775FF504649463A46CC
:10324000FFF770FF337C2B61C7232B606B6843F063
:1032500002036B6007B0BDE8F08F00BFB0E820004C
:1032600020940D4038B50B4A0403A35801258D4026
:1032700023EA0503A3500022FFF754FF064AA35890
:103280002B43A35004F1804404F55924FF2344F850
:10329000253038BD20940D4000940D400E2870B5A7
:1032A0000BD1164B164E1C6844F002051D603568A4
:1032B00025F03F0343F001033360124E336823F0DF
:1032C000FF031A431143014331600F4B1B681B0678
:1032D000FBD50E4B0E4A1B6812680E2803F0FC0348
:1032E00043EA022308BF064A9BB204BF1560034AA3
:1032F0009BB208BF146018B270BD00BF3400014417
:10330000F486084008700D4000700D400C700D40B0
:1033100010700D40024B1868B0FA80F040097047F9
:1033200000B7084010B58F20064CFFF77DFE8F20B8
:10333000FFF76EFE206818B101F064FB00232360E4
:1033400010BD00BF80070020064A136843F0020347
:103350001360536843F002035360936843F0020321
:103360009360704748200D4007B50C4800F082FC80
:10337000FFF7EAFF0A4B1A6842F002021A600022C5
:103380000192019A0F2A02DC019A0132F8E71A68C9
:1033900022F002021A6003B05DF804FB153320002E
:1033A00054200D40064A136823F00203136053684B
:1033B00023F002035360936823F002039360704785
:1033C00048200D40084B93F90020002A09DB074AEA
:1033D000ED2111601160E32111601A7862F07F0223
:1033E0001A700120704700BF0C2300203888084065
:1033F000094B1B689B07FBD4084BED221A601A602F
:10340000074A12680AB1EF221A60064A01201378AF
:1034100003F07F03137070474C86084038880840DB
:103420002C8608400C23002038B5A0F10B04E3B231
:103430000F2B054613D80B4B1B6813F03F0302D02C
:10344000FFF7D6FF012304EB8404074A0B34146012
:103450000BB1FFF7B7FF054BE8B21D7000E0FF208E
:1034600040B238BD488608403C86084076060020B9
:1034700010B50B4B1B68990603D1FFF7A3FF01237F
:1034800000E00023074A1268D207FBD5064A1468F9
:10349000C4F300140BB1FFF7ABFF204610BD00BF13
:1034A00048860840648608404C860840044B1868EB
:1034B00000F02200A0F1200358425841704700BF9D
:1034C0004C860840024B186800F04000704700BF6F
:1034D0004C86084038B50C4600296ED010286ED8AE
:1034E000DFE800F0090F1A1C236D3344496D6D6D40
:1034F0006D6062646900334B1B68003318BF0123A1
:1035000056E0314B05221B6803F07F030B3B93FB16
:10351000F2F30B33DBB24BE02C4B00E02C4B1A6880
:10352000043B1B6843EA022342E02A4B0020086068
:103530001A68243302F001020A601B6813F02003AA
:1035400037D042F002020A6038BD234B1A680023CC
:10355000D2B2224901EBC3000079904202D851F85F
:10356000333025E001330E2BF3D11FE01C4B1B68D9
:103570005BB2493B1CE01B4B1B68990603D1FFF76C
:1035800021FF012300E00023174A1268D207FBD570
:10359000164A1568493DEDB20BB1FFF729FF6DB230
:1035A000256006E00B2303E01A2301E06FF0170308
:1035B0002360002038BD0723FAE7022038BD012030
:1035C00038BD00BF2C8608403C860840CC850840AA
:1035D000D4850840008608404086084018E920004D
:1035E000588608404886084064860840608608403F
:1035F00038B505460C46134B1B689B07FBD4124B92
:1036000093F90030002B01DBFFF7DCFE0F4BEE22BD
:103610001A60691E1A60A21C43F8102C2144022073
:1036200000F044FA013C0A4924012143022000F041
:103630004FFA022000F056FA022000F06BFA002048
:1036400038BD00BF4C8608400C2300203888084055
:1036500002C001C0F8B51F4B93F90030002B0DDB01
:10366000FFF710FB0446FFF7ADFEFFF70BFB6FF013
:1036700009031B1BC342F8D4012600E00026FFF714
:10368000F7FE18B3144C236899061FD4134DE92391
:103690002B60042723689A0707D4013F17F0FF0720
:1036A00003D00620FFF7CAFAF4E723689B0704D487
:1036B000EE232B6001242B6004E0206810F0020050
:1036C000FBD1044626B1FFF793FE01E00220F8BDCE
:1036D0002046F8BD0C2300204C860840388808405E
:1036E000044B1A6810B142F0010201E022F001021D
:1036F0001A6070470086084038B50C46072855D830
:10370000DFE800F0040F1B1F26543B4F012903D1B3
:10371000FFF758FE002038BD002949D1FFF768FEA9
:10372000F8E7A1F10B030F2B42D8C8B2FFF77CFEDC
:10373000431C0CBF0320002038BD8CB2E2B21D4BED
:1037400002E08CB21C4BE2B2240A1A605C60E1E732
:1037500031F003052CD101F00100FFF7C1FF174B39
:1037600014F002001A681BBF284642F0200222F023
:1037700020021A6008BF1A6038BD01F118031F2B20
:1037800016D80D230E49DA0051F83300844204DCC8
:103790008B181A790B4B1A60BCE713F1FF33F1D287
:1037A000B8E7CCB2084B49341C60B3E7012038BD00
:1037B000022038BDC8850840D085084024860840CE
:1037C00018E9200040860840588608400B280DD193
:1037D000082A0DD161B1074B013953F8042D01F8C6
:1037E000012F054A9342F8D100207047012070470D
:1037F00002207047C8850840A88508400B280DD1D5
:10380000082A0DD161B1074B083111F8012D43F899
:10381000042F054A9342F8D10020704701207047D9
:1038200002207047A4850840C485084070B52B4E1F
:10383000336813F0400308D0294D2B68DCB21B0617
:1038400005D5284BED221A601A60002070BD042CAB
:10385000F7D9023C8C42F4DCE4B2032C1BD00119F2
:103860000139032000F02AF9631E1F491B010320C0
:10387000194300F02DF9032000F034F9032000F083
:1038800049F9032000F052F90028FAD129682D687F
:103890002806D6D506E02B6803702B6843702B688A
:1038A0008370F3E7493949B289B2042008F01CF962
:1038B000032005F07F0108F017F933685A060BD58D
:1038C000064B1B681B0603D5084801F09BF803E074
:1038D000044BED221A601A60204670BD4C860840E9
:1038E000288808403888084002C0010C9C04002049
:1038F000F8B52B4E357815F001054ED1294B012432
:103900001C605C609C60A3F59323A3F51473F822FC
:103910001A600922C3F89021152270331A6003F54A
:103920009B230B2203F59E731A60A3F59B23A3F53B
:10393000F07340221A601A687F2742F020021A6052
:10394000D52243F81C5CDF62DA61174B1878FFF769
:103950006BFD164A8D20136843F004031360FFF7D4
:103960004BFB134B8E201F60FFF746FB022000F03D
:10397000C5F81049022000F0A1F8032000F0BEF8BD
:1039800003200C4900F092F80B48294601F022F878
:103990003378204623433370F8BD0020F8BD00BFC4
:1039A0000C230020A8200D40760600208C860840BD
:1039B00094860840288808409C04002038B5038875
:1039C00004460BB3B3F5717F03D0002303800320BB
:1039D00038BD82291BD108F02DF807F0C1FF8021E6
:1039E000FFF724FF051E0BDD0220FEF7BFFF0F4887
:1039F00009F01EFDA8B207F071FF0D4B1B69984737
:103A00000C4B1A78520604D44FF4717323800120B2
:103A100038BD00221A70084B1D68FFF7E9FCFFF75C
:103A200067FFAB06F0D0FFF7CDFCEDE7EEEB200033
:103A3000DCE920000C2300204886084008B5034834
:103A400000F0E0FF024B00221A6008BD9C04002039
:103A500034880840064B07481A68042A1FBF0649E5
:103A60000A7842F040020A7000221A6000F0CABFD1
:103A70002C8808409C0400200C23002010B5094C21
:103A800000212046402209F0F3FB074B01221A6077
:103A90002E205C60FFF7B0FABDE810402F20FFF742
:103AA000ABBA00BF0000002004F00F4003289EBF07
:103AB000014B0001195070470000002003289EBFF1
:103AC000024B03EB00104160704700BF0000002074
:103AD00003289EBF024B03EB00108160704700BFBC
:103AE0000000002003289FBF034901230A68834088
:103AF0009CBF13430B60704728F00F4003289FBF03
:103B0000034901230A6883409CBF13430B6070473D
:103B100020F00F4003289FBF034901230A68834018
:103B20009CBF13430B60704714F00F4003289FBFE6
:103B3000044B03EB0010806800F0070088BF0020F2
:103B4000704700BF00000020024B4FF0FF321A60A8
:103B5000704700BF04F50F40014B01221A60704707
:103B60004CF00F40094B1A6812F4801F1A46F9D125
:103B7000043B196821F4803119601168C903FCD431
:103B80001A6842F400321A60704700BF04200D40EA
:103B900010B50A4B1A681C4612F0030F0CD0084BE4
:103BA0001A685101FBD41A685201FCD5FFF754F88A
:103BB000FFF7D8FF0023236010BD00BF58200D4041
:103BC00004200D4038B5254B1C6814F03F0413D178
:103BD000234B53F8243023B1984768B10134052CA6
:103BE000F6D1204D2B783BB1FFF746F80446FFF79E
:103BF00049F8201A092801D830BF38BD002CFBD065
:103C0000194B1A6822F400321A60184A1168C90266
:103C1000FBD4196841F4803119601368DB03FCD5CB
:103C2000FFF730F8201A092803D8BDE83840FFF71D
:103C300099BF63280E4C02D92B78022B00D00123A8
:103C4000236000F091FE20B1FFF78CFF002323607A
:103C500038BDFFF711F80028CED1F5E748860840B7
:103C6000840700200D23002000200D4004200D407B
:103C700058200D400023064A52F82310814206D0F6
:103C800011B942F8230070470133052BF3D1704777
:103C900084070020054B00221A60054A136843F090
:103CA00004031360034B01221A70704758200D4023
:103CB00010ED00E00D23002010B59020064CFFF71A
:103CC000B3F99020FFF7A4F9206818B100F09AFE2C
:103CD0000023236010BD00BF9807002030B5184BAB
:103CE0001A78431E3AB9174A1278122A03D1164A93
:103CF00012784B2A03D001F52011273117E04A082A
:103D000002F12814B4F1281F04D014F8015D03F85F
:103D1000015FF7E701F5201127310023934205DA0F
:103D200011F801598418E5540133F7E730BD074A0B
:103D3000914204D011F8012903F8012FF7E730BDB3
:103D40002B0028002A00280029002800270028002E
:103D50000FB407B504AA52F8041B0448019200F0FE
:103D600021F803B05DF804EB04B07047AC04002008
:103D700070B505460C46102C07D92B6868680849B1
:103D80001022984750B9103CF5E734B12B686868A9
:103D90002246BDE8704002491847204670BD00BF6A
:103DA000A9EC20002DE9F04F80468FB006910792D4
:103DB0000026069B1B78002B00F05F83069B1C46A9
:103DC00013F8012B1AB9069B9C4203D10FE0252A58
:103DD000F5D1F8E7069BD8F80400E51A0699D8F85B
:103DE00000302A469847002840F02A832E44237842
:103DF000002B00F042836378611C002B00F03D83B0
:103E000000240A4611F8013B2B2B11D006D8202B99
:103E100011D0232B12D144F00804F2E72D2B04D04B
:103E2000302B0BD144F01004EBE744F00104E8E739
:103E300044F00604E5E744F00204E2E7A3F13101AF
:103E400008290DD8134600251A4613F8011BA1F1C5
:103E50003000092811D80A2202FB0515303DF3E78E
:103E60002A2B09D1079B01321D68191D002D0791CE
:103E7000B8BF44F0010400E0002513782E2B1CD1BC
:103E80005178531CA1F1300009280ED8194600279B
:103E90000A780B46A2F13000092801F101010FD880
:103EA0000A2303FB0727303FF2E72A2906D1931C98
:103EB000079A111D0791176802E013464FF0FF376C
:103EC0001A786C2A09D15A786C2A02D144F08004FD
:103ED0000AE0013344F060040BE0682A09D15A7803
:103EE000682A03D144F02004023302E0013344F095
:103EF00040041A78642A3CD01FD8462A48D00DD8EE
:103F0000252A5AD003D8002A00F0B78257E0412A68
:103F10004AD0452A53D144F4424450E0582A31D083
:103F200004D8472A4BD144F4A13448E0612A38D060
:103F3000632A44D144F4A06441E06E2A3AD007D801
:103F4000662A22D027D3672A28D0692A11D036E0E2
:103F5000732A2CD006D86F2A11D0702A2FD144F49E
:103F600040742CE0752A07D0782A28D144F4C8542C
:103F700025E044F4245422E044F410641FE044F4A7
:103F800088541CE044F4B24419E044F4007416E090
:103F900044F4844413E044F4024410E044F48134D3
:103FA0000DE044F4C1340AE044F4E13407E044F4A1
:103FB000806404E044F4E06401E044F4C06401334C
:103FC000069304F4E063B3F5806F00F0AA8116D87D
:103FD000B3F5807F2BD0B3F5407F7FF4EAAE079B2B
:103FE000A04914F4804F03F104029F4818BF08460B
:103FF0000DF1330107920F461A680023C5E1B3F5AE
:10400000C06F08D0B3F5E06F00F03182B3F5A06F58
:104010007FF4CFAE00E2D8F80030D8F8040093491E
:1040200001229847002840F00B820136C1E6002F9C
:10403000ACBF24F01004012714F40053039304F0E0
:10404000E00337D0402B17D008D8DBB1202B2AD182
:10405000079B1A1D079293F9002017E0602B11D0DF
:10406000802B20D1079B073323F0070303F10802BD
:104070000792D3E900230AE0079B1A1D0792B3F9C0
:10408000002003E0079B1A1D07921A68D317002A25
:1040900073F1000109DA524263EB4303CDE90023D7
:1040A0004FF0010933E000220023CDE900234FF057
:1040B00000092CE0402B16D007D8CBB1202B20D103
:1040C000079B1A1D07921A78EEE7602B10D0802B01
:1040D00017D1079B073323F0070303F10802079268
:1040E000D3E90023E1E7079B1A1D07921A88DBE753
:1040F000079B00211A1D07921B681846CDE9000195
:10410000D5E700220023CDE900234FF0000904F495
:10411000C053B3F5805F0CD0B3F5C05F33D0B3F5B7
:10412000006F4FD1DDE900230DF1360ACDE90423FC
:1041300004E0DDE900230DF1360A15E0DDE9042392
:1041400013433AD0DDE904010A22002308F0ACFC55
:10415000DDE9040130320AF8012D00230A2208F0BB
:10416000A3FCCDE90401E9E752EA030125D002F0FE
:10417000070130310AF8011DD10841EA4371D8081E
:104180000A460346F0E7384B14F4804F0DF1360A27
:10419000344908BF1946DDE9002352EA03000CD078
:1041A00002F00F00085C4FEA131E0AF8010D100917
:1041B00040EA037002467346EFE70DF1360BCAEB97
:1041C0000B0B03E00DF1360A4FF0000B41F608022D
:1041D00041F208035F4502EA04028CBFCBEB0707FC
:1041E00000279A4202D1002F08BF012741F608019B
:1041F0008A4207EB0B030DD1DDE9000150EA010211
:1042000008D01B4914F4804F1A4A4FF0020C18BF13
:104210000A4602E04FF0000C62460399A1B1B9F1E1
:10422000000F0AD104F0060102290AD0062912491A
:1042300004BF4FF0010C0A4606E04FF0010C0F4A94
:1042400002E00F4A4FF0010C63449D428CBFED1A0F
:10425000002514F0010922D1E30613D52F444D4661
:104260001DE000BF74EC200085EC2000A7EC2000CE
:1042700099EC200096EC20009EEC20009CEC2000A5
:1042800049F1200040462946CDF80CC00092FFF7C6
:104290006FFD009ADDF80CC0002840F0D180BCF121
:1042A000000F0DD01146D8F800306246D8F804004F
:1042B000CDF800C09847DDF800C0002840F0C0806D
:1042C0003C465E44102CD8F800300DD9D8F80400D4
:1042D0006C491022CDF800C09847002840F0B0800B
:1042E000103CDDF800C0EDE75CB1D8F8040065498A
:1042F0002246CDF800C09847DDF800C0002840F005
:104300009F80D8F80030D8F8040051465A466644D9
:104310009847002840F094803E44B9F1000F79D0CE
:1043200073E0079BD3F800A01A1D0792BAF1000FA3
:1043300009D05346994699F800200133002AF9D153
:10434000CAEB090903E0DFF840A14FF00609002F8E
:1043500002DBB94528BFB9464D458CBFC9EB050501
:10436000002514F0010405D140462946FFF700FD61
:10437000002865D1D8F80030D8F8040051464A46E4
:10438000984700285CD14E443EE052EA030E0ED01E
:1043900002F00F0E10F80EE04FEA131C01F801EDC9
:1043A0004FEA121E4EEA037E72466346EDE70B4665
:1043B0007F1A01BF3022012701F1FF3301F8012CE0
:1043C00003377822BD4203F8012C4FF0300203F886
:1043D000022C88BFED1B4FF0230298BF002514F07C
:1043E0000104A3F1030903F8032C04D14046294634
:1043F000FFF7BEFC20BBD8F80030D8F804004946CF
:104400003A469847E0B93E4424B140462946FFF772
:10441000AFFCA8B92E44CCE4079B012D03F10402A4
:104420001B688CBF05F1FF35002514F001040792CD
:104430008DF8203008D140462946FFF799FC10B18D
:104440004FF0FF301AE02E44D8F80030D8F80400BE
:1044500008A9012298470028F2D16F1C2CB14046D0
:104460002946FFF785FC0028EAD13E44A1E4079BDA
:104470001A1D1B6807921E609BE430460FB0BDE812
:10448000F08F00BF64EC2000A0EC2000F8B503889A
:10449000064615462BB14A2B15D000230380032076
:1044A000F8BD174809F073F804462CB1201DA16827
:1044B00009F018F82468F8E7124B01221A704A2311
:1044C00033800120F8BD8829FBD10D4809F05FF841
:1044D0000446002CF3D0231D9D420ED108482146EE
:1044E00009F05FF8084B62691F681A60A2691D46EF
:1044F0000AB1E06990472F60E1E72468E9E700BF6F
:104500009C0700200E230020B007002010B5064BAA
:10451000002406481C7009F037F82146BDE8104019
:10452000034800F057BA00BF0E2300209C0700206C
:10453000B404002070B50446E3610B4B049D1B7866
:104540006561A26143B1094D094B2E68201D2B60A6
:1045500008F0C8FF2E6000E0A1602146BDE8704071
:10456000044809F032B800BF0E230020B007002035
:10457000B40400209C07002013B5034C2468009469
:10458000FFF7D8FF02B010BDB007002070B5094B8F
:1045900005461B783BB1084C084B26680430236065
:1045A00008F0A9FF26602946BDE87040044809F0DC
:1045B0000CB800BF0E230020B0070020B404002078
:1045C0009C07002070B5094B05461B783BB1084C91
:1045D000084B26680430236008F096FF26602946C1
:1045E000BDE87040044808F0F0BF00BF0E23002073
:1045F000B0070020B40400209C07002010B5084B31
:1046000004461B781BB1043000F0A8F801E0C36039
:1046100003612146BDE81040024808F0C2BF00BF58
:104620000E2300209C07002010B50E4C236813B900
:104630000D4A136010BDFEF7EDFA216891E80C00F9
:104640001A44131A8A6842B192E812002144091AE6
:104650008B4228BF0B469268F5E71844024B18605E
:1046600010BD00BFA0070020A4070020014800F0F3
:10467000C9B900BFC4040020F8B5038805462BB1B2
:10468000592B09D0002303800320F8BD1E4A136074
:1046900059232B800120F8BD872920D08229F7D10A
:1046A000194F00263C68002CF2D0204608F05EFF2F
:1046B00090B1E0688821224600F060F950B9E060CE
:1046C000A3680EB1B36000E03B600023A360FFF776
:1046D000ABFFE5E7FFF7CAFF2646A468E3E70A4910
:1046E0000B680BB90B60D3E7D868904201D19B6887
:1046F000F7E70B6099680029CAD0C86890420ABFE2
:1047000089680B469960F5E7A007002010B50446BC
:10471000FFF7ACFFE3680B4A4BB113683BB1A34210
:1047200003D1094A1268DA6007E09B68F6E7064B96
:104730001B68E36013681460A360BDE81040FFF7D6
:1047400073BF00BFA0070020B0070020024B18680D
:10475000003018BF01207047A007002010B50B4A99
:1047600004461368984206D18368136008E09A688B
:10477000A24203D01346002BF9D103E0A2689A604D
:10478000FFF752FF0023A360E36010BDA0070020E5
:1047900038B5836804460D469BB10A480460022080
:1047A000A07304F10C0098470238012801D9832D29
:1047B00005D120462146BDE8384000F005B8012368
:1047C000A37338BDB00700202DE9F8431C4A044606
:1047D000156889462B4690461A4E3768A34204D086
:1047E0000BB11B68FAE7BDE8F88334B3A37BABB128
:1047F0000023A37345B1AC4204D02846872122464A
:1048000008F093FE2D68F5E7A3683BB14C4505D051
:10481000346004F10C0083212A469847D8F8003010
:104820009C4203D12268064B05E0134623B11A6867
:10483000A242FAD122681A603760BDE8F88300BF4F
:10484000B4070020B007002010B5094B00221A70F1
:10485000084B1C685CB1E37B3BB101230022A373CE
:10486000E27320468221FFF793FF2468F2E710BD30
:1048700012230020B4070020024B1878421C1A7043
:10488000704700BF13230020064B8A221A70064A85
:1048900000231370054A1370054A1360054A13601C
:1048A000704700BF132300200F2300201123002096
:1048B000B4070020B00700202DE9F041214E3378E5
:1048C0000BB1FFF7C1FF204D2C78002C34D0DFF85E
:1048D0008CE00C229EF800301C495A4388181C4F6B
:1048E000895CDFF87C804268DFF878C0806801333B
:1048F00003F01F03013C3970C8F80020CCF8000019
:104900008EF800302C7088B9124C134B1B68236052
:1049100023688BB133780BB1FFF796FF20683978A5
:10492000D8F8002008F001FE2368EFE7812904BFD2
:104930000123837308F0F9FD337828781844BDE823
:10494000F08100BF1223002011230020BC070020AB
:1049500014230020B8070020B40700200F230020F4
:10496000A8070020AC070020024A034B10781B78F0
:10497000184470471123002012230020F0B50C4E7C
:104980003478202C11D00B4B0B4D1B780B4F23444C
:1049900003F01F032B700C256B430134FD18A86036
:1049A000F9546A6034700020F0BD0120F0BD00BFF2
:1049B000112300200F23002010230020BC0700201B
:1049C00038B5034C256808F0B0FD256038BD00BF40
:1049D000B007002010B50A4609490C6823468342F7
:1049E0000DD00BB11B68FAE748B1046008600121E3
:1049F000817383818121BDE81040FFF7E1BF10BDC5
:104A0000B407002038B1837B013B012B9FBF024AD2
:104A10000123C373137070471223002010B5084C94
:104A2000206858B100232360816843689847236851
:104A300023B1BDE810401868FEF73AB910BD00BFB9
:104A40003C09002010B50446FEF7EEF894E80C008F
:104A50001344C01A024B98428CBF0020012010BDA5
:104A6000FEFFFF7F38B505880446672D09D0792DF4
:104A70002ED0002D32D1FFF7FFFE1B4B18701B4BC1
:104A80001D601B4808F034FE431C01D167231DE064
:104A90000A28164B07D01A687E2AF2DC511C1960CE
:104AA000144B9854EDE7196800254A1C1A60114A06
:104AB0000D4B555428461978FFF760FF0E4B8521A2
:104AC00018682A46FFF75AFF20B97923238009E0A6
:104AD000852907D1054B00221A60D2E70023038005
:104AE000032038BD012038BD773900204809002057
:104AF0004009002096230020B00700200D2810B5A3
:104B0000014615D00B4C23782BB90B4808F0DCFD7F
:104B100048B9012306E00A2805D1074808F0D4FD6A
:104B200008B1002323700548FFF76CFF012010BD7A
:104B3000002010BD9523002040090020D40400204F
:104B400008B505480549802208F0B7FDBDE80840D2
:104B500003480021FFF73EBF400900201523002035
:104B6000D4040020054A136843F004031360044B87
:104B70001B68906943EA002080B2704700700D40C6
:104B800014700D40174A136823F00C031360164B82
:104B900001221A601A68012AFCD1144B08221A60FB
:104BA000E322C3F8142203F505731946104B1B6862
:104BB000DB07FBD5102000230E4A0138126802F0F3
:104BC000010243EA02034FEA43039BB2F4D1002BF4
:104BD000F0D0094A180A03F0FE0310601360EF23B7
:104BE0000B60704700700D40A8200D4024860840DF
:104BF000648608409C86084014700D4070B5058896
:104C00000446772D30D07E2D3FD0002D4DD1FFF7BB
:104C100033FE294B1870294B1D601D462B68284A0E
:104C2000264E52F823204AB126480021C1549368E9
:104C300080209847336801333360EFE7224A1370CE
:104C4000772320E01F4AD256002A12DB1B4A136842
:104C500001331360194B1C4A1B6812789342F1DB35
:104C60001A4B1B68002BEBD0184A00231360134A21
:104C7000EFE7114A00201178114A52F82320FFF77C
:104C80007DFE30B97E23238013E00B4B1B788B42D3
:104C90000FD10A4B0B491A688B5C03F07F038B54CE
:104CA0000A4A136801331360D0E70023038003200E
:104CB00070BD012070BD00BF783900205009002070
:104CC0008C04002073390020162400204C09002099
:104CD000094B1A780023934204DA084951F823104B
:104CE000814207D106490748CA5C62F07F02CA5474
:104CF000FFF788BE0133EEE7162400208C04002065
:104D000073390020E40400200C4AB82303FB00227E
:104D1000002330B553821A46094CE1188D782DB125
:104D20001C5D844202BF00248C70013240F24C5161
:104D300071338B42F0D1104630BD00BF70090020A6
:104D40002224002008B5064803F036F9054B01225D
:104D50001A70FD2100225A709970DA7008BD00BFE8
:104D6000AD4F20001824002010B513780446087AAF
:104D700083F0020398421DD1487A5378984219D1A2
:104D8000887A9378984215D1C87AD378984211D10D
:104D9000087B137998420DD1487B5379984209D109
:104DA000887B9379984205D1C87BD379984201D109
:104DB00003201BE00B890F4A6BB94B89B3F57F4F7A
:104DC00009D18B89FE2B06D11368C989022023F8EB
:104DD000021B13600AE0136851F8080F083343F808
:104DE000080C486843F8040C13600120A040C0B2CE
:104DF00010BD00BF5C09002010B50F4C0220A17946
:104E000006F072FEA379112B01D0062B05D1238D5C
:104E1000618D9942A8BF194608E03A2B05BF94F866
:104E2000281094F82930002143EA01210120BDE82F
:104E3000104006F059BE00BF0C2D002010B5084CE4
:104E400001462378012B08D1A01C082208F004F9A0
:104E500000280CBF2046002010BD002010BD00BF60
:104E60001824002008B50146102006F04BFE044B24
:104E700004489B6800219847BDE80840FEF796B8B3
:104E8000FCE92000894E200010B508460C4611466A
:104E900002F024FC044B1B6813B19B682046984722
:104EA000024B1C6010BD00BF6C0900206809002087
:104EB000F8B505460023114A712404FB0324A278A7
:104EC000B2B9617006F014FD26460D4F0D4A3B78CD
:104ED00006F8035BC01A1568A0701D4406F008FDB3
:104EE0003A782946821A304608F0E8F8A078F8BDEA
:104EF00001330C2BDFD14FF0FF30F8BD222400200E
:104F00006E290020600900202DE9F8434FEA1219AC
:104F1000B9F10F0F80461D4602F00F040BD00F2C85
:104F200005D1B9F1000F0AD11024274619E0B9F1D3
:104F3000000F09D004E00F2C4FF0100900D110240D
:104F400040464A4608F0BAF809EB04020F2A274601
:104F500006DC08EB09000021C2F1100208F088F914
:104F6000BCB1114DC7F110002E68404431462246B5
:104F700008F0A4F8022C08D1B9F10A0F9FBFFF2353
:104F800088F80B30FE2388F80C3034442C60BDE8E0
:104F9000F883B9F1000F05D040462946BDE8F84333
:104FA00008F00DBCBDE8F8835C0900202DE9F04F46
:104FB0008E4E8F4D002387B033702B70044606F061
:104FC00039FD06F0CDFC8B4A8B4B126818608DE8DA
:104FD000600099460AB1FFF70FFF04A80CB9874992
:104FE00000E0214609F0EFFA854B864E1A880393BC
:104FF0003E2A40F20182D9F800B0834D0BF1020342
:105000002B60009B06F1180093F80080002308F144
:1050100002080BF80830FFF711FF20B906F108006D
:10502000FFF70CFF20B10BF103032B60802400E09D
:10503000044672783178130943EA0113DBB2980809
:1050400040EA8313DBB212F00F0FDEB26E4F01F0B5
:105050000F010CD16B48408848B911B912F0F00F1C
:105060001FD03B6803F8016B3B6070261AE079B9EA
:1050700012F0F00F0CD1296823F03F031A43634B61
:105080000A701B88033121F8023C6826296009E078
:105090005C4A2B681068186003F8046B2B6060266C
:1050A00000E07826574B9A790293112A08BF46F000
:1050B000040673075EBF3B6803F8012B3B60029B4D
:1050C000DB79402B06D0FF2B07D0012B08D146F00F
:1050D000010609E046F0020606E046F0030603E09A
:1050E0003A6802F8013B3A60029A464B128982B94B
:1050F0005A8972B99A8962B9DA8952B91A8A42B957
:105100005A8A32B99A8A22B9DB8A13B944F040002C
:1051100013E03F48FFF792FE3E4B186078B14278AB
:105120001BF80830042043EA02130BF80830384912
:10513000394AFFF719FE60F03F00C4B227E0029B36
:1051400030491A8948F2FE039A420CD14B8B53B96D
:105150008B8B43B9CB8B33B9042008312E4AFFF730
:1051600003FE2043E9E73A68DFF8A4C096460CF155
:10517000100A634603CB5345CEF80000CEF8041066
:105180009C460EF1080EF4D11F4B10321A60DFF866
:1051900074A09AF81830FF2B40F08A809AF81920F2
:1051A00044F0080E022A5FFA8EFE37D1BAF81A30A0
:1051B000A3BBBAF81C308BBBBAF81E3073BBBAF86D
:1051C00020305BBBBAF8223043BBBAF824302BBB8B
:1051D0009AF8263013BB3B689AF8272044F00B005E
:1051E00003F8012BC4B23B609FE000BF17240020EE
:1051F0006E2900206C0900206009002086FA20003A
:10520000F82C00200C2D00205C0900200E2D002021
:10521000142D002054090020042D00209B4B588B96
:10522000194688BB988B78BBD88BA8B9188C98B9CD
:10523000588C88B993F8240070B9296844F00A00A2
:10524000C4B2084600F8012B33F8252F043121F8A9
:10525000032C9B78837015E0C98B8C4BA1B9198CFA
:1052600091B993F8221079B9296844F00900C4B2C1
:10527000084600F8012B53F8232F063141F8052C7E
:105280001B790371296050E0814ADFF818C2146865
:105290000CF110082746634603CB4345386079601C
:1052A0009C4607F10807F6D11034146074463CE0C0
:1052B0000AF11800FFF7C2FD764B186050B1437831
:1052C0001BF8081044F004040B43E4B20BF8083058
:1052D00000200EE048F2FE03BAF818209A4210D1DE
:1052E000BAF81A306BB9BAF81C3053B9BAF81E3094
:1052F0003BB90AF1180104AAFFF736FD2043C4B2F6
:1053000013E0634ADFF89CC117680CF11008BE4631
:10531000634603CB4345CEF80000CEF804109C460C
:105320000EF1080EF4D110371760019A574928235F
:1053300013708B79112B53D14FF2B0030A8D52BAEF
:1053400092B222F00F0080B2984217D14B8D5BBA17
:1053500023F00F031B041B0C83420FD12868F32397
:1053600003704B8D02301A0A0B8D1B0A02EB0313DC
:1053700003F5AA6300F8013C286028E0029B43493A
:105380005B8D5BBA03F47F43B3F5704F09D12B6893
:10539000F1221A700A8DA3F801204A8D120ADA70E0
:1053A0000CE002F47F42B2F5704F2B6808D1F22274
:1053B0001A700A8D120A5A704A8D5A80043305E019
:1053C000F0221A70886A053343F8040C2B60324BC4
:1053D0001A882B6823F8022B019A2B603023137054
:1053E000009BD9F800201B78D65413445C70284BDE
:1053F0001B689B1A009A1AE0D9F800204123137009
:10540000009B06F128051C78631CDBB2134432466E
:1054100003CAAA4218605960164603F10803F6D180
:10542000009B29341C70019B019A1B7828331020A3
:1054300013700DEB000106F065FB184BDFF8688078
:105440001B68984730EA200028BF1520039BC0F155
:105450007D051C88019BDFF854A01E78009BA21BD1
:1054600093F800B00E4FCBEB05039A4240F3CD808A
:10547000C0F17803019306F06FFB019B94FBF3F4FA
:105480000134A04214DC0020D1E000BF0C2D00202C
:105490005C090020540900203A2D0020D0E92000AA
:1054A0006E290020242D0020F82C00201724002035
:1054B000D9F800B05F4B3C7800221A60594622466A
:1054C0000BF10400039307F06FFEB8F800205A496F
:1054D0006FEA82426FEA9242C2F307228BF8002001
:1054E000B8F8002004348BF801200A88E4B2501C7C
:1054F0000880110ADFF850C18BF802102D1B9AF8B2
:10550000001025F007054D4E61448BF803200BEB8E
:1055100004002A46CDF808C03C70356007F0CEFD87
:10552000281980B206F0DAF906F01CFB039B04464A
:105530001D460028A7D00DF1100B5846FFF792FC2E
:10554000204606F047FB204606F02EFB2B68012B79
:1055500099D0043B012B96D99AF800A033685344A4
:105560001FFA83FA05233B70354B1A68B8F80030F0
:105570006FEAC3436FEAD343C3F307231370B8F84A
:1055800000305370019B23F0070737602D4B1B88B9
:105590009A454BD2D9F800204FEADA0111713268EE
:1055A000CAEB03039342B8BF244AD9F80000B8BF3E
:1055B0001360009B376893F80080029B3A4603EB28
:1055C0000A01404407F07AFD08EB070080B206F0BC
:1055D00085F906F0C7FA074600283FF454AF58464D
:1055E000FFF740FC384606F0F5FA384606F0DCFADC
:1055F000124B1B689A442B681FFA8AFA012B3FF45E
:1056000042AF043B012BC1D83DE7D9F800000E4959
:105610005844314407F052FDB8F800005844801B4C
:1056200080B206F05BF904A8FFF71CFC012007B06C
:10563000BDE8F08F68090020581900206409002097
:1056400060090020F82C00200C2D00202DE9F047E7
:10565000074688461646002A47D0434C0025A146F7
:10566000238ABB4215D1638A9BB10F2006F056FAFC
:105670000146204608F0ACFF58B1ECB22046314656
:10568000FFF716FC002827DA0027DFF8E0A0B8466D
:105690000DE0B834002D5DD10125E1E7A8450BD11F
:1056A0000AF1B80AB8F1000F10D14FF001083AF82A
:1056B000063C002BF4D0F1E7504607F057FF0028D6
:1056C000EED04046FFF720FB0744E9E7002F41DD1D
:1056D00020463146FFF7ECFB00283BDDB82303FBF7
:1056E0000595AB8A1844A8823AE0204DFF2435F88E
:1056F000063C4FFA84F97BB3284607F037FF10B118
:105700003046FFF701FBB9F1FF3F03D135F8063C06
:1057100003B9F4B2012E05F1B80501D00126E6E780
:1057200065B26B1C16D0B8235D43DFF83C900F20A8
:1057300009EB0506A6F81280378206F0EFF901465C
:10574000304608F040FF05F118004844402107F0BA
:10575000FBFE05E0FF2403E0B9F1FF3FDAD1D8E713
:1057600060B2BDE8F08700BF700900208809002002
:105770002DE9F04FA44CDFF8C8A287B000268AF8C4
:105780000060267006F0ECF8A04DA04628600420CA
:1057900006F0B2F99E4B2A6800B218605778137869
:1057A00047EA032703F0F803C02B02D0E02B19D0FF
:1057B0003AE090782378D278C7F30A07043342EAB4
:1057C0000020394632462370FFF740FFB0F1FF3F1B
:1057D000814600F081828F4CB82303FB00440126F0
:1057E000223424E01379D17890782278C7F30A071D
:1057F0000532227041EA00201A4639460093FFF72D
:1058000025FFB0F1FF3F814600F066828149B82252
:1058100002FB0012958A4FF0010BBD4234BF0025F8
:1058200001253446009BE0E1B1464F467A4C296899
:1058300098F800504A5D02F0E003602B40F0B78119
:10584000A81C084429444D78744B5FFA85FC1CF071
:10585000800F18601CBF0130186012F0100F02F0AA
:10586000080130D1D1B9196831F8010FA4F801004D
:105870008978E170196811F8040B1960830803F046
:105880000F0141F060012170617803F0300343EAB9
:10589000801301F00F010B43637030E01868602142
:1058A000864621701EF8011B03304FEA910B0BF066
:1058B000300B01F00F014BEA01016170BEF80010DE
:1058C000186061801BE001F0FF0E99B91968087833
:1058D000C0F3830040F06000207011F801BBA4F811
:1058E00002E04FEA9B0000F0300040EA8B1060704D
:1058F000196004E06023237000236370638002F06A
:10590000040303F0FF0100912BB944490B6813F81D
:10591000010BA0710B6012F003020BBF3F4A404B1A
:1059200013689B5C09BF13F8011BE3711360E171FD
:105930006B06C5F3011233D51CF0800F1DBF334930
:1059400098F80030096800211EBF5B189978090992
:1059500022B904F1080B9AB9114614E0314B1878BA
:10596000012805D1587888420CBF1946002100E073
:1059700000212D4B19600029EBD1B3460D4633E1D0
:10598000294B19680231294B0F209A5C0391CDF8FD
:1059900008C0019206F0C2F80399034658460BE08E
:1059A000234B0F209A5CCDF808C0019206F0B6F8A0
:1059B0002049034604F10800019AFFF7A5FA05F013
:1059C0000800DDF808C005F0030200F0FF0105F053
:1059D0000403002836D0002B6CD1174B1B88ADF880
:1059E0001430531E012B9FBF0C490B6813F8010B99
:1059F0000B60124B98BF8DF815009A5C04F11800EB
:105A000005A9002354E000BF6E2900206009002092
:105A100058090020700900200C2D00205C0900208E
:105A2000ECEC2000182400205409002005ED200093
:105A3000F0EC2000F4EC2000EAEC2000F6EC200072
:105A40001724002053B31CF0800F1DBFA44998F801
:105A5000003009680B4618BF5B18A24918BF9D7833
:105A6000087818BF05F00F03012805D14D789D4235
:105A70000CBF0D46002500E000259B4B1D60002D4E
:105A800000F0AE80994B10209A5C019206F046F827
:105A9000A91C0346019A04F1180009E0944B102058
:105AA0009D5C06F03BF82A469249034604F1180033
:105AB000FFF72AFA9AF800008F4900F128038AF8C4
:105AC0000030009B002B53D00B681A7802F0F802CC
:105AD000F02A4DD11122A2711A7802F0040502F0C9
:105AE000F302F03AEDB2032A7CD8DFE802F0020AB2
:105AF0001622B3F801200533228533F8022C628583
:105B00002CE0B3F801202285DA78A2F5805292B217
:105B1000120242F0F002628509E05A78A2F5805242
:105B200092B2120242F0F00222855A886285043352
:105B300014E05A7802331209A2F5756292B2120289
:105B400042F0F002228513F8012C02F00F02A2F5B8
:105B5000756292B2120242F0F00262850B6025B9C2
:105B60000B6833F8022BE2850B6030308AF80000B6
:105B70005B4A0B6812689B1A88F8003067B905F019
:105B8000B7FE5E4B1B78C01A9AF8003018442838CC
:105B900003122371607104E0A7F128031A12227125
:105BA0006371A379112B1DD1A388A3851AE0412A23
:105BB00040F092806A1CD2B28B18224603F1280171
:105BC00053F8040B8B4242F8040BF9D105F1290379
:105BD00088F800309AF8003028338AF8003001E065
:105BE000B34601E0B34600252B46009305F080FE46
:105BF00098F8002082426FD805F07AFE3F4A40496B
:105C00001278009BC2EB0008C1F8008040F21451EA
:105C10009AF800A0DB009BB2534443448B425BD80C
:105C20003CB12F4B04EB0A0019681144424607F0BF
:105C300045FA002F39D056B132484FFA89F3B824CB
:105C400004FB030308EB0A0189B29982198495B316
:105C5000B8224FFA89F402FB04F32A492A48CA18E9
:105C6000114697822231128C07F028FA274D05F24F
:105C70004C5615F8012C5AB115F8033CA34207D134
:105C800015F8020C204B294603EBC00007F016FA6A
:105C90007135B542EDD15FFA89F0FFF735F8BBF108
:105CA000000F0BD01A4B1F800CE0BBF1000F05D08A
:105CB000002DF7D110E0BBF1000F0DD1144BD044F3
:105CC000A3F80080134C236823B1FFF795F82368ED
:105CD0005B68984702F096F907B0BDE8F08F00BF07
:105CE00060090020182400205409002005ED200040
:105CF000F0EC2000F4EC20005C0900206E2900206C
:105D000064090020700900200C2D002025240020AB
:105D1000F82C00206C09002037B5124B124D1C786E
:105D20002B796A79C4EB032313449BB2ADF8063098
:105D3000BDF8063005F108011844202280B207F0B2
:105D4000E7FCBDF8062004F12801294492B207F0CF
:105D5000DFFC10B140BA80B201E04FF6FF7003B033
:105D600030BD00BF6F2900200C2D002028492DE9EF
:105D7000F04188460D78274E2835AB195C782648C7
:105D8000E400073402239C423DDBE9187218715C81
:105D9000204F012932D002D3632902D013E001330E
:105DA0002FE0037018461C4C02F05AFFD8B998F83F
:105DB00000302278283313443B445B781344023389
:105DC0002370BDE8F08101F0C001802905D0C02911
:105DD00005D0402912D1037005E0037006E03A7E39
:105DE0000370FF2A02D10120BDE8F08104200221C6
:105DF000EA1801F0C5FF0220BDE8F08152780232B6
:105E00001344DBB2BFE703700020BDE8F08100BFA0
:105E10006F2900200C2D002075290020F0B5C578D1
:105E2000124A0D44EDB2D57083780F0A3B44DBB2C1
:105E300093704478BB4254700678167005D2601C8B
:105E4000C0B2507008B901361670C9B28D420CDA72
:105E50000133DBB2054993703BB94B780133DBB2B8
:105E60004B7013B90B7801330B70F0BD002D00207F
:105E700010B5084C014620681430FFF7CFFF064AE2
:105E8000236811781975517859759178D278997578
:105E9000DA7510BD30320020002D002008B501F069
:105EA000E9FA02F05FF807F0C1FC00231149002273
:105EB00021F813200133DBB2082BF7D10E49302330
:105EC00003FB02110132D2B200230A2A81F82530E5
:105ED000F4D10A4A4FF480611180094A002102EB93
:105EE00043120133DBB20A2B1182F6D1054A13703B
:105EF00008BD00BF1C340020343200205C19002093
:105F000038340020762900202DE9F041124F3D78E9
:105F100005B3DFF84C8005F12703B8F80040A34231
:105F200003DB0023A8F8003013E00C4EA4F1280294
:105F300005F12801641BA4B206F128003144521B6C
:105F400007F032F9A8F80040283C2312337174712D
:105F500000233B70BDE8F0816F2900200C2D00204C
:105F6000F82C00202DE9F041034626480288013232
:105F700092B2B2F5FA4F28BF4FF4805200240A2C97
:105F80000AD0214D05EB44152E8A55BAADB2AE426A
:105F900004F10104F3D1EAE7DFF874E002800022A3
:105FA0000A2A18D0184E55017419B4F81080571CDD
:105FB000FFB2B8F1000F0CD18EF800200288618288
:105FC00052BA228263B920461946102207F050F9CE
:105FD00011E03A46E4E78EF800200020BDE8F081A9
:105FE000274603F1100E3A4618685968083303C271
:105FF00073451746F7D1054B35441B7920462B7561
:10600000BDE8F0815C190020383400208035002084
:106010007629002030B50A490023082B0DD0094C01
:106020005A1C34F81350D2B2854204D100220B70AE
:1060300024F8132030BD1346EFE70B7030BD00BFCE
:10604000762900201C3400202DE9F04FA14F0428B0
:1060500093B03C68A04E00F0C182A049A04DA14A77
:1060600003280D6015608A4616D194F8253003F098
:106070000F03032B08D1A38B002B40F00F879A4B03
:1060800008221A7000F006BE022B40F0078700239A
:1060900005F8073C00F03CBC02287AD1934A002363
:1060A0001370934A33801380924AD3780133DBB262
:1060B000D37063B993780133DBB293703BB95378F3
:1060C0000133DBB2537013B913780133137094F8B2
:1060D000253003F0FD02052A0DD194F82630013356
:1060E000DBB2782B84F8263040F0D886002384F881
:1060F000253000F0D3BE002B00F0D086A28B7A486A
:10610000002A3DD094F82620511E84F82610002A3B
:1061100040F0C48694F82720082A04D0591E01298B
:106120000AD8052A08D1002384F82530802303707B
:1061300002F0F0F800F0BCBD042A9CBF032191409E
:1061400003F00F0394BFC9B230210132013B84F840
:10615000261084F82720072B00F2A086DFE813F032
:10616000D40308000A0061059E0661059E066105CC
:106170000022CAE30423037002F0CCF800F0BABD99
:1061800003F00F03032B40F089860823037000F00F
:1061900081BD052811D1584B1B681B8A002B00F0CC
:1061A0007D860C3D1560524A002313803B6033808E
:1061B0004D4B08220D601A700EE215F83C3C3C3D38
:1061C00003F0F003602B40F069862B796A791B029B
:1061D00031889818884200F361862832134433804E
:1061E0002B7AFF2B00F05A86444BAA1D1A60444CB0
:1061F0003E4A002111702170A97990469946C1B993
:1062000001232370FFF7B2FD012800F0478603D376
:10621000022800F03F860CE098F8003003F12802D5
:106220002A44C9F800205278083303EBC20388F8E7
:106230000030344800F0A2FE324F002840F0D080F9
:10624000384600F0E7FF002840F0CA80384600F0EA
:10625000ABFE002840F0C480384601F053F8002817
:1062600040F0BE802A7E183FFF2A6BD048F2FE0124
:106270003B8B8B4266D03B898B4263D073B97B8961
:1062800063B9BB8953B9E98941B9398A31B9798A86
:1062900021B9B98A11B9FB8A002B53D0298B1A4B2B
:1062A00079B9598B69B9998B59B9D98B49B9198C75
:1062B00039B9598C29B9998C19B9DB8CB3F5807F20
:1062C00040D03388B3F5A06F20D9022000214FF4CD
:1062D000A06222E030320020F82C00202C32002076
:1062E000482D0020FC2C0020203200206F290020A7
:1062F000343400207129002028320020243200206C
:1063000070290020242D00200C2D0020EB799F4CBB
:10631000012B06D800210A46032001F031FD00F0D0
:10632000B9BD02F027FD002840F0B885E3790122CD
:10633000013BE371964B1A70964A13680133136060
:1063400000F0A8BD48F2FE032989994240F0A685D5
:10635000298B8E4B81B9598B71B9998B61B9D98BC6
:1063600051B9198C41B9598C31B9998C21B9DB8C4F
:10637000B3F5807F00F09285FF2A00F08F85864874
:1063800000F0DCFD0246002840F088850120022153
:10639000C3E72ED8BBF1060F00F05C81BBF1110FF3
:1063A00000F0A180BBF1000F78D121780093CB07DA
:1063B00074D47A4A41F001011170FFF7D7FC01282B
:1063C00000F06C85009B36D298F8002002F128017D
:1063D000294419604B78083202EBC30288F8002088
:1063E000D9F800206E4B92F800B0BBF12B0FD0D142
:1063F00033E0BBF13A0F55D004D8BBF12C0F00F0BD
:106400004D854BE0BBF13B0F00F04885BBF13C0FE5
:1064100044D123786149980704D558063ED443F007
:10642000400301E043F002030B70FFF79FFC0128DB
:1064300000F0348503D3022800F02C85D0E798F8CB
:10644000003003F128022A44C9F8002052780833AA
:1064500003EBC20388F80030C2E7207800F0040E96
:106460000EF0FF01BEF1000F18D14C4A40F00400BD
:10647000107098F8002002F12800284490F803E0FA
:10648000BEF1000F02D004202A3246E7186043789C
:10649000083202EBC302434B1A70A1E7042001212A
:1064A000521B3AE707F050F94FF6FF73984240F05D
:1064B000F58498F800302833E85C01F08FFD98F8F7
:1064C00000302833EA18E85C517801F037FC0128E5
:1064D00001BF0023334A338013703388002B00F050
:1064E000DD8400F0D7BCFFF70FFDEB8D85F806B01B
:1064F0004BB9B5F82A80B8F1000F00F0CF842A4FCD
:106500002A4B3B6011E007F025F94FF6FF739842E4
:1065100040F0C484EDE70DF1280E94E80F008EE8FA
:106520000F00238A33B920343C603C68204B9C42E6
:10653000F1D326E09845F6D1638A13B12A8D9A42A9
:10654000F1D1BDF82830A3B9BDF82A308BB9BDF818
:106550002C3073B9BDF82E305BB9BDF8303043B97B
:10656000BDF832302BB9BDF8343013B9BDF8363030
:1065700013B310487146102206F06EFD0028D2D1E8
:106580001AE0012004210022C7E600BF0C2D0020E4
:1065900070390020CC2C0020242D002070290020F0
:1065A000243200206F2900202832002038340020B7
:1065B00078350020142D00203388BE49303B3380CD
:1065C00000230B60BC490220BC4A0870BC49CAF8D1
:1065D00000200A60BB4A138001F09CFEB94B1A8868
:1065E000002A00F05B8402F13003B74C9BB2338089
:1065F000283B19126371B54B08321B6852BA2171DE
:10660000197DA2850022E2851A8AE17122855A8AC3
:1066100011216285A17104F1180602AD0FCB85E846
:106620000F0086E80F0004F10800314600F080FEFC
:10663000A74B04F13C021A6007F08CF8C04380B20B
:1066400008B1E08502E04FF6FF73E38502F0D8FC65
:1066500000F01ABCFFF758FC85F806B007F077F891
:106660004FF6FF739842984C40F01884B4F82A9083
:10667000B9F1000F00F01284B4F828B0BBF1000F9C
:1066800000F00C84914B12AC1B680FCB04E90F0097
:10669000904C234694F825C0BCF1000F13D0228AF9
:1066A0004A4510D1628A5A450DD18B480EA9102255
:1066B0000193CDF800C006F0CFFCDDF800C0019BCF
:1066C000002800F03B81854A30349442E2D195F8AD
:1066D000352002F03F02022A16D18149DFF81082EC
:1066E0008A46A1F800900022082A0BD07D4931F893
:1066F000121001328945D2B2F6D1002288F800206A
:10670000144658E088F8002095F835206E4B510764
:1067100000F1C483142283F835203C2232805022B9
:1067200083F8342093F8332093F8314093F82F0006
:1067300083F82F2093F8322093F82E10DFF8B0E181
:1067400083F82E2093F82D2083F82D4093F82C40C9
:1067500001308EF8004093F830E0C0B283F8321078
:1067600083F8312083F82CE083F8304083F833003D
:1067700060B90131C9B283F8321039B90132D2B2ED
:1067800083F8312012B9621C83F830202B8D544AD3
:10679000514C13806A8D6B852A8594E80F0087E839
:1067A0000F00204604F1100100F0C2FD57E3072F4F
:1067B0000FD00132D2B20A2A15D0302101FB0231AA
:1067C00001F120004779002FF1D188F800200C4614
:1067D0000EE024B1807994F826108842E9D930245B
:1067E00004FB0234E5E788F80020002C00F0568313
:1067F000304B00271C60032384F8263084F82430B3
:10680000042384F82330344B84F822700FCB84E8BF
:106810000F00354B01201A7884F8250022765A782B
:10682000A08362769A78DB78A276E37695F82C30AE
:1068300084F82770237595F82D30A4F810906375AF
:1068400095F82E30A4F812B0A37595F82F30E375A3
:10685000FFF70EFB95F8343003F0F002502A53D9BD
:10686000224A1B09053B98003B4617461178834294
:1068700047DAEA1892F83C10002942D0012901D1E8
:1068800001333CE0022935D192F83DE0BEF1040F1E
:1068900030D1397088F8003092F83E1092F83F30CD
:1068A00043EA0123402BAAF8003028BF4023E383AA
:1068B000238429E030320020203200203C2D0020AB
:1068C000FC2C0020343400200C2D00202832002025
:1068D0002C32002034320020142D002014340020EB
:1068E0005A1900201C34002071290020772900202B
:1068F00076290020EA1892F83D2012B11344DBB249
:10690000B5E7397088F800301022AB4B83F835209A
:10691000A94B93F8352042F0020283F83520022279
:1069200083F83C20042283F83D20002283F83E2097
:10693000402283F83F203280602250E29F4BA04AE1
:106940001C6095F83530107003F0040101F0FF0968
:1069500021B1202384F825001370EFE1964A0CF052
:106960000F0C92F83420BCF1020F4FEA12124FEADA
:106970008201944A11703288A2F12802A2EB01022E
:1069800092B2328003D103F03F01122905E0BCF13D
:10699000010F03D103F03F01022916D00AB99A076B
:1069A00013D0A98DA28A914204D1834AD18DE28A63
:1069B00091420AD09F0740F10B82BCF1010FA3D096
:1069C000BCF1020F40F00482A2E7D80652D5A18B99
:1069D00000294FD004F11800FFF720FA7A4B95F800
:1069E00030101878744A884244D192F8311093F8E4
:1069F00001C08C453ED192F832E09978714539D189
:106A000092F83320DB78934234D1E37694F8273040
:106A1000207684F819C0A1761BBB94F8243094F832
:106A2000261094F82200591AA1EBD001C9B25FFADE
:106A300081FE1EF0800F94F82330084418BF4942AD
:106A4000A3EB930318BF5FFA81FE03EB0E02C0B203
:106A5000D3B284F8233003EBD00384F8220084F807
:106A60002430574B01221A7094F8243084F82630D1
:106A70000023A38394F82510DFF844B101F00F023E
:106A8000013A072A00F20A82DFE812F00800250026
:106A9000A6005B017D019701A2014D019BF800302A
:106AA000474AD9070FD5032384F82530308840237F
:106AB00013700023A383002800F0E98042231370A1
:106AC000FFF7D6F9E3E095F8353003F03F03022BEA
:106AD00040F0E48118E79BF80020D30760D595F8D3
:106AE000352002F03F02122A5AD1334B93F834304A
:106AF00003F0F002502A36D9344A1B091746053BE9
:106B0000117830489B0099452ADA05EB090292F882
:106B10003C1029B3012902D109F101091DE0022924
:106B200015D192F83DE0BEF1040F10D192F83F303C
:106B3000397092F83E10264A43EA0123402B138015
:106B400028BF402380F80090E38323840BE005EB0B
:106B5000090292F83D201AB191445FFA89F9D2E70F
:106B6000397080F80090032384F8253095F82C3094
:106B70000120237595F82D30637595F82E30A37597
:106B800095F82F30E375FFF773F90D4A4223137020
:106B9000104A0023A383338088F80030138079E003
:106BA00020228BF8002001F0B5FB044B00221B686B
:106BB00083F82520A8E500BF0C2D002030320020EE
:106BC0002032002076290020002D00207729002087
:106BD0005A1900203434002095F83520D70725D5E0
:106BE000C80623D4A28B002A40F058813088013097
:106BF00080B2FFF73DF99BF80020338842F0100186
:106C00008BF800101BB1AB4B42F012021A7001F06E
:106C100081FB0123A383082384F82530002384F813
:106C200027301122A44B83F83520D4E093060DD5EC
:106C300095F83A0095F83B2042EA0022DAF8000085
:106C40001044CAF800003088821A3280308848B177
:106C5000CF0607D49BF8002042F002028BF80020F8
:106C6000FFF706F995F8361095F83720208C02EBDF
:106C7000012292B2914982420A8000D802B908806A
:106C80009BF800300A889907E28300F007818C4B5B
:106C900000221A8001F03EFB864B1A78884B02F0E6
:106CA000200000F0FF0128B100221A8084F825207E
:106CB0001422B7E702F0100000F0FF0540B1198080
:106CC0000123A383042384F8253084F82710A8E740
:106CD000198861B1D20748BFA583A28B32B9E28B74
:106CE000914288BF1A801B88A38300E01A8000238A
:106CF00084F82730734B1B68CAF80030704B1B8830
:106D00002BB1A38B1BB13C333380182207E0694BB6
:106D10001B789F0740F1C2803C2333801022664BD2
:106D200083F8352059E09BF80030DD0740F1B6804C
:106D3000002384F825305F4B10221A7001F0EAFA24
:106D4000ACE0308808B1FFF793F895F8352012F0E1
:106D500001020FD09BF80020D00745BF072284F81E
:106D600025200622002246BF84F82620A28384F82C
:106D7000252016E09BF80030D9071BD5052384F8A1
:106D80002530A2838AE0308808B1FFF771F895F8C2
:106D90003520D2070ED5072284F82520002284F85A
:106DA00026200120FFF764F810228BF8002001F064
:106DB000B1FA0DE033885BB970E09BF80030DB0777
:106DC0006CD5072384F82530002384F8263065E04D
:106DD000102385F835303C233380374B502283F81D
:106DE0003420237D344D06AF85F83030637D05F1C6
:106DF000180E85F83130A37D85F83230E37D85F8B3
:106E00003330237E85F82C30637E85F82D30A37EC9
:106E100085F82E30E37E85F82F30238A2B85638A10
:106E20006B85294B1B680FCB87E80F008EE80F009E
:106E300005F10800714600F07BFA94F8253003F064
:106E4000100303F0FF022BB1002385F8373085F8DB
:106E5000363004E0402385F8362085F83730164C6C
:106E60000623A371194B1B79E3713388283B1A124F
:106E700063710023227184F83B3084F83A30238711
:106E800006F065FCC04320870B4B60221A7000227D
:106E90005A705A80074B00221A7007E00C4A0023F0
:106EA00013700C4A33801370024A137013B0BDE89C
:106EB000F08F00BF203200200C2D00205A19002036
:106EC00034340020FC2C00202832002080350020A3
:106ED0006F290020702900202DE9F3410446154D4B
:106EE00000910E4690461F46019523461248032105
:106EF000202206F03CFC01282B4616D12A6804F11A
:106F00001001107020462A68023250F8044B884263
:106F100042F8044BF9D11868089B86744361099BB9
:106F200080F813800777836100E0002002B0BDE89D
:106F3000F08100BFE40A00207C36002070B50646D0
:106F40000B4D0C4B2B602C680B4B9C420BD22378C7
:106F500033B1A27CA01C3146D20806F07DF820B1E6
:106F600020342C60EFE7002070BD012070BD00BF11
:106F7000E40A00207C360020DC36002013B5084CE3
:106F8000802203460092019406480321202206F045
:106F9000EEFB08B9206800E0002002B010BD00BF81
:106FA000E80A00209835002013B5084C80220346DB
:106FB0000092019406480321202206F0D8FB08B96C
:106FC000206800E0002002B010BD00BFE80A0020E9
:106FD0000437002010B50C4A0C4B136013680C49A1
:106FE0008B420DD2197849B1411C02D0997C814263
:106FF00004D148F2FE015C888C4202D02033ECE7D9
:107000000023184610BD00BFE80A00209835002074
:10701000F835002010B50C4A0C4B136013680C496E
:107020008B420DD2197849B1411C02D0997C814222
:1070300004D148F2FE015C888C4202D02033ECE798
:107040000023184610BD00BFE80A002004370020C6
:107050006437002037B504460F4D80230093019517
:1070600023460E480521122206F081FB01282B46FB
:107070000ED12A6804F11001107020462A680232ED
:1070800050F8044B884242F8044BF9D1186800E0EC
:10709000002003B030BD00BFE00A00201C360020F5
:1070A000F7B50546204C802300930E461746019401
:1070B0001E48032120222B4606F059FB012830D11F
:1070C0002A46236805F1100118702368023352F82C
:1070D000040B8A4243F8040BF9D12068C77416B92F
:1070E0000123037505E0002303753146183006F0CF
:1070F00024FA23680E480121997402234370FF2269
:107100000023027043808380C38003818372C17235
:1071100002736B7B4373EB89C381FFF79BFF20688E
:1071200000E0002003B0F0BDE80A00209835002000
:107130005E190020F7B50546204C802300930E46CB
:10714000174601941E48032120222B4606F00FFB10
:10715000012830D12A46236805F1100118702368F0
:10716000023352F8040B8A4243F8040BF9D1206829
:10717000C77416B90123037505E000230375314672
:10718000183006F0DAF923680E48012199740223B9
:107190004370FF220023027043808380C3800381F9
:1071A0008372C17202736B7B4373EB89C381FFF7F8
:1071B00051FF206800E0002003B0F0BDE80A002085
:1071C000043700205E19002037B504460F4D802398
:1071D0000093019523460E480521122206F0C7FAB6
:1071E00001282B460ED12A6804F1100110702046A8
:1071F0002A68023250F8044B884242F8044BF9D115
:10720000186800E0002003B030BD00BFE00A002095
:107210008837002013B5084C802203460092019461
:1072200006480521122206F0A2FA08B9206800E0FB
:10723000002002B010BD00BFE00A00201C36002074
:1072400038B50546C8B10D48022200244270FF231C
:107250000122C27244808480C480048184720373DA
:107260000370EB7B43732B8AC381FFF7D3FF044A80
:10727000106008B106F09FFA2C7038BD5E1900202E
:10728000E00A002038B5194C194B23602068194BCF
:10729000164D98420DD2037843B1037D33B91830AF
:1072A000FDF7D0FB10B12868FFF7CAFF2368203331
:1072B000EBE7114B2B602068104B98420FD20378FC
:1072C0004BB1037D3BB91830FDF7BCFB18B1074B40
:1072D0001868FFF7B5FF236820332360EBE700F061
:1072E00021FCBDE83840064806F005B9E80A002050
:1072F00098350020F835002004370020643700203E
:10730000DC36002013B5084C80220346009201941D
:1073100006480521122206F02AFA08B9206800E082
:10732000002002B010BD00BFE00A00208837002016
:107330002DE9F8430E460446FBF70CFB012848F202
:10734000FE03328840D19A4223D03378FF2B20D0DD
:10735000394B0027B9469846384A1A60D8F8005089
:10736000374A954219D22B787BB1AB7C012B0CD1DB
:1073700048F2FE036A889A4207D03046A91C06F0FC
:1073800027FA484524BF2F4681462035C8F80050CB
:10739000E4E70120FFF73EFE074657B900232380AC
:1073A0006380A380E38023816381A381E381BDE8BF
:1073B000F883BB1C07F1120053F8042B834244F8F6
:1073C000042BF9D1BDE8F8839A4223D03378FF2B00
:1073D00020D0194B0027B94698461A4A1A60D8F8A7
:1073E0000050194A954219D22B787BB1AB7C012B06
:1073F0000CD148F2FE036A889A4207D03046A91C95
:1074000006F0E6F9484524BF2F4681462035C8F8E6
:107410000050E4E70120FFF7DDFD0746002FBDD057
:10742000BB1C07F1120053F8042B834244F8042BD1
:10743000F9D1BDE8F88300BFE80A00200437002036
:107440006437002098350020F835002010B5FDF78E
:1074500089FB0446FDF786FB054B24029A68A4B21B
:107460002044B0FBF2F302FB130000EB520010BD0E
:10747000803500202DE9F347534E544D00F0BAF803
:10748000F82400F065F900216022514805F0F0FE73
:1074900022463046002105F0EBFE00212246284618
:1074A00005F0E6FE4B4B20221A70DFF844914A4B60
:1074B000402718224FF4A06A1A70C6F800A037714E
:1074C000C6F8089042F21078FFF7C0FF0024C6F813
:1074D00010803475C5F800A02F71C5F80890F060D1
:1074E000FFF7B4FF48F2FE0A40F2FF26E860C5F855
:1074F00010802C75394D2346A5F800A06C80AC8017
:10750000EC8022463946009401942846FFF7E4FCBB
:107510002846334906F053F9214601222846FFF751
:1075200009FE4FF480794FF4007828462E806C8055
:10753000AC80EC802C816C81AC81A5F80E90FFF7BB
:1075400043FE2E806C80AC80EC802C816C81AC8101
:10755000A5F80E802846234DFFF736FE2346A5F8F2
:1075600000A06C80AC80EC802246394600940194E7
:107570002846FFF7B1FC28461B4906F020F92146B2
:1075800001222846FFF78CFD28462E806C80AC80B7
:10759000EC802C816C81AC81A5F80E90FFF75AFD30
:1075A00028462E806C80AC80EC802C816C81AC8174
:1075B000A5F80E80FFF74EFD0C480C2102B0BDE887
:1075C000F04705F08FBF00BF80350020EC3600206B
:1075D0007C36002079360020783600206E19002095
:1075E0002C3400205E190020042D0020DC36002001
:1075F000C0270900024B0349186804F037B800BFE0
:10760000F404002065762000F8B51E460F4B0446B2
:107610009DF818201868079B0F4604F055F805469A
:1076200039460B4807F009F86DB120462B4604F1A6
:10763000100250F8041B904243F8041BF9D16E74F9
:10764000284600F075FF2846F8BD00BFF40400206E
:1076500079390020024B0146186807F04BB800BF8B
:10766000F404002010B5044678B1FFF7F3FF01469B
:10767000064806F0FDFF204600F05AFF044B214665
:10768000BDE81040186804F0CDB810BD793900206D
:10769000F404002070B50C4D0646286803F0FAFF8C
:1076A000044666B9002070BD20463146102205F020
:1076B000D3FC38B12146286806F0ECFF0446002CC4
:1076C000F2D1EFE7204670BDF4040020024B0146E2
:1076D000186806F0F6BF00BFF404002070B5054638
:1076E00010200C4604F01AFA0649064606F070FF10
:1076F00030B9304629462246BDE8704000F0E0BE71
:1077000070BD00BF86FA20002DE9F04105460D4806
:107710000F46904605F03BFF044688B1012D04D882
:10772000094805F06AFF034601E0084B1B6828463C
:10773000666839464246B047204605F065FFEBE7EC
:10774000BDE8F08188100020300B00202C0B0020B9
:1077500008B50B4805F05BFF0A4805F015FF0A4B1A
:107760000A49186803F082FF094805F050FF0948EC
:1077700005F00AFFBDE80840074805F005BF00BF57
:1077800028050020C40C00202405002029D8200052
:1077900008050020300B00208810002008B50346A3
:1077A00040B1054A5968106806F0A4FFBDE80840DA
:1077B00006F02BB808BD00BF24050020014805F0E5
:1077C000E6BE00BFC40C002008B506F020F8014654
:1077D00038B1044B186806F074FF003018BF012060
:1077E00008BD08BD240500202DE9F0418046FFF7C3
:1077F000E5FF0026044637469CB194F82450B54274
:107800000AD3404604F10801EA0805F025FC18B93E
:10781000802D08D02E462746204606F001F8044663
:10782000EAE73C4667B1084805F0B1FE844207D05C
:107830000548214605F0B5FE0348214605F0D4FE73
:107840002046BDE8F08100BFC40C002038B50446D6
:1078500000283ED04368002B3BD01E48214605F04F
:10786000A0FE6368586805F092FE054630B1436893
:10787000A34207D0284605F0C7FEF6E704F108004A
:1078800000F07CFD63682946586805F08AFE63684D
:10789000586805F07CFE28B963680F4A596810687B
:1078A00003F0C0FF21460D4805F0D5FE29460C48DF
:1078B00005F0D1FE0B4A20461368013B1360FFF729
:1078C0006DFF04F108010246BDE838400320FFF7D0
:1078D0001BBF38BDC40C0020240500202805002053
:1078E000340500202C0B002010B5044680B1406800
:1078F00070B105F04CFE20B14068FFF7A7FF60684B
:10790000F7E7044B2146BDE81040186803F08ABF32
:1079100010BD00BF240500202DE9F84F0746104692
:107920008946904605F073FF834610B90020BDE8F4
:10793000F88F3846FFF758FF044660B1FFF72EFF77
:10794000014628B14046102205F086FB002859D098
:107950002046FFF77BFF2D4B1A689A46142AE5D084
:107960002B4E5946306806F0ACFE054668B92B46EA
:1079700030685946042203F0A7FE05460028D5D0FA
:1079800000236860036005F0FFFD224805F04FFE0C
:1079900004460028CAD02048214605F025FE1F488D
:1079A00005F045FE834620B921461A4805F053FEEE
:1079B000BCE744606868594605F007FEDAF8003015
:1079C0006560013330682946CAF8003003F040FF93
:1079D0003B4604F1080507F110062A461868596865
:1079E000083303C2B3421546F7D100210C2284F8B4
:1079F000249004F1180005F03BFC02203946424671
:107A0000FFF782FE2046BDE8F88F00BF2C0B002058
:107A10002405002028050020C40C00203405002087
:107A200038B505460D4805F0B2FD0446A0B1AC429C
:107A30000ED12146094805F0B4FD2146084805F05D
:107A40000AFE211D01200A46BDE83840FFF75CBE52
:107A5000204605F0D9FDE8E738BD00BF300B002017
:107A60000805002038B50546084805F090FD044695
:107A700048B1201D2946102205F0EEFA18B1204623
:107A800005F0C2FDF3E7204638BD00BF300B0020F3
:107A9000F8B505460F46FFF7E5FF044640B9134821
:107AA00005F0C5FD0446F0B11148214605F09CFDE6
:107AB0002B46261D05F1100E32461868596808330A
:107AC00003C273451646F7D137B104F114003946A5
:107AD00005F033FD002300E0012323770020294631
