:020000040020DA
:10200000584400208D2220003FD820003DD82000D9
:102010003DD820003DD820003DD820000000000021
:102020000000000000000000000000003DD820007B
:102030003DD82000000000003DD82000152E2000D3
:10204000C3D82000C9D82000CFD82000D5D8200080
:1020500000000000A7D82000ADD820003DD8200007
:102060003DD820000000000000000000000000003B
:1020700000000000000000003DD82000000000002B
:1020800000000000000000003DD820003DD82000E6
:102090003DD820003DD820003DD820003DD820006C
:1020A0003DD820003DD820003DD820003DD820005C
:1020B0003DD820003DD820003DD820003DD820004C
:1020C0003DD820003DD820003DD820003DD820003C
:1020D0003DD82000000000000000000000000000CB
:1020E00000000000000000000000000000000000F0
:1020F0000000000000000000113F2000213F2000F0
:1021000000000000000000000000000000000000CF
:1021100000000000000000000000000000000000BF
:1021200000000000000000000000000000000000AF
:10213000000000000000000000000000000000009F
:10214000000000000000000000000000000000008F
:10215000000000000000000000000000000000007F
:10216000000000000000000000000000000000006F
:10217000000000000000000000000000000000005F
:10218000000000000000000000000000000000004F
:10219000000000000000000000000000000000003F
:1021A000000000000000000000000000000000002F
:1021B000000000000000000000000000000000001F
:1021C000000000000000000000000000000000000F
:1021D00000000000000000000000000000000000FF
:1021E00000000000000000000000000000000000EF
:1021F00000000000000000000000000000000000DF
:1022000000000000000000000000000000000000CE
:1022100000000000000000000000000000000000BE
:1022200000000000000000000000000000000000AE
:10223000000000000000000000000000000000009E
:10224000000000000000000000000000000000008E
:10225000000000000000000000000000000000007E
:10226000000000000000000000000000000000006E
:102270003DD82000993D2000E13D2000953520000B
:102280009D412000E12E20003DD8200008B5094BDB
:10229000FF221A600848094A4824E3690849121ACB
:1022A00098470848084AA3690021121A984700F085
:1022B0000DF8FEE7B4200D40400000207C06002011
:1022C000B8FA200080060020573C00202DE9F04796
:1022D00088B000F091FF01F04FF800F0CFFF00F060
:1022E0003FFD01F049FF0BF0A6FB01F03DF800F0C7
:1022F000CBF920200BF0A6FA02F0A0FD00F068FF59
:10230000002000F079FE012000F076FE90490020C8
:1023100000F048FF02F002FF0BF0CBFA08200BF0B0
:1023200091FA8C480BF0FAFA8B480BF0F7FA002080
:1023300002F016FF01F086FD0021884802F024FE1D
:1023400002F088FB0BF0AAFA01F060F901F07CF9C9
:10235000012000F04DFB09F005FB022000F048FBD6
:1023600009F000FB6846082101F044FF9DF80730A2
:102370009DF8068004AE43EA08286B4603CB802311
:1023800086E803008DF810303346DFF83092744C45
:102390006D462060616003CBC9F800007148C9F840
:1023A0000410CA4601F060FF0027E15D6E48013766
:1023B00001F05AFF072FF8D1694B6C48D97901F029
:1023C00053FF6B4801F050FF00271AF807106648CA
:1023D000013701F049FF072FDFF8E091F5D1654F94
:1023E00099F80710614801F03FFFFB6A4AF6CD31CA
:1023F00002209847FB6A414603209847FB6A1A214E
:1024000001209847082229467B6B0B2098475A48A1
:1024100001F02AFF594B5A4F18680BF07FFA5948C0
:1024200001F022FF584B4FF0FD0818680BF076FAC8
:10243000564801F019FF564B18680BF06FFA5549D2
:10244000236828460B60636800244B60D9F800308D
:10245000ADF800803B60D9F80430ADF802407B60F5
:10246000ADF80440ADF80640ADF80840ADF80A40BC
:10247000ADF80C40ADF80E400BF026FC224621468C
:10248000284605F0E1F830463946ADF81080ADF841
:102490001240ADF81440ADF81640ADF81840ADF854
:1024A0001A40ADF81C40ADF81E400BF00DFC304654
:1024B0002146224605F012F9374801F0D5FE2B19C6
:1024C000295D36485A78023401F0CEFE0E2CF6D142
:1024D0009DF80E109DF80F20314801F0C5FE3148DF
:1024E00001F0C2FE00243319315D2C485A780234C1
:1024F00001F0BAFE0E2CF6D19DF81F209DF81E109B
:10250000274801F0B1FE09F08FFB2748002102F0B7
:102510003BFD0021254802F037FD02F029FB00F0C9
:102520009DFC234B01221860224B23481A700BF0AC
:102530004FFA00F053FE10200BF084F900F054FE27
:1025400002F094FC10F0FF0FF8D101F071FDF5E7F7
:10255000D9502000B8F02000C8F02000C4040020AA
:102560004F3C0020E2F0200065F1200085F42000BF
:1025700000F12000902C00202DF1200024EF2000FD
:102580000435002034F1200030EF20003BF1200022
:1025900058EF2000DC2D002042F1200061F12000E6
:1025A00081F420006BF1200058050020E404002095
:1025B0004C2D00203C2D0020DCEF2000473C00206B
:1025C000F8B52D4C257820704540EA0618D500F066
:1025D000100000F0FF07294E30B100F03FFC284BFF
:1025E000D8600123F3700BE0F3784BB100F036FCB8
:1025F000244A2349D368C968F7705B1A1844D0602D
:1026000015F0300F17D023781C4F13F0300606D08A
:1026100000F024FC1A4B186101233B710BE03B795D
:102620004BB100F01BFC174A1549136909693E714B
:102630005B1A18441061AB0619D523780F4D03F0CF
:10264000200303F0FF0633B100F008FC0C4B586187
:1026500001236B710BE06B794BB100F0FFFB094A72
:102660000749536949696E715B1A184450612078B3
:10267000BDE8F84000F02AB85E2300203C2D002081
:102680004C2D0020002D002008B500F017F8024B5B
:1026900000221A7008BD00BF5E230020024B1B7889
:1026A0001843FFF78DBF00BF5E230020024B1B784D
:1026B00023EA0000FFF784BF5E230020024A13686C
:1026C00043F038031360704700C40D40014B18609D
:1026D000704700BFE0C00D40034B00221A60034B5F
:1026E0001B68002BFBD1704780A00D4020A00D403F
:1026F000014BFF221A60704780A00D40054B186007
:10270000054A1168C806FBD411684907FCD518684A
:10271000C0B27047088000400C80004070B508B916
:1027200049BB00E00AB9012070BD99B901460B1AF6
:10273000934201DB002070BD184C00232360184B2E
:102740001D68EE06FBD41D686D07FCD5236801F8F3
:10275000013BECE700239342ECDACC5C0F4D2C609C
:102760000F4C2668F606FBD426687607FCD52C6845
:10277000C4540133EFE7002AD5D00846431A9342E8
:10278000D8DA10F8013B054C2360054B1D68EE06B6
:10279000FBD41D686D07FCD52368EFE70880004077
:1027A0000C80004008B51A4A136823F01003136028
:1027B00052F8203C23F0100342F8203C52F81C3C15
:1027C00023F0100342F81C3C52F8183C23F010038D
:1027D00042F8183C0F4B1A6810B142F0100201E0A9
:1027E00022F010021A600C4A04211368012043F001
:1027F000100313600A4600F0CDFD012000F01AFD21
:10280000BDE8084005480121042200F04BBD00BF8F
:1028100020A40D400CA40D4010A40D4099D8200018
:1028200008B51A4A136823F00103136052F8203CDC
:1028300023F0010342F8203C52F81C3C23F0010332
:1028400042F81C3C52F8183C23F0010342F8183CB3
:102850000F4B1A6810B142F0010201E022F00102B0
:102860001A600C4A00211368012043F00103136031
:10287000042200F08FFD012000F0DCFCBDE80840E0
:1028800005480121002200F00DBD00BF20A40D402D
:102890000CA40D4010A40D4099D8200008B5074A9B
:1028A00004211368012043F0100313600A4600F06E
:1028B00071FDBDE80840012000F0BCBC10A40D4033
:1028C000024A136823F010031360704710A40D40F0
:1028D00008B5074A01201368002143F00103136083
:1028E000042200F057FDBDE80840012000F0A2BC22
:1028F00010A40D40024A136823F0010313607047CF
:1029000010A40D40024B1868003018BF012070471A
:1029100040A00D40014B1868704700BF04A00D4057
:1029200010B51B4A02201368072123F080031360AF
:1029300052F8203CFF2443F0800342F8203C082258
:1029400000F028FD134B05211C60012000F0C2FDA2
:10295000002000F03FFD104A136823F010031360BD
:102960000E4B1968A3F5607321F01001C3F88013B2
:10297000116821F001011160D3F8802322F00102D7
:10298000C3F880231C60064B1B68002BFBD010BDD6
:1029900020B40D4000B20D4020A40D4000A40D4015
:1029A00020A00D4070B50E4D0E4B2C460E4E012250
:1029B0001A600FCC0FC60FCC0FC60FCC0FC694E811
:1029C000030086E803000FCD084E0FC60FCD0FC6DB
:1029D0000FCD0FC694E8030086E8030070BD00BF6A
:1029E000A4EF200094060020C82C0020902C00208A
:1029F000012870B502D1FFF7D5FF1DE002281BD1D9
:102A00000E4B0F4D0F4C00221A600FCC0FC50FCC90
:102A10000FC50FCC0FC594E8030085E803000A4DED
:102A2000A4F130060FCE0FC50FCE0FC50FCE0FC5C8
:102A300094E8030085E80300012070BD940600209F
:102A4000C82C002024EE2000902C002038B50588EA
:102A5000044615B1892D0ED019E0FFF7A3FF0F4BE7
:102A60002946186807F0FCF80D4801210AF0BAFF62
:102A7000892323800FE00A480AF0CFFF58B10220D3
:102A8000FFF7B6FF054B0021186807F0E9F80023AF
:102A90002380032038BD012038BD00BF90060020F0
:102AA0009806002038B50588044615B1982D0CD03D
:102AB00015E0FFF777FF284607F0A2F80B48012141
:102AC0000AF090FF982323800DE008480AF0A5FF44
:102AD00048B10220FFF78CFF002007F091F8002397
:102AE0002380032038BD012038BD00BFA806002088
:102AF000044B186818B1431E5842584170470220D1
:102B0000704700BF94060020012802D1044B1860D2
:102B10007047022803BF024B186001200020704755
:102B200068040020024B1868012818BF0220704773
:102B300068040020012810B5084C02D1FFF732FFCD
:102B400008E0022804D0FFF72DFF236A98470220EF
:102B5000FFF74EFF236A9847012010BD902C0020FC
:102B6000012810B5084C02D1FFF71CFF08E002282D
:102B700004D0FFF717FF636A98470220FFF738FF7A
:102B8000636A9847012010BD902C002008B5044BC3
:102B900000211860034802F0F7F9012008BD00BFCA
:102BA000900600206C04002008B50348002102F0C4
:102BB000EBF9012008BD00BF7C04002020B10128F2
:102BC00005D1044B18787047034B186870470020F4
:102BD000704700BF5F23002020900D4010B5094AC8
:102BE0000020137801331370074B197802F0A0F915
:102BF000BDE81040054B06481968064A002301F05D
:102C00005FBF00BF5F2300204A3A0020E00600209B
:102C1000B8060020DD2B2000812810B50C462AD0F4
:102C2000B0F5807F39D0802839D102F0FFF81D4BF4
:102C30001D4A18701368002023F00803136052F82F
:102C4000203C032123F0080342F8203C52F81C3CAE
:102C500023F0080342F81C3C52F8183C43F00803E8
:102C600042F8183C042200F095FB10480021032292
:102C700000F018FB13E00E4B1A6831B142F0080265
:102C80001A60002000F0D6FA05E022F008021A606F
:102C9000084600F0DBFA204610BD064B1960012003
:102CA00010BD00BF4A3A002020940D40B92C2000EE
:102CB00010940D40E006002008B50F480AF0DEFE33
:102CC000C0B108210C480AF0C7FE0C4B196861B16D
:102CD0000B4B00221A700B4B0B481B681BB90B4A9D
:102CE00001F0EEFE01E001F02DFFBDE808400848CC
:102CF00002F0DCBA08BD00BFD8060020E0060020C4
:102D00005F23002020900D40B8060020DD2B20001E
:102D10008CED2000F8B500F0A1F80F4B0024D3E9AA
:102D200000673A46B04238BF7A1C15460443C3E9EF
:102D30000045DFF828E0DEE90001821B61EB0703B4
:102D400012196B41CEE9002301F0DAFF18B1BDE89A
:102D5000F84001F065BFF8BD80060020880600201D
:102D60000F4B104A1A6053F8042C42F0050243F846
:102D7000042C53F8042C42F0020243F8042C0A4AB3
:102D8000136843F001031360084B00221A60042209
:102D900043F80C2C012243F8082C0F22DA6270470A
:102DA00014E000E047E8010008200D400C0003405B
:102DB000034BD3E90023100A40EA0360704700BFC9
:102DC00080060020034BD3E90023D00B40EA4340A8
:102DD000704700BF88060020054B18601C3B1A682E
:102DE00042F001021A601A68D207FCD4704700BF93
:102DF0002800034010B5064C236823F0010323602C
:102E0000FFF788FF236843F00103236010BD00BF74
:102E100010E000E038B500F021F80A4C0A4D01231B
:102E2000A370A860FFF776FFA3784BB100F016F807
:102E3000064AA96893685B1A184400239060A3703F
:102E400038BD00BF3C2D00204C2D0020002D00205F
:102E5000014B1868704700BFE4060020074B084A82
:102E6000196804331B681268120442EA0323054AF6
:102E70000B43106843EA0060704700BF40500D40AC
:102E800048500D404C500D4010B50446114B1B6886
:102E9000DB07FBD50AF011FDFFF7E0FF231A062B35
:102EA000D8BFC41D0C4B220E1A60C4F3074243F86E
:102EB000042CC4F3072243F8082CE2B243F80C2C8C
:102EC0000AF0F7FC054B91201C60BDE8104000F0B3
:102ED000B1B900BF50500D404C500D40E4060020E9
:102EE00070B501F06FF8FFF7B9FF0E4C01230E4EDD
:102EF000A3700E4BB060002591201D6000F0B2F968
:102F0000912000F0A3F902F077F8A37843B1FFF71E
:102F1000A5FF074AB1689368A5705B1A18449060D2
:102F200070BD00BF3C2D00204C2D0020E406002089
:102F3000002D00200023084A1068084A99580842CA
:102F400005D01A44D268906910F0800003D02C3369
:102F5000582BF0D10120704728200D409CED200017
:102F6000F8B50646FFF77AFF1E4A01231E49937003
:102F70002C2303FB06134FF6BF711C4DDC68A860C1
:102F8000236C61649BB213F0500117460CD0A36907
:102F9000DB0618D4164B53F826301BB12068C0B29C
:102FA0009847F4E72368F2E713F4D06F0BD04FF49F
:102FB00040732363FF236360E36AE162E362236B90
:102FC00043F001032363BB7853B1FFF747FF094A7E
:102FD000A96893685B1A1844024B906000229A70AB
:102FE000F8BD00BF3C2D00209CED20004C2D0020A2
:102FF000E8060020002D00202DE9F04F012885B0C3
:10300000064600F2BF802C244443604B1D1995F9FD
:1030100020A005F12007BAF1000F9946C0F2B28056
:1030200095F92230002BC0F2AD80594801F094F898
:10303000584A59F804301168EC680B431360516822
:103040006B6895F921B00B4353609168AB6895F8B4
:1030500022800B4393600023C4F8C83F2B690BEB1D
:10306000CA021A6095F823305FFA88FC01939DF834
:103070000430604619462A7DCDF80CC0029300F05A
:1030800093F9029BDDF80CC019466046082200F057
:1030900081F94FFA88F840494FEA08389DF9042031
:1030A00058F80100012303FA02F2024348F8012014
:1030B0004FEA0A3A5AF8010003FA0BF202434AF8BF
:1030C00001205022A263A26B95F8240042F4D06242
:1030D000A263022262634FF440722263AA696262B1
:1030E000EA69A2627022E26242B2002A0C4614DB54
:1030F00095F92510294D41EAC20129607979120319
:1031000015594FB2BB402B431351002200F042F936
:10311000234A136843F4004313602C2303FB0693F4
:1031200093F8265020336FB2002F1CDB93F807A0D2
:10313000EDB25FFA8AF82846414601223F0300F0CB
:1031400033F94FFA8AFA3A59012303FA0AF313437F
:103150003B5108222846414600F01CF9104A1368EA
:1031600043F4804313602C2303FB0696F26896F821
:103170002800136B43F00103136305B0BDE8F04F63
:1031800000F058B805B0BDE8F08F00BF9CED2000FE
:10319000352F200028200D4020940D4004410D4083
:1031A00030D0004001289CBF014B43F820107047ED
:1031B000E8060020012808D8044B2C2202FB00302E
:1031C000C3689A699206FCD4196070479CED200090
:1031D000014B00221A60704700500D40014B08223D
:1031E0001A60704700500D40024BA0221A60502216
:1031F0001A60704700500D40074A084B1A60084B90
:1032000080321A60074B80321A60074B80321A6096
:10321000064B074A1A60704700E100E0FC060020F8
:10322000F0060020F4060020F806002008ED00E07B
:1032300000202000044B41091A6800F01F00012300
:10324000834042F821307047FC060020044B4109BE
:103250001A6800F01F000123834042F821307047B4
:10326000F0060020044B41091A6800F01F000123FA
:10327000834042F821307047F8060020054A064B8B
:103280001A60064B1A68064B1340B3F1807FF8D1E1
:10329000704700BF0101020100200D4004200D40D5
:1032A00000000101024B02EBC10243F8220070470B
:1032B00000070020F8B507460E46094D002405EB2F
:1032C000411547FA04F3DB07E1B204D555F8243081
:1032D0000BB1304698470134082CF2D1F8BD00BF3D
:1032E000000700202DE9F74F019000F06BFEFFF77B
:1032F000B5FD0199184E4FEA0139184F0123DFF847
:1033000064A009F18045B860B37005F55925D5F87A
:10331000188459F80A404FEAC10B24FA0BF448EA22
:103320000400C0B2E4B2FFF7C5FF04FA0BF45FFA81
:1033300088F3C5F81C3449F80A40B3784BB1FFF75D
:103340008DFD074AB96893685B1A184400239060A2
:10335000B37003B0BDE8F08F3C2D00204C2D002051
:10336000002D002018970D400248002180220AF00D
:10337000F7B900BF00070020034A044B1A60044B52
:10338000803A1A60704700BF80400D4084070020DB
:1033900080070020034B01EBC0011B6843F821208C
:1033A000704700BF84070020034B01EBC0011B687E
:1033B00043F82120704700BF8007002001289FBFED
:1033C000034901230A6883409CBF13430B60704785
:1033D00018200D402DE9F04F012887B0044671D820
:1033E00018235C43394D2E1996F811804FFA88FC4A
:1033F000BCF1000FCDF814C064DBFFF7DFFFB37C36
:103400002D5900275FFA83FB5FFA88F86F6040460A
:103410005946327AC5F8C87F0493FFF7C5FFF47C9C
:10342000327BE3B20093337D009801939DF8043022
:1034300064B219460293FFF7B7FF96F815A096F805
:10344000169072684FFA8AF34FFA89F101EBC300C4
:10345000DDF814C0106003931D4A049B4FEA0C3C36
:103460005CF802004FFA83FE012303FA0EFE40EAE5
:103470000E004CF8020024039DF9040054F802E009
:1034800003FA00F04EEA0000A05003988B400003BE
:10349000845859462343835040463A46FFF77AFF03
:1034A000009802993A46FFF775FF504649463A465A
:1034B000FFF770FF337C2B61C7232B606B6843F0F1
:1034C00002036B6007B0BDE8F08F00BFF4ED200091
:1034D00020940D4038B50B4A0403A35801258D40B4
:1034E00023EA0503A3500022FFF754FF064AA3581E
:1034F0002B43A35004F1804404F55924FF2344F8DE
:10350000253038BD20940D4000940D400E2870B534
:103510000BD1164B164E1C6844F002051D60356831
:1035200025F03F0343F001033360124E336823F06C
:10353000FF031A431143014331600F4B1B681B0605
:10354000FBD50E4B0E4A1B6812680E2803F0FC03D5
:1035500043EA022308BF064A9BB204BF1560034A30
:103560009BB208BF146018B270BD00BF34000144A4
:10357000F486084008700D4000700D400C700D403E
:1035800010700D40024B1868B0FA80F04009704787
:1035900000B7084070B5FFF761FC104E104C0123D6
:1035A000B060104D8F20A370FFF75CFE8F20FFF7F7
:1035B0004DFE286818B101F0FFFC00232B60A378B2
:1035C00053B1FFF74BFC084AB16893685B1A184483
:1035D000034B906000229A7070BD00BF4C2D0020FC
:1035E0003C2D002088070020002D0020064A13688B
:1035F00043F002031360536843F00203536093687F
:1036000043F002039360704748200D4007B50C4813
:1036100000F0A2FDFFF7EAFF0A4B1A6842F002022F
:103620001A6000220192019A0F2A02DC019A0132EB
:10363000F8E71A6822F002021A6003B05DF804FB92
:103640008535200054200D40064A136823F00203FC
:103650001360536823F002035360936823F002035E
:103660009360704748200D40044B186800F022001A
:10367000A0F1200358425841704700BF4C860840D3
:10368000024B186800F04000704700BF4C860840AD
:1036900008B50B4B93F90020002A09DB094AED21FC
:1036A00011601160E32111601A7862F07F021A70D4
:1036B000FFF7D4FB044BD861044B0120D87108BD3F
:1036C00060230020388808404C2D00203C2D00202D
:1036D00038B505460C46134B1B689B07FBD4124BB1
:1036E00093F90030002B01DBFFF7D2FF0F4BEE22E6
:1036F0001A60691E1A60A21C43F8102C2144022093
:1037000000F0B8FB013C0A4924012143022000F0EB
:10371000C3FB022000F0CAFB022000F0DFFB002008
:1037200038BD00BF4C860840602300203888084020
:1037300002C001C0044B1A6810B142F0010201E05E
:1037400022F001021A607047008608400B280DD154
:10375000082A0DD161B1074B013953F8042D01F846
:10376000012F054A9342F8D100207047012070478D
:1037700002207047C8850840A88508400B280DD155
:10378000082A0DD161B1074B083111F8012D43F81A
:10379000042F054A9342F8D100207047012070475A
:1037A00002207047A4850840C485084070B52B4EA0
:1037B000336813F0400308D0294D2B68DCB21B0698
:1037C00005D5284BED221A601A60002070BD042C2C
:1037D000F7D9023C8C42F4DCE4B2032C1BD0011973
:1037E0000139032000F04EFB631E1F491B0103201B
:1037F000194300F051FB032000F058FB032000F0B8
:103800006DFB032000F076FB0028FAD129682D68B3
:103810002806D6D506E02B6803702B6843702B680A
:103820008370F3E7493949B289B2042008F0D2F92C
:10383000032005F07F0108F0CDF933685A060BD557
:10384000064B1B681B0603D5084801F0B5FB03E0D7
:10385000044BED221A601A60204670BD4C86084069
:10386000288808403888084002C0010C9C040020C9
:1038700010B5114B1B689B07FBD4104BED221A604F
:103880001A600F4A12680AB1EF221A600D4A0E4CF4
:10389000137803F07F031370E37953B1FFF7DEFA77
:1038A0000A4A0B49D369C9695B1A18440023D061DD
:1038B000E371012010BD00BF4C86084038880840E5
:1038C0002C860840602300203C2D0020002D002085
:1038D0004C2D002038B5A0F10B04E3B20F2B0546A8
:1038E00013D80B4B1B6813F03F0302D0FFF7C0FF48
:1038F000012304EB8404074A0B3414600BB1FFF777
:10390000C7FE054BE8B21D7000E0FF2040B238BD95
:10391000488608403C8608407A06002038B50C46A8
:10392000072855D8DFE800F0040F1B1F26543B4F33
:10393000012903D1FFF7ACFE002038BD002949D191
:10394000FFF796FFF8E7A1F10B030F2B42D8C8B29F
:10395000FFF7C0FF431C0CBF0320002038BD8CB212
:10396000E2B21D4B02E08CB21C4BE2B2240A1A6098
:103970005C60E1E731F003052CD101F00100FFF7B5
:10398000D9FE174B14F002001A681BBF284642F0FC
:10399000200222F020021A6008BF1A6038BD01F12F
:1039A00018031F2B16D80D230E49DA0051F83300E7
:1039B000844204DC8B181A790B4B1A60BCE713F1B4
:1039C000FF33F1D2B8E7CCB2084B49341C60B3E7FF
:1039D000012038BD022038BDC8850840D085084088
:1039E000248608405CEE2000408608405886084047
:1039F00038B50C4600296ED010286ED8DFE800F0EC
:103A0000090F1A1C236D3344496D6D6D6D6062643E
:103A10006900334B1B68003318BF012356E0314B5C
:103A200005221B6803F07F030B3B93FBF2F30B3380
:103A3000DBB24BE02C4B00E02C4B1A68043B1B68BC
:103A400043EA022342E02A4B002008601A6824332C
:103A500002F001020A601B6813F0200337D042F025
:103A600002020A6038BD234B1A680023D2B22249F1
:103A700001EBC3000079904202D851F8333025E0C1
:103A800001330E2BF3D11FE01C4B1B685BB2493B8B
:103A90001CE01B4B1B68990603D1FFF7F9FD0123BE
:103AA00000E00023174A1268D207FBD5164A1568B2
:103AB000493DEDB20BB1FFF7DBFE6DB2256006E0CC
:103AC0000B2303E01A2301E06FF0170323600020AB
:103AD00038BD0723FAE7022038BD012038BD00BFFA
:103AE0002C8608403C860840CC850840D485084098
:103AF00000860840408608405CEE2000588608405A
:103B000048860840648608406086084010B50B4B24
:103B10001B68990603D1FFF7BBFD012300E00023DA
:103B2000074A1268D207FBD5064A1468C4F300148A
:103B30000BB1FFF79DFE204610BD00BF4886084030
:103B4000648608404C8608402DE9F843364B93F9CB
:103B50000030002B0EDBFFF781F90446FFF798FDDC
:103B6000FFF77CF96FF009031B1BC342F8D44FF039
:103B7000010801E04FF00008FFF7C8FF00284CD013
:103B80002A4E336813F0200447D1294D294FEB7991
:103B900043B1FFF763F9284AF969D369EC715B1AFD
:103BA0001844D061FFF75AF9244C0123AB71E92383
:103BB000B8614FF00409236033689A0708D409F10B
:103BC000FF3919F0FF0903D00620FFF705F9F3E7E5
:103BD00033689B0704D4EE2323602360012404E0B0
:103BE000306810F00200FBD10446AB7953B1FFF707
:103BF00035F9114AB96993695B1A18440C4B906105
:103C000000229A71FFF72AF90123F861EB71B8F1EC
:103C1000000F05D0FFF72CFE02E00220BDE8F8837C
:103C20002046BDE8F88300BF602300204C86084092
:103C30003C2D00204C2D0020002D0020388808400D
:103C4000F8B52E4E357815F0010554D12C4B0124D2
:103C50001C605C609C60A3F59323A3F51473F822A9
:103C60001A600922C3F89021152270331A6003F5F7
:103C70009B230B2203F59E731A60A3F59B23A3F5E8
:103C8000F07340221A601A687F2742F020021A60FF
:103C9000D52243F81C5CDF62DA611A4B1878FFF713
:103CA00019FE194A8D20136843F004031360FFF7CF
:103CB000C1FA164B8E201F60FFF7BCFA022000F0FD
:103CC00001F91349022000F0DDF8032000F0FAF8B2
:103CD00003200F4900F0CEF829460E4801F054F9B0
:103CE000337823433370FFF7B9F80B4BD8610B4B94
:103CF0002046DC71F8BD0020F8BD00BF6023002025
:103D0000A8200D407A0600208C8608409486084042
:103D1000288808409C0400204C2D00203C2D0020C9
:103D200038B503880446F3B1B3F5717F03D000239F
:103D30000380032038BD822918D107F0F1FE07F077
:103D400085FE8021FFF732FD051E08DD0220FEF70B
:103D5000DBFEA8B207F038FE0C4B1B6998470C4BF2
:103D60001A78520604D44FF471732380012038BDB1
:103D700000221A70074B1D68FFF77AFDFFF760FFFE
:103D8000AB06F0D0FFF784FCEDE700BF58EF200052
:103D9000602300204886084070B5FFF75FF80B4E9F
:103DA0000B4C0123B0600B48A37001F005F90A4BDE
:103DB00000251D60A37843B1FFF750F8074AB168AA
:103DC0009368A5705B1A1844906070BD4C2D00205C
:103DD0003C2D00209C04002034880840002D002049
:103DE00070B5FFF73BF8114B01221D46104C9A703D
:103DF000104AA06011680026042918BF0E490F4818
:103E00001EBF0B7843F040030B70166001F0D4F82E
:103E1000AB784BB1FFF722F8094AA16893685B1AA7
:103E20001844024B90609E7070BD00BF3C2D002076
:103E30004C2D00202C880840602300209C0400208A
:103E4000002D002010B5094C00212046402209F029
:103E500087FC074B01221A602E205C60FFF7EAF90D
:103E6000BDE810402F20FFF7E5B900BF000000209B
:103E700004F00F4003289EBF014B0001195070470A
:103E80000000002003289EBF024B03EB001041609E
:103E9000704700BF0000002003289EBF024B03EBC9
:103EA00000108160704700BF0000002003289FBF02
:103EB000034901230A6883409CBF13430B6070478A
:103EC00028F00F4003289FBF034901230A6883405D
:103ED0009CBF13430B60704720F00F4003289FBF27
:103EE000034901230A6883409CBF13430B6070475A
:103EF00014F00F4003289FBF044B03EB00108068B1
:103F000000F0070088BF0020704700BF00000020BD
:103F1000024B4FF0FF321A60704700BF04F50F40AC
:103F2000014B01221A6070474CF00F40094B1A6890
:103F300012F4801F1A46F9D1043B196821F480312C
:103F400019601168C903FCD41A6842F400321A607F
:103F5000704700BF04200D4070B5164CFEF77EFF81
:103F60002378154D3BB1154A296813685B1A034441
:103F7000136000232370124E686001230220316811
:103F8000637000F025FE30BF022000F005FE3060B7
:103F9000FEF764FF63784BB1084A074953684968E4
:103FA0005B1A03445360034B00225A7001232860BC
:103FB000237070BD3C2D00204C2D0020002D0020D2
:103FC0008C07002070B5144B1A681C4612F0030FC2
:103FD00021D0124B1A685101FBD41A685201FCD54A
:103FE0000025FEF707FFFFF7A1FF2560022000F084
:103FF000D3FD0B4B1860FEF731FF0A4B0A495A7884
:1040000032B10A4C4E6862685D70921B0244626075
:10401000012208601A7070BD58200D4004200D4028
:104020008C0700203C2D00204C2D0020002D00206E
:104030002DE9F0413E4B1C6814F03F0413D13D4B79
:1040400053F8243023B1984768B10134052CF6D1D8
:10405000394D2B783BB1FEF7FBFE0446FEF7FEFE22
:10406000201A092803D8BDE8F041FFF775BF002CDE
:10407000F9D0324B1A6822F400321A60304A1168C3
:10408000C902FBD4196841F4803119601368DB035D
:10409000FCD5FEF7E3FE201A092803D8BDE8F0415D
:1040A000FFF744BF6328274F02D92B78022B00D09B
:1040B0000123254E3B60254C0220316800F088FD2D
:1040C000FEF7CCFE2378224D3BB1224A29681368C3
:1040D0005B1A03441360002323700123686063703C
:1040E00000F01CFFB8B14FF00008FFF71FFFC7F842
:1040F0000080022000F050FD3060FEF7AFFE6378D4
:1041000083B1144A696853685B1A034453600F4BC8
:1041100083F8018006E0FEF79BFE0028E3D030BF65
:10412000BDE8F081012328602370BDE8F08100BF65
:1041300048860840900700206123002000200D40A1
:1041400004200D4058200D408C0700203C2D0020FD
:104150004C2D0020002D00200023064A52F8231089
:10416000814206D011B942F8230070470133052B74
:10417000F3D1704790070020054B00221A60054AD2
:10418000136843F004031360034B01221A70704755
:1041900058200D4010ED00E06123002070B5FEF7BF
:1041A0005DFE104E104C0123B060104D9020A370A6
:1041B000FFF758F89020FFF749F8286818B100F089
:1041C000FBFE00232B60A37853B1FEF747FE084A9D
:1041D000B16893685B1A1844034B906000229A7090
:1041E00070BD00BF4C2D00203C2D0020A4070020F6
:1041F000002D002030B5184B1A78431E3AB9174AE3
:104200001278122A03D1164A12784B2A03D001F5EC
:104210002011273117E04A0802F12814B4F1281FB1
:1042200004D014F8015D03F8015FF7E701F52011F0
:1042300027310023934205DA11F801598418E55417
:104240000133F7E730BD074A914204D011F8012944
:1042500003F8012FF7E730BD2B0028002A002800C3
:1042600029002800270028000FB407B504AA52F837
:10427000041B0448019200F039F803B05DF804EB28
:1042800004B07047AC0400200EB43FB5094B07AA38
:1042900052F8041B0190049304A801AB0392059308
:1042A00000F024F8019B00221A7006B05DF804EBC0
:1042B00003B07047BBD9200070B505460C46102CE2
:1042C00007D92B68686808491022984750B9103CF4
:1042D000F5E734B12B6868682246BDE870400249B2
:1042E0001847204670BD00BF26F220002DE9F04F90
:1042F00080468FB0069107920026069B1B78002B04
:1043000000F05F83069B1C4613F8012B1AB9069B2D
:104310009C4203D10FE0252AF5D1F8E7069BD8F897
:104320000400E51A0699D8F800302A469847002874
:1043300040F02A832E442378002B00F042836378D8
:10434000611C002B00F03D8300240A4611F8013B5C
:104350002B2B11D006D8202B11D0232B12D144F0B7
:104360000804F2E72D2B04D0302B0BD144F01004BD
:10437000EBE744F00104E8E744F00604E5E744F025
:104380000204E2E7A3F1310108290DD81346002504
:104390001A4613F8011BA1F13000092811D80A228E
:1043A00002FB0515303DF3E72A2B09D1079B0132AB
:1043B0001D68191D002D0791B8BF44F0010400E0ED
:1043C000002513782E2B1CD15178531CA1F13000FD
:1043D00009280ED8194600270A780B46A2F13000AA
:1043E000092801F101010FD80A2303FB0727303FF9
:1043F000F2E72A2906D1931C079A111D0791176825
:1044000002E013464FF0FF371A786C2A09D15A7828
:104410006C2A02D144F080040AE0013344F06004C5
:104420000BE0682A09D15A78682A03D144F02004A5
:10443000023302E0013344F040041A78642A3CD08D
:104440001FD8462A48D00DD8252A5AD003D8002A8A
:1044500000F0B78257E0412A4AD0452A53D144F4AC
:10446000424450E0582A31D004D8472A4BD144F472
:10447000A13448E0612A38D0632A44D144F4A064CE
:1044800041E06E2A3AD007D8662A22D027D3672A7D
:1044900028D0692A11D036E0732A2CD006D86F2A8A
:1044A00011D0702A2FD144F440742CE0752A07D023
:1044B000782A28D144F4C85425E044F4245422E056
:1044C00044F410641FE044F488541CE044F4B24403
:1044D00019E044F4007416E044F4844413E044F416
:1044E000024410E044F481340DE044F4C1340AE0A5
:1044F00044F4E13407E044F4806404E044F4E0640C
:1045000001E044F4C0640133069304F4E063B3F5BE
:10451000806F00F0AA8116D8B3F5807F2BD0B3F559
:10452000407F7FF4EAAE079BA04914F4804F03F16B
:1045300004029F4818BF08460DF1330107920F4649
:104540001A680023C5E1B3F5C06F08D0B3F5E06F7A
:1045500000F03182B3F5A06F7FF4CFAE00E2D8F85F
:104560000030D8F80400934901229847002840F011
:104570000B820136C1E6002FACBF24F010040127E6
:1045800014F40053039304F0E00337D0402B17D00A
:1045900008D8DBB1202B2AD1079B1A1D079293F96B
:1045A000002017E0602B11D0802B20D1079B073310
:1045B00023F0070303F108020792D3E900230AE07E
:1045C000079B1A1D0792B3F9002003E0079B1A1DF1
:1045D00007921A68D317002A73F1000109DA5242D0
:1045E00063EB4303CDE900234FF0010933E00022E0
:1045F0000023CDE900234FF000092CE0402B16D01A
:1046000007D8CBB1202B20D1079B1A1D07921A780F
:10461000EEE7602B10D0802B17D1079B073323F0D8
:10462000070303F108020792D3E90023E1E7079BA0
:104630001A1D07921A88DBE7079B00211A1D0792B3
:104640001B681846CDE90001D5E700220023CDE91B
:1046500000234FF0000904F4C053B3F5805F0CD081
:10466000B3F5C05F33D0B3F5006F4FD1DDE9002360
:104670000DF1360ACDE9042304E0DDE900230DF154
:10468000360A15E0DDE9042313433AD0DDE90401DD
:104690000A22002308F080FCDDE9040130320AF828
:1046A000012D00230A2208F077FCCDE90401E9E797
:1046B00052EA030125D002F0070130310AF8011D4A
:1046C000D10841EA4371D8080A460346F0E7384B5F
:1046D00014F4804F0DF1360A344908BF1946DDE95C
:1046E000002352EA03000CD002F00F00085C4FEAEE
:1046F000131E0AF8010D100940EA037002467346C2
:10470000EFE70DF1360BCAEB0B0B03E00DF1360AA8
:104710004FF0000B41F6080241F208035F4502EA40
:1047200004028CBFCBEB070700279A4202D1002F6F
:1047300008BF012741F608018A4207EB0B030DD1A0
:10474000DDE9000150EA010208D01B4914F4804F52
:104750001A4A4FF0020C18BF0A4602E04FF0000C54
:1047600062460399A1B1B9F1000F0AD104F0060124
:1047700002290AD00629124904BF4FF0010C0A464B
:1047800006E04FF0010C0F4A02E00F4A4FF0010C17
:1047900063449D428CBFED1A002514F0010922D11B
:1047A000E30613D52F444D461DE000BFF1F1200074
:1047B00002F2200024F2200016F2200013F2200062
:1047C0001BF2200019F2200039F120004046294652
:1047D000CDF80CC00092FFF76FFD009ADDF80CC019
:1047E000002840F0D180BCF1000F0DD01146D8F860
:1047F00000306246D8F80400CDF800C09847DDF8D4
:1048000000C0002840F0C0803C465E44102CD8F820
:1048100000300DD9D8F804006C491022CDF800C042
:104820009847002840F0B080103CDDF800C0EDE76C
:104830005CB1D8F8040065492246CDF800C098471D
:10484000DDF800C0002840F09F80D8F80030D8F88C
:10485000040051465A4666449847002840F0948028
:104860003E44B9F1000F79D073E0079BD3F800A064
:104870001A1D0792BAF1000F09D05346994699F8CC
:1048800000200133002AF9D1CAEB090903E0DFF85F
:1048900040A14FF00609002F02DBB94528BFB946F9
:1048A0004D458CBFC9EB0505002514F0010405D169
:1048B00040462946FFF700FD002865D1D8F80030B2
:1048C000D8F8040051464A46984700285CD14E4427
:1048D0003EE052EA030E0ED002F00F0E10F80EE08A
:1048E0004FEA131C01F801ED4FEA121E4EEA037E57
:1048F00072466346EDE70B467F1A01BF302201275F
:1049000001F1FF3301F8012C03377822BD4203F88F
:10491000012C4FF0300203F8022C88BFED1B4FF042
:10492000230298BF002514F00104A3F1030903F842
:10493000032C04D140462946FFF7BEFC20BBD8F823
:104940000030D8F8040049463A469847E0B93E445A
:1049500024B140462946FFF7AFFCA8B92E44CCE469
:10496000079B012D03F104021B688CBF05F1FF3585
:10497000002514F0010407928DF8203008D140463C
:104980002946FFF799FC10B14FF0FF301AE02E4492
:10499000D8F80030D8F8040008A901229847002868
:1049A000F2D16F1C2CB140462946FFF785FC002848
:1049B000EAD13E44A1E4079B1A1D1B6807921E60C2
:1049C0009BE430460FB0BDE8F08F00BFE1F120005E
:1049D0001DF22000F8B50388064615462BB14A2B78
:1049E00015D0002303800320F8BD174809F057F8BD
:1049F00004462CB1201DA16808F0F4FF2468F8E7F4
:104A0000124B01221A704A2333800120F8BD8829F5
:104A1000FBD10D4809F043F80446002CF3D0231DC8
:104A20009D420ED10848214609F043F8084B6269BF
:104A30001F681A60A2691D460AB1E06990472F609D
:104A4000E1E72468E9E700BFA8070020622300200F
:104A5000BC07002010B5064B002406481C7009F066
:104A60001BF82146BDE81040034800F08DBA00BF96
:104A700062230020A8070020B404002070B504467B
:104A8000E3610B4B049D1B786561A26143B1094D45
:104A9000094B2E68201D2B6008F0A4FF2E6000E05B
:104AA000A1602146BDE87040044809F016B800BF77
:104AB00062230020BC070020B4040020A8070020C7
:104AC00013B5034C24680094FFF7D8FF02B010BD63
:104AD000BC07002070B5094B05461B783BB1084C5C
:104AE000084B26680430236008F085FF26602946BD
:104AF000BDE87040044808F0F0BF00BF622300200A
:104B0000BC070020B4040020A807002070B5094BA2
:104B100005461B783BB1084C084B266804302360DF
:104B200008F072FF26602946BDE87040044808F08E
:104B3000D4BF00BF62230020BC070020B4040020C3
:104B4000A807002010B5084B04461B781BB10430A1
:104B500000F0DEF801E0C36003612146BDE81040CB
:104B6000024808F0A6BF00BF62230020A80700206B
:104B700000230649002241F82320054941F823205B
:104B800004495A5401330E2BF3D170474C2D0020A9
:104B9000002D00203C2D002038B50A4B04461B5C3C
:104BA000094D63B1FEF75AF9084A55F8243052F816
:104BB000241042F824005B1A034445F8243055F8C9
:104BC000240038BD3C2D0020002D00204C2D00205D
:104BD000014B43F820107047002D002010B50E4CFB
:104BE000236813B90D4A136010BDFEF7E1F8216880
:104BF00091E80C001A44131A8A6842B192E8120034
:104C00002144091A8B4228BF0B469268F5E71844E5
:104C1000024B186010BD00BFAC070020B007002099
:104C2000014800F0C9B900BFC4040020F8B50388EA
:104C300005462BB1592B09D0002303800320F8BD72
:104C40001E4A136059232B800120F8BD872920D0EC
:104C50008229F7D1194F00263C68002CF2D020465B
:104C600008F00CFF90B1E0688821224600F060F95E
:104C700050B9E060A3680EB1B36000E03B60002370
:104C8000A360FFF7ABFFE5E7FFF7CAFF2646A4687E
:104C9000E3E70A490B680BB90B60D3E7D868904289
:104CA00001D19B68F7E70B6099680029CAD0C868F2
:104CB00090420ABF89680B469960F5E7AC0700206F
:104CC00010B50446FFF7ACFFE3680B4A4BB113681D
:104CD0003BB1A34203D1094A1268DA6007E09B683E
:104CE000F6E7064B1B68E36013681460A360BDE839
:104CF0001040FFF773BF00BFAC070020BC070020C7
:104D0000024B1868003018BF01207047AC07002024
:104D100010B50B4A04461368984206D183681360A5
:104D200008E09A68A24203D01346002BF9D103E0B1
:104D3000A2689A60FFF752FF0023A360E36010BDF2
:104D4000AC07002038B5836804460D469BB10A487D
:104D500004600220A07304F10C0098470238012877
:104D600001D9832D05D120462146BDE8384000F009
:104D700005B80123A37338BDBC0700202DE9F84313
:104D80001C4A0446156889462B4690461A4E3768D9
:104D9000A34204D00BB11B68FAE7BDE8F88334B333
:104DA000A37BABB10023A37345B1AC4204D028462A
:104DB0008721224608F039FE2D68F5E7A3683BB14C
:104DC0004C4505D0346004F10C0083212A469847F5
:104DD000D8F800309C4203D12268064B05E0134608
:104DE00023B11A68A242FAD122681A603760BDE87E
:104DF000F88300BFC0070020BC07002010B5094B96
:104E000000221A70084B1C685CB1E37B3BB10123A4
:104E10000022A373E27320468221FFF793FF2468E8
:104E2000F2E710BD66230020C0070020024B18786F
:104E3000421C1A70704700BF67230020064B8A226D
:104E40001A70064A00231370054A1370054A13604E
:104E5000054A1360704700BF6723002063230020CA
:104E600065230020C0070020BC0700202DE9F04189
:104E7000214E33780BB1FFF7C1FF204D2C78002C69
:104E800034D0DFF88CE00C229EF800301C495A43E5
:104E900088181C4F895CDFF87C804268DFF878C096
:104EA0008068013303F01F03013C3970C8F800200B
:104EB000CCF800008EF800302C7088B9124C134BDF
:104EC0001B68236023688BB133780BB1FFF796FF23
:104ED00020683978D8F8002008F0A7FD2368EFE7AC
:104EE000812904BF0123837308F09FFD337828785C
:104EF0001844BDE8F08100BF662300206523002030
:104F0000C807002068230020C4070020C007002035
:104F100063230020B4070020B8070020024A034B97
:104F200010781B7818447047652300206623002002
:104F3000F0B50C4E3478202C11D00B4B0B4D1B7858
:104F40000B4F234403F01F032B700C256B430134DC
:104F5000FD18A860F9546A6034700020F0BD01208B
:104F6000F0BD00BF652300206323002064230020E0
:104F7000C807002038B5034C256808F056FD2560A9
:104F800038BD00BFBC07002010B50A4609490C68AF
:104F9000234683420DD00BB11B68FAE748B1046089
:104FA00008600121817383818121BDE81040FFF7F2
:104FB000E1BF10BDC007002038B1837B013B012B4E
:104FC0009FBF024A0123C3731370704766230020FA
:104FD00006480023064A074952F8232051F82310B7
:104FE00001330E2B01FB1200F4D1704700CA9A3B2B
:104FF000ECEE2000002D002010B5084C206858B1C0
:1050000000232360816843689847236823B1BDE883
:1050100010401868FDF738BF10BD00BF48090020D8
:1050200010B50446FDF7CEFE94E80C001344C01AF8
:10503000024B98428CBF0020012010BDFEFFFF7F75
:1050400038B505880446672D09D0792D2ED0002D5E
:1050500032D1FFF7EBFE1B4B18701B4B1D601B483A
:1050600008F0CEFD431C01D167231DE00A28164B32
:1050700007D01A687E2AF2DC511C1960144B985430
:10508000EDE7196800254A1C1A60114A0D4B55546A
:1050900028461978FFF74CFF0E4B852118682A46E1
:1050A000FFF746FF20B97923238009E0852907D13E
:1050B000054B00221A60D2E700230380032038BD8D
:1050C000012038BD4F3A0020540900204C0900202F
:1050D000EA230020BC0700200D2810B5014615D09A
:1050E0000B4C23782BB90B4808F076FD48B9012307
:1050F00006E00A2805D1074808F06EFD08B1002334
:1051000023700548FFF758FF012010BD002010BD97
:10511000E92300204C090020D404002008B50548EC
:105120000549802208F051FDBDE8084003480021F0
:10513000FFF72ABF4C09002069230020D404002077
:10514000054A136843F004031360044B1B6890691D
:1051500043EA002080B2704700700D4014700D408B
:10516000174A136823F00C031360164B01221A60D0
:105170001A68012AFCD1144B08221A60E322C3F8F2
:10518000142203F505731946104B1B68DB07FBD58A
:10519000102000230E4A0138126802F0010243EA8F
:1051A00002034FEA43039BB2F4D1002BF0D0094A2B
:1051B000180A03F0FE0310601360EF230B607047C2
:1051C00000700D40A8200D402486084064860840E9
:1051D0009C86084014700D4070B505880446772DF4
:1051E00030D07E2D3FD0002D4DD1FFF71FFE294B33
:1051F0001870294B1D601D462B68284A264E52F810
:1052000023204AB126480021C15493688020984742
:10521000336801333360EFE7224A1370772320E0CD
:105220001F4AD256002A12DB1B4A1368013313604F
:10523000194B1C4A1B6812789342F1DB1A4B1B680E
:10524000002BEBD0184A00231360134AEFE7114AF2
:1052500000201178114A52F82320FFF769FE30B977
:105260007E23238013E00B4B1B788B420FD10A4B1C
:105270000B491A688B5C03F07F038B540A4A13684E
:1052800001331360D0E700230380032070BD0120A9
:1052900070BD00BF503A0020580900208C04002047
:1052A0004B3A00206A2400205C090020094B1A7840
:1052B0000023934204DA084951F82310814207D1B0
:1052C00006490748CA5C62F07F02CA54FFF774BE01
:1052D0000133EEE76A2400208C0400204B3A0020C2
:1052E000E40400200C4AB82303FB0022002330B55D
:1052F00053821A46094CE1188D782DB11C5D844209
:1053000002BF00248C70013240F24C5171338B4249
:10531000F0D1104630BD00BF7C090020762400206B
:1053200008B5064803F01CF9054B01221A70FD214F
:1053300000225A709970DA7008BD00BF89552000AC
:105340006C24002010B513780446087A83F0020319
:1053500098421DD1487A5378984219D1887A937827
:10536000984215D1C87AD378984211D1087B137925
:1053700098420DD1487B5379984209D1887B937923
:10538000984205D1C87BD379984201D103201BE014
:105390000B890F4A6BB94B89B3F57F4F09D18B89C4
:1053A000FE2B06D11368C989022023F8021B136063
:1053B0000AE0136851F8080F083343F8080C4868EE
:1053C00043F8040C13600120A040C0B210BD00BF20
:1053D0006809002010B50F4C0220A17906F0FAFBF5
:1053E000A379112B01D0062B05D1238D618D994214
:1053F000A8BF194608E03A2B05BF94F8281094F886
:105400002930002143EA01210120BDE8104006F0C7
:10541000E1BB00BFE42D002010B5084C0146237805
:10542000012B08D1A01C082208F08EF800280CBF20
:105430002046002010BD002010BD00BF6C240020BD
:1054400008B50146102006F0D3FB044B04489B68C6
:1054500000219847BDE80840FDF7C6BE78EF200060
:105460006554200010B508460C46114602F00AFCAF
:10547000044B1B6813B19B6820469847024B1C6085
:1054800010BD00BF7809002074090020F8B505465A
:105490000023114A712404FB0324A278B2B961707D
:1054A00006F09CFA26460D4F0D4A3B7806F8035B42
:1054B000C01A1568A0701D4406F090FA3A78294683
:1054C000821A304608F072F8A078F8BD01330C2B30
:1054D000DFD14FF0FF30F8BD76240020C229002034
:1054E0006C0900202DE9F8434FEA1219B9F10F0FAA
:1054F00080461D4602F00F040BD00F2C05D1B9F1E8
:10550000000F0AD11024274619E0B9F1000F09D085
:1055100004E00F2C4FF0100900D1102440464A46F9
:1055200008F044F809EB04020F2A274606DC08EBD2
:1055300009000021C2F1100208F012F9BCB1114DAE
:10554000C7F110002E6840443146224608F02EF87C
:10555000022C08D1B9F10A0F9FBFFF2388F80B3046
:10556000FE2388F80C3034442C60BDE8F883B9F190
:10557000000F05D040462946BDE8F84308F0A4BB1B
:10558000BDE8F883680900202DE9F04F8E4E8F4D5D
:10559000002387B033702B70044606F0C1FA06F082
:1055A00055FA8B4A8B4B126818608DE8600099465B
:1055B0000AB1FFF70FFF04A80CB9874900E02146A4
:1055C00009F0C5FA854B864E1A8803933E2A40F2AD
:1055D0000182D9F800B0834D0BF102032B60009BD0
:1055E00006F1180093F80080002308F102080BF878
:1055F0000830FFF711FF20B906F10800FFF70CFF94
:1056000020B10BF103032B60802400E00446727884
:105610003178130943EA0113DBB2980840EA831397
:10562000DBB212F00F0FDEB26E4F01F00F010CD1A2
:105630006B48408848B911B912F0F00F1FD03B6891
:1056400003F8016B3B6070261AE079B912F0F00F95
:105650000CD1296823F03F031A43634B0A701B885F
:10566000033121F8023C6826296009E05C4A2B6876
:105670001068186003F8046B2B60602600E0782641
:10568000574B9A790293112A08BF46F00406730714
:105690005EBF3B6803F8012B3B60029BDB79402B2C
:1056A00006D0FF2B07D0012B08D146F0010609E0F8
:1056B00046F0020606E046F0030603E03A6802F808
:1056C000013B3A60029A464B128982B95A8972B9F3
:1056D0009A8962B9DA8952B91A8A42B95A8A32B9B0
:1056E0009A8A22B9DB8A13B944F0400013E03F489C
:1056F000FFF792FE3E4B186078B142781BF80830F5
:10570000042043EA02130BF808303849394AFFF7FE
:1057100019FE60F03F00C4B227E0029B30491A89AD
:1057200048F2FE039A420CD14B8B53B98B8B43B991
:10573000CB8B33B9042008312E4AFFF703FE2043F8
:10574000E9E73A68DFF8A4C096460CF1100A634610
:1057500003CB5345CEF80000CEF804109C460EF162
:10576000080EF4D11F4B10321A60DFF874A09AF8BB
:105770001830FF2B40F08A809AF8192044F0080E68
:10578000022A5FFA8EFE37D1BAF81A30A3BBBAF8F4
:105790001C308BBBBAF81E3073BBBAF820305BBB31
:1057A000BAF8223043BBBAF824302BBB9AF8263023
:1057B00013BB3B689AF8272044F00B0003F8012B39
:1057C000C4B23B609FE000BF6B240020C2290020D0
:1057D000780900206C090020B8F52000D02D0020A9
:1057E000E42D002068090020E62D0020EC2D00208B
:1057F00060090020DC2D00209B4B588B194688BB8C
:10580000988B78BBD88BA8B9188C98B9588C88B964
:1058100093F8240070B9296844F00A00C4B208461D
:1058200000F8012B33F8252F043121F8032C9B7845
:10583000837015E0C98B8C4BA1B9198C91B993F881
:10584000221079B9296844F00900C4B2084600F86A
:10585000012B53F8232F063141F8052C1B790371D6
:10586000296050E0814ADFF818C214680CF1100872
:105870002746634603CB4345386079609C4607F171
:105880000807F6D11034146074463CE00AF11800A1
:10589000FFF7C2FD764B186050B143781BF8081033
:1058A00044F004040B43E4B20BF8083000200EE08F
:1058B00048F2FE03BAF818209A4210D1BAF81A300A
:1058C0006BB9BAF81C3053B9BAF81E303BB90AF1BB
:1058D000180104AAFFF736FD2043C4B213E0634A5F
:1058E000DFF89CC117680CF11008BE46634603CB75
:1058F0004345CEF80000CEF804109C460EF1080E89
:10590000F4D110371760019A5749282313708B7907
:10591000112B53D14FF2B0030A8D52BA92B222F03A
:105920000F0080B2984217D14B8D5BBA23F00F0362
:105930001B041B0C83420FD12868F32303704B8D8B
:1059400002301A0A0B8D1B0A02EB031303F5AA633C
:1059500000F8013C286028E0029B43495B8D5BBA5C
:1059600003F47F43B3F5704F09D12B68F1221A700D
:105970000A8DA3F801204A8D120ADA700CE002F4B5
:105980007F42B2F5704F2B6808D1F2221A700A8D4F
:10599000120A5A704A8D5A80043305E0F0221A70B8
:1059A000886A053343F8040C2B60324B1A882B6845
:1059B00023F8022B019A2B6030231370009BD9F837
:1059C00000201B78D65413445C70284B1B689B1A2C
:1059D000009A1AE0D9F8002041231370009B06F1C9
:1059E00028051C78631CDBB21344324603CAAA4262
:1059F00018605960164603F10803F6D1009B29345C
:105A00001C70019B019A1B782833102013700DEB3A
:105A1000000106F0EDF8184BDFF868801B68984726
:105A200030EA200028BF1520039BC0F17D051C88AB
:105A3000019BDFF854A01E78009BA21B93F800B0D6
:105A40000E4FCBEB05039A4240F3CD80C0F17803B3
:105A5000019306F0F7F8019B94FBF3F40134A042A4
:105A600014DC0020D1E000BFE42D002068090020F4
:105A700060090020122E00204CEF2000C2290020D7
:105A8000FC2D0020D02D00206B240020D9F800B080
:105A90005F4B3C7800221A60594622460BF1040005
:105AA000039307F0F9FDB8F800205A496FEA8242E3
:105AB0006FEA9242C2F307228BF80020B8F8002068
:105AC00004348BF801200A88E4B2501C0880110AC3
:105AD000DFF850C18BF802102D1B9AF8001025F04A
:105AE00007054D4E61448BF803200BEB04002A465A
:105AF000CDF808C03C70356007F058FD281980B219
:105B000005F062FF06F0A4F8039B04461D4600283A
:105B1000A7D00DF1100B5846FFF792FC204606F077
:105B2000CFF8204606F0B6F82B68012B99D0043B3D
:105B3000012B96D99AF800A0336853441FFA83FAD0
:105B400005233B70354B1A68B8F800306FEAC34341
:105B50006FEAD343C3F307231370B8F800305370D0
:105B6000019B23F0070737602D4B1B889A454BD2CA
:105B7000D9F800204FEADA0111713268CAEB030349
:105B80009342B8BF244AD9F80000B8BF1360009B05
:105B9000376893F80080029B3A4603EB0A014044C1
:105BA00007F004FD08EB070080B205F00DFF06F0DA
:105BB0004FF8074600283FF454AF5846FFF740FC23
:105BC000384606F07DF8384606F064F8124B1B683C
:105BD0009A442B681FFA8AFA012B3FF442AF043B28
:105BE000012BC1D83DE7D9F800000E495844314493
:105BF00007F0DCFCB8F800005844801B80B205F0C8
:105C0000E3FE04A8FFF71CFC012007B0BDE8F08FFD
:105C1000740900209C190020700900206C090020E4
:105C2000D02D0020E42D00202DE9F04707468846BE
:105C30001646002A47D0434C0025A146238ABB4282
:105C400015D1638A9BB10F2005F0DEFF0146204687
:105C500008F082FF58B1ECB220463146FFF716FC3F
:105C6000002827DA0027DFF8E0A0B8460DE0B834B6
:105C7000002D5DD10125E1E7A8450BD10AF1B80A55
:105C8000B8F1000F10D14FF001083AF8063C002B94
:105C9000F4D0F1E7504607F0F1FE0028EED0404680
:105CA000FFF720FB0744E9E7002F41DD204631469E
:105CB000FFF7ECFB00283BDDB82303FB0595AB8A1F
:105CC0001844A8823AE0204DFF2435F8063C4FFAEC
:105CD00084F97BB3284607F0D1FE10B13046FFF7B8
:105CE00001FBB9F1FF3F03D135F8063C03B9F4B22B
:105CF000012E05F1B80501D00126E6E765B26B1C5F
:105D000016D0B8235D43DFF83C900F2009EB050661
:105D1000A6F81280378205F077FF0146304608F07A
:105D200016FF05F118004844402107F095FE05E0F4
:105D3000FF2403E0B9F1FF3FDAD1D8E760B2BDE854
:105D4000F08700BF7C090020940900202DE9F04F66
:105D5000A44CDFF8C8A287B000268AF8006026703D
:105D600005F074FEA04DA0462860042005F03AFF1F
:105D70009E4B2A6800B218605778137847EA0327C9
:105D800003F0F803C02B02D0E02B19D03AE0907852
:105D90002378D278C7F30A07043342EA0020394651
:105DA00032462370FFF740FFB0F1FF3F814600F01D
:105DB00081828F4CB82303FB00440126223424E067
:105DC0001379D17890782278C7F30A0705322270C8
:105DD00041EA00201A4639460093FFF725FFB0F14B
:105DE000FF3F814600F066828149B82202FB001223
:105DF000958A4FF0010BBD4234BF00250125344682
:105E0000009BE0E1B1464F467A4C296898F8005073
:105E10004A5D02F0E003602B40F0B781A81C084403
:105E200029444D78744B5FFA85FC1CF0800F186094
:105E30001CBF0130186012F0100F02F0080130D1C1
:105E4000D1B9196831F8010FA4F801008978E1701F
:105E5000196811F8040B1960830803F00F0141F071
:105E600060012170617803F0300343EA801301F090
:105E70000F010B43637030E0186860218646217083
:105E80001EF8011B03304FEA910B0BF0300B01F0B1
:105E90000F014BEA01016170BEF8001018606180CB
:105EA0001BE001F0FF0E99B919680878C0F3830070
:105EB00040F06000207011F801BBA4F802E04FEA46
:105EC0009B0000F0300040EA8B106070196004E025
:105ED0006023237000236370638002F0040303F0E7
:105EE000FF0100912BB944490B6813F8010BA07115
:105EF0000B6012F003020BBF3F4A404B13689B5CE0
:105F000009BF13F8011BE3711360E1716B06C5F360
:105F1000011233D51CF0800F1DBF334998F80030B3
:105F2000096800211EBF5B189978090922B904F19C
:105F3000080B9AB9114614E0314B1878012805D1A5
:105F4000587888420CBF1946002100E000212D4BF3
:105F500019600029EBD1B3460D4633E1294B19688E
:105F60000231294B0F209A5C0391CDF808C00192B1
:105F700005F04AFE0399034658460BE0234B0F20D9
:105F80009A5CCDF808C0019205F03EFE2049034618
:105F900004F10800019AFFF7A5FA05F00800DDF802
:105FA00008C005F0030200F0FF0105F0040300281B
:105FB00036D0002B6CD1174B1B88ADF81430531E14
:105FC000012B9FBF0C490B6813F8010B0B60124BA0
:105FD00098BF8DF815009A5C04F1180005A90023FC
:105FE00054E000BFC22900206C0900206409002091
:105FF0007C090020E42D00206809002069F22000BF
:106000006C2400206009002082F220006DF2200044
:1060100071F2200067F2200073F220006B24002050
:1060200053B31CF0800F1DBFA44998F800300968D5
:106030000B4618BF5B18A24918BF9D78087818BF97
:1060400005F00F03012805D14D789D420CBF0D4688
:10605000002500E000259B4B1D60002D00F0AE8068
:10606000994B10209A5C019205F0CEFDA91C0346C5
:10607000019A04F1180009E0944B10209D5C05F092
:10608000C3FD2A469249034604F11800FFF72AFA95
:106090009AF800008F4900F128038AF80030009B2D
:1060A000002B53D00B681A7802F0F802F02A4DD179
:1060B0001122A2711A7802F0040502F0F302F03AFC
:1060C000EDB2032A7CD8DFE802F0020A1622B3F808
:1060D00001200533228533F8022C62852CE0B3F8C9
:1060E00001202285DA78A2F5805292B2120242F0A3
:1060F000F002628509E05A78A2F5805292B212024B
:1061000042F0F00222855A886285043314E05A78FE
:1061100002331209A2F5756292B2120242F0F00245
:10612000228513F8012C02F00F02A2F5756292B2DB
:10613000120242F0F00262850B6025B90B6833F859
:10614000022BE2850B6030308AF800005B4A0B6856
:1061500012689B1A88F8003067B905F03FFC5E4B67
:106160001B78C01A9AF8003018442838031223719B
:10617000607104E0A7F128031A1222716371A379F8
:10618000112B1DD1A388A3851AE0412A40F09280EB
:106190006A1CD2B28B18224603F1280153F8040B73
:1061A0008B4242F8040BF9D105F1290388F800303D
:1061B0009AF8003028338AF8003001E0B34601E055
:1061C000B34600252B46009305F008FC98F8002004
:1061D00082426FD805F002FC3F4A40491278009B8A
:1061E000C2EB0008C1F8008040F214519AF800A0F8
:1061F000DB009BB2534443448B425BD83CB12F4BF2
:1062000004EB0A0019681144424607F0CFF9002F49
:1062100039D056B132484FFA89F3B82404FB03034E
:1062200008EB0A0189B29982198495B3B8224FFA12
:1062300089F402FB04F32A492A48CA1811469782B6
:106240002231128C07F0B2F9274D05F24C5615F8A1
:10625000012C5AB115F8033CA34207D115F8020CE2
:10626000204B294603EBC00007F0A0F97135B54279
:10627000EDD15FFA89F0FFF735F8BBF1000F0BD0D5
:106280001A4B1F800CE0BBF1000F05D0002DF7D199
:1062900010E0BBF1000F0DD1144BD044A3F80080E7
:1062A000134C236823B1FFF795F823685B68984780
:1062B00002F07CF907B0BDE8F08F00BF6C09002048
:1062C0006C2400206009002082F220006DF2200082
:1062D00071F2200068090020C22900207009002006
:1062E0007C090020E42D002079240020D02D0020FE
:1062F0007809002037B5124B124D1C782B796A793A
:10630000C4EB032313449BB2ADF80630BDF806304E
:1063100005F108011844202280B207F081FCBDF885
:10632000062004F12801294492B207F079FC10B14B
:1063300040BA80B201E04FF6FF7003B030BD00BF3D
:10634000C3290020E42D002028492DE9F04188468A
:106350000D78274E2835AB195C782648E4000734C1
:1063600002239C423DDBE9187218715C204F012921
:1063700032D002D3632902D013E001332FE003703F
:1063800018461C4C02F0BEFED8B998F800302278AE
:10639000283313443B445B78134402332370BDE835
:1063A000F08101F0C001802905D0C02905D0402925
:1063B00012D1037005E0037006E03A7E0370FF2AF5
:1063C00002D10120BDE8F08104200221EA1801F089
:1063D000ABFF0220BDE8F081527802321344DBB2F9
:1063E000BFE703700020BDE8F08100BFC329002093
:1063F000E42D0020C9290020F0B5C578124A0D44CB
:10640000EDB2D57083780F0A3B44DBB293704478C9
:10641000BB4254700678167005D2601CC0B2507032
:1064200008B901361670C9B28D420CDA0133DBB2FD
:10643000054993703BB94B780133DBB24B7013B90C
:106440000B7801330B70F0BDD82D002010B5084C2F
:10645000014620681430FFF7CFFF064A2368117801
:106460001975517859759178D2789975DA7510BD8A
:1064700008330020D82D002008B501F0CFFA02F033
:1064800045F807F058FC00231149002221F8132099
:106490000133DBB2082BF7D10E49302303FB021185
:1064A0000132D2B200230A2A81F82530F4D10A4AF7
:1064B0004FF480611180094A002102EB431201333D
:1064C000DBB20A2B1182F6D1054A137008BD00BF5A
:1064D000F43400200C330020A019002010350020D7
:1064E000CA2900202DE9F041124F3D7805B3DFF8AD
:1064F0004C8005F12703B8F80040A34203DB0023DA
:10650000A8F8003013E00C4EA4F1280205F1280190
:10651000641BA4B206F128003144521B07F0BCF8FA
:10652000A8F80040283C23123371747100233B709B
:10653000BDE8F081C3290020E42D0020D02D0020EB
:106540002DE9F041034626480288013292B2B2F5A5
:10655000FA4F28BF4FF4805200240A2C0AD0214D54
:1065600005EB44152E8A55BAADB2AE4204F10104D2
:10657000F3D1EAE7DFF874E0028000220A2A18D09B
:10658000184E55017419B4F81080571CFFB2B8F1B9
:10659000000F0CD18EF800200288618252BA22824C
:1065A00063B920461946102207F0DAF811E03A469E
:1065B000E4E78EF800200020BDE8F081274603F1D3
:1065C000100E3A4618685968083303C273451746D7
:1065D000F7D1054B35441B7920462B75BDE8F0817A
:1065E000A01900201035002058360020CA290020AC
:1065F00030B50A490023082B0DD0094C5A1C34F839
:106600001350D2B2854204D100220B7024F813201B
:1066100030BD1346EFE70B7030BD00BFCA29002024
:10662000F43400202DE9F04FA14F042893B03C68CA
:10663000A04E00F0B382A049A04DA14A03280D60EE
:1066400015608A4616D194F8253003F00F03032B0A
:1066500008D1A38B002B40F0F5869A4B08221A70C4
:1066600000F0ECBD022B40F0ED86002305F8073C5E
:1066700000F023BC02287AD1934A00231370934A76
:1066800033801380924AD3780133DBB2D37063B97D
:1066900093780133DBB293703BB953780133DBB2AB
:1066A000537013B913780133137094F8253003F045
:1066B000FD02052A0DD194F826300133DBB2782B88
:1066C00084F8263040F0BE86002384F8253000F0A0
:1066D000B9BE002B00F0B686A28B7A48002A3DD0C6
:1066E00094F82620511E84F82610002A40F0AA862D
:1066F00094F82720082A04D0591E01290AD8052A0F
:1067000008D1002384F825308023037002F0D4F8E8
:1067100000F0A2BD042A9CBF0321914003F00F03A7
:1067200094BFC9B230210132013B84F8261084F8AD
:106730002720072B00F28686DFE813F0BB03080052
:106740000A00470584064705840647050022B1E391
:106750000423037002F0B0F800F0A0BD03F00F03B3
:10676000032B40F06F860823037000F067BD0528F7
:1067700011D1584B1B681B8A002B00F063860C3D1F
:106780001560524A002313803B6033804D4B082232
:106790000D601A7000E215F83C3C3C3D03F0F0033C
:1067A000602B40F04F862B796A791B02318898184C
:1067B000884200F347862832134433802B7AFF2B1C
:1067C00000F04086444BAA1D1A60444C3E4A00210A
:1067D00011702170A97990469946C1B9012323709F
:1067E000FFF7B2FD012800F02D8603D3022800F048
:1067F00025860CE098F8003003F128022A44C9F8F5
:1068000000205278083303EBC20388F80030344884
:1068100000F088FE324F002840F0D080384600F06B
:10682000CDFF002840F0CA80384600F091FE0028D5
:1068300040F0C480384601F039F8002840F0BE80AE
:106840002A7E183FFF2A6BD048F2FE013B8B8B4219
:1068500066D03B898B4263D073B97B8963B9BB89AE
:1068600053B9E98941B9398A31B9798A21B9B98AE3
:1068700011B9FB8A002B53D0298B1A4B79B9598B4C
:1068800069B9998B59B9D98B49B9198C39B9598CCE
:1068900029B9998C19B9DB8CB3F5807F40D0338846
:1068A000B3F5A06F20D9022000214FF4A06222E0AE
:1068B00008330020D02D002004330020202E00209B
:1068C000D42D0020F8320020C32900200C350020F0
:1068D000C529002000330020FC320020C4290020FC
:1068E000FC2D0020E42D0020EB79984C012B06D8DC
:1068F00000210A46032001F017FD00F09FBD02F0C1
:106900008BFC002840F09E85E3790122013BE37176
:106910008F4B1A708F4A13680133136000F08EBDDD
:1069200048F2FE032989994240F08C85298B874BD8
:1069300081B9598B71B9998B61B9D98B51B9198CBE
:1069400041B9598C31B9998C21B9DB8CB3F5807F71
:1069500000F07885FF2A00F075857F4800F0C2FDC1
:106960000246002840F06E8501200221C3E72ED8A0
:10697000BBF1060F00F04381BBF1110F00F0A180C5
:10698000BBF1000F78D121780093CB0774D4734A00
:1069900041F001011170FFF7D7FC012800F052858A
:1069A000009B36D298F8002002F128012944196092
:1069B0004B78083202EBC30288F80020D9F8002097
:1069C000674B92F800B0BBF12B0FD0D133E0BBF195
:1069D0003A0F55D004D8BBF12C0F00F033854BE0B3
:1069E000BBF13B0F00F02E85BBF13C0F44D1237867
:1069F0005A49980704D558063ED443F0400301E0B5
:106A000043F002030B70FFF79FFC012800F01A858A
:106A100003D3022800F01285D0E798F8003003F184
:106A200028022A44C9F800205278083303EBC20335
:106A300088F80030C2E7207800F0040E0EF0FF0165
:106A4000BEF1000F18D1454A40F00400107098F8CC
:106A5000002002F12800284490F803E0BEF1000F66
:106A600002D004202A3246E718604378083202EB4D
:106A7000C3023C4B1A70A1E704200121521B3AE7E4
:106A800007F0EAF84FF6FF73984240F0DB8498F87D
:106A900000302833E85C01F075FD98F800302833A9
:106AA000EA18E85C517801F01DFC012801BF0023C1
:106AB0002C4A338013703388002B00F0C38400F01D
:106AC000BDBCFFF70FFDB5F82A8085F806B0B8F118
:106AD000000F00F0B784244F244B3B603C68244BEC
:106AE0009C422FD294E80F000DF1280E8EE80F0083
:106AF000238A23B3984522D1638A13B12A8D9A42FF
:106B00001DD1BDF82830A3B9BDF82A308BB9BDF826
:106B10002C3073B9BDF82E305BB9BDF8303043B9B5
:106B2000BDF832302BB9BDF8343013B9BDF836306A
:106B300013B310487146102206F006FDE0B1203470
:106B40003C60CBE7012004210022D4E6E42D0020A4
:106B5000483A0020A42D0020FC2D0020C42900204C
:106B6000FC320020C3290020003300201035002013
:106B700050360020EC2D00203388BC49303B338058
:106B800000230B60BA490220BA4A0870BA49CAF811
:106B900000200A60B94A138001F08EFEB74B1A88B4
:106BA000002A00F04F8402F13003B54C9BB23380D1
:106BB000283B63711912B34B08321B6852BA21711A
:106BC000197DA2850022E2851A8AE17122855A8AFE
:106BD00011216285A17104F1180602AD0FCB85E881
:106BE0000F0086E80F0004F10800314600F074FE43
:106BF000A54B3C341C6002F055FC00F019BCFFF7BB
:106C000071FC85F806B007F02AF84FF6FF7398423A
:106C10009B4C40F01784B4F82A90B9F1000F00F0B3
:106C20001184B4F828B0BBF1000F00F00B84954B31
:106C300012AC1B680FCB04E90F00944C234694F868
:106C400025C0BCF1000F13D0228A4A4510D1628AB8
:106C50005A450DD18E480EA910220193CDF800C0DF
:106C600006F072FCDDF800C0019B002800F03B81BB
:106C7000884A30349442E2D195F8352002F03F0240
:106C8000022A16D18449DFF820828A46A1F80090B2
:106C90000022082A0BD0814931F8121001328945AF
:106CA000D2B2F6D1002288F80020144658E088F8C5
:106CB000002095F83520724B510700F1C383142250
:106CC00083F835203C223280502283F8342093F818
:106CD000332093F8314093F82F0083F82F2093F856
:106CE000322093F82E10DFF8C0E183F82E2093F8BD
:106CF0002D2083F82D4093F82C4001308EF8004071
:106D000093F830E0C0B283F8321083F8312083F872
:106D10002CE083F8304083F8330060B90131C9B208
:106D200083F8321039B90132D2B283F8312012B966
:106D3000621C83F830202B8D574A554C13806A8D86
:106D40006B852A8594E80F0087E80F00204604F140
:106D5000100100F0C1FD56E3072F0FD00132D2B26F
:106D60000A2A15D0302101FB023101F120004779B8
:106D7000002FF1D188F800200C460EE024B1807974
:106D800094F826108842E9D9302404FB0234E5E760
:106D900088F80020002C00F05583344B00271C603D
:106DA000032384F8263084F82430042384F8233025
:106DB000374B84F822700FCB84E80F00384B01204A
:106DC0001A7884F8250022765A78A08362769A7819
:106DD000DB78A276E37695F82C3084F8277023755B
:106DE00095F82D30A4F81090637595F82E30A4F81E
:106DF00012B0A37595F82F30E375FFF727FB95F8D0
:106E0000343003F0F002502A53D9264A1B09053BBF
:106E100098003B4617461178834247DAEA1892F801
:106E20003C10002942D0012901D101331CE0022984
:106E300015D192F83DE0BEF1040F10D1397088F8F9
:106E4000003092F83E1092F83F3043EA0123402B85
:106E5000AAF8003028BF4023E383238429E0EA18FE
:106E600092F83D2012B31344DBB2D5E7083300207B
:106E7000F8320020142E0020D42D00200C350020E4
:106E8000E42D002000330020043300200C330020C8
:106E9000EC2D0020EC3400209E190020F43400205A
:106EA000C5290020CB290020CA290020397088F884
:106EB00000301022AA4B83F83520A94B93F83520D7
:106EC00042F0020283F83520022283F83C2004229B
:106ED00083F83D20002283F83E20402283F83F20A3
:106EE000328060224FE29F4B9F4A1C6095F83530FC
:106EF000107003F0040101F0FF0921B1202384F890
:106F000025001370EEE1964A0CF00F0C92F8342035
:106F1000BCF1020F4FEA12124FEA8201934A11703C
:106F20003288A2F12802A2EB010292B2328003D190
:106F300003F03F01122905E0BCF1010F03D103F07A
:106F40003F01022916D00AB99A0713D0A98DA28A47
:106F5000914204D1824AD18DE28A91420AD09F07A0
:106F600040F10A82BCF1010FA3D0BCF1020F40F046
:106F70000382A2E7D80652D5A18B00294FD004F195
:106F80001800FFF739FA7A4B95F830101878744AE0
:106F9000884244D192F8311093F801C08C453ED11B
:106FA00092F832E09978714539D192F83320DB7844
:106FB000934234D1E37694F82730207684F819C0D0
:106FC000A1761BBB94F8243094F8261094F8220084
:106FD000591AA1EBD001C9B25FFA81FE1EF0800FF1
:106FE00094F82330084418BF4942A3EB930318BF19
:106FF0005FFA81FE03EB0E02C0B2D3B284F82330F5
:1070000003EBD00384F8220084F82430564B01228D
:107010001A7094F8243084F826300023A38394F85F
:107020002510DFF844B101F00F02013A072A00F2FF
:107030000982DFE812F008002500A5005A017C0152
:107040009601A1014C019BF80030474AD9070FD5A2
:10705000032384F825303088402313700023A38352
:10706000002800F0E88042231370FFF7EFF9E2E018
:1070700095F8353003F03F03022B40F0E38118E729
:107080009BF80020D30760D595F8352002F03F0229
:10709000122A5AD1324B93F8343003F0F002502ABE
:1070A00036D9344A1B091746053B11782F489B00F7
:1070B00099452ADA05EB090292F83C1029B3012917
:1070C00002D109F101091DE0022915D192F83DE034
:1070D000BEF1040F10D192F83F30397092F83E1093
:1070E000254A43EA0123402B138028BF402380F820
:1070F0000090E38323840BE005EB090292F83D2026
:107100001AB191445FFA89F9D2E7397080F800909A
:10711000032384F8253095F82C300120237595F849
:107120002D30637595F82E30A37595F82F30E375E3
:10713000FFF78CF90C4A42231370104A0023A383F3
:10714000338088F80030138078E020228BF800200C
:1071500001F0B2FB034B00221B6883F82520A8E551
:10716000E42D002008330020F8320020CA29002036
:10717000D82D0020CB2900209E1900200C3500209E
:1071800095F83520D70725D5C80623D4A28B002A29
:1071900040F058813088013080B2FFF757F99BF8F2
:1071A0000020338842F010018BF800101BB1AB4B6C
:1071B00042F012021A7001F07FFB0123A38308231F
:1071C00084F82530002384F827301122A44B83F85B
:1071D0003520D4E093060DD595F83A0095F83B207C
:1071E00042EA0022DAF800001044CAF800003088B1
:1071F000821A3280308848B1CF0607D49BF800202D
:1072000042F002028BF80020FFF720F995F83610C3
:1072100095F83720208C02EB012292B291498242EC
:107220000A8000D802B908809BF800300A889907C4
:10723000E28300F007818C4B00221A8001F03CFBB6
:10724000864B1A78884B02F0200000F0FF0128B12D
:1072500000221A8084F825201422B7E702F01000DB
:1072600000F0FF0540B119800123A383042384F8B3
:10727000253084F82710A8E7198861B1D20748BFE4
:10728000A583A28B32B9E28B914288BF1A801B88FA
:10729000A38300E01A80002384F82730734B1B6817
:1072A000CAF80030704B1B882BB1A38B1BB13C3349
:1072B0003380182207E0694B1B789F0740F1C2809A
:1072C0003C2333801022664B83F8352059E09BF82D
:1072D0000030DD0740F1B680002384F825305F4B95
:1072E00010221A7001F0E8FAACE0308808B1FFF71C
:1072F000ADF895F8352012F001020FD09BF8002070
:10730000D00745BF072284F825200622002246BF69
:1073100084F82620A28384F8252016E09BF800300C
:10732000D9071BD5052384F82530A2838AE030884D
:1073300008B1FFF78BF895F83520D2070ED5072254
:1073400084F82520002284F826200120FFF77EF80B
:1073500010228BF8002001F0AFFA0DE033885BB902
:1073600070E09BF80030DB076CD5072384F82530EC
:10737000002384F8263065E0102385F835303C235F
:107380003380374B502283F83420237D344D06AFB1
:1073900085F83030637D05F1180E85F83130A37D16
:1073A00085F83230E37D85F83330237E85F82C3044
:1073B000637E85F82D30A37E85F82E30E37E85F838
:1073C0002F30238A2B85638A6B85294B1B680FCB53
:1073D00087E80F008EE80F0005F10800714600F005
:1073E0007BFA94F8253003F0100303F0FF022BB171
:1073F000002385F8373085F8363004E0402385F8DF
:10740000362085F83730164C0623A371194B1B79AB
:10741000E3713388283B1A1263710023227184F8C8
:107420003B3084F83A30238706F019FCC0432087AC
:107430000B4B60221A7000225A705A80074B0022B0
:107440001A7007E00C4A002313700C4A3380137043
:10745000024A137013B0BDE8F08F00BFF83200206D
:10746000E42D00209E1900200C350020D42D002092
:107470000033002058360020C3290020C4290020F2
:107480002DE9F3410446154D00910E4690461F46E6
:107490000195234612480321202206F0EDFB012826
:1074A0002B4616D12A6804F11001107020462A6874
:1074B000023250F8044B884242F8044BF9D1186864
:1074C000089B86744361099B80F81380077783616A
:1074D00000E0002002B0BDE8F08100BFF00A00200B
:1074E0005437002070B506460B4D0C4B2B602C68B2
:1074F0000B4B9C420BD2237833B1A27CA01C3146AB
:10750000D20806F021F820B120342C60EFE70020EB
:1075100070BD012070BD00BFF00A0020543700206C
:10752000B437002013B5084C802203460092019422
:1075300006480321202206F09FFB08B9206800E0DE
:10754000002002B010BD00BFF40A002070360020F9
:1075500013B5084C8022034600920194064803218B
:10756000202206F089FB08B9206800E0002002B064
:1075700010BD00BFF40A0020DC37002010B50C4A13
:107580000C4B136013680C498B420DD2197849B12A
:10759000411C02D0997C814204D148F2FE015C88F2
:1075A0008C4202D02033ECE70023184610BD00BF08
:1075B000F40A002070360020D036002010B50C4AA6
:1075C0000C4B136013680C498B420DD2197849B1EA
:1075D000411C02D0997C814204D148F2FE015C88B2
:1075E0008C4202D02033ECE70023184610BD00BFC8
:1075F000F40A0020DC3700203C38002037B5044670
:107600000F4D80230093019523460E480521122239
:1076100006F032FB01282B460ED12A6804F1100136
:10762000107020462A68023250F8044B884242F813
:10763000044BF9D1186800E0002003B030BD00BF52
:10764000EC0A0020F4360020F7B50546204C8023D4
:1076500000930E46174601941E48032120222B4614
:1076600006F00AFB012830D12A46236805F11001F3
:1076700018702368023352F8040B8A4243F8040B53
:10768000F9D12068C77416B90123037505E00023FA
:1076900003753146183006F0D0F923680E480121F1
:1076A000997402234370FF22002302704380838079
:1076B000C38003818372C17202736B7B4373EB8956
:1076C000C381FFF79BFF206800E0002003B0F0BDFE
:1076D000F40A002070360020A2190020F7B50546F4
:1076E000204C802300930E46174601941E48032128
:1076F00020222B4606F0C0FA012830D12A46236802
:1077000005F1100118702368023352F8040B8A4205
:1077100043F8040BF9D12068C77416B90123037527
:1077200005E0002303753146183006F086F923681A
:107730000E480121997402234370FF220023027036
:1077400043808380C38003818372C17202736B7B29
:107750004373EB89C381FFF751FF206800E00020ED
:1077600003B0F0BDF40A0020DC370020A21900208D
:1077700037B504460F4D80230093019523460E48EC
:107780000521122206F078FA01282B460ED12A682C
:1077900004F11001107020462A68023250F8044BA0
:1077A000884242F8044BF9D1186800E0002003B089
:1077B00030BD00BFEC0A00206038002013B5084C33
:1077C000802203460092019406480521122206F009
:1077D00053FA08B9206800E0002002B010BD00BFD5
:1077E000EC0A0020F436002038B50546C8B10D4833
:1077F000022200244270FF230122C272448084804E
:10780000C4800481847203730370EB7B43732B8AFF
:10781000C381FFF7D3FF044A106008B106F050FAA5
:107820002C7038BDA2190020EC0A002038B5194C84
:10783000194B23602068194B164D98420DD20378DE
:1078400043B1037D33B91830FDF7EAFB10B1286866
:10785000FFF7CAFF23682033EBE7114B2B6020684A
:10786000104B98420FD203784BB1037D3BB91830CF
:10787000FDF7D6FB18B1074B1868FFF7B5FF236873
:1078800020332360EBE700F021FCBDE838400648D8
:1078900006F0B1B8F40A002070360020D03600207F
:1078A000DC3700203C380020B437002013B5084CEA
:1078B000802203460092019406480521122206F018
:1078C000DBF908B9206800E0002002B010BD00BF5D
:1078D000EC0A0020603800202DE9F8430E460446EB
:1078E000FBF706F9012848F2FE03328840D19A429C
:1078F00023D03378FF2B20D0394B0027B946984648
:10790000384A1A60D8F80050374A954219D22B7875
:107910007BB1AB7C012B0CD148F2FE036A889A4202
:1079200007D03046A91C06F0D8F9484524BF2F4699
:1079300081462035C8F80050E4E70120FFF73EFEFD
:10794000074657B9002323806380A380E380238107
:107950006381A381E381BDE8F883BB1C07F11200BA
:1079600053F8042B834244F8042BF9D1BDE8F88383
:107970009A4223D03378FF2B20D0194B0027B946E9
:1079800098461A4A1A60D8F80050194A954219D2F6
:107990002B787BB1AB7C012B0CD148F2FE036A88BB
:1079A0009A4207D03046A91C06F097F9484524BFF3
:1079B0002F4681462035C8F80050E4E70120FFF744
:1079C000DDFD0746002FBDD0BB1C07F1120053F8A8
:1079D000042B834244F8042BF9D1BDE8F88300BF9F
:1079E000F40A0020DC3700203C38002070360020EC
:1079F000D036002010B5FDF7A3FB0446FDF7A0FB31
:107A0000054B24029A68A4B22044B0FBF2F302FBB7
:107A1000130000EB520010BD583600202DE9F3474B
:107A2000534E544D00F0BAF8F82400F065F90021E7
:107A30006022514805F094FE22463046002105F0B0
:107A40008FFE00212246284605F08AFE4B4B20225D
:107A50001A70DFF844914A4B402718224FF4A06A6D
:107A60001A70C6F800A03771C6F8089042F2107874
:107A7000FFF7C0FF0024C6F810803475C5F800A0D9
:107A80002F71C5F80890F060FFF7B4FF48F2FE0AC6
:107A900040F2FF26E860C5F810802C75394D23466A
:107AA000A5F800A06C80AC80EC802246394600949A
:107AB00001942846FFF7E4FC2846334906F004F910
:107AC000214601222846FFF709FE4FF480794FF442
:107AD000007828462E806C80AC80EC802C816C81F4
