:020000040026D4
:10400000384500208D42260047042700450427003C
:104010004504270045042700450427000000000050
:104020000000000000000000000000004504270020
:10403000450427000000000045042700114D26001C
:10404000CB042700D1042700D7042700DD04270074
:1040500000000000AF042700B50427004504270036
:1040600045042700000000000000000000000000E0
:1040700000000000000000004504270000000000D0
:104080000000000000000000450427004504270050
:104090004504270045042700450427004504270060
:1040A0004504270045042700450427004504270050
:1040B0004504270045042700450427004504270040
:1040C0004504270045042700450427004504270030
:1040D0004504270000000000000000000000000070
:1040E00000000000000000000000000000000000D0
:1040F0000000000000000000355A2600455A260046
:1041000000000000000000000000000000000000AF
:10411000000000000000000000000000000000009F
:10412000000000000000000000000000000000008F
:10413000000000000000000000000000000000007F
:10414000000000000000000000000000000000006F
:10415000000000000000000000000000000000005F
:10416000000000000000000000000000000000004F
:10417000000000000000000000000000000000003F
:10418000000000000000000000000000000000002F
:10419000000000000000000000000000000000001F
:1041A000000000000000000000000000000000000F
:1041B00000000000000000000000000000000000FF
:1041C00000000000000000000000000000000000EF
:1041D00000000000000000000000000000000000DF
:1041E00000000000000000000000000000000000CF
:1041F00000000000000000000000000000000000BF
:1042000000000000000000000000000000000000AE
:10421000000000000000000000000000000000009E
:10422000000000000000000000000000000000008E
:10423000000000000000000000000000000000007E
:10424000000000000000000000000000000000006E
:10425000000000000000000000000000000000005E
:10426000000000000000000000000000000000004E
:1042700045042700BD58260005592600E5542600B0
:10428000C15C2600DD4D26004504270008B5094B1A
:10429000FF221A600848094A4824E3690849121AAB
:1042A00098470848084AA3690021121A984700F065
:1042B0000DF8FEE7B4200D40400000205D0A00200C
:1042C00034282700600A0020333D0020F0B585B077
:1042D00000F010FF00F0F8FF00F060FF00F0BEFCFF
:1042E00001F0DCFC0CF07DFA00F0E6FF00F0BEF916
:1042F00020200CF0ABF802F093FF00F0E7FE002066
:1043000000F0F8FD012000F0F5FD8149002000F0EB
:10431000C7FE03F0F5F80CF0D0F808200CF096F882
:104320007C480CF0F6F87C480CF0F3F8002003F021
:1043300009F901F019FB0021784803F017F802F0A1
:10434000CBFC0CF0AFF802F03FFEC8200BF0B0F948
:10435000044673490BF090FE20460BF0EBFE714DC6
:1043600002462146286801F0EFFF01466E4802F040
:10437000BDF820460BF0A4F96C480CF0CAF8C82030
:104380000BF096F9044603F015F8694902462046F9
:1043900002F0BCF820460BF0CDFE2146024628680C
:1043A00001F0D2FF0146604802F0A0F820460BF071
:1043B00087F902F0FFFF01465D4802F097F85D487B
:1043C0000CF0A7F800F0A6FB01F0C8F801F0E4F843
:1043D00009F066F96846082101F09EFC9DF8073057
:1043E0009DF80670544C43EA07276B4603CB2060C8
:1043F0006160524802F07AF80025615D504801354D
:1044000002F074F8072D4C4EF7D14E4DF1794E481D
:1044100002F06CF8EC6A4AF6CD310220A04739462A
:104420000320A0471A210120A047082269466B6B90
:104430000B209847454802F059F8454B002418686E
:104440000CF067F8434802F051F8434B18680CF041
:1044500060F8424802F04AF8414B18680CF059F8ED
:104460004049336868460B607368ADF802404B60A2
:10447000FD23ADF80030ADF80440ADF80640ADF8CE
:104480000840ADF80A40ADF80C40ADF80E400CF015
:10449000F1FA68462146224605F078FA324802F0E1
:1044A00025F80DEB04031DF8041030485A78023447
:1044B00002F01CF80E2CF4D19DF80F209DF80E1080
:1044C0002B4802F013F809F04DFA2A48002102F0B7
:1044D0004DFF0021284802F049FF02F08BFC00F05C
:1044E0003BFC264B01221860254B26481A700CF025
:1044F00045F900F0F1FD10200BF0A8FF00F0F2FDEF
:1045000002F0A6FE10F0FF0FF8D101F023FBF5E753
:10451000BD742600501D2700601D2700A004002048
:104520007A1D2700A4310020931D2700A51D270018
:10453000BD1D2700D61D27002B3D0020DB1D2700B9
:10454000311E27003C1C27003B1E2700F91D2700B9
:10455000BC1B2700001E2700C81B2700071E2700C2
:10456000F01B2700B43100200E1E27002D1E27004F
:10457000371E270034050020C004002074310020BD
:1045800068310020741C2700F8B5334C2578207062
:104590004540EA0618D500F0100000F0FF072F4E46
:1045A00030B100F0D9FB2E4BD8600123F3700BE043
:1045B000F3784BB100F0D0FB2A4A2949D368C96887
:1045C000F7705B1A1844D06015F0300F17D02378BD
:1045D000224F13F0300606D000F0BEFB204B1861CE
:1045E00001233B710BE03B794BB100F0B5FB1D4A59
:1045F0001B49136909693E715B1A18441061AB06C7
:1046000019D52378154D03F0200303F0FF0633B1CD
:1046100000F0A2FB124B586101236B710BE06B7928
:104620004BB100F099FB0F4A0D49536949696E710E
:104630005B1A184450610C4D2B7823B92078BDE8E3
:10464000F84000F035B8012B05D1002000F030F81B
:104650002B7801332B70F8BDAE2700206831002085
:1046600074310020343100200931002008B500F0F9
:1046700017F8024B00221A7008BD00BFAE270020B9
:10468000024B1B781843FFF77FBF00BFAE27002007
:10469000024B1B7823EA0000FFF776BFAE2700200D
:1046A000024A136843F038031360704700C40D409A
:1046B000014B1860704700BFE0C00D40034B002263
:1046C0001A60034B1B68002BFBD1704780A00D4084
:1046D00020A00D40014BFF221A60704780A00D40C2
:1046E000054B1860054A1168C806FBD411684907D4
:1046F000FCD51868C0B27047088000400C800040AC
:1047000070B508B949BB00E00AB9012070BD99B97C
:1047100001460B1A934201DB002070BD184C0023A8
:104720002360184B1D68EE06FBD41D686D07FCD591
:10473000236801F8013BECE700239342ECDACC5C00
:104740000F4D2C600F4C2668F606FBD426687607C2
:10475000FCD52C68C4540133EFE7002AD5D00846B5
:10476000431A9342D8DA10F8013B054C2360054BFD
:104770001D68EE06FBD41D686D07FCD52368EFE7C6
:10478000088000400C80004008B51A4A136823F0E6
:104790001003136052F8203C23F0100342F8203C31
:1047A00052F81C3C23F0100342F81C3C52F8183C11
:1047B00023F0100342F8183C0F4B1A6810B142F076
:1047C000100201E022F010021A600C4A0421136862
:1047D000012043F0100313600A4600F083FD01201E
:1047E00000F0A6FCBDE8084005480121042200F0C5
:1047F00001BD00BF20A40D400CA40D4010A40D402D
:10480000A104270008B51A4A136823F001031360B6
:1048100052F8203C23F0010342F8203C52F81C3CA3
:1048200023F0010342F81C3C52F8183C23F001032A
:1048300042F8183C0F4B1A6810B142F0010201E037
:1048400022F001021A600C4A00211368012043F093
:1048500001031360042200F045FD012000F068FC14
:10486000BDE8084005480121002200F0C3BC00BF9C
:1048700020A40D400CA40D4010A40D40A10427005D
:1048800008B5074A04211368012043F010031360A0
:104890000A4600F027FDBDE80840012000F048BCB2
:1048A00010A40D40024A136823F0100313607047F0
:1048B00010A40D4008B5074A01201368002143F0F9
:1048C00001031360042200F00DFDBDE80840012043
:1048D00000F02EBC10A40D40024A136823F001031F
:1048E0001360704710A40D40024B1868003018BFC9
:1048F0000120704740A00D40014B1868704700BF71
:1049000004A00D4010B51B4A02201368072123F0B4
:104910008003136052F8203CFF2443F0800342F8E8
:10492000203C082200F0DEFC134B05211C60012016
:1049300000F078FD002000F0F5FC104A136823F029
:10494000100313600E4B1968A3F5607321F010017A
:10495000C3F88013116821F001011160D3F880239E
:1049600022F00102C3F880231C60064B1B68002B59
:10497000FBD010BD20B40D4000B20D4020A40D406E
:1049800000A40D4020A00D4020B1012805D1044B0A
:1049900018787047034B186870470020704700BFB5
:1049A000AF27002020900D4010B5094A0020137851
:1049B00001331370074B197802F0ACFCBDE81040CE
:1049C000054B06481968064A002302F0BBB900BF30
:1049D000AF270020223D0020980A0020700A002006
:1049E000A9492600812810B50C462AD0B0F5807F51
:1049F00039D0802839D102F00BFC1D4B1D4A1870AC
:104A00001368002023F00803136052F8203C0321B0
:104A100023F0080342F8203C52F81C3C23F0080322
:104A200042F81C3C52F8183C43F0080342F8183C8A
:104A3000042200F057FC10480021032200F0DAFBAA
:104A400013E00E4B1A6831B142F008021A600020E0
:104A500000F06EFB05E022F008021A60084600F044
:104A600073FB204610BD064B1960012010BD00BF2E
:104A7000223D002020940D40854A260010940D40D0
:104A8000980A002008B50F480BF0CEFEC0B10821EF
:104A90000C480BF0B7FE0C4B196861B10B4B0022B0
:104AA0001A700B4B0B481B681BB90B4A02F04AF9F2
:104AB00001E002F089F9BDE80840084802F0E8BDCD
:104AC00008BD00BF900A0020980A0020AF270020F0
:104AD00020900D40700A0020A9492600BC1A27002A
:104AE000044B1868C0F30720030904BF1030C0B29C
:104AF000704700BF1C300D40054B1868C0F3C21052
:104B000001289ABFC0F1020040034FF400407047F3
:104B100014300D402DE9F04F8DB0FFF7E1FF384B19
:104B20000446C8201D680AF0C3FD4826B36807463E
:104B300098470B90736898470A90FFF7DDFF83460C
:104B400000F040FB099000F049FB089000F01CFBCE
:104B5000DDF828C009994FEA9C2301934FEA9B2373
:104B6000DFF8A8A00293089BC4F30718C5F3400917
:104B700004F00F0405F001050B9A059106935146C8
:104B8000434607900094CDF80C900495384601F008
:104B9000BDFC38460BF0CEFA1A4B0246394618686F
:104BA00001F0D2FB0146184801F0A0FC38460AF09B
:104BB00087FDB36898477368834698470746FFF7B1
:104BC0009BFF064600F0FEFA099000F007FB0890F4
:104BD00000F0DAFA099A089BBF0AB60A0492059314
:104BE000069000970196CDF80890039550465946D7
:104BF0004246234601F07AFC0DB0BDE8F08F00BFBD
:104C00001C300D40A4310020931D2700481E2700B2
:104C1000F8B500F0A1F80F4B0024D3E900673A463D
:104C2000B04238BF7A1C15460443C3E90045DFF89B
:104C300028E0DEE90001821B61EB070312196B41DA
:104C4000CEE9002302F09EF918B1BDE8F84002F069
:104C500029B9F8BD600A0020680A00200F4B104AED
:104C60001A6053F8042C42F0050243F8042C53F860
:104C7000042C42F0020243F8042C0A4A136843F061
:104C800001031360084B00221A60042243F80C2C25
:104C9000012243F8082C0F22DA62704714E000E08A
:104CA00047E8010008200D400C000340034BD3E906
:104CB0000023100A40EA0360704700BF600A00202A
:104CC000034BD3E90023D00B40EA4340704700BFB9
:104CD000680A0020054B18601C3B1A6842F001026C
:104CE0001A601A68D207FCD4704700BF280003403E
:104CF00010B5064C236823F001032360FFF788FFFB
:104D0000236843F00103236010BD00BF10E000E002
:104D100038B500F021F80A4C0A4D0123A370A860B1
:104D2000FFF776FFA3784BB100F016F8064AA968A2
:104D300093685B1A184400239060A37038BD00BFCD
:104D4000683100207431002034310020014B186894
:104D5000704700BF9C0A0020074B084A19680433BB
:104D60001B681268120442EA0323054A0B431068C9
:104D700043EA0060704700BF40500D4048500D406E
:104D80004C500D4010B50446114B1B68DB07FBD59A
:104D90000BF097FBFFF7E0FF231A062BD8BFC41DCB
:104DA0000C4B220E1A60C4F3074243F8042CC4F3E0
:104DB000072243F8082CE2B243F80C2C0BF07DFBE1
:104DC000054B91201C60BDE8104000F0B1B900BF58
:104DD00050500D404C500D409C0A002070B500F022
:104DE00083FEFFF7B9FF0E4C01230E4EA3700E4B4E
:104DF000B060002591201D6000F0B2F9912000F014
:104E0000A3F902F0EBFAA37843B1FFF7A5FF074A35
:104E1000B1689368A5705B1A1844906070BD00BFBC
:104E200068310020743100209C0A002034310020B9
:104E30000023084A1068084A9958084205D01A44C5
:104E4000D268906910F0800003D02C33582BF0D139
:104E50000120704728200D40CC1A2700F8B50646DF
:104E6000FFF77AFF1E4A01231E4993702C2303FB90
:104E700006134FF6BF711C4DDC68A860236C61649B
:104E80009BB213F0500117460CD0A369DB0618D46F
:104E9000164B53F826301BB12068C0B29847F4E790
:104EA0002368F2E713F4D06F0BD04FF44073236301
:104EB000FF236360E36AE162E362236B43F0010373
:104EC0002363BB7853B1FFF747FF094AA96893688A
:104ED0005B1A1844024B906000229A70F8BD00BF24
:104EE00068310020CC1A270074310020A00A00206D
:104EF000343100202DE9F04F012885B0064600F23C
:104F0000BF802C244443604B1D1995F920A005F166
:104F10002007BAF1000F9946C0F2B28095F922300D
:104F2000002BC0F2AD80594800F0A8FE584A59F84D
:104F300004301168EC680B43136051686B6895F995
:104F400021B00B4353609168AB6895F822800B4306
:104F500093600023C4F8C83F2B690BEBCA021A60A8
:104F600095F823305FFA88FC01939DF80430604681
:104F700019462A7DCDF80CC0029300F0BDF9029BC2
:104F8000DDF80CC019466046082200F0ABF94FFA74
:104F900088F840494FEA08389DF9042058F8010084
:104FA000012303FA02F2024348F801204FEA0A3AC9
:104FB0005AF8010003FA0BF202434AF8012050228A
:104FC000A263A26B95F8240042F4D062A26302228D
:104FD00062634FF440722263AA696262EA69A26264
:104FE0007022E26242B2002A0C4614DB95F92510C9
:104FF000294D41EAC20129607979120315594FB24E
:10500000BB402B431351002200F06CF9234A136874
:1050100043F4004313602C2303FB069393F82650BC
:1050200020336FB2002F1CDB93F807A0EDB25FFABC
:105030008AF82846414601223F0300F05DF94FFA05
:105040008AFA3A59012303FA0AF313433B5108221F
:105050002846414600F046F9104A136843F480435D
:1050600013602C2303FB0696F26896F82800136B56
:1050700043F00103136305B0BDE8F04F00F058B8EA
:1050800005B0BDE8F08F00BFCC1A2700314E2600D6
:1050900028200D4020940D4004410D4030D00040A8
:1050A00001289CBF014B43F820107047A00A002044
:1050B000012808D8044B2C2202FB0030C3689A69EF
:1050C0009206FCD419607047CC1A2700014B0022CD
:1050D0001A60704700500D40014B08221A6070475B
:1050E00000500D40024BA0221A6050221A607047F7
:1050F00000500D40074A084B1A60084B80321A6076
:10510000074B80321A60074B80321A60064B074A01
:105110001A60704700E100E0B40A0020A80A0020ED
:10512000AC0A0020B00A002008ED00E00040260094
:10513000044B41091A6800F01F000123834042F824
:1051400021307047B40A0020044B41091A6800F06E
:105150001F000123834042F821307047A80A002035
:10516000044B41091A6800F01F000123834042F8F4
:1051700021307047B00A0020024B1868C0F38150FC
:10518000704700BF04200D4008B5FFF7F5FF024B44
:1051900053F8200008BD00BF241B2700054A064B1A
:1051A0001A60064B1A68064B1340B3F1807FF8D1A2
:1051B000704700BF0101020100200D4004200D4096
:1051C00000000101034B04481B6803F0070318416A
:1051D000704700BF04200D400048E801034B04481D
:1051E0001B68C3F302231841704700BF04200D4021
:1051F0000048E801024B02EBC10243F8220070476D
:10520000B80A0020F8B507460E46094D002405EB04
:10521000411547FA04F3DB07E1B204D555F8243011
:105220000BB1304698470134082CF2D1F8BD00BFCD
:10523000B80A00202DE9F74F019000F055FCFFF768
:105240008BFD0199184E4FEA0139184F0123DFF801
:1052500064A009F18045B860B37005F55925D5F80B
:10526000188459F80A404FEAC10B24FA0BF448EAB3
:105270000400C0B2E4B2FFF7C5FF04FA0BF45FFA12
:1052800088F3C5F81C3449F80A40B3784BB1FFF7EE
:1052900063FD074AB96893685B1A1844002390605D
:1052A000B37003B0BDE8F08F683100207431002086
:1052B0003431002018970D400248002180220AF066
:1052C00099BD00BFB80A0020034A044B1A60044B82
:1052D000803A1A60704700BF80400D403C0B0020B0
:1052E000380B0020034B01EBC0011B6843F8212061
:1052F000704700BF3C0B0020034B01EBC0011B6853
:1053000043F82120704700BF380B002001289FBFC1
:10531000034901230A6883409CBF13430B60704715
:1053200018200D402DE9F04F012887B0044671D8B0
:1053300018235C43394D2E1996F811804FFA88FCDA
:10534000BCF1000FCDF814C064DBFFF7DFFFB37CC6
:105350002D5900275FFA83FB5FFA88F86F6040469B
:105360005946327AC5F8C87F0493FFF7C5FFF47C2D
:10537000327BE3B20093337D009801939DF80430B3
:1053800064B219460293FFF7B7FF96F815A096F896
:10539000169072684FFA8AF34FFA89F101EBC30055
:1053A000DDF814C0106003931D4A049B4FEA0C3CC7
:1053B0005CF802004FFA83FE012303FA0EFE40EA76
:1053C0000E004CF8020024039DF9040054F802E09A
:1053D00003FA00F04EEA0000A05003988B4000034F
:1053E000845859462343835040463A46FFF77AFF94
:1053F000009802993A46FFF775FF504649463A46EB
:10540000FFF770FF337C2B61C7232B606B6843F081
:1054100002036B6007B0BDE8F08F00BF341B2700AC
:1054200020940D4038B50B4A0403A35801258D4044
:1054300023EA0503A3500022FFF754FF064AA358AE
:105440002B43A35004F1804404F55924FF2344F86E
:10545000253038BD20940D4000940D400E2870B5C5
:105460000BD1164B164E1C6844F002051D603568C2
:1054700025F03F0343F001033360124E336823F0FD
:10548000FF031A431143014331600F4B1B681B0696
:10549000FBD50E4B0E4A1B6812680E2803F0FC0366
:1054A00043EA022308BF064A9BB204BF1560034AC1
:1054B0009BB208BF146018B270BD00BF3400014435
:1054C000F486084008700D4000700D400C700D40CF
:1054D00010700D40024B1868B0FA80F04009704718
:1054E00000B7084070B5FFF737FC104E104C012391
:1054F000B060104D8F20A370FFF732FE8F20FFF7B2
:1055000023FE286818B101F049FF00232B60A3781F
:1055100053B1FFF721FC084AB16893685B1A18443D
:10552000034B906000229A7070BD00BF7431002060
:1055300068310020400B002034310020064A1368F7
:1055400043F002031360536843F00203536093680F
:1055500043F002039360704748200D4007B50C48A4
:1055600000F08CFBFFF7EAFF0A4B1A6842F00202D8
:105570001A6000220192019A0F2A02DC019A01327C
:10558000F8E71A6822F002021A6003B05DF804FB23
:10559000D554260054200D40064A136823F0020318
:1055A0001360536823F002035360936823F00203EF
:1055B0009360704748200D4008B50B4B93F90020CD
:1055C000002A09DB094AED2111601160E321116015
:1055D0001A7862F07F021A70FFF7BEFB044BD861A5
:1055E000044B0120D87108BDB0270020388808403E
:1055F000743100206831002070B52B4E336813F0F1
:10560000400308D0294D2B68DCB21B0605D5284B7A
:10561000ED221A601A60002070BD042CF7D9023CFC
:105620008C42F4DCE4B2032C1BD0011901390320B5
:1056300000F0BAF9631E1F491B010320194300F053
:10564000BDF9032000F0C4F9032000F0D9F90320CC
:1056500000F0E2F90028FAD129682D682806D6D58D
:1056600006E02B6803702B6843702B688370F3E7A8
:10567000493949B289B2042008F04AF9032005F0FB
:105680007F0108F045F933685A060BD5064B1B68B5
:105690001B0603D5084801F081FE03E0044BED2210
:1056A0001A601A60204670BD4C8608402888084061
:1056B0003888084002C0010C7804002010B5114B56
:1056C0001B689B07FBD4104BED221A601A600F4A2F
:1056D00012680AB1EF221A600D4A0E4C137803F0DB
:1056E0007F031370E37953B1FFF736FB0A4A0B4986
:1056F000D369C9695B1A18440023D061E3710120A2
:1057000010BD00BF4C860840388808402C860840F1
:10571000B02700206831002034310020743100208F
:1057200038B5A0F10B04E3B20F2B054613D80B4B91
:105730001B6813F03F0302D0FFF7C0FF012304EB07
:105740008404074A0B3414600BB1FFF735FF054B97
:10575000E8B21D7000E0FF2040B238BD4886084026
:105760003C8608405A0A0020F8B52E4E357815F0D0
:10577000010554D12C4B01241C605C609C60A3F596
:105780009323A3F51473F8221A600922C3F8902119
:10579000152270331A6003F59B230B2203F59E73C9
:1057A0001A60A3F59B23A3F5F07340221A601A68D0
:1057B0007F2742F020021A60D52243F81C5CDF628A
:1057C000DA611A4B1878FFF7ABFF194A8D2013687E
:1057D00043F004031360FFF7ABFC164B8E201F60F1
:1057E000FFF7A6FC022000F0FFF81349022000F0AA
:1057F000DBF8032000F0F8F803200F4900F0CCF8A4
:1058000029460E4801F0B2FD337823433370FFF789
:10581000A3FA0B4BD8610B4B2046DC71F8BD00207E
:10582000F8BD00BFB0270020A8200D405A0A002074
:105830008C86084094860840288808407804002018
:10584000743100206831002038B503880446E3B184
:1058500040F2C532934203D000230380032038BDB9
:10586000822915D107F0FAFF07F08EFF8021FFF79C
:10587000C3FE002805DD80B207F044FF0C4B1B6916
:1058800098470C4B1A78520604D440F2C533238053
:10589000012038BD00221A70074B1D68FFF70EFF6C
:1058A000FFF762FFAB06F0D0FFF786FEEDE700BF23
:1058B000F01B2700B02700204886084070B5FFF78E
:1058C0004BFA0B4E0B4C0123B0600B48A37001F058
:1058D00065FD0A4B00251D60A37843B1FFF73CFA34
:1058E000074AB1689368A5705B1A1844906070BD50
:1058F000743100206831002078040020348808408A
:105900003431002070B5FFF727FA114B01221D46F4
:10591000104C9A70104AA06011680026042918BF24
:105920000E490F481EBF0B7843F040030B70166002
:1059300001F034FDAB784BB1FFF70EFA094AA168CC
:1059400093685B1A1844024B90609E7070BD00BF54
:1059500068310020743100202C880840B0270020D6
:10596000780400203431002010B5094C0021204675
:1059700040220AF03FFA074B01221A602E205C6099
:10598000FFF7D6FBBDE810402F20FFF7D1BB00BFCB
:105990000000002004F00F4003289EBF014B0001CF
:1059A000195070470000002003289EBF024B03EBF4
:1059B00000104160704700BF0000002003289EBF18
:1059C000024B03EB00108160704700BF0000002015
:1059D00003289FBF034901230A6883409CBF1343E8
:1059E0000B60704728F00F4003289FBF0349012335
:1059F0000A6883409CBF13430B60704720F00F4040
:105A000003289FBF034901230A6883409CBF1343B7
:105A10000B60704714F00F4003289FBF044B03EB4B
:105A20000010806800F0070088BF0020704700BFAA
:105A300000000020024B4FF0FF321A60704700BF99
:105A400004F50F40014B01221A6070474CF00F40E3
:105A5000094B1A6812F4801F1A46F9D1043B1968E1
:105A600021F4803119601168C903FCD41A6842F42A
:105A700000321A60704700BF04200D4070B5164C0C
:105A8000FFF76AF92378154D3BB1154A2968136869
:105A90005B1A0344136000232370124E68600123D5
:105AA00002203168637001F0D5F930BF022001F0A7
:105AB000B5F93060FFF750F963784BB1084A0749F0
:105AC000536849685B1A03445360034B00225A70C1
:105AD00001232860237070BD6831002074310020DC
:105AE00034310020440B002070B5144B1A681C465A
:105AF00012F0030F21D0124B1A685101FBD41A681F
:105B00005201FCD50025FFF7F3F8FFF7A1FF256050
:105B1000022001F083F90B4B1860FFF71DF90A4BC7
:105B20000A495A7832B10A4C4E6862685D70921B1D
:105B300002446260012208601A7070BD58200D4056
:105B400004200D40440B00206831002074310020F7
:105B5000343100202DE9F0413E4B1C6814F03F0425
:105B600013D13D4B53F8243023B1984768B1013429
:105B7000052CF6D1394D2B783BB1FFF7E7F80446F9
:105B8000FFF7EAF8201A092803D8BDE8F041FFF72B
:105B900075BF002CF9D0324B1A6822F400321A601B
:105BA000304A1168C902FBD4196841F48031196088
:105BB0001368DB03FCD5FFF7CFF8201A092803D8B8
:105BC000BDE8F041FFF744BF6328274F02D92B7887
:105BD000022B00D00123254E3B60254C022031686A
:105BE00001F038F9FFF7B8F82378224D3BB1224A8B
:105BF000296813685B1A0344136000232370012390
:105C00006860637001F07CFBB8B14FF00008FFF7EB
:105C10001FFFC7F80080022001F000F93060FFF795
:105C20009BF8637883B1144A696853685B1A03442C
:105C300053600F4B83F8018006E0FFF787F80028D8
:105C4000E3D030BFBDE8F081012328602370BDE8B8
:105C5000F08100BF48860840480B0020B127002093
:105C600000200D4004200D4058200D40440B002022
:105C70006831002074310020343100200023064AAE
:105C800052F82310814206D011B942F82300704720
:105C90000133052BF3D17047480B0020054B002240
:105CA0001A60054A136843F004031360034B012292
:105CB0001A70704758200D4010ED00E0B127002009
:105CC00070B5FFF749F8104E104C0123B060104D2D
:105CD0009020A370FFF744FA9020FFF735FA286868
:105CE00018B101F05BFB00232B60A37853B1FFF7E1
:105CF00033F8084AB16893685B1A1844034B906004
:105D000000229A7070BD00BF7431002068310020FD
:105D10005C0B00203431002030B5184B1A78431E3C
:105D20003AB9174A1278122A03D1164A12784B2A26
:105D300003D001F52011273117E04A0802F1281499
:105D4000B4F1281F04D014F8015D03F8015FF7E7F0
:105D500001F5201127310023934205DA11F801598A
:105D60008418E5540133F7E730BD074A914204D067
:105D700011F8012903F8012FF7E730BD2B002800A7
:105D80002A0028002900280027002800164A70B59C
:105D900015464FF0FF340023B2F9066056B1967AEB
:105DA0000C32002E08BF1C460133052BF4D12346CC
:105DB000013417D00C2404FB03F6AA1990804FF08D
:105DC000FF30A851C8880026D080D672497A04FBDB
:105DD0000353090744BF0121D1724FF6FF711981A6
:105DE000104670BD002070BD9C0B0020F0B5224D08
:105DF00006462F468FB00024B5F90630A3B101A89E
:105E0000B5F904100AF0CCFB9DF80D3003F0360311
:105E1000022B09D130460DF10E010AF04FF818B9E6
:105E20000C2000FB047025E00134052C05F10C0565
:105E3000E2D1002004B2214601A80AF0B1FB9DF88E
:105E40000D5005F03603022B0AD130460DF10E013C
:105E50000AF034F820B9204601A9FFF797FF09E0BE
:105E60002046BDF90A102A460AF0CEFBB0F5C86FED
:105E7000E0DB00200FB0F0BD9C0B00201F4B2DE994
:105E8000F04107464FF6FF7498461E888EB035B233
:105E9000B5F5C86F0EDA01A829460AF081FB9DF816
:105EA0000D2093071DD423B2013307D1EB19B3F5AD
:105EB000C86F02DB4FF6FF701CE034462846BDF980
:105EC0000A100AF0A1FB23B2DA1982420646DEDC90
:105ED000B8F9002020469A4202BF084B3F191F80A4
:105EE00008E02846BDF90A100AF08EFB4FF6FF7451
:105EF0000646CCE700B20EB0BDE8F081FA1D0020E6
:105F000070B504468EB00E4601A8214615460AF02B
:105F100047FB9DF80D3003F00602022A02D04FF035
:105F2000FF3041E003F0200202F0FF01002AF6D129
:105F300076B99DF80D3001A843F0040321468DF891
:105F40000D300AF059FB194A0023137055B916E0B9
:105F50001B07EED5BDF904000A46FFF7D1FF002864
:105F6000E7DADCE7124A1A44516829B1B1F90410A2
:105F7000A14204BF002111720C333C2BF2D10D4B16
:105F800003F13C01B3F904200C33A24201BF4FF6E8
:105F9000FF7223F8082C002203F8022C08BF23F814
:105FA000062C8B42EED100200EB070BDB22700202F
:105FB000600B00209C0B00202DE9F04F95B0019064
:105FC00088463AB14046FFF759FF411C044640F06D
:105FD000D98004E0FFF70AFF0028F3D0D0E0794A27
:105FE00013780292002B40F0CB809A4608260023BB
:105FF0000593ADF81830DFF8D4B1734BBAF1000F48
:1060000003D1ABF800A083F800A01FFA8AF91D782D
:106010004FEAC907BFB25DB1BBF800502BB2072BE6
:1060200016DD0823ADF81430684B083D1D806BE089
:10603000BBF8004023B2072B0BDD0823083CA4B2B9
:10604000ADF81630614BA2B2072C1A805DD95BE027
:106050000024BBF800303B449BB219B232B29142EB
:106060002ADA07A803930AF09BFA57480022027025
:106070009DF82520039B02F00601022902F0200171
:1060800009D141B901220270BDF822201344154400
:106090009BB2ADB2E1E719B101339BB2013406E026
:1060A000520706D5BDF8222013449BB21444A4B273
:1060B000D3E7F31A9BB200E00023A9B2A0B20A18FA
:1060C000083A1A4492B20FFA82FEBEF1000FABF802
:1060D0000020DFF8F4C00BDD9CF800B0BBF1000F2E
:1060E00003D0C0F10805ADB202E0C1F10804A4B2CA
:1060F000ADF818309CF80030ADF81450ADF81640EB
:1061000013B9BEF1070F00DD0022BDF91430002BDA
:1061100025DCBDF91630002B21DD2D4BB9B2B3F9CA
:10612000004008B2844214B2C8BF1980002C13DDAD
:1061300007A80021322209F05DFE22238DF82530C8
:10614000002507F10801294407A809B201350AF022
:1061500053FA2BB2A342F4DB48460AF071FA0AF173
:10616000010A0836BAF1C80FB6B27FF440AF404614
:10617000FFF784FE431C044604D1029A01231370E6
:1061800000201BE00021322207A809F033FE24B2D0
:10619000019927220DF1260009F0FAFF022307A832
:1061A0002146ADF822808DF825300AF025FA2046E8
:1061B00007A9FFF7EBFD08B10023036015B0BDE8A8
:1061C000F08F00BFB2270020B3270020F81D002069
:1061D000FA1D00202DE9F84381460D460024234E88
:1061E0004FF00C0808FB046898F808304BB988F8A1
:1061F00008304846FFF7FAFD0746C8F80400B0B972
:1062000006E00134052CEAD14FF0FF30BDE8F883F9
:1062100005F00303012BF7D0484608210122FFF7C0
:10622000CBFEC8F804000028EED0076007E0036842
:10623000013304D1B0F904000AF0B6F938600C2338
:1062400003FB0462117A6343294315F004051172BC
:1062500018BF5268204618BF1568F2185268F550EA
:10626000937A01339372BDE8F88300BF600B00207E
:1062700004280CD8064B0C2202FB0030037A33B101
:106280004168002202728B7A013B8B724260704738
:10629000600B0020042870B525D80C244443134B10
:1062A0001E19357AFDB142B1022A02D17268126814
:1062B00002E0012A17D11A591144002913DB0C22DC
:1062C00002FB00325268B2F90640B1EB042F0ADC3F
:1062D00014688C4202DAAC0705D511600C225043D9
:1062E0001950084670BD4FF0FF3070BD600B0020A4
:1062F0000428F8B50646144621D80C234343114D13
:10630000EA18177ADFB1F80719D55768EA583B68D9
:10631000A018984288BF9C1AFB7ADB070DD4B7F906
:1063200004303232084602EB032221460AF001FA19
:106330000C2070432B5823442B502046F8BD4FF0BF
:10634000FF30F8BD600B00202DE9F04F9FB004280E
:1063500000AF8046B960144602D94FF0FF30BFE06D
:10636000614D0C2303FB00531A7A002AF5D09207E3
:10637000F3D55E680C2303FB08F305EB0309EB5828
:10638000B6F9061003F132022244B2EB012F40F2BB
:106390009080B6F904A007F1100051460AF000F908
:1063A00007F11A000121FFF715FF061ED5DBB7F92B
:1063B000161007F11A00490009B20122FFF7FCFD8F
:1063C0008346002852D04FF00009BA8AC7F80CD093
:1063D000002A08BF4FF48072D11D21F00701ADEBF8
:1063E000010D30466946FFF783FF031E0BDA0021DB
:1063F0000A46BBF90400FFF783FD3046FFF738FF7C
:10640000D7F80CD0A9E70BD0BBF90420194609EB4B
:106410000222684632327B600AF024F97B68994494
:10642000D7F80CD0002BD0D12F4A02F13C00117AC2
:1064300059B15168B1F90410514501BFC2F804B017
:106440009BF80A1001318BF80A100C328242EED10F
:10645000012150460022FFF753FD0028BBF904102C
:1064600008DA084600210A46FFF74AFD3046FFF7E2
:10647000FFFE72E707F144000AF092F8BA8A07F1CA
:106480004400A7F848207A8ABBF90410A7F84620F0
:106490000AF0B2F89BF80B20CBF8009022F0010232
:1064A0008BF80B203046FFF7E3FE0C2303FB085369
:1064B0005FE732689342FFF650AFB6F90420B86840
:1064C00003EB0222323221460AF0CCF82046D9F8FA
:1064D00000302344C9F8003032689342C8BF3360AB
:1064E0007C37BD46BDE8F08F600B00200FB407B5C8
:1064F00004AA52F8041B0448019200F039F803B0D2
:106500005DF804EB04B07047880400200EB43FB57A
:10651000094B07AA52F8041B0190049304A801AB8D
:106520000392059300F024F8019B00221A7006B034
:106530005DF804EB03B070476707270070B50546A8
:106540000C46102C07D92B68686808491022984718
:1065500050B9103CF5E734B12B6868682246BDE8B5
:10656000704002491847204670BD00BF761F2700C3
:106570002DE9F04F80468FB0069107920026069BCA
:106580001B78002B00F05F83069B1C4613F8012B41
:106590001AB9069B9C4203D10FE0252AF5D1F8E7F2
:1065A000069BD8F80400E51A0699D8F800302A4668
:1065B0009847002840F02A832E442378002B00F0CF
:1065C00042836378611C002B00F03D8300240A465F
:1065D00011F8013B2B2B11D006D8202B11D0232BE7
:1065E00012D144F00804F2E72D2B04D0302B0BD14C
:1065F00044F01004EBE744F00104E8E744F006043B
:10660000E5E744F00204E2E7A3F1310108290DD8DF
:10661000134600251A4613F8011BA1F13000092882
:1066200011D80A2202FB0515303DF3E72A2B09D1C8
:10663000079B01321D68191D002D0791B8BF44F05A
:10664000010400E0002513782E2B1CD15178531C37
:10665000A1F1300009280ED8194600270A780B4608
:10666000A2F13000092801F101010FD80A2303FB30
:106670000727303FF2E72A2906D1931C079A111DFC
:106680000791176802E013464FF0FF371A786C2A1B
:1066900009D15A786C2A02D144F080040AE001330F
:1066A00044F060040BE0682A09D15A78682A03D1C3
:1066B00044F02004023302E0013344F040041A782D
:1066C000642A3CD01FD8462A48D00DD8252A5AD053
:1066D00003D8002A00F0B78257E0412A4AD0452A61
:1066E00053D144F4424450E0582A31D004D8472AC8
:1066F0004BD144F4A13448E0612A38D0632A44D114
:1067000044F4A06441E06E2A3AD007D8662A22D029
:1067100027D3672A28D0692A11D036E0732A2CD0D3
:1067200006D86F2A11D0702A2FD144F440742CE07F
:10673000752A07D0782A28D144F4C85425E044F4B7
:10674000245422E044F410641FE044F488541CE014
:1067500044F4B24419E044F4007416E044F4844470
:1067600013E044F4024410E044F481340DE044F4B6
:10677000C1340AE044F4E13407E044F4806404E006
:1067800044F4E06401E044F4C0640133069304F48B
:10679000E063B3F5806F00F0AA8116D8B3F5807F6F
:1067A0002BD0B3F5407F7FF4EAAE079BA04914F4E9
:1067B000804F03F104029F4818BF08460DF13301D2
:1067C00007920F461A680023C5E1B3F5C06F08D0E1
:1067D000B3F5E06F00F03182B3F5A06F7FF4CFAE78
:1067E00000E2D8F80030D8F8040093490122984715
:1067F000002840F00B820136C1E6002FACBF24F028
:106800001004012714F40053039304F0E00337D07D
:10681000402B17D008D8DBB1202B2AD1079B1A1D9B
:10682000079293F9002017E0602B11D0802B20D124
:10683000079B073323F0070303F108020792D3E90C
:1068400000230AE0079B1A1D0792B3F9002003E01A
:10685000079B1A1D07921A68D317002A73F10001CB
:1068600009DA524263EB4303CDE900234FF00109FB
:1068700033E000220023CDE900234FF000092CE093
:10688000402B16D007D8CBB1202B20D1079B1A1D47
:1068900007921A78EEE7602B10D0802B17D1079B58
:1068A000073323F0070303F108020792D3E900231B
:1068B000E1E7079B1A1D07921A88DBE7079B002177
:1068C0001A1D07921B681846CDE90001D5E7002282
:1068D0000023CDE900234FF0000904F4C053B3F5C1
:1068E000805F0CD0B3F5C05F33D0B3F5006F4FD1EC
:1068F000DDE900230DF1360ACDE9042304E0DDE9EA
:1069000000230DF1360A15E0DDE9042313433AD0E4
:10691000DDE904010A22002308F0F2FBDDE90401AD
:1069200030320AF8012D00230A2208F0E9FBCDE9F4
:106930000401E9E752EA030125D002F007013031F2
:106940000AF8011DD10841EA4371D8080A460346F6
:10695000F0E7384B14F4804F0DF1360A344908BF84
:106960001946DDE9002352EA03000CD002F00F00C3
:10697000085C4FEA131E0AF8010D100940EA037083
:1069800002467346EFE70DF1360BCAEB0B0B03E043
:106990000DF1360A4FF0000B41F6080241F20803F0
:1069A0005F4502EA04028CBFCBEB070700279A423F
:1069B00002D1002F08BF012741F608018A4207EBE8
:1069C0000B030DD1DDE9000150EA010208D01B499B
:1069D00014F4804F1A4A4FF0020C18BF0A4602E026
:1069E0004FF0000C62460399A1B1B9F1000F0AD132
:1069F00004F0060102290AD00629124904BF4FF00B
:106A0000010C0A4606E04FF0010C0F4A02E00F4A63
:106A10004FF0010C63449D428CBFED1A002514F029
:106A2000010922D1E30613D52F444D461DE000BFD6
:106A3000431F2700541F2700741F2700681F2700CB
:106A4000651F27006B1F2700E5202700051E270074
:106A500040462946CDF80CC00092FFF76FFD009A22
:106A6000DDF80CC0002840F0D180BCF1000F0DD043
:106A70001146D8F800306246D8F80400CDF800C0BE
:106A80009847DDF800C0002840F0C0803C465E44D6
:106A9000102CD8F800300DD9D8F804006C49102219
:106AA000CDF800C09847002840F0B080103CDDF8D9
:106AB00000C0EDE75CB1D8F8040065492246CDF886
:106AC00000C09847DDF800C0002840F09F80D8F84B
:106AD0000030D8F8040051465A46664498470028CA
:106AE00040F094803E44B9F1000F79D073E0079BE9
:106AF000D3F800A01A1D0792BAF1000F09D053462F
:106B0000994699F800200133002AF9D1CAEB090906
:106B100003E0DFF840A14FF00609002F02DBB94582
:106B200028BFB9464D458CBFC9EB0505002514F0BB
:106B3000010405D140462946FFF700FD002865D134
:106B4000D8F80030D8F8040051464A469847002843
:106B50005CD14E443EE052EA030E0ED002F00F0E1E
:106B600010F80EE04FEA131C01F801ED4FEA121E77
:106B70004EEA037E72466346EDE70B467F1A01BF7D
:106B80003022012701F1FF3301F8012C033778226D
:106B9000BD4203F8012C4FF0300203F8022C88BFED
:106BA000ED1B4FF0230298BF002514F00104A3F160
:106BB000030903F8032C04D140462946FFF7BEFC25
:106BC00020BBD8F80030D8F8040049463A46984728
:106BD000E0B93E4424B140462946FFF7AFFCA8B9CE
:106BE0002E44CCE4079B012D03F104021B688CBFEB
:106BF00005F1FF35002514F0010407928DF82030CF
:106C000008D140462946FFF799FC10B14FF0FF30FC
:106C10001AE02E44D8F80030D8F8040008A9012260
:106C200098470028F2D16F1C2CB140462946FFF747
:106C300085FC0028EAD13E44A1E4079B1A1D1B688D
:106C400007921E609BE430460FB0BDE8F08F00BF96
:106C5000331F27006D1F2700F8B503880646154629
:106C60002BB14A2B15D0002303800320F8BD174811
:106C700009F0EBFD04462CB1201DA16809F088FD48
:106C80002468F8E7124B01221A704A23338001204E
:106C9000F8BD8829FBD10D4809F0D7FD0446002C2A
:106CA000F3D0231D9D420ED10848214609F0D7FD9F
:106CB000084B62691F681A60A2691D460AB1E06943
:106CC00090472F60E1E72468E9E700BFD80B002078
:106CD000B4270020F00B002010B5064B0024064816
:106CE0001C7009F0AFFD2146BDE81040034800F0DC
:106CF0003DBB00BFB4270020D80B0020900400202B
:106D000070B50446E3610B4B049D1B786561A2617D
:106D100043B1094D094B2E68201D2B6009F038FD49
:106D20002E6000E0A1602146BDE87040044809F0F3
:106D3000AABD00BFB4270020F00B00209004002063
:106D4000D80B002013B5034C24680094FFF7D8FF3C
:106D500002B010BDF00B002070B5094B05461B7842
:106D60003BB1084C084B26680430236009F019FD3C
:106D700026602946BDE87040044809F084BD00BF84
:106D8000B4270020F00B002090040020D80B002036
:106D900070B5094B05461B783BB1084C084B26687B
:106DA0000430236009F006FD26602946BDE87040E6
:106DB000044809F068BD00BFB4270020F00B002094
:106DC00090040020D80B002010B5084B04461B7817
:106DD0001BB1043000F0DEF801E0C360036121461E
:106DE000BDE81040024809F03ABD00BFB4270020BA
:106DF000D80B002000230649002241F82320054932
:106E000041F8232004495A5401330C2BF3D1704725
:106E100074310020343100206831002038B50A4B2D
:106E200004461B5C094D63B1FDF796FF084A55F80F
:106E3000243052F8241042F824005B1A034445F829
:106E4000243055F8240038BD68310020343100204A
:106E500074310020014B43F820107047343100207A
:106E600010B50E4C236813B90D4A136010BDFDF721
:106E70001DFF216891E80C001A44131A8A6842B178
:106E800092E812002144091A8B4228BF0B469268EF
:106E9000F5E71844024B186010BD00BFDC0B002062
:106EA000E00B0020014800F079BA00BFA0040020E8
:106EB000F8B5038805462BB1592B09D00023038070
:106EC0000320F8BD1E4A136059232B800120F8BD12
:106ED000872920D08229F7D1194F00263C68002C41
:106EE000F2D0204609F0A0FC90B1E068882122464B
:106EF00000F010FA50B9E060A3680EB1B36000E092
:106F00003B600023A360FFF7ABFFE5E7FFF7CAFF95
:106F10002646A468E3E70A490B680BB90B60D3E780
:106F2000D868904201D19B68F7E70B609968002907
:106F3000CAD0C86890420ABF89680B469960F5E7D5
:106F4000DC0B002010B50446FFF7ACFFE3680B4AEA
:106F50004BB113683BB1A34203D1094A1268DA600E
:106F600007E09B68F6E7064B1B68E3601368146054
:106F7000A360BDE81040FFF773BF00BFDC0B00202B
:106F8000F00B0020024B1868003018BF012070473A
:106F9000DC0B002010B50B4A04461368984206D15A
:106FA0008368136008E09A68A24203D01346002B5E
:106FB000F9D103E0A2689A60FFF752FF0023A360B3
:106FC000E36010BDDC0B0020384B30B500241C60A2
:106FD000374BB7B01C60374B21461C60364B2246FE
:106FE0001C60364B36481C60364B374D1C60374BA7
:106FF0001C60374B1C60374B1C60374B1C60374B99
:107000001C60374B1C60374B1C60374B1C60374B88
:107010001C60374B1C60374B1C60374B1C600223D5
:107020008DE81800029401230394FFF75FFA334AB6
:1070300021463348FFF75AFA3C213248FFF756FA07
:1070400001213148FFF7C6F82860304809F061FA9D
:107050002B68A34201DA2E4815E02E4809F059FAB0
:10706000214600222868FFF715F9286804A9C822DC
:10707000FFF73EF9002804F1C80411DC124B186830
:10708000FFF7F6F8244809F044FA244809F041FAD9
:1070900006211D48FFF79EF8214B186037B030BD20
:1070A00004A92048FFF722FADAE700BFF4300020F5
:1070B000E8300020F8300020303100201C31002062
:1070C000A11F2700F0300020E40B00202031002019
:1070D00004310020003100202C3100200C31002030
:1070E000EC300020E0300020143100201831002066
:1070F00024310020FC3000202831002000CA9A3BB7
:107100002A2027005F2027006B20270077202700F8
:1071100089202700A2202700E72027002D21270013
:10712000A43100202A21270038B5836804460D4683
:107130009BB10A4804600220A07304F10C00984738
:107140000238012801D9832D05D120462146BDE80A
:10715000384000F005B80123A37338BDF00B0020C0
:107160002DE9F8431C4A0446156889462B4690468B
:107170001A4E3768A34204D00BB11B68FAE7BDE88A
:10718000F88334B3A37BABB10023A37345B1AC4206
:1071900004D028468721224609F01DFB2D68F5E71B
:1071A000A3683BB14C4505D0346004F10C00832149
:1071B0002A469847D8F800309C4203D12268064BF3
:1071C00005E0134623B11A68A242FAD122681A6078
:1071D0003760BDE8F88300BFF40B0020F00B0020FF
:1071E00010B5094B00221A70084B1C685CB1E37B98
:1071F0003BB101230022A373E27320468221FFF7F3
:1072000093FF2468F2E710BDB8270020F40B00209C
:10721000024B1878421C1A70704700BFBA27002032
:10722000064B8A221A70064A00231370054A13700F
:10723000054A1360054A1360704700BFBA27002053
:10724000B5270020B7270020F40B0020F00B00200A
:107250002DE9F041214E33780BB1FFF7C1FF204DEE
:107260002C78002C34D0DFF88CE00C229EF8003013
:107270001C495A4388181C4F895CDFF87C8042689F
:10728000DFF878C08068013303F01F03013C3970D8
:10729000C8F80020CCF800008EF800302C7088B9B7
:1072A000124C134B1B68236023688BB133780BB1EE
:1072B000FFF796FF20683978D8F8002009F08BFA9C
:1072C0002368EFE7812904BF0123837309F083FA60
:1072D000337828781844BDE8F08100BFB827002033
:1072E000B7270020FC0B0020B9270020E80B002066
:1072F000F40B0020B5270020F80B0020EC0B002039
:10730000024A034B10781B7818447047B7270020B7
:10731000B8270020F0B50C4E3478202C11D00B4B40
:107320000B4D1B780B4F234403F01F032B700C25D0
:107330006B430134FD18A860F9546A603470002072
:10734000F0BD0120F0BD00BFB7270020B527002009
:10735000B6270020FC0B002038B5034C256809F047
:107360003AFA256038BD00BFF00B002010B50A4680
:1073700009490C68234683420DD00BB11B68FAE71C
:1073800048B1046008600121817383818121BDE8D7
:107390001040FFF7E1BF10BDF40B002038B1837B34
:1073A000013B012B9FBF024A0123C3731370704737
:1073B000B827002006480023064A074952F8232030
:1073C00051F8231001330C2B01FB1200F4D170474C
:1073D00000CA9A3B841B27003431002010B5084CAA
:1073E000206858B100232360816843689847236868
:1073F00023B1BDE810401868FDF7C4BC10BD00BF44
:107400007C0D002010B50446FDF75AFC94E80C00F2
:107410001344C01A024B98428CBF0020012010BDBB
:10742000FEFFFF7F38B505880446672D09D0792D0A
:107430002ED0002D32D1FFF7EBFE1B4B18701B4BEB
:107440001D601B4809F0B2FA431C01D167231DE0FF
:107450000A28164B07D01A687E2AF2DC511C1960E4
:10746000144B9854EDE7196800254A1C1A60114A1C
:107470000D4B555428461978FFF74CFF0E4B8521CC
:1074800018682A46FFF746FF20B97923238009E0D0
:10749000852907D1054B00221A60D2E7002303801B
:1074A000032038BD012038BD273D0020880D002075
:1074B000800D00203C280020F00B00200D2810B586
:1074C000014615D00B4C23782BB90B4809F05AFA1A
:1074D00048B9012306E00A2805D1074809F052FA05
:1074E00008B1002323700548FFF758FF012010BDA5
:1074F000002010BD3B280020800D0020B00400209B
:1075000008B505480549802209F035FABDE808406C
:1075100003480021FFF72ABF800D0020BB27002071
:10752000B0040020054A136843F004031360044BC1
:107530001B68906943EA002080B2704700700D40DC
:1075400014700D40174A136823F00C031360164B98
:1075500001221A601A68012AFCD1144B08221A6011
:10756000E322C3F8142203F505731946104B1B6878
:10757000DB07FBD5102000230E4A0138126802F009
:10758000010243EA02034FEA43039BB2F4D1002B0A
:10759000F0D0094A180A03F0FE0310601360EF23CD
:1075A0000B60704700700D40A8200D4024860840F5
:1075B000648608409C86084014700D4070B50588AC
:1075C0000446772D30D07E2D3FD0002D4DD1FFF7D2
:1075D0001FFE294B1870294B1D601D462B68284A39
:1075E000264E52F823204AB126480021C154936800
:1075F00080209847336801333360EFE7224A1370E5
:10760000772320E01F4AD256002A12DB1B4A136858
:1076100001331360194B1C4A1B6812789342F1DB4B
:107620001A4B1B68002BEBD0184A00231360134A37
:10763000EFE7114A00201178114A52F82320FFF792
:1076400069FE30B97E23238013E00B4B1B788B42FD
:107650000FD10A4B0B491A688B5C03F07F038B54E4
:107660000A4A136801331360D0E700230380032024
:1076700070BD012070BD00BF283D0020900D00208E
:1076800068040020233D0020BC2800208C0D002031
:10769000094B1A780023934204DA084951F8231061
:1076A000814207D106490748CA5C62F07F02CA548A
:1076B000FFF774BE0133EEE7BC2800206804002009
:1076C000233D0020C00400200C4AB82303FB002205
:1076D000002330B553821A46094CE1188D782DB13C
:1076E0001C5D844202BF00248C70013240F24C5178
:1076F00071338B42F0D1104630BD00BFB00D002079
:10770000C828002008B5064802F088FF054B012272
:107710001A70FD2100225A709970DA7008BD00BFFE
:107720006D792600BE28002010B513780446087A2B
:1077300083F0020398421DD1487A5378984219D1B8
:10774000887A9378984215D1C87AD378984211D123
:10775000087B137998420DD1487B5379984209D11F
:10776000887B9379984205D1C87BD379984201D11F
:1077700003201BE00B890F4A6BB94B89B3F57F4F90
:1077800009D18B89FE2B06D11368C989022023F801
:10779000021B13600AE0136851F8080F083343F81E
:1077A000080C486843F8040C13600120A040C0B2E4
:1077B00010BD00BF9C0D002010B50F4C0220A17918
:1077C00006F0A6F8A379112B01D0062B05D1238D45
:1077D000618D9942A8BF194608E03A2B05BF94F87D
:1077E000281094F82930002143EA01210120BDE846
:1077F000104006F08DB800BFBC31002010B5084C19
:1078000001462378012B08D1A01C082208F0E6F9D4
:1078100000280CBF2046002010BD002010BD00BF76
:10782000BE28002008B50146102006F07FF8044B62
:1078300004489B6800219847BDE80840FDF752BC0A
:10784000101C27004978260010B508460C46114642
:1078500002F076FA044B1B6813B19B6820469847E8
:10786000024B1C6010BD00BFAC0D0020A80D002015
:10787000F8B505460023114A712404FB0324A278BD
:10788000B2B9617005F048FF26460D4F0D4A3B78AE
:1078900006F8035BC01A1568A0701D4405F03CFF94
:1078A0003A782946821A304608F0CAF9A078F8BD1D
:1078B00001330C2BDFD14FF0FF30F8BDC82800207A
:1078C000142E0020A00D00202DE9F8434FEA1219D4
:1078D000B9F10F0F80461D4602F00F040BD00F2C9C
:1078E00005D1B9F1000F0AD11024274619E0B9F1EA
:1078F000000F09D004E00F2C4FF0100900D1102424
:1079000040464A4608F09CF909EB04020F2A274634
:1079100006DC08EB09000021C2F1100208F06AFA47
:10792000BCB1114DC7F110002E68404431462246CB
:1079300008F086F9022C08D1B9F10A0F9FBFFF2386
:1079400088F80B30FE2388F80C3034442C60BDE8F6
:10795000F883B9F1000F05D040462946BDE8F84349
:1079600009F088B8BDE8F8839C0D00202DE9F04FA0
:107970008E4E8F4D002387B033702B70044605F078
:107980006DFF05F001FF8B4A8B4B126818608DE884
:10799000600099460AB1FFF70FFF04A80CB98749A8
:1079A00000E0214609F098FF854B864E1A88039324
:1079B0003E2A40F20182D9F800B0834D0BF1020358
:1079C0002B60009B06F1180093F80080002308F15B
:1079D00002080BF80830FFF711FF20B906F1080084
:1079E000FFF70CFF20B10BF103032B60802400E0B4
:1079F000044672783178130943EA0113DBB2980820
:107A000040EA8313DBB212F00F0FDEB26E4F01F0CB
:107A10000F010CD16B48408848B911B912F0F00F32
:107A20001FD03B6803F8016B3B6070261AE079B900
:107A300012F0F00F0CD1296823F03F031A43634B77
:107A40000A701B88033121F8023C6826296009E08E
:107A50005C4A2B681068186003F8046B2B60602682
:107A600000E07826574B9A790293112A08BF46F016
:107A7000040673075EBF3B6803F8012B3B60029B63
:107A8000DB79402B06D0FF2B07D0012B08D146F025
:107A9000010609E046F0020606E046F0030603E0B0
:107AA0003A6802F8013B3A60029A464B128982B961
:107AB0005A8972B99A8962B9DA8952B91A8A42B96D
:107AC0005A8A32B99A8A22B9DB8A13B944F0400043
:107AD00013E03F48FFF792FE3E4B186078B14278C2
:107AE0001BF80830042043EA02130BF80830384929
:107AF000394AFFF719FE60F03F00C4B227E0029B4D
:107B000030491A8948F2FE039A420CD14B8B53B983
:107B10008B8B43B9CB8B33B9042008312E4AFFF746
:107B200003FE2043E9E73A68DFF8A4C096460CF16B
:107B3000100A634603CB5345CEF80000CEF804107C
:107B40009C460EF1080EF4D11F4B10321A60DFF87C
:107B500074A09AF81830FF2B40F08A809AF8192008
:107B600044F0080E022A5FFA8EFE37D1BAF81A30B6
:107B7000A3BBBAF81C308BBBBAF81E3073BBBAF883
:107B800020305BBBBAF8223043BBBAF824302BBBA1
:107B90009AF8263013BB3B689AF8272044F00B0074
:107BA00003F8012BC4B23B609FE000BFBD2800205A
:107BB000142E0020AC0D0020A00D0020C9222700AB
:107BC000A8310020BC3100209C0D0020BE310020D7
:107BD000C4310020940D0020B43100209B4B588B01
:107BE000194688BB988B78BBD88BA8B9188C98B9E4
:107BF000588C88B993F8240070B9296844F00A00B9
:107C0000C4B2084600F8012B33F8252F043121F8BF
:107C1000032C9B78837015E0C98B8C4BA1B9198C10
:107C200091B993F8221079B9296844F00900C4B2D7
:107C3000084600F8012B53F8232F063141F8052C94
:107C40001B790371296050E0814ADFF818C214687B
:107C50000CF110082746634603CB43453860796032
:107C60009C4607F10807F6D11034146074463CE0D6
:107C70000AF11800FFF7C2FD764B186050B1437847
:107C80001BF8081044F004040B43E4B20BF808306E
:107C900000200EE048F2FE03BAF818209A4210D1F4
:107CA000BAF81A306BB9BAF81C3053B9BAF81E30AA
:107CB0003BB90AF1180104AAFFF736FD2043C4B20C
:107CC00013E0634ADFF89CC117680CF11008BE4648
:107CD000634603CB4345CEF80000CEF804109C4623
:107CE0000EF1080EF4D110371760019A5749282376
:107CF00013708B79112B53D14FF2B0030A8D52BA06
:107D000092B222F00F0080B2984217D14B8D5BBA2D
:107D100023F00F031B041B0C83420FD12868F323AD
:107D200003704B8D02301A0A0B8D1B0A02EB0313F2
:107D300003F5AA6300F8013C286028E0029B434950
:107D40005B8D5BBA03F47F43B3F5704F09D12B68A9
:107D5000F1221A700A8DA3F801204A8D120ADA70F6
:107D60000CE002F47F42B2F5704F2B6808D1F2228A
:107D70001A700A8D120A5A704A8D5A80043305E02F
:107D8000F0221A70886A053343F8040C2B60324BDA
:107D90001A882B6823F8022B019A2B60302313706A
:107DA000009BD9F800201B78D65413445C70284BF4
:107DB0001B689B1A009A1AE0D9F80020412313701F
:107DC000009B06F128051C78631CDBB21344324685
:107DD00003CAAA4218605960164603F10803F6D197
:107DE000009B29341C70019B019A1B7828331020BA
:107DF00013700DEB000105F099FD184BDFF868805A
:107E00001B68984730EA200028BF1520039BC0F16B
:107E10007D051C88019BDFF854A01E78009BA21BE7
:107E200093F800B00E4FCBEB05039A4240F3CD80A0
:107E3000C0F17803019305F0A3FD019B94FBF3F4DB
:107E40000134A04214DC0020D1E000BFBC3100208E
:107E50009C0D0020940D0020EA310020E41B270037
:107E6000142E0020D4310020A8310020BD2800208D
:107E7000D9F800B05F4B3C7800221A605946224680
:107E80000BF10400039307F051FFB8F800205A49A2
:107E90006FEA82426FEA9242C2F307228BF8002017
:107EA000B8F8002004348BF801200A88E4B2501C92
:107EB0000880110ADFF850C18BF802102D1B9AF8C8
:107EC000001025F007054D4E61448BF803200BEBA5
:107ED00004002A46CDF808C03C70356007F0B0FEBB
:107EE000281980B205F00EFC05F050FD039B0446F6
:107EF0001D460028A7D00DF1100B5846FFF792FC45
:107F0000204605F07BFD204605F062FD2B68012B25
:107F100099D0043B012B96D99AF800A033685344BA
:107F20001FFA83FA05233B70354B1A68B8F8003006
:107F30006FEAC3436FEAD343C3F307231370B8F860
:107F400000305370019B23F0070737602D4B1B88CF
:107F50009A454BD2D9F800204FEADA011171326804
:107F6000CAEB03039342B8BF244AD9F80000B8BF54
:107F70001360009B376893F80080029B3A4603EB3E
:107F80000A01404407F05CFE08EB070080B205F0F0
:107F9000B9FB05F0FBFC074600283FF454AF5846F8
:107FA000FFF740FC384605F029FD384605F010FD86
:107FB000124B1B689A442B681FFA8AFA012B3FF474
:107FC00042AF043B012BC1D83DE7D9F800000E4970
:107FD0005844314407F034FEB8F800005844801B80
:107FE00080B205F08FFB04A8FFF71CFC012007B04E
:107FF000BDE8F08FA80D0020FC1D0020A40D00207E
:10800000A00D0020A8310020BC3100202DE9F04750
:10801000074688461646002A47D0434C0025A1460D
:10802000238ABB4215D1638A9BB10F2005F08AFCDD
:108030000146204609F055FC58B1ECB220463146C5
:10804000FFF716FC002827DA0027DFF8E0A0B84683
:108050000DE0B834002D5DD10125E1E7A8450BD135
:108060000AF1B80AB8F1000F10D14FF001083AF840
:10807000063C002BF4D0F1E7504608F0D5FB002871
:10808000EED04046FFF720FB0744E9E7002F41DD33
:1080900020463146FFF7ECFB00283BDDB82303FB0D
:1080A0000595AB8A1844A8823AE0204DFF2435F8A4
:1080B000063C4FFA84F97BB3284608F0B5FB10B1B3
:1080C0003046FFF701FBB9F1FF3F03D135F8063C1D
:1080D00003B9F4B2012E05F1B80501D00126E6E797
:1080E00065B26B1C16D0B8235D43DFF83C900F20BF
:1080F00009EB0506A6F81280378205F023FC01463D
:10810000304609F0E9FB05F118004844402108F029
:1081100079FB05E0FF2403E0B9F1FF3FDAD1D8E7AE
:1081200060B2BDE8F08700BFB00D0020C80D002090
:108130002DE9F04FA44CDFF8C8A287B000268AF8DA
:108140000060267005F020FBA04DA04628600420AA
:1081500005F0E6FB9E4B2A6800B21860577813784A
:1081600047EA032703F0F803C02B02D0E02B19D015
:108170003AE090782378D278C7F30A07043342EACA
:108180000020394632462370FFF740FFB0F1FF3F31
:10819000814600F081828F4CB82303FB0044012606
:1081A000223424E01379D17890782278C7F30A0733
:1081B0000532227041EA00201A4639460093FFF743
:1081C00025FFB0F1FF3F814600F066828149B82269
:1081D00002FB0012958A4FF0010BBD4234BF00250F
:1081E00001253446009BE0E1B1464F467A4C2968B0
:1081F00098F800504A5D02F0E003602B40F0B78130
:10820000A81C084429444D78744B5FFA85FC1CF087
:10821000800F18601CBF0130186012F0100F02F0C0
:10822000080130D1D1B9196831F8010FA4F8010063
:108230008978E170196811F8040B1960830803F05C
:108240000F0141F060012170617803F0300343EACF
:10825000801301F00F010B43637030E01868602158
:10826000864621701EF8011B03304FEA910B0BF07C
:10827000300B01F00F014BEA01016170BEF80010F4
:10828000186061801BE001F0FF0E99B91968087849
:10829000C0F3830040F06000207011F801BBA4F827
:1082A00002E04FEA9B0000F0300040EA8B10607063
:1082B000196004E06023237000236370638002F080
:1082C000040303F0FF0100912BB944490B6813F834
:1082D000010BA0710B6012F003020BBF3F4A404B31
:1082E00013689B5C09BF13F8011BE3711360E17114
:1082F0006B06C5F3011233D51CF0800F1DBF334947
:1083000098F80030096800211EBF5B1899780909A8
:1083100022B904F1080B9AB9114614E0314B1878D0
:10832000012805D1587888420CBF1946002100E089
:1083300000212D4B19600029EBD1B3460D4633E1E6
:10834000294B19680231294B0F209A5C0391CDF813
:1083500008C0019205F0F6FA0399034658460BE06F
:10836000234B0F209A5CCDF808C0019205F0EAFA81
:108370002049034604F10800019AFFF7A5FA05F029
:108380000800DDF808C005F0030200F0FF0105F069
:108390000403002836D0002B6CD1174B1B88ADF896
:1083A0001430531E012B9FBF0C490B6813F8010BAF
:1083B0000B60124B98BF8DF815009A5C04F1180001
:1083C00005A9002354E000BF142E0020A00D0020BA
:1083D000980D0020B00D0020BC3100209C0D002025
:1083E00089212700BE280020940D0020A22127000B
:1083F0008D21270091212700872127009321270025
:10840000BD28002053B31CF0800F1DBFA44998F86D
:10841000003009680B4618BF5B18A24918BF9D7849
:10842000087818BF05F00F03012805D14D789D424B
:108430000CBF0D46002500E000259B4B1D60002D64
:1084400000F0AE80994B10209A5C019205F07AFA08
:10845000A91C0346019A04F1180009E0944B10206E
:108460009D5C05F06FFA2A469249034604F1180014
:10847000FFF72AFA9AF800008F4900F128038AF8DA
:108480000030009B002B53D00B681A7802F0F802E2
:10849000F02A4DD11122A2711A7802F0040502F0DF
:1084A000F302F03AEDB2032A7CD8DFE802F0020AC8
:1084B0001622B3F801200533228533F8022C628599
:1084C0002CE0B3F801202285DA78A2F5805292B22E
:1084D000120242F0F002628509E05A78A2F5805259
:1084E00092B2120242F0F00222855A886285043369
:1084F00014E05A7802331209A2F5756292B21202A0
:1085000042F0F002228513F8012C02F00F02A2F5CE
:10851000756292B2120242F0F00262850B6025B9D8
:108520000B6833F8022BE2850B6030308AF80000CC
:108530005B4A0B6812689B1A88F8003067B905F02F
:10854000EBF85E4B1B78C01A9AF8003018442838B4
:1085500003122371607104E0A7F128031A1222713B
:108560006371A379112B1DD1A388A3851AE0412A39
:1085700040F092806A1CD2B28B18224603F1280187
:1085800053F8040B8B4242F8040BF9D105F129038F
:1085900088F800309AF8003028338AF8003001E07B
:1085A000B34601E0B34600252B46009305F0B4F82E
:1085B00098F8002082426FD805F0AEF83F4A404953
:1085C0001278009BC2EB0008C1F8008040F2145101
:1085D0009AF800A0DB009BB2534443448B425BD823
:1085E0003CB12F4B04EB0A0019681144424607F0D6
:1085F00027FB002F39D056B132484FFA89F3B824FF
:1086000004FB030308EB0A0189B29982198495B32C
:10861000B8224FFA89F402FB04F32A492A48CA18FF
:10862000114697822231128C07F00AFB274D05F282
:108630004C5615F8012C5AB115F8033CA34207D14A
:1086400015F8020C204B294603EBC00007F0F8FA9E
:108650007135B542EDD15FFA89F0FFF735F8BBF11E
:10866000000F0BD01A4B1F800CE0BBF1000F05D0A0
:10867000002DF7D110E0BBF1000F0DD1144BD04409
:10868000A3F80080134C236823B1FFF795F8236803
:108690005B68984701F0E8FF07B0BDE8F08F00BFC6
:1086A000A00D0020BE280020940D0020A22127004C
:1086B0008D212700912127009C0D0020142E0020E1
:1086C000A40D0020B00D0020BC310020CB280020DC
:1086D000A8310020AC0D002037B5124B124D1C788C
:1086E0002B796A79C4EB032313449BB2ADF80630AF
:1086F000BDF8063005F108011844202280B208F0C8
:1087000065F9BDF8062004F12801294492B208F069
:108710005DF910B140BA80B201E04FF6FF7003B0CE
:1087200030BD00BF152E0020BC31002028492DE9A6
:10873000F04188460D78274E2835AB195C782648DD
:10874000E400073402239C423DDBE9187218715C97
:10875000204F012932D002D3632902D013E0013324
:108760002FE0037018461C4C02F0D0FDD8B998F8E1
:1087700000302278283313443B445B78134402339F
:108780002370BDE8F08101F0C001802905D0C02927
:1087900005D0402912D1037005E0037006E03A7E4F
:1087A0000370FF2A02D10120BDE8F08104200221DC
:1087B000EA1801F017FE0220BDE8F081527802327B
:1087C0001344DBB2BFE703700020BDE8F08100BFB7
:1087D000152E0020BC3100201B2E0020F0B5C578DE
:1087E000124A0D44EDB2D57083780F0A3B44DBB2D8
:1087F00093704478BB4254700678167005D2601CA2
:10880000C0B2507008B901361670C9B28D420CDA88
:108810000133DBB2054993703BB94B780133DBB2CE
:108820004B7013B90B7801330B70F0BDB0310020E1
:1088300010B5084C014620681430FFF7CFFF064AF8
:10884000236811781975517859759178D27899758E
:10885000DA7510BDE0360020B031002008B501F017
:108860009BF901F0B1FE08F03CF900231149002208
:1088700021F813200133DBB2082BF7D10E49302346
:1088800003FB02110132D2B200230A2A81F82530FB
:10889000F4D10A4A4FF480611180094A002102EBA9
:1088A00043120133DBB20A2B1182F6D1054A137051
:1088B00008BD00BFCC380020E4360020001E002098
:1088C000E03800201C2E00202DE9F041124F3D78A9
:1088D00005B3DFF84C8005F12703B8F80040A34248
:1088E00003DB0023A8F8003013E00C4EA4F12802AB
:1088F00005F12801641BA4B206F128003144521B83
:1089000007F014FAA8F80040283C23123371747160
:1089100000233B70BDE8F081152E0020BC31002003
:10892000A83100202DE9F041034626480288013293
:1089300092B2B2F5FA4F28BF4FF4805200240A2CAD
:108940000AD0214D05EB44152E8A55BAADB2AE4280
:1089500004F10104F3D1EAE7DFF874E002800022B9
:108960000A2A18D0184E55017419B4F81080571CF3
:10897000FFB2B8F1000F0CD18EF80020028861829E
:1089800052BA228263B920461946102207F032FA01
:1089900011E03A46E4E78EF800200020BDE8F081BF
:1089A000274603F1100E3A4618685968083303C287
:1089B00073451746F7D1054B35441B7920462B7577
:1089C000BDE8F081001E0020E0380020283A002099
:1089D0001C2E002030B50A490023082B0DD0094C6D
:1089E0005A1C34F81350D2B2854204D100220B70C5
:1089F00024F8132030BD1346EFE70B7030BD00BFE5
:108A00001C2E0020CC3800202DE9F04FA14F042867
:108A100093B03C68BA46A04E00F09C829F49A04D9E
:108A2000A04A03280D601560894616D194F82530B8
:108A300003F00F03032B08D1A38B002B40F0DA8641
:108A4000994B08221A7000F0D1BD022B40F0D2865B
:108A5000002305F8073C00F008BC02287AD1934AAD
:108A600000231370924A33801380924AD3780133E3
:108A7000DBB2D37063B993780133DBB293703BB947
:108A800053780133DBB2537013B913780133137089
:108A900094F8253003F0FD02052A0DD194F8263014
:108AA0000133DBB2782B84F8263040F0A386002314
:108AB00084F8253000F09EBE002B00F09B86A28B30
:108AC0007948002A3DD094F82620511E84F82610BB
:108AD000002A40F08F8694F82720082A04D0591ED7
:108AE00001290AD8052A08D1002384F825308023DB
:108AF000037001F0FFFE00F087BD042A9CBF032134
:108B0000914003F00F0394BFC9B230210132013B01
:108B100084F8261084F82720072B00F26B86DFE804
:108B200013F0A00308000A002C0569062C0569064D
:108B30002C05002296E30423037001F0DBFE00F015
:108B400085BD03F00F03032B40F054860823037008
:108B500000F04CBD052811D1574B1B681B8A002B18
:108B600000F048860C3D1560514A002313803B609D
:108B700033804D4B08220D601A70E9E115F83C3C3A
:108B80003C3D03F0F003602B40F034862B796A798A
:108B90001B0231889818884200F32C86283213442F
:108BA00033802B7AFF2B00F02586444BAA1D3F4FC4
:108BB000434C1A6000223A702270AA799846B2B9E2
:108BC00001232370FFF7B2FD012800F0138603D3C1
:108BD000022800F00B860AE03B7803F128022A44C1
:108BE000C8F800205278083303EBC2033B703548C5
:108BF00000F070FE002840F0C380324800F010FF03
:108C0000002840F0BD802A7E2E4BFF2AA3F11803D6
:108C10006AD048F2FE00198B814265D019898142E1
:108C200062D079B9598969B9998959B9D98949B944
:108C30001B8A3BB9698A244B21B9998A11B9DB8A0D
:108C4000002B51D0298B204B79B9598B69B9998B5D
:108C500059B9D98B49B9198C39B9598C29B9998C19
:108C600019B9DB8CB3F5807F3ED03388B3F5A06FA4
:108C700004D9022000214FF4A06206E0EB79124CE7
:108C8000012B23D800210A46032001F0ABFB00F0A2
:108C9000ADBD00BFE0360020A8310020DC3600204A
:108CA000F8310020AC310020D0360020152E0020F5
:108CB000DC380020172E0020D8360020D4360020C3
:108CC000162E0020D4310020BC31002002F0A8FB79
:108CD000002840F08F85E3798B4A013BE3711368EC
:108CE0000133136000F082BD48F2FE0329899942E6
:108CF00040F08085298B854B81B9598B71B9998B4F
:108D000061B9D98B51B9198C41B9598C31B9998C48
:108D100021B9DB8CB3F5807F00F06C85FF2A00F071
:108D200069857B4800F0B6FD0246002840F0628568
:108D300001200221A9E72CD8BBF1060F00F03B81EE
:108D4000BBF1110F00F09A80BBF1000F73D12178B5
:108D50000093CB076FD46F4A41F001011170FFF708
:108D6000E5FC012800F04685009B34D23A7802F1F8
:108D70002801294419604B78083202EBC3023A708B
:108D8000D8F80020644B92F800B0BBF12B0FD2D181
:108D900031E0BBF13A0F52D004D8BBF12C0F00F0F8
:108DA000298548E0BBF13B0F00F02485BBF13C0F67
:108DB00041D123785749980704D558063BD443F04E
:108DC000400301E043F002030B70FFF7AFFC012802
:108DD00000F0108503D3022800F00885D0E73B7827
:108DE00003F128022A44C8F800205278083303EB24
:108DF000C2033B70C4E7207800F0040E0EF0FF01C0
:108E0000BEF1000F17D1434A40F0040010703A78C9
:108E100002F12800284490F803E0BEF1000F02D0D0
:108E200004202A3231E718604378083202EBC3028B
:108E30003A4B1A70A4E704200121521B25E707F0E2
:108E4000E1FD4FF6FF73984240F0D4843B7828331D
:108E5000E85C01F0F5FB3B782833EA18E85C5178D0
:108E600001F09EFA012801BF00232C4A33801370C1
:108E70003388002B00F0BE8400F0B8BCFFF724FD5F
:108E8000B5F82A8085F806B0B8F1000F00F0B2847A
:108E9000234F244B3B603C68234B9C422FD294E8E9
:108EA0000F000DF1280E8EE80F00238A23B398459A
:108EB00022D1638A13B12A8D9A421DD1BDF8283080
:108EC000A3B9BDF82A308BB9BDF82C3073B9BDF801
:108ED0002E305BB9BDF8303043B9BDF832302BB914
:108EE000BDF8343013B9BDF836300BB30F487146B6
:108EF000102206F073FED8B120343C60CBE701208D
:108F000004210022C1E600BF04310020BC31002052
:108F1000D4310020162E0020D4360020152E00203B
:108F2000D8360020E0380020203A0020C43100204C
:108F3000BB490220BB4A33880870BB49303BC9F8A3
:108F400000200A60B94A33800023CAF80030138039
:108F500001F0D0FCB54B1A88002A00F04B8402F1D6
:108F60003003B34C9BB23380283B63711912B14B71
:108F700008321B6852BA2171197DA2850022E28550
:108F80001A8AE17122855A8A11216285A17104F140
:108F9000180602AD0FCB85E80F0086E80F0004F13C
:108FA0000800314600F09AFDA34B3C341C6002F0EF
:108FB0007DFB00F015BCFFF787FC85F806B007F0D5
:108FC00024FD4FF6FF739842994C40F01384B4F897
:108FD0002A80B8F1000F00F00D84B4F828B0BBF17E
:108FE000000F00F00784934B12AC1B680FCB04E911
:108FF0000F00924C234694F825C0BCF1000F13D00B
:10900000228A424510D1628A5A450DD18C480EA958
:1090100010220193CDF800C006F0E0FDDDF800C09D
:10902000019B002800F03781864A30349442E2D117
:1090300095F8352002F03F02022A13D18249834F6E
:109040008946A1F800800022082A0AD0804931F818
:10905000121001328845D2B2F6D100223A709646FB
:1090600056E03A7095F83520714B510700F1C283F4
:10907000142283F835203C223280502283F8342099
:1090800093F8332093F8314093F82F0083F82F2082
:1090900093F8322093F82E106C4F83F82E2093F81B
:1090A0002D2083F82D4093F82C4001303C7093F82C
:1090B0003070C0B283F8321083F8312083F82C70FE
:1090C00083F8304083F8330060B90131C9B283F8C6
:1090D000321039B90132D2B283F8312012B9621C90
:1090E00083F830202B8D584A554C13806A8D6B8540
:1090F0002A8504F1100594E80F0085E80F0020464A
:10910000294600F0EBFC56E3072C0ED00132D2B218
:109110000A2A16D0302101FB023101F120004479E6
:10912000002CF1D13A700C4610E0BEF1000F04D0D3
:1091300080799EF826108842E8D9302404FB023E4C
:10914000E4E774463A70002C00F05483032384F85B
:10915000263084F82430042384F82330384BCAF8AE
:1091600000400FCB84E80F003A4B01201A784FF0F3
:10917000000A22765A7884F8250062769A78DB789D
:10918000A276E37695F82C30A083237595F82D30E0
:1091900084F822A0637595F82E3084F827A0A37573
:1091A00095F82F30A4F81080A4F812B0E375FFF7FB
:1091B0003FFB95F8343003F0F002502A51D9264A8B
:1091C0001B09053B9800964653461178834245DAC1
:1091D000EA1892F83C10002940D0012901D101334E
:1091E0001CE0022915D192F83DC0BCF1040F10D14A
:1091F0008EF800103B7092F83E1092F83F3043EA30
:109200000123402BA9F8003028BF4023E3832384A7
:1092100027E0EA1892F83D2002B31344DBB2D5E709
:10922000D0360020EC310020AC310020DC380020AA
:10923000BC310020D8360020DC360020E436002087
:10924000C4310020C4380020FE1D00201C2E002048
:10925000CC380020172E00201D2E00208EF8001084
:109260003B701022AB4B83F83520AA4B93F8352086
:1092700042F0020283F83520022283F83C200422C7
:1092800083F83D20002283F83E20402283F83F20CF
:10929000328060224FE295F835309F4A03F0040196
:1092A000CAF80040107001F0FF0821B1202384F8B3
:1092B00025001370EEE1974A0CF00F0C92F8342061
:1092C000BCF1020F4FEA12124FEA8201934A117069
:1092D0003288A2F12802A2EB010292B2328003D1BD
:1092E00003F03F01122905E0BCF1010F03D103F0A7
:1092F0003F01022916D00AB99A0713D0A98DA28A74
:10930000914204D1834AD18DE28A91420AD09F07CB
:1093100040F10A82BCF1010FA3D0BCF1020F40F072
:109320000382A2E7D80652D5A18B00294FD004F1C1
:109330001800FFF753FA7A4B95F830101878754AF1
:10934000884244D192F8311093F801C08C453ED147
:1093500092F832E09978714539D192F83320DB7870
:10936000934234D1E37694F82730207684F819C0FC
:10937000A1761BBB94F8243094F8261094F82200B0
:10938000591AA1EBD001C9B25FFA81FE1EF0800F1D
:1093900094F82330084418BF4942A3EB930318BF45
:1093A0005FFA81FE03EB0E02C0B2D3B284F8233021
:1093B00003EBD00384F8220084F82430564B0122BA
:1093C0001A7094F8243084F826300023A38394F88C
:1093D0002510DFF844B101F00F02013A072A00F22C
:1093E0000982DFE812F008002500A5005A017C017F
:1093F0009601A1014C019BF80030474AD9070FD5CF
:10940000032384F825303088402313700023A3837E
:10941000002800F0E88042231370FFF709FAE2E029
:1094200095F8353003F03F03022B40F0E38118E755
:109430009BF80020D30761D595F8352002F03F0254
:10944000122A5BD1334B93F8343003F0F002502AE8
:1094500038D9344A1B099646053B11782F489B00A2
:1094600098452BDA05EB080292F83C1031B301293C
:1094700002D108F101081EE0022916D192F83DC080
:10948000BCF1040F11D192F83F308EF8001092F821
:109490003E10254A43EA0123402B138028BF402376
:1094A00080F80080E38323840CE005EB080292F847
:1094B0003D201AB190445FFA88F8D1E78EF8001089
:1094C00080F80080032384F8253095F82C300120A3
:1094D000237595F82D30637595F82E30A37595F8A2
:1094E0002F30E375FFF7A4F90B4A422313700F4A9C
:1094F0000023A38333803B70138077E020228BF816
:10950000002001F0F7F9DAF80030002283F8252076
:10951000A8E500BFBC310020D03600201C2E002062
:10952000B03100201D2E0020FE1D0020DC38002060
:1095300095F83520D70725D5C80623D4A28B002A55
:1095400040F058813088013080B2FFF771F99BF804
:109550000020338842F010018BF800101BB1AB4B98
:1095600042F012021A7001F0C5F90123A383082307
:1095700084F82530002384F827301122A44B83F887
:109580003520D4E093060DD595F83A0095F83B20A8
:1095900042EA0022D9F800001044C9F800003088DF
:1095A000821A3280308848B1CF0607D49BF8002059
:1095B00042F002028BF80020FFF73AF995F83610D6
:1095C00095F83720208C02EB012292B29149824219
:1095D0000A8000D802B908809BF800300A889907F1
:1095E000E28300F007818C4B00221A8001F082F99F
:1095F000864B1A78884B02F0200000F0FF0128B15A
:1096000000221A8084F825201422B7E702F0100007
:1096100000F0FF0540B119800123A383042384F8DF
:10962000253084F82710A8E7198861B1D20748BF10
:10963000A583A28B32B9E28B914288BF1A801B8826
:10964000A38300E01A80002384F82730734B1B6843
:10965000C9F80030704B1B882BB1A38B1BB13C3376
:109660003380182207E0694B1B789F0740F1C280C6
:109670003C2333801022664B83F8352059E09BF859
:109680000030DD0740F1B680002384F825305F4BC1
:1096900010221A7001F02EF9ACE0308808B1FFF703
:1096A000C7F895F8352012F001020FD09BF8002082
:1096B000D00745BF072284F825200622002246BF96
:1096C00084F82620A28384F8252016E09BF8003039
:1096D000D9071BD5052384F82530A2838AE030887A
:1096E00008B1FFF7A5F895F83520D2070ED5072267
:1096F00084F82520002284F826200120FFF798F81E
:1097000010228BF8002001F0F5F80DE033885BB9EA
:1097100070E09BF80030DB076CD5072384F8253018
:10972000002384F8263065E0102385F835303C238B
:109730003380374B502283F83420237D344D06AFDD
:1097400085F83030637D05F1180E85F83130A37D42
:1097500085F83230E37D85F83330237E85F82C3070
:10976000637E85F82D30A37E85F82E30E37E85F864
:109770002F30238A2B85638A6B85294B1B680FCB7F
:1097800087E80F008EE80F0005F10800714600F031
:10979000A5F994F8253003F0100303F0FF022BB174
:1097A000002385F8373085F8363004E0402385F80B
:1097B000362085F83730164C0623A371194B1B79D8
:1097C000E3713388283B1A1263710023227184F8F5
:1097D0003B3084F83A30238707F017F9C0432087DD
:1097E0000B4B60221A7000225A705A80074B0022DD
:1097F0001A7007E00C4A002313700C4A3380137070
:10980000024A137013B0BDE8F08F00BFD0360020BD
:10981000BC310020FE1D0020DC380020AC310020CF
:10982000D8360020283A0020152E0020162E0020C1
:109830002DE9F3410446154D00910E4690461F4612
:109840000195234612480321202207F0EBF8012856
:109850002B4616D12A6804F11001107020462A68A0
:10986000023250F8044B884242F8044BF9D1186890
:10987000089B86744361099B80F813800777836196
:1098800000E0002002B0BDE8F08100BF240F0020FE
:10989000243B002070B506460B4D0C4B2B602C680A
:1098A0000B4B9C420BD2237833B1A27CA01C3146D7
:1098B000D20806F093F920B120342C60EFE70020A5
:1098C00070BD012070BD00BF240F0020243B00208C
:1098D000843B002013B5084C80220346009201947B
:1098E00006480321202207F09DF808B9206800E00F
:1098F000002002B010BD00BF280F0020403A002019
:1099000010B50C4A0C4B136013680C498B420DD2F6
:10991000197849B1411C02D0997C814204D148F2A6
:10992000FE015C888C4202D02033ECE7002318460D
:1099300010BD00BF280F0020403A0020A03A0020B0
:1099400037B504460F4D80230093019523460E48FA
:109950000521122207F066F801282B460ED12A684D
:1099600004F11001107020462A68023250F8044BAE
:10997000884242F8044BF9D1186800E0002003B097
:1099800030BD00BF200F0020C43A0020F7B50546C7
:10999000204C802300930E46174601941E48032155
:1099A00020222B4607F03EF8012830D12A462368B2
:1099B00005F1100118702368023352F8040B8A4233
:1099C00043F8040BF9D12068C77416B90123037555
:1099D00005E0002303753146183006F004FF2368C4
:1099E0000E480121997402234370FF220023027064
:1099F00043808380C38003818372C17202736B7B57
:109A00004373EB89C381FFF79BFF206800E00020D0
:109A100003B0F0BD280F0020403A0020021E0020B5
:109A200013B5084C80220346009201940648052194
:109A3000122206F0F7FF08B9206800E0002002B00B
:109A400010BD00BF200F0020C43A002038B50546E5
:109A5000C8B10D48022200244270FF230122C272C5
:109A600044808480C4800481847203730370EB7B20
:109A700043732B8AC381FFF7D3FF044A106008B1F8
:109A800006F0F4FF2C7038BD021E0020200F0020CD
:109A900010B50E4B0E4C236020680E4B98420ED230
:109AA00003784BB1037D3BB91830FDF7ABFC18B11F
:109AB000074B1868FFF7CAFF23682033EBE700F075
:109AC00063FBBDE81040044806F06BBE403A00203E
:109AD000280F0020A03A0020843B00202DE9F84305
