:020000040026D4
:10400000484C00208D422600430C2700410C27001D
:10401000410C2700410C2700410C27000000000044
:10402000000000000000000000000000410C27001C
:10403000410C270000000000410C2700814F2600A2
:10404000010D2700070D27000D0D2700130D270078
:1040500000000000E50C2700EB0C2700410C2700B6
:10406000410C2700000000000000000000000000DC
:104070000000000000000000410C270000000000CC
:104080000000000000000000410C2700410C270048
:10409000410C2700410C2700410C2700410C270050
:1040A000410C2700410C2700410C2700410C270040
:1040B000410C2700410C2700410C2700410C270030
:1040C000410C2700410C2700410C2700410C270020
:1040D000410C27000000000000000000000000006C
:1040E00000000000000000000000000000000000D0
:1040F0000000000000000000D1602600E160260002
:1041000000000000000000000000000000000000AF
:10411000000000000000000000000000000000009F
:10412000000000000000000000000000000000008F
:10413000000000000000000000000000000000007F
:10414000000000000000000000000000000000006F
:10415000000000000000000000000000000000005F
:10416000000000000000000000000000000000004F
:10417000000000000000000000000000000000003F
:10418000000000000000000000000000000000002F
:10419000000000000000000000000000000000001F
:1041A000000000000000000000000000000000000F
:1041B00000000000000000000000000000000000FF
:1041C00000000000000000000000000000000000EF
:1041D00000000000000000000000000000000000DF
:1041E00000000000000000000000000000000000CF
:1041F00000000000000000000000000000000000BF
:1042000000000000000000000000000000000000AE
:10421000000000000000000000000000000000009E
:10422000000000000000000000000000000000008E
:10423000000000000000000000000000000000007E
:10424000000000000000000000000000000000006E
:10425000000000000000000000000000000000005E
:10426000000000000000000000000000000000004E
:10427000410C2700595F2600A15F260055572600F4
:104280005D6326004D502600410C270008B5094B00
:10429000FF221A600848094A4824E3690849121AAB
:1042A00098470848084AA3690021121A984700F065
:1042B0000DF8FEE7B4200D40400000208C0A0020DD
:1042C000342E2700900A0020474400202DE9F047B3
:1042D00088B001F047F801F02FF901F097F800F0ED
:1042E000F5FD02F029F80CF091FE01F01DF900F047
:1042F00019FA20200CF0A8FC03F0E0FA01F01EF8F7
:10430000002000F02FFF012000F02CFFB149002019
:1043100000F0FEFF03F042FC0CF0EAFC08200CF079
:1043200093FCAD480CF019FDAC480CF016FD0020D4
:1043300003F056FC01F066FE0021A94803F064FB7F
:1043400003F018F80CF0C9FC03F08CF9C8200BF04E
:10435000ADFD0446A3490CF08DFA20460CF0E8FAB6
:10436000A14D02462146286802F03CFB01469F48C9
:1043700002F00AFC20460BF0A1FD9D480CF0EDFC7C
:10438000C8200BF093FD044603F062FB99490246F6
:10439000204602F009FC20460CF0CAFA21460246EB
:1043A000286802F01FFB0146904802F0EDFB204612
:1043B0000BF084FD03F04CFB01468E4802F0E4FB59
:1043C0008D480CF0CAFC00F0DDFC01F0FFF901F0B3
:1043D0001BFA012000F05AFB0AF006F9022000F057
:1043E00055FB0AF001F96846082101F0E3FF9DF84A
:1043F00007309DF8068004AE43EA08286B4603CBDD
:10440000802386E803008DF810303346DFF84892A9
:104410007A4C6D462060616003CBC9F80000784893
:10442000C9F80410CA4602F0AFFB0027E15D7548E9
:10443000013702F0A9FB072FF8D1704B7248D979E8
:1044400002F0A2FB714802F09FFB00271AF8071048
:104450006C48013702F098FB072FDFF8FC91F5D18B
:104460006B4F99F80710684802F08EFBFB6A4AF61A
:10447000CD3102209847FB6A414603209847FB6AEA
:104480001A2101209847082229467B6B0B20984768
:10449000604802F079FB604B604F18680CF05DFCDF
:1044A0005F4802F071FB5F4B4FF0FD0818680CF09D
:1044B00054FC5D4802F068FB5C4B18680CF04DFC46
:1044C0005B49236828460B60636800244B60D9F879
:1044D0000030ADF800803B60D9F80430ADF8024000
:1044E0007B60ADF80440ADF80640ADF80840ADF88B
:1044F0000A40ADF80C40ADF80E400CF0C8FE224664
:104500002146284605F0E0FD30463946ADF81080DA
:10451000ADF81240ADF81440ADF81640ADF81840B3
:10452000ADF81A40ADF81C40ADF81E400CF0AFFEDF
:1045300030462146224605F011FE3E4802F024FB9B
:104540002B19295D3C485A78023402F01DFB0E2CD1
:10455000F6D19DF80E109DF80F20384802F014FB9C
:10456000374802F011FB00243319315D32485A7884
:10457000023402F009FB0E2CF6D19DF81F209DF8A5
:104580001E102E4802F000FB0AF090F92D48002181
:1045900003F03AFA00212C4803F036FA02F078FFD3
:1045A00000F012FD294B01221860294B29481A708E
:1045B0000CF0F9FC00F0C8FE10200CF045FB00F0F8
:1045C000C9FE03F093F910F0FF0FF8D101F010FECF
:1045D000F5E700BF597B26005826270068262700EC
:1045E000C404002082262700BC3500209B2627001B
:1045F000AD262700C5262700DE2627003F440020E1
:10460000E3262700662727007027270001272700B9
:10461000703400202E272700C4242700F43C0020FB
:1046200035272700D02427003C272700F82427001F
:10463000CC35002043272700622727006C2727005E
:104640007627270058050020E40400208435002048
:10465000743500207C25270037440020F8B52D4C08
:10466000257820704540EA0618D500F0100000F0CB
:10467000FF07294E30B100F0A7FC284BD86001237A
:10468000F3700BE0F3784BB100F09EFC244A234911
:10469000D368C968F7705B1A1844D06015F0300F02
:1046A00017D023781C4F13F0300606D000F08CFC96
:1046B0001A4B186101233B710BE03B794BB100F0C1
:1046C00083FC174A1549136909693E715B1A18443E
:1046D0001061AB0619D523780F4D03F0200303F0CA
:1046E000FF0633B100F070FC0C4B586101236B7175
:1046F0000BE06B794BB100F067FC094A074953693D
:1047000049696E715B1A184450612078BDE8F84021
:1047100000F02AB84A290020743500208435002092
:104720003835002008B500F017F8024B00221A7047
:1047300008BD00BF4A290020024B1B781843FFF731
:104740008DBF00BF4A290020024B1B7823EA0000DE
:10475000FFF784BF4A290020024A136843F0380358
:104760001360704700C40D40014B1860704700BFD4
:10477000E0C00D40034B00221A60034B1B68002B66
:10478000FBD1704780A00D4020A00D40014BFF22BF
:104790001A60704780A00D40054B1860054A1168EB
:1047A000C806FBD411684907FCD51868C0B2704729
:1047B000088000400C80004070B508B949BB00E09B
:1047C0000AB9012070BD99B901460B1A934201DB69
:1047D000002070BD184C00232360184B1D68EE06A6
:1047E000FBD41D686D07FCD5236801F8013BECE79D
:1047F00000239342ECDACC5C0F4D2C600F4C266802
:10480000F606FBD426687607FCD52C68C454013321
:10481000EFE7002AD5D00846431A9342D8DA10F8B9
:10482000013B054C2360054B1D68EE06FBD41D685B
:104830006D07FCD52368EFE7088000400C8000403E
:1048400008B51A4A136823F01003136052F8203C8D
:1048500023F0100342F8203C52F81C3C23F01003D4
:1048600042F81C3C52F8183C23F0100342F8183C64
:104870000F4B1A6810B142F0100201E022F0100252
:104880001A600C4A04211368012043F010031360DE
:104890000A4600F05FFE012000F082FDBDE80840FE
:1048A00005480121042200F0DDBD00BF20A40D4019
:1048B0000CA40D4010A40D409D0C270008B51A4A09
:1048C000136823F00103136052F8203C23F0010326
:1048D00042F8203C52F81C3C23F0010342F81C3CF7
:1048E00052F8183C23F0010342F8183C0F4B1A68A9
:1048F00010B142F0010201E022F001021A600C4AFC
:1049000000211368012043F001031360042200F02A
:1049100021FE012000F044FDBDE8084005480121CA
:10492000002200F09FBD00BF20A40D400CA40D404C
:1049300010A40D409D0C270008B5074A04211368F8
:10494000012043F0100313600A4600F003FEBDE8A7
:104950000840012000F024BD10A40D40024A136855
:1049600023F010031360704710A40D4008B5074AE8
:1049700001201368002143F001031360042200F0BA
:10498000E9FDBDE80840012000F00ABD10A40D407B
:10499000024A136823F001031360704710A40D400E
:1049A000024B1868003018BF0120704740A00D402E
:1049B000014B1868704700BF04A00D4010B51B4A9A
:1049C00002201368072123F08003136052F8203C73
:1049D000FF2443F0800342F8203C082200F0BAFD97
:1049E000134B05211C60012000F054FE002000F054
:1049F000D1FD104A136823F0100313600E4B1968A1
:104A0000A3F5607321F01001C3F88013116821F041
:104A100001011160D3F8802322F00102C3F8802342
:104A20001C60064B1B68002BFBD010BD20B40D4052
:104A300000B20D4020A40D4000A40D4020A00D4068
:104A400070B50E4D0E4B2C460E4E01221A600FCC47
:104A50000FC60FCC0FC60FCC0FC694E8030086E834
:104A600003000FCD084E0FC60FCD0FC60FCD0FC6DA
:104A700094E8030086E8030070BD00BF44252700CA
:104A8000A40A0020A834002070340020012870B54A
:104A900002D1FFF7D5FF1DE002281BD10E4B0F4DB1
:104AA0000F4C00221A600FCC0FC50FCC0FC50FCCD6
:104AB0000FC594E8030085E803000A4DA4F1300611
:104AC0000FCE0FC50FCE0FC50FCE0FC594E8030054
:104AD00085E80300012070BDA40A0020A83400204E
:104AE000C42327007034002070B506880546BEB97F
:104AF0000D4CFFF7A5FF3146206807F03DFF00F0A1
:104B000063FA064600F060FA6FF050039B1BC34245
:104B1000F8D40220FFF7BAFF2068002107F02CFF2D
:104B200000232B80032070BDA00A0020044B1868CE
:104B300018B1431E5842584170470220704700BFC9
:104B4000A40A0020012802D1044B186070470228F3
:104B500003BF024B1860012000207047880400202A
:104B6000024B1868012818BF0220704788040020F3
:104B7000012810B5084C02D1FFF762FF08E00228B7
:104B800004D0FFF75DFF236A98470220FFF77EFFFE
:104B9000236A9847012010BD70340020012810B509
:104BA000084C02D1FFF74CFF08E0022804D0FFF7C1
:104BB00047FF636A98470220FFF768FF636A9847D8
:104BC000012010BD7034002008B5044B002118608E
:104BD000034802F019FF012008BD00BFA00A002011
:104BE0006804002008B50348002102F00DFF0120F1
:104BF00008BD00BF7804002020B1012805D1044B76
:104C000018787047034B186870470020704700BF42
:104C10004B29002020900D4010B5094A0020137840
:104C200001331370074B197802F0C2FEBDE8104043
:104C3000054B06481968064A002302F0D1BB00BFA5
:104C40004B2900203A420020D00A0020A80A002068
:104C5000194C2600812810B50C462AD0B0F5807F6B
:104C600039D0802839D102F021FE1D4B1D4A187021
:104C70001368002023F00803136052F8203C03213E
:104C800023F0080342F8203C52F81C3C23F00803B0
:104C900042F81C3C52F8183C43F0080342F8183C18
:104CA000042200F057FC10480021032200F0DAFB38
:104CB00013E00E4B1A6831B142F008021A6000206E
:104CC00000F06EFB05E022F008021A60084600F0D2
:104CD00073FB204610BD064B1960012010BD00BFBC
:104CE0003A42002020940D40F54C260010940D40CF
:104CF000D00A002008B50F480CF0A3F9C0B1082174
:104D00000C480CF08CF90C4B196861B10B4B00226C
:104D10001A700B4B0B481B681BB90B4A02F060FB67
:104D200001E002F09FFBBDE80840084802F0FEBF2A
:104D300008BD00BFC80A0020D00A00204B2900206F
:104D400020900D40A80A0020194C26001C232700A3
:104D5000044B1868C0F30720030904BF1030C0B229
:104D6000704700BF1C300D40054B1868C0F3C210DF
:104D700001289ABFC0F1020040034FF40040704781
:104D800014300D402DE9F04F8DB0FFF7E1FF384BA7
:104D90000446C8201D680BF089F84826B36807460A
:104DA00098470B90736898470A90FFF7DDFF83469A
:104DB00000F040FB099000F049FB089000F01CFB5C
:104DC000DDF828C009994FEA9C2301934FEA9B2301
:104DD000DFF8A8A00293089BC4F30718C5F34009A5
:104DE00004F00F0405F001050B9A05910693514656
:104DF000434607900094CDF80C900495384601F096
:104E0000D3FE38460BF094FD1A4B0246394618681B
:104E100001F0E8FD0146184801F0B6FE38460BF0F7
:104E20004DF8B36898477368834698470746FFF77D
:104E30009BFF064600F0FEFA099000F007FB089081
:104E400000F0DAFA099A089BBF0AB60A04920593A1
:104E5000069000970196CDF8089003955046594664
:104E60004246234601F090FE0DB0BDE8F08F00BF32
:104E70001C300D40BC3500209B262700C227270090
:104E8000F8B500F0A1F80F4B0024D3E900673A46CB
:104E9000B04238BF7A1C15460443C3E90045DFF829
:104EA00028E0DEE90001821B61EB070312196B4168
:104EB000CEE9002302F0B4FB18B1BDE8F84002F0DF
:104EC0003FBBF8BD900A0020980A00200F4B104A03
:104ED0001A6053F8042C42F0050243F8042C53F8EE
:104EE000042C42F0020243F8042C0A4A136843F0EF
:104EF00001031360084B00221A60042243F80C2CB3
:104F0000012243F8082C0F22DA62704714E000E017
:104F100047E8010008200D400C000340034BD3E993
:104F20000023100A40EA0360704700BF900A002087
:104F3000034BD3E90023D00B40EA4340704700BF46
:104F4000980A0020054B18601C3B1A6842F00102C9
:104F50001A601A68D207FCD4704700BF28000340CB
:104F600010B5064C236823F001032360FFF788FF88
:104F7000236843F00103236010BD00BF10E000E090
:104F800038B500F021F80A4C0A4D0123A370A8603F
:104F9000FFF776FFA3784BB100F016F8064AA96830
:104FA00093685B1A184400239060A37038BD00BF5B
:104FB000743500208435002038350020014B1868F6
:104FC000704700BFD40A0020074B084A1968043311
:104FD0001B681268120442EA0323054A0B43106857
:104FE00043EA0060704700BF40500D4048500D40FC
:104FF0004C500D4010B50446114B1B68DB07FBD528
:105000000BF07AFEFFF7E0FF231A062BD8BFC41D72
:105010000C4B220E1A60C4F3074243F8042CC4F36D
:10502000072243F8082CE2B243F80C2C0BF060FE88
:10503000054B91201C60BDE8104000F0B1B900BFE5
:1050400050500D404C500D40D40A002070B501F076
:1050500099F8FFF7B9FF0E4C01230E4EA3700E4BCB
:10506000B060002591201D6000F0B2F9912000F0A1
:10507000A3F902F001FDA37843B1FFF7A5FF074AAA
:10508000B1689368A5705B1A1844906070BD00BF4A
:105090007435002084350020D40A002038350020E3
:1050A0000023084A1068084A9958084205D01A4453
:1050B000D268906910F0800003D02C33582BF0D1C7
:1050C0000120704728200D402C232700F8B5064604
:1050D000FFF77AFF1E4A01231E4993702C2303FB1E
:1050E00006134FF6BF711C4DDC68A860236C616429
:1050F0009BB213F0500117460CD0A369DB0618D4FD
:10510000164B53F826301BB12068C0B29847F4E71D
:105110002368F2E713F4D06F0BD04FF4407323638E
:10512000FF236360E36AE162E362236B43F0010300
:105130002363BB7853B1FFF747FF094AA968936817
:105140005B1A1844024B906000229A70F8BD00BFB1
:10515000743500202C23270084350020D80A002035
:10516000383500202DE9F04F012885B0064600F2C1
:10517000BF802C244443604B1D1995F920A005F1F4
:105180002007BAF1000F9946C0F2B28095F922309B
:10519000002BC0F2AD80594801F0BEF8584A59F8CA
:1051A00004301168EC680B43136051686B6895F923
:1051B00021B00B4353609168AB6895F822800B4394
:1051C00093600023C4F8C83F2B690BEBCA021A6036
:1051D00095F823305FFA88FC01939DF8043060460F
:1051E00019462A7DCDF80CC0029300F0BDF9029B50
:1051F000DDF80CC019466046082200F0ABF94FFA02
:1052000088F840494FEA08389DF9042058F8010011
:10521000012303FA02F2024348F801204FEA0A3A56
:105220005AF8010003FA0BF202434AF80120502217
:10523000A263A26B95F8240042F4D062A26302221A
:1052400062634FF440722263AA696262EA69A262F1
:105250007022E26242B2002A0C4614DB95F9251056
:10526000294D41EAC20129607979120315594FB2DB
:10527000BB402B431351002200F06CF9234A136802
:1052800043F4004313602C2303FB069393F826504A
:1052900020336FB2002F1CDB93F807A0EDB25FFA4A
:1052A0008AF82846414601223F0300F05DF94FFA93
:1052B0008AFA3A59012303FA0AF313433B510822AD
:1052C0002846414600F046F9104A136843F48043EB
:1052D00013602C2303FB0696F26896F82800136BE4
:1052E00043F00103136305B0BDE8F04F00F058B878
:1052F00005B0BDE8F08F00BF2C232700A150260089
:1053000028200D4020940D4004410D4030D0004035
:1053100001289CBF014B43F820107047D80A002099
:10532000012808D8044B2C2202FB0030C3689A697C
:105330009206FCD4196070472C232700014B0022F1
:105340001A60704700500D40014B08221A607047E8
:1053500000500D40024BA0221A6050221A60704784
:1053600000500D40074A084B1A60084B80321A6003
:10537000074B80321A60074B80321A60064B074A8F
:105380001A60704700E100E0EC0A0020E00A00200B
:10539000E40A0020E80A002008ED00E000402600B2
:1053A000044B41091A6800F01F000123834042F8B2
:1053B00021307047EC0A0020044B41091A6800F0C4
:1053C0001F000123834042F821307047E00A00208B
:1053D000044B41091A6800F01F000123834042F882
:1053E00021307047E80A0020024B1868C0F3815052
:1053F000704700BF04200D4008B5FFF7F5FF024BD2
:1054000053F8200008BD00BF84232700054A064B3F
:105410001A60064B1A68064B1340B3F1807FF8D12F
:10542000704700BF0101020100200D4004200D4023
:1054300000000101034B04481B6803F007031841F7
:10544000704700BF04200D400048E801034B0448AA
:105450001B68C3F302231841704700BF04200D40AE
:105460000048E801024B02EBC10243F822007047FA
:10547000F00A0020F8B507460E46094D002405EB5A
:10548000411547FA04F3DB07E1B204D555F824309F
:105490000BB1304698470134082CF2D1F8BD00BF5B
:1054A000F00A00202DE9F74F019000F06BFEFFF7A6
:1054B0008BFD0199184E4FEA0139184F0123DFF88F
:1054C00064A009F18045B860B37005F55925D5F899
:1054D000188459F80A404FEAC10B24FA0BF448EA41
:1054E0000400C0B2E4B2FFF7C5FF04FA0BF45FFAA0
:1054F00088F3C5F81C3449F80A40B3784BB1FFF77C
:1055000063FD074AB96893685B1A184400239060EA
:10551000B37003B0BDE8F08F7435002084350020EF
:105520003835002018970D400248002180220BF0EA
:105530005FB800BFF00A0020034A044B1A60044B16
:10554000803A1A60704700BF80400D40740B002005
:10555000700B0020034B01EBC0011B6843F82120B6
:10556000704700BF740B0020034B01EBC0011B68A8
:1055700043F82120704700BF700B002001289FBF17
:10558000034901230A6883409CBF13430B607047A3
:1055900018200D402DE9F04F012887B0044671D83E
:1055A00018235C43394D2E1996F811804FFA88FC68
:1055B000BCF1000FCDF814C064DBFFF7DFFFB37C54
:1055C0002D5900275FFA83FB5FFA88F86F60404629
:1055D0005946327AC5F8C87F0493FFF7C5FFF47CBB
:1055E000327BE3B20093337D009801939DF8043041
:1055F00064B219460293FFF7B7FF96F815A096F824
:10560000169072684FFA8AF34FFA89F101EBC300E2
:10561000DDF814C0106003931D4A049B4FEA0C3C54
:105620005CF802004FFA83FE012303FA0EFE40EA03
:105630000E004CF8020024039DF9040054F802E027
:1056400003FA00F04EEA0000A05003988B400003DC
:10565000845859462343835040463A46FFF77AFF21
:10566000009802993A46FFF775FF504649463A4678
:10567000FFF770FF337C2B61C7232B606B6843F00F
:1056800002036B6007B0BDE8F08F00BF94232700D2
:1056900020940D4038B50B4A0403A35801258D40D2
:1056A00023EA0503A3500022FFF754FF064AA3583C
:1056B0002B43A35004F1804404F55924FF2344F8FC
:1056C000253038BD20940D4000940D400E2870B553
:1056D0000BD1164B164E1C6844F002051D60356850
:1056E00025F03F0343F001033360124E336823F08B
:1056F000FF031A431143014331600F4B1B681B0624
:10570000FBD50E4B0E4A1B6812680E2803F0FC03F3
:1057100043EA022308BF064A9BB204BF1560034A4E
:105720009BB208BF146018B270BD00BF34000144C2
:10573000F486084008700D4000700D400C700D405C
:1057400010700D40024B1868B0FA80F040097047A5
:1057500000B7084070B5FFF737FC104E104C01231E
:10576000B060104D8F20A370FFF732FE8F20FFF73F
:1057700023FE286818B102F05FF900232B60A3789C
:1057800053B1FFF721FC084AB16893685B1A1844CB
:10579000034B906000229A7070BD00BF84350020DA
:1057A00074350020780B002038350020064A136835
:1057B00043F002031360536843F00203536093689D
:1057C00043F002039360704748200D4007B50C4832
:1057D00000F0A2FDFFF7EAFF0A4B1A6842F002024E
:1057E0001A6000220192019A0F2A02DC019A01320A
:1057F000F8E71A6822F002021A6003B05DF804FBB1
:105800004557260054200D40064A136823F0020332
:105810001360536823F002035360936823F002037C
:105820009360704748200D40044B186800F0220038
:10583000A0F1200358425841704700BF4C860840F1
:10584000024B186800F04000704700BF4C860840CB
:1058500008B50B4B93F90020002A09DB094AED211A
:1058600011601160E32111601A7862F07F021A70F2
:10587000FFF7AAFB044BD861044B0120D87108BD87
:105880004C290020388808408435002074350020D9
:1058900038B505460C46134B1B689B07FBD4124BCF
:1058A00093F90030002B01DBFFF7D2FF0F4BEE2204
:1058B0001A60691E1A60A21C43F8102C21440220B1
:1058C00000F0B8FB013C0A4924012143022000F00A
:1058D000C3FB022000F0CAFB022000F0DFFB002027
:1058E00038BD00BF4C8608404C290020388808404D
:1058F00002C001C0044B1A6810B142F0010201E07D
:1059000022F001021A607047008608400B280DD172
:10591000082A0DD161B1074B013953F8042D01F864
:10592000012F054A9342F8D10020704701207047AB
:1059300002207047C8850840A88508400B280DD173
:10594000082A0DD161B1074B083111F8012D43F838
:10595000042F054A9342F8D1002070470120704778
:1059600002207047A4850840C485084070B52B4EBE
:10597000336813F0400308D0294D2B68DCB21B06B6
:1059800005D5284BED221A601A60002070BD042C4A
:10599000F7D9023C8C42F4DCE4B2032C1BD0011991
:1059A0000139032000F04EFB631E1F491B01032039
:1059B000194300F051FB032000F058FB032000F0D6
:1059C0006DFB032000F076FB0028FAD129682D68D2
:1059D0002806D6D506E02B6803702B6843702B6829
:1059E0008370F3E7493949B289B2042008F034FFE3
:1059F000032005F07F0108F02FFF33685A060BD50E
:105A0000064B1B681B0603D5084802F015F803E097
:105A1000044BED221A601A60204670BD4C86084087
:105A2000288808403888084002C0010C9C040020E7
:105A300010B5114B1B689B07FBD4104BED221A606D
:105A40001A600F4A12680AB1EF221A600D4A0E4C12
:105A5000137803F07F031370E37953B1FFF7B4FABF
:105A60000A4A0B49D369C9695B1A18440023D061FB
:105A7000E371012010BD00BF4C8608403888084003
:105A80002C8608404C290020743500203835002031
:105A90008435002038B5A0F10B04E3B20F2B054686
:105AA00013D80B4B1B6813F03F0302D0FFF7C0FF66
:105AB000012304EB8404074A0B3414600BB1FFF795
:105AC000C7FE054BE8B21D7000E0FF2040B238BDB4
:105AD000488608403C8608408A0A002038B50C46B3
:105AE000072855D8DFE800F0040F1B1F26543B4F52
:105AF000012903D1FFF7ACFE002038BD002949D1B0
:105B0000FFF796FFF8E7A1F10B030F2B42D8C8B2BD
:105B1000FFF7C0FF431C0CBF0320002038BD8CB230
:105B2000E2B21D4B02E08CB21C4BE2B2240A1A60B6
:105B30005C60E1E731F003052CD101F00100FFF7D3
:105B4000D9FE174B14F002001A681BBF284642F01A
:105B5000200222F020021A6008BF1A6038BD01F14D
:105B600018031F2B16D80D230E49DA0051F8330005
:105B7000844204DC8B181A790B4B1A60BCE713F1D2
:105B8000FF33F1D2B8E7CCB2084B49341C60B3E71D
:105B9000012038BD022038BDC8850840D0850840A6
:105BA00024860840FC232700408608405886084089
:105BB00038B50C4600296ED010286ED8DFE800F00A
:105BC000090F1A1C236D3344496D6D6D6D6062645D
:105BD0006900334B1B68003318BF012356E0314B7B
:105BE00005221B6803F07F030B3B93FBF2F30B339F
:105BF000DBB24BE02C4B00E02C4B1A68043B1B68DB
:105C000043EA022342E02A4B002008601A6824334A
:105C100002F001020A601B6813F0200337D042F043
:105C200002020A6038BD234B1A680023D2B222490F
:105C300001EBC3000079904202D851F8333025E0DF
:105C400001330E2BF3D11FE01C4B1B685BB2493BA9
:105C50001CE01B4B1B68990603D1FFF7F9FD0123DC
:105C600000E00023174A1268D207FBD5164A1568D0
:105C7000493DEDB20BB1FFF7DBFE6DB2256006E0EA
:105C80000B2303E01A2301E06FF0170323600020C9
:105C900038BD0723FAE7022038BD012038BD00BF18
:105CA0002C8608403C860840CC850840D4850840B6
:105CB0000086084040860840FC232700588608409C
:105CC00048860840648608406086084010B50B4B43
:105CD0001B68990603D1FFF7BBFD012300E00023F9
:105CE000074A1268D207FBD5064A1468C4F30014A9
:105CF0000BB1FFF79DFE204610BD00BF488608404F
:105D0000648608404C8608402DE9F843364B93F9E9
:105D10000030002B0EDBFFF757F90446FFF798FD24
:105D2000FFF752F96FF009031B1BC342F8D44FF081
:105D3000010801E04FF00008FFF7C8FF00284CD031
:105D40002A4E336813F0200447D1294D294FEB79AF
:105D500043B1FFF739F9284AF969D369EC715B1A45
:105D60001844D061FFF730F9244C0123AB71E923CB
:105D7000B8614FF00409236033689A0708D409F129
:105D8000FF3919F0FF0903D00620FFF7DBF8F3E72E
:105D900033689B0704D4EE2323602360012404E0CE
:105DA000306810F00200FBD10446AB7953B1FFF725
:105DB0000BF9114AB96993695B1A18440C4B90614D
:105DC00000229A71FFF700F90123F861EB71B8F135
:105DD000000F05D0FFF72CFE02E00220BDE8F8839B
:105DE0002046BDE8F88300BF4C2900204C860840BF
:105DF000743500208435002038350020388808406C
:105E0000F8B52E4E357815F0010554D12C4B0124F0
:105E10001C605C609C60A3F59323A3F51473F822C7
:105E20001A600922C3F89021152270331A6003F515
:105E30009B230B2203F59E731A60A3F59B23A3F506
:105E4000F07340221A601A687F2742F020021A601D
:105E5000D52243F81C5CDF62DA611A4B1878FFF731
:105E600019FE194A8D20136843F004031360FFF7ED
:105E700097FA164B8E201F60FFF792FA022000F06F
:105E800001F91349022000F0DDF8032000F0FAF8D0
:105E900003200F4900F0CEF829460E4801F0B4FD6A
:105EA000337823433370FFF78FF80B4BD8610B4BDC
:105EB0002046DC71F8BD0020F8BD00BF4C29002051
:105EC000A8200D408A0A00208C860840948608404D
:105ED000288808409C040020843500207435002068
:105EE00038B503880446FBB140F2C532934203D073
:105EF00000230380032038BD822918D108F052FC0A
:105F000008F0E6FB8021FFF731FD051E08DD0220C9
:105F1000FEF718FEA8B208F099FB0C4B1B699847D6
:105F20000B4B1A78520604D440F2C533238001206B
:105F300038BD00221A70074B1D68FFF779FDFFF787
:105F40005FFFAB06F0D0FFF783FCEDE7F8242700F6
:105F50004C2900204886084070B5FFF735F80B4EF5
:105F60000B4C0123B0600B48A37001F065FD0A4B98
:105F700000251D60A37843B1FFF726F8074AB168F2
:105F80009368A5705B1A1844906070BD843500203A
:105F9000743500209C0400203488084038350020E7
:105FA00070B5FFF711F8114B01221D46104C9A7085
:105FB000104AA06011680026042918BF0E490F4836
:105FC0001EBF0B7843F040030B70166001F034FDE8
:105FD000AB784BB1FEF7F8FF094AA16893685B1AEA
:105FE0001844024B90609E7070BD00BF7435002055
:105FF000843500202C8808404C2900209C04002077
:106000003835002010B5094C0021204640220AF006
:10601000EFFA074B01221A602E205C60FFF7C0F9EF
:10602000BDE810402F20FFF7BBB900BF00000020E3
:1060300004F00F4003289EBF014B00011950704728
:106040000000002003289EBF024B03EB00104160BC
:10605000704700BF0000002003289EBF024B03EBE7
:1060600000108160704700BF0000002003289FBF20
:10607000034901230A6883409CBF13430B607047A8
:1060800028F00F4003289FBF034901230A6883407B
:106090009CBF13430B60704720F00F4003289FBF45
:1060A000034901230A6883409CBF13430B60704778
:1060B00014F00F4003289FBF044B03EB00108068CF
:1060C00000F0070088BF0020704700BF00000020DC
:1060D000024B4FF0FF321A60704700BF04F50F40CB
:1060E000014B01221A6070474CF00F40094B1A68AF
:1060F00012F4801F1A46F9D1043B196821F480314B
:1061000019601168C903FCD41A6842F400321A609D
:10611000704700BF04200D4070B5164CFEF754FFC9
:106120002378154D3BB1154A296813685B1A03445F
:10613000136000232370124E68600123022031682F
:10614000637001F0D5F930BF022001F0B5F930607D
:10615000FEF73AFF63784BB1084A0749536849682C
:106160005B1A03445360034B00225A7001232860DA
:10617000237070BD74350020843500203835002030
:106180007C0B002070B5144B1A681C4612F0030FEC
:1061900021D0124B1A685101FBD41A685201FCD568
:1061A0000025FEF7DDFEFFF7A1FF2560022001F0CC
:1061B00083F90B4B1860FEF707FF0A4B0A495A7820
:1061C00032B10A4C4E6862685D70921B0244626094
:1061D000012208601A7070BD58200D4004200D4047
:1061E0007C0B0020743500208435002038350020D9
:1061F0002DE9F0413E4B1C6814F03F0413D13D4B98
:1062000053F8243023B1984768B10134052CF6D1F6
:10621000394D2B783BB1FEF7D1FE0446FEF7D4FE94
:10622000201A092803D8BDE8F041FFF775BF002CFC
:10623000F9D0324B1A6822F400321A60304A1168E1
:10624000C902FBD4196841F4803119601368DB037B
:10625000FCD5FEF7B9FE201A092803D8BDE8F041A5
:10626000FFF744BF6328274F02D92B78022B00D0B9
:106270000123254E3B60254C0220316801F038F99E
:10628000FEF7A2FE2378224D3BB1224A296813680B
:106290005B1A03441360002323700123686063705A
:1062A00001F07CFBB8B14FF00008FFF71FFFC7F803
:1062B0000080022001F000F93060FEF785FE63786F
:1062C00083B1144A696853685B1A034453600F4BE7
:1062D00083F8018006E0FEF771FE0028E3D030BFAE
:1062E000BDE8F081012328602370BDE8F08100BF84
:1062F00048860840800B00204D29002000200D40DA
:1063000004200D4058200D407C0B002074350020E7
:1063100084350020383500200023064A52F8231027
:10632000814206D011B942F8230070470133052B92
:10633000F3D17047800B0020054B00221A60054AFC
:10634000136843F004031360034B01221A70704773
:1063500058200D4010ED00E04D29002070B5FEF7EB
:1063600033FE104E104C0123B060104D9020A370EE
:10637000FFF72EF89020FFF71FF8286818B101F0FA
:106380005BFB00232B60A37853B1FEF71DFE084A88
:10639000B16893685B1A1844034B906000229A70AE
:1063A00070BD00BF8435002074350020940B0020A0
:1063B0003835002030B5184B1A78431E3AB9174AC1
:1063C0001278122A03D1164A12784B2A03D001F50B
:1063D0002011273117E04A0802F12814B4F1281FD0
:1063E00004D014F8015D03F8015FF7E701F520110F
:1063F00027310023934205DA11F801598418E55436
:106400000133F7E730BD074A914204D011F8012962
:1064100003F8012FF7E730BD2B0028002A002800E1
:106420002900280027002800164A70B515464FF0AD
:10643000FF340023B2F9066056B1967A0C32002E72
:1064400008BF1C460133052BF4D12346013417D075
:106450000C2404FB03F6AA1990804FF0FF30A851DA
:10646000C8880026D080D672497A04FB03530907F6
:1064700044BF0121D1724FF6FF711981104670BDE2
:10648000002070BDD40B0020F0B5224D06462F46EB
:106490008FB00024B5F90630A3B101A8B5F90410F6
:1064A0000AF0A2FC9DF80D3003F03603022B09D14F
:1064B00030460DF10E010AF0FFF818B90C2000FB70
:1064C000047025E00134052C05F10C05E2D1002013
:1064D00004B2214601A80AF087FC9DF80D5005F092
:1064E0003603022B0AD130460DF10E010AF0E4F812
:1064F00020B9204601A9FFF797FF09E02046BDF922
:106500000A102A460AF0A4FCB0F5C86FE0DB0020B0
:106510000FB0F0BDD40B00201F4B2DE9F041074612
:106520004FF6FF7498461E888EB035B2B5F5C86F29
:106530000EDA01A829460AF057FC9DF80D209307B2
:106540001DD423B2013307D1EB19B3F5C86F02DBB9
:106550004FF6FF701CE034462846BDF90A100AF0D9
:1065600077FC23B2DA1982420646DEDCB8F9002055
:1065700020469A4202BF084B3F191F8008E0284678
:10658000BDF90A100AF064FC4FF6FF740646CCE72A
:1065900000B20EB0BDE8F081961F002070B5044631
:1065A0008EB00E4601A8214615460AF01DFC9DF846
:1065B0000D3003F00602022A02D04FF0FF3041E016
:1065C00003F0200202F0FF01002AF6D176B99DF80F
:1065D0000D3001A843F0040321468DF80D300AF078
:1065E0002FFC194A0023137055B916E01B07EED58E
:1065F000BDF904000A46FFF7D1FF0028E7DADCE71F
:10660000124A1A44516829B1B1F90410A14204BFD9
:10661000002111720C333C2BF2D10D4B03F13C01E4
:10662000B3F904200C33A24201BF4FF6FF7223F8E6
:10663000082C002203F8022C08BF23F8062C8B42FA
:10664000EED100200EB070BD4F290020980B002025
:10665000D40B00202DE9F04F95B0019088463AB157
:106660004046FFF759FF411C044640F0D98004E042
:10667000FFF70AFF0028F3D0D0E0794A137802929E
:10668000002B40F0CB809A46082600230593ADF8F6
:106690001830DFF8D4B1734BBAF1000F03D1ABF867
:1066A00000A083F800A01FFA8AF91D784FEAC907F5
:1066B000BFB25DB1BBF800502BB2072B16DD08232B
:1066C000ADF81430684B083D1D806BE0BBF800400E
:1066D00023B2072B0BDD0823083CA4B2ADF816301B
:1066E000614BA2B2072C1A805DD95BE00024BBF895
:1066F00000303B449BB219B232B291422ADA07A869
:1067000003930AF071FB5748002202709DF8252080
:10671000039B02F00601022902F0200109D141B9D0
:1067200001220270BDF82220134415449BB2ADB281
:10673000E1E719B101339BB2013406E0520706D5F7
:10674000BDF8222013449BB21444A4B2D3E7F31A39
:106750009BB200E00023A9B2A0B20A18083A1A447A
:1067600092B20FFA82FEBEF1000FABF80020DFF804
:10677000F4C00BDD9CF800B0BBF1000F03D0C0F1FA
:106780000805ADB202E0C1F10804A4B2ADF81830BA
:106790009CF80030ADF81450ADF8164013B9BEF1B6
:1067A000070F00DD0022BDF91430002B25DCBDF9F8
:1067B0001630002B21DD2D4BB9B2B3F9004008B2E1
:1067C000844214B2C8BF1980002C13DD07A8002131
:1067D000322209F00DFF22238DF82530002507F124
:1067E0000801294407A809B201350AF029FB2BB298
:1067F000A342F4DB48460AF038FB0AF1010A0836E6
:10680000BAF1C80FB6B27FF440AF4046FFF784FE3E
:10681000431C044604D1029A0123137000201BE09C
:106820000021322207A809F0E3FE24B201992722B1
:106830000DF126000AF0AAF8022307A82146ADF8B8
:1068400022808DF825300AF0FBFA204607A9FFF7D1
:10685000EBFD08B10023036015B0BDE8F08F00BF69
:106860004F2900204E290020941F0020961F002051
:106870002DE9F84381460D460024234E4FF00C08C5
:1068800008FB046898F808304BB988F80830484687
:10689000FFF7FAFD0746C8F80400B0B906E0013476
:1068A000052CEAD14FF0FF30BDE8F88305F0030373
:1068B000012BF7D0484608210122FFF7CBFEC8F88C
:1068C00004000028EED0076007E00368013304D11C
:1068D000B0F904000AF08CFA38600C2303FB046260
:1068E000117A6343294315F00405117218BF5268E9
:1068F000204618BF1568F2185268F550937A013394
:106900009372BDE8F88300BF980B002004280CD8D0
:10691000064B0C2202FB0030037A33B1416800229F
:1069200002728B7A013B8B7242607047980B002099
:10693000042870B525D80C244443134B1E19357A0E
:10694000FDB142B1022A02D17268126802E0012A46
:1069500017D11A591144002913DB0C2202FB003213
:106960005268B2F90640B1EB042F0ADC14688C427D
:1069700002DAAC0705D511600C22504319500846C5
:1069800070BD4FF0FF3070BD980B00200428F8B5A3
:106990000646144621D80C234343114DEA18177AB2
:1069A000DFB1F80719D55768EA583B68A018984234
:1069B00088BF9C1AFB7ADB070DD4B7F9043032325A
:1069C000084602EB032221460AF0C8FA0C20704365
:1069D0002B5823442B502046F8BD4FF0FF30F8BD14
:1069E000980B00202DE9F04F9FB0042800AF80469F
:1069F000B960144602D94FF0FF30BFE0614D0C235F
:106A000003FB00531A7A002AF5D09207F3D55E688B
:106A10000C2303FB08F305EB0309EB58B6F906104A
:106A200003F132022244B2EB012F40F29080B6F91A
:106A300004A007F1100051460AF0D6F907F11A0038
:106A40000121FFF715FF061ED5DBB7F9161007F178
:106A50001A00490009B20122FFF7FCFD8346002815
:106A600052D04FF00009BA8AC7F80CD0002A08BFEC
:106A70004FF48072D11D21F00701ADEB010D3046BE
:106A80006946FFF783FF031E0BDA00210A46BBF9B4
:106A90000400FFF783FD3046FFF738FFD7F80CD02E
:106AA000A9E70BD0BBF90420194609EB022268467E
:106AB00032327B600AF0EBF97B689944D7F80CD04E
:106AC000002BD0D12F4A02F13C00117A59B1516804
:106AD000B1F90410514501BFC2F804B09BF80A1087
:106AE00001318BF80A100C328242EED1012150465E
:106AF0000022FFF753FD0028BBF9041008DA08460E
:106B000000210A46FFF74AFD3046FFF7FFFE72E715
:106B100007F144000AF068F9BA8A07F14400A7F8BF
:106B200048207A8ABBF90410A7F846200AF088F9B1
:106B30009BF80B20CBF8009022F001028BF80B2081
:106B40003046FFF7E3FE0C2303FB08535FE7326890
:106B50009342FFF650AFB6F90420B86803EB022267
:106B6000323221460AF093F92046D9F80030234406
:106B7000C9F8003032689342C8BF33607C37BD46E5
:106B8000BDE8F08F980B00200FB407B504AA52F8A7
:106B9000041B0448019200F039F803B05DF804EBDF
:106BA00004B07047AC0400200EB43FB5094B07AAEF
:106BB00052F8041B0190049304A801AB03920593BF
:106BC00000F024F8019B00221A7006B05DF804EB77
:106BD00003B07047910F270070B505460C46102C86
:106BE00007D92B68686808491022984750B9103CAB
:106BF000F5E734B12B6868682246BDE87040024969
:106C00001847204670BD00BFF02827002DE9F04F3F
:106C100080468FB0069107920026069B1B78002BBA
:106C200000F05F83069B1C4613F8012B1AB9069BE4
:106C30009C4203D10FE0252AF5D1F8E7069BD8F84E
:106C40000400E51A0699D8F800302A46984700282B
:106C500040F02A832E442378002B00F0428363788F
:106C6000611C002B00F03D8300240A4611F8013B13
:106C70002B2B11D006D8202B11D0232B12D144F06E
:106C80000804F2E72D2B04D0302B0BD144F0100474
:106C9000EBE744F00104E8E744F00604E5E744F0DC
:106CA0000204E2E7A3F1310108290DD813460025BB
:106CB0001A4613F8011BA1F13000092811D80A2245
:106CC00002FB0515303DF3E72A2B09D1079B013262
:106CD0001D68191D002D0791B8BF44F0010400E0A4
:106CE000002513782E2B1CD15178531CA1F13000B4
:106CF00009280ED8194600270A780B46A2F1300061
:106D0000092801F101010FD80A2303FB0727303FAF
:106D1000F2E72A2906D1931C079A111D07911768DB
:106D200002E013464FF0FF371A786C2A09D15A78DF
:106D30006C2A02D144F080040AE0013344F060047C
:106D40000BE0682A09D15A78682A03D144F020045C
:106D5000023302E0013344F040041A78642A3CD044
:106D60001FD8462A48D00DD8252A5AD003D8002A41
:106D700000F0B78257E0412A4AD0452A53D144F463
:106D8000424450E0582A31D004D8472A4BD144F429
:106D9000A13448E0612A38D0632A44D144F4A06485
:106DA00041E06E2A3AD007D8662A22D027D3672A34
:106DB00028D0692A11D036E0732A2CD006D86F2A41
:106DC00011D0702A2FD144F440742CE0752A07D0DA
:106DD000782A28D144F4C85425E044F4245422E00D
:106DE00044F410641FE044F488541CE044F4B244BA
:106DF00019E044F4007416E044F4844413E044F4CD
:106E0000024410E044F481340DE044F4C1340AE05B
:106E100044F4E13407E044F4806404E044F4E064C2
:106E200001E044F4C0640133069304F4E063B3F575
:106E3000806F00F0AA8116D8B3F5807F2BD0B3F510
:106E4000407F7FF4EAAE079BA04914F4804F03F122
:106E500004029F4818BF08460DF1330107920F4600
:106E60001A680023C5E1B3F5C06F08D0B3F5E06F31
:106E700000F03182B3F5A06F7FF4CFAE00E2D8F816
:106E80000030D8F80400934901229847002840F0C8
:106E90000B820136C1E6002FACBF24F0100401279D
:106EA00014F40053039304F0E00337D0402B17D0C1
:106EB00008D8DBB1202B2AD1079B1A1D079293F922
:106EC000002017E0602B11D0802B20D1079B0733C7
:106ED00023F0070303F108020792D3E900230AE035
:106EE000079B1A1D0792B3F9002003E0079B1A1DA8
:106EF00007921A68D317002A73F1000109DA524287
:106F000063EB4303CDE900234FF0010933E0002296
:106F10000023CDE900234FF000092CE0402B16D0D0
:106F200007D8CBB1202B20D1079B1A1D07921A78C6
:106F3000EEE7602B10D0802B17D1079B073323F08F
:106F4000070303F108020792D3E90023E1E7079B57
:106F50001A1D07921A88DBE7079B00211A1D07926A
:106F60001B681846CDE90001D5E700220023CDE9D2
:106F700000234FF0000904F4C053B3F5805F0CD038
:106F8000B3F5C05F33D0B3F5006F4FD1DDE9002317
:106F90000DF1360ACDE9042304E0DDE900230DF10B
:106FA000360A15E0DDE9042313433AD0DDE9040194
:106FB0000A22002308F0A2FCDDE9040130320AF8BD
:106FC000012D00230A2208F099FCCDE90401E9E72C
:106FD00052EA030125D002F0070130310AF8011D01
:106FE000D10841EA4371D8080A460346F0E7384B16
:106FF00014F4804F0DF1360A344908BF1946DDE913
:10700000002352EA03000CD002F00F00085C4FEAA4
:10701000131E0AF8010D100940EA03700246734678
:10702000EFE70DF1360BCAEB0B0B03E00DF1360A5F
:107030004FF0000B41F6080241F208035F4502EAF7
:1070400004028CBFCBEB070700279A4202D1002F26
:1070500008BF012741F608018A4207EB0B030DD157
:10706000DDE9000150EA010208D01B4914F4804F09
:107070001A4A4FF0020C18BF0A4602E04FF0000C0B
:1070800062460399A1B1B9F1000F0AD104F00601DB
:1070900002290AD00629124904BF4FF0010C0A4602
:1070A00006E04FF0010C0F4A02E00F4A4FF0010CCE
:1070B00063449D428CBFED1A002514F0010922D1D2
:1070C000E30613D52F444D461DE000BFBD28270021
:1070D000CE282700EE282700E2282700DF282700F7
:1070E000E52827005F2A27003A272700404629463F
:1070F000CDF80CC00092FFF76FFD009ADDF80CC0D0
:10710000002840F0D180BCF1000F0DD01146D8F816
:1071100000306246D8F80400CDF800C09847DDF88A
:1071200000C0002840F0C0803C465E44102CD8F8D7
:1071300000300DD9D8F804006C491022CDF800C0F9
:107140009847002840F0B080103CDDF800C0EDE723
:107150005CB1D8F8040065492246CDF800C09847D4
:10716000DDF800C0002840F09F80D8F80030D8F843
:10717000040051465A4666449847002840F09480DF
:107180003E44B9F1000F79D073E0079BD3F800A01B
:107190001A1D0792BAF1000F09D05346994699F883
:1071A00000200133002AF9D1CAEB090903E0DFF816
:1071B00040A14FF00609002F02DBB94528BFB946B0
:1071C0004D458CBFC9EB0505002514F0010405D120
:1071D00040462946FFF700FD002865D1D8F8003069
:1071E000D8F8040051464A46984700285CD14E44DE
:1071F0003EE052EA030E0ED002F00F0E10F80EE041
:107200004FEA131C01F801ED4FEA121E4EEA037E0D
:1072100072466346EDE70B467F1A01BF3022012715
:1072200001F1FF3301F8012C03377822BD4203F846
:10723000012C4FF0300203F8022C88BFED1B4FF0F9
:10724000230298BF002514F00104A3F1030903F8F9
:10725000032C04D140462946FFF7BEFC20BBD8F8DA
:107260000030D8F8040049463A469847E0B93E4411
:1072700024B140462946FFF7AFFCA8B92E44CCE420
:10728000079B012D03F104021B688CBF05F1FF353C
:10729000002514F0010407928DF8203008D14046F3
:1072A0002946FFF799FC10B14FF0FF301AE02E4449
:1072B000D8F80030D8F8040008A90122984700281F
:1072C000F2D16F1C2CB140462946FFF785FC0028FF
:1072D000EAD13E44A1E4079B1A1D1B6807921E6079
:1072E0009BE430460FB0BDE8F08F00BFAD2827000B
:1072F000E7282700F8B50388064615462BB14A2B28
:1073000015D0002303800320F8BD174809F0AAFE1A
:1073100004462CB1201DA16809F04FFE2468F8E74F
:10732000124B01221A704A2333800120F8BD8829AC
:10733000FBD10D4809F096FE0446002CF3D0231D26
:107340009D420ED10848214609F096FE084B62691D
:107350001F681A60A2691D460AB1E06990472F6054
:10736000E1E72468E9E700BF100C00205029002065
:10737000280C002010B5064B002406481C7009F0AC
:107380006EFE2146BDE81040034800F03DBB00BF43
:1073900050290020100C0020B404002070B50446D1
:1073A000E3610B4B049D1B786561A26143B1094DFC
:1073B000094B2E68201D2B6009F0FFFD2E6000E0B8
:1073C000A1602146BDE87040044809F069BE00BFD5
:1073D00050290020280C0020B4040020100C0020AC
:1073E00013B5034C24680094FFF7D8FF02B010BD1A
:1073F000280C002070B5094B05461B783BB1084CA2
:10740000084B26680430236009F0E0FD2660294619
:10741000BDE87040044809F043BE00BF5029002079
:10742000280C0020B4040020100C002070B5094B7B
:1074300005461B783BB1084C084B26680430236096
:1074400009F0CDFD26602946BDE87040044809F0EA
:1074500027BE00BF50290020280C0020B4040020C3
:10746000100C002010B5084B04461B781BB10430EB
:1074700000F0DEF801E0C36003612146BDE8104082
:10748000024809F0F9BD00BF50290020100C00206F
:1074900000230649002241F82320054941F8232012
:1074A00004495A5401330E2BF3D170478435002020
:1074B000383500207435002038B50A4B04461B5C73
:1074C000094D63B1FDF780FD084A55F8243052F8A4
:1074D000241042F824005B1A034445F8243055F880
:1074E000240038BD74350020383500208435002054
:1074F000014B43F8201070473835002010B50E4C72
:10750000236813B90D4A136010BDFDF707FD21680C
:1075100091E80C001A44131A8A6842B192E81200EA
:107520002144091A8B4228BF0B469268F5E718449C
:10753000024B186010BD00BF140C0020180C002076
:10754000014800F079BA00BFC4040020F8B50388F0
:1075500005462BB1592B09D0002303800320F8BD29
:107560001E4A136059232B800120F8BD872920D0A3
:107570008229F7D1194F00263C68002CF2D0204612
:1075800009F05FFD90B1E0688821224600F010FA12
:1075900050B9E060A3680EB1B36000E03B60002327
:1075A000A360FFF7ABFFE5E7FFF7CAFF2646A46835
:1075B000E3E70A490B680BB90B60D3E7D868904240
:1075C00001D19B68F7E70B6099680029CAD0C868A9
:1075D00090420ABF89680B469960F5E7140C0020B9
:1075E00010B50446FFF7ACFFE3680B4A4BB11368D4
:1075F0003BB1A34203D1094A1268DA6007E09B68F5
:10760000F6E7064B1B68E36013681460A360BDE8EF
:107610001040FFF773BF00BF140C0020280C00209F
:10762000024B1868003018BF01207047140C00206E
:1076300010B50B4A04461368984206D1836813605C
:1076400008E09A68A24203D01346002BF9D103E068
:10765000A2689A60FFF752FF0023A360E36010BDA9
:10766000140C0020384B30B500241C60374BB7B0E9
:107670001C60374B01251C60364B29461C60364B7D
:107680002A461C60354B36481C60364B1C60364B16
:107690001C60364B1C60364B1C60364B1C60364BF6
:1076A0001C60364B1C60364B1C60364B1C60364BE6
:1076B0001C60364B1C60364B1C6002238DE81800A2
:1076C00003952B460294FFF75FFA324A214632486F
:1076D000FFF75AFA3C213148FFF756FA294630485D
:1076E000FFF7C6F82F4D28602F4809F036FB2B68AE
:1076F000A34201DA2D4815E02D4809F02EFB214662
:1077000000222868FFF714F9286804A9C822FFF7A7
:107710003DF9002804F1C80411DC224B1868FFF77A
:10772000F5F8244809F019FB234809F016FB062157
:107730001B48FFF79DF8214B186037B030BD04A9F6
:107740001F48FFF721FADAE7F4340020E83400207C
:10775000F8340020343500201C350020F03400209F
:107760001B2927002035002004350020003500208B
:10777000303500200C350020EC340020E0340020AF
:10778000103500201435002024350020FC34002062
:107790002835002000CA9A3BA4292700D9292700B0
:1077A000E52927001C0C0020F1292700032A2700C7
:1077B0001C2A2700612A2700A72A2700BC350020A1
:1077C000A42A270038B5836804460D469BB10A48B1
:1077D00004600220A07304F10C00984702380128CD
:1077E00001D9832D05D120462146BDE8384000F05F
:1077F00005B80123A37338BD280C00202DE9F843F8
:107800001C4A0446156889462B4690461A4E37682E
:10781000A34204D00BB11B68FAE7BDE8F88334B388
:10782000A37BABB10023A37345B1AC4204D028467F
:107830008721224609F0E4FB2D68F5E7A3683BB1F8
:107840004C4505D0346004F10C0083212A4698474A
:10785000D8F800309C4203D12268064B05E013465D
:1078600023B11A68A242FAD122681A603760BDE8D3
:10787000F88300BF2C0C0020280C002010B5094B09
:1078800000221A70084B1C685CB1E37B3BB10123FA
:107890000022A373E27320468221FFF793FF24683E
:1078A000F2E710BD542900202C0C0020024B187860
:1078B000421C1A70704700BF55290020064B8A22CF
:1078C0001A70064A00231370054A1370054A1360A4
:1078D000054A1360704700BF552900205129002038
:1078E000532900202C0C0020280C00202DE9F04109
:1078F000214E33780BB1FFF7C1FF204D2C78002CBF
:1079000034D0DFF88CE00C229EF800301C495A433A
:1079100088181C4F895CDFF87C804268DFF878C0EB
:107920008068013303F01F03013C3970C8F8002060
:10793000CCF800008EF800302C7088B9124C134B34
:107940001B68236023688BB133780BB1FFF796FF78
:1079500020683978D8F8002009F052FB2368EFE757
:10796000812904BF0123837309F04AFB3378287807
:107970001844BDE8F08100BF54290020532900209D
:10798000340C002056290020300C00202C0C002044
:1079900051290020200C0020240C0020024A034B17
:1079A00010781B7818447047532900205429002070
:1079B000F0B50C4E3478202C11D00B4B0B4D1B78AE
:1079C0000B4F234403F01F032B700C256B43013432
:1079D000FD18A860F9546A6034700020F0BD0120E1
:1079E000F0BD00BF5329002051290020522900205A
:1079F000340C002038B5034C256809F001FB2560E4
:107A000038BD00BF280C002010B50A4609490C6893
:107A1000234683420DD00BB11B68FAE748B10460DE
:107A200008600121817383818121BDE81040FFF747
:107A3000E1BF10BD2C0C002038B1837B013B012B32
:107A40009FBF024A0123C37313707047542900205B
:107A500006480023064A074952F8232051F823100C
:107A600001330E2B01FB1200F4D1704700CA9A3B80
:107A70008C2427003835002010B5084C206858B1F8
:107A800000232360816843689847236823B1BDE8D9
:107A900010401868FDF7AEBA10BD00BFB40D00204D
:107AA00010B50446FDF744FA94E80C001344C01ADC
:107AB000024B98428CBF0020012010BDFEFFFF7FCB
:107AC00038B505880446672D09D0792D2ED0002DB4
:107AD00032D1FFF7EBFE1B4B18701B4B1D601B4890
:107AE00009F071FB431C01D167231DE00A28164BE6
:107AF00007D01A687E2AF2DC511C1960144B985486
:107B0000EDE7196800254A1C1A60114A0D4B5554BF
:107B100028461978FFF74CFF0E4B852118682A4636
:107B2000FFF746FF20B97923238009E0852907D193
:107B3000054B00221A60D2E700230380032038BDE2
:107B4000012038BD3F420020C00D0020B80D0020AC
:107B5000D8290020280C00200D2810B5014615D08A
:107B60000B4C23782BB90B4809F019FB48B90123BA
:107B700006E00A2805D1074809F011FB08B10023E7
:107B800023700548FFF758FF012010BD002010BDED
:107B9000D7290020B80D0020D404002008B50548DE
:107BA0000549802209F0F4FABDE8084003480021A5
:107BB000FFF72ABFB80D002057290020D404002069
:107BC000054A136843F004031360044B1B68906973
:107BD00043EA002080B2704700700D4014700D40E1
:107BE000174A136823F00C031360164B01221A6026
:107BF0001A68012AFCD1144B08221A60E322C3F848
:107C0000142203F505731946104B1B68DB07FBD5DF
:107C1000102000230E4A0138126802F0010243EAE4
:107C200002034FEA43039BB2F4D1002BF0D0094A80
:107C3000180A03F0FE0310601360EF230B60704717
:107C400000700D40A8200D4024860840648608403E
:107C50009C86084014700D4070B505880446772D49
:107C600030D07E2D3FD0002D4DD1FFF71FFE294B88
:107C70001870294B1D601D462B68284A264E52F865
:107C800023204AB126480021C15493688020984798
:107C9000336801333360EFE7224A1370772320E023
:107CA0001F4AD256002A12DB1B4A136801331360A5
:107CB000194B1C4A1B6812789342F1DB1A4B1B6864
:107CC000002BEBD0184A00231360134AEFE7114A48
:107CD00000201178114A52F82320FFF769FE30B9CD
:107CE0007E23238013E00B4B1B788B420FD10A4B72
:107CF0000B491A688B5C03F07F038B540A4A1368A4
:107D000001331360D0E700230380032070BD0120FE
:107D100070BD00BF40420020C40D00208C04002034
:107D20003B420020582A0020C80D0020094B1A7839
:107D30000023934204DA084951F82310814207D105
:107D400006490748CA5C62F07F02CA54FFF774BE56
:107D50000133EEE7582A00208C0400203B4200202B
:107D6000E40400200C4AB82303FB0022002330B5B2
:107D700053821A46094CE1188D782DB11C5D84425E
:107D800002BF00248C70013240F24C5171338B429F
:107D9000F0D1104630BD00BFE80D0020642A00205D
:107DA00008B5064803F01CF9054B01221A70FD21A5
:107DB00000225A709970DA7008BD00BF0980260051
:107DC0005A2A002010B513780446087A83F002037B
:107DD00098421DD1487A5378984219D1887A93787D
:107DE000984215D1C87AD378984211D1087B13797B
:107DF00098420DD1487B5379984209D1887B937979
:107E0000984205D1C87BD379984201D103201BE069
:107E10000B890F4A6BB94B89B3F57F4F09D18B8919
:107E2000FE2B06D11368C989022023F8021B1360B8
:107E30000AE0136851F8080F083343F8080C486843
:107E400043F8040C13600120A040C0B210BD00BF75
:107E5000D40D002010B50F4C0220A17906F0FCFCD7
:107E6000A379112B01D0062B05D1238D618D994269
:107E7000A8BF194608E03A2B05BF94F8281094F8DB
:107E80002930002143EA01210120BDE8104006F01D
:107E9000E3BC00BFD435002010B5084C0146237860
:107EA000012B08D1A01C082208F096FA00280CBF6C
:107EB0002046002010BD002010BD00BF5A2A00201F
:107EC00008B50146102006F0D5FC044B04489B6819
:107ED00000219847BDE80840FDF73CBA1825270067
:107EE000E57E260010B508460C46114602F00AFC55
:107EF000044B1B6813B19B6820469847024B1C60DB
:107F000010BD00BFE40D0020E00D0020F8B50546CF
:107F10000023114A712404FB0324A278B2B96170D2
:107F200006F09EFB26460D4F0D4A3B7806F8035B94
:107F3000C01A1568A0701D4406F092FB3A782946D5
:107F4000821A304608F07AFAA078F8BD01330C2B7B
:107F5000DFD14FF0FF30F8BD642A0020B02F0020A1
:107F6000D80D00202DE9F8434FEA1219B9F10F0F8F
:107F700080461D4602F00F040BD00F2C05D1B9F13D
:107F8000000F0AD11024274619E0B9F1000F09D0DB
:107F900004E00F2C4FF0100900D1102440464A464F
:107FA00008F04CFA09EB04020F2A274606DC08EB1E
:107FB00009000021C2F1100208F01AFBBCB1114DFA
:107FC000C7F110002E6840443146224608F036FAC8
:107FD000022C08D1B9F10A0F9FBFFF2388F80B309C
:107FE000FE2388F80C3034442C60BDE8F883B9F1E6
:107FF000000F05D040462946BDE8F84309F047B9CF
:10800000BDE8F883D40D00202DE9F04F8E4E8F4D42
:10801000002387B033702B70044606F0C3FB06F0D4
:1080200057FB8B4A8B4B126818608DE860009946AD
:108030000AB1FFF70FFF04A80CB9874900E02146F9
:108040000AF04EF8854B864E1A8803933E2A40F27A
:108050000182D9F800B0834D0BF102032B60009B25
:1080600006F1180093F80080002308F102080BF8CD
:108070000830FFF711FF20B906F10800FFF70CFFE9
:1080800020B10BF103032B60802400E004467278DA
:108090003178130943EA0113DBB2980840EA8313ED
:1080A000DBB212F00F0FDEB26E4F01F00F010CD1F8
:1080B0006B48408848B911B912F0F00F1FD03B68E7
:1080C00003F8016B3B6070261AE079B912F0F00FEB
:1080D0000CD1296823F03F031A43634B0A701B88B5
:1080E000033121F8023C6826296009E05C4A2B68CC
:1080F0001068186003F8046B2B60602600E0782697
:10810000574B9A790293112A08BF46F00406730769
:108110005EBF3B6803F8012B3B60029BDB79402B81
:1081200006D0FF2B07D0012B08D146F0010609E04D
:1081300046F0020606E046F0030603E03A6802F85D
:10814000013B3A60029A464B128982B95A8972B948
:108150009A8962B9DA8952B91A8A42B95A8A32B905
:108160009A8A22B9DB8A13B944F0400013E03F48F1
:10817000FFF792FE3E4B186078B142781BF808304A
:10818000042043EA02130BF808303849394AFFF754
:1081900019FE60F03F00C4B227E0029B30491A8903
:1081A00048F2FE039A420CD14B8B53B98B8B43B9E7
:1081B000CB8B33B9042008312E4AFFF703FE20434E
:1081C000E9E73A68DFF8A4C096460CF1100A634666
:1081D00003CB5345CEF80000CEF804109C460EF1B8
:1081E000080EF4D11F4B10321A60DFF874A09AF811
:1081F0001830FF2B40F08A809AF8192044F0080EBE
:10820000022A5FFA8EFE37D1BAF81A30A3BBBAF849
:108210001C308BBBBAF81E3073BBBAF820305BBB86
:10822000BAF8223043BBBAF824302BBB9AF8263078
:1082300013BB3B689AF8272044F00B0003F8012B8E
:10824000C4B23B609FE000BF592A0020B02F00203D
:10825000E40D0020D80D0020482C2700C035002058
:10826000D4350020D40D0020D6350020DC35002088
:10827000CC0D0020CC3500209B4B588B194688BB79
:10828000988B78BBD88BA8B9188C98B9588C88B9BA
:1082900093F8240070B9296844F00A00C4B2084673
:1082A00000F8012B33F8252F043121F8032C9B789B
:1082B000837015E0C98B8C4BA1B9198C91B993F8D7
:1082C000221079B9296844F00900C4B2084600F8C0
:1082D000012B53F8232F063141F8052C1B7903712C
:1082E000296050E0814ADFF818C214680CF11008C8
:1082F0002746634603CB4345386079609C4607F1C7
:108300000807F6D11034146074463CE00AF11800F6
:10831000FFF7C2FD764B186050B143781BF8081088
:1083200044F004040B43E4B20BF8083000200EE0E4
:1083300048F2FE03BAF818209A4210D1BAF81A305F
:108340006BB9BAF81C3053B9BAF81E303BB90AF110
:10835000180104AAFFF736FD2043C4B213E0634AB4
:10836000DFF89CC117680CF11008BE46634603CBCA
:108370004345CEF80000CEF804109C460EF1080EDE
:10838000F4D110371760019A5749282313708B795D
:10839000112B53D14FF2B0030A8D52BA92B222F090
:1083A0000F0080B2984217D14B8D5BBA23F00F03B8
:1083B0001B041B0C83420FD12868F32303704B8DE1
:1083C00002301A0A0B8D1B0A02EB031303F5AA6392
:1083D00000F8013C286028E0029B43495B8D5BBAB2
:1083E00003F47F43B3F5704F09D12B68F1221A7063
:1083F0000A8DA3F801204A8D120ADA700CE002F40B
:108400007F42B2F5704F2B6808D1F2221A700A8DA4
:10841000120A5A704A8D5A80043305E0F0221A700D
:10842000886A053343F8040C2B60324B1A882B689A
:1084300023F8022B019A2B6030231370009BD9F88C
:1084400000201B78D65413445C70284B1B689B1A81
:10845000009A1AE0D9F8002041231370009B06F11E
:1084600028051C78631CDBB21344324603CAAA42B7
:1084700018605960164603F10803F6D1009B2934B1
:108480001C70019B019A1B782833102013700DEB90
:10849000000106F0EFF9184BDFF868801B68984779
:1084A00030EA200028BF1520039BC0F17D051C8801
:1084B000019BDFF854A01E78009BA21B93F800B02C
:1084C0000E4FCBEB05039A4240F3CD80C0F1780309
:1084D000019306F0F9F9019B94FBF3F40134A042F7
:1084E00014DC0020D1E000BFD4350020D40D0020E2
:1084F000CC0D002002360020EC242700B02F0020F5
:10850000EC350020C0350020592A0020D9F800B0F1
:108510005F4B3C7800221A60594622460BF104005A
:10852000039308F001F8B8F800205A496FEA824234
:108530006FEA9242C2F307228BF80020B8F80020BD
:1085400004348BF801200A88E4B2501C0880110A18
:10855000DFF850C18BF802102D1B9AF8001025F09F
:1085600007054D4E61448BF803200BEB04002A46AF
:10857000CDF808C03C70356007F060FF281980B264
:1085800006F064F806F0A6F9039B04461D46002891
:10859000A7D00DF1100B5846FFF792FC204606F0CD
:1085A000D1F9204606F0B8F92B68012B99D0043B8D
:1085B000012B96D99AF800A0336853441FFA83FA26
:1085C00005233B70354B1A68B8F800306FEAC34397
:1085D0006FEAD343C3F307231370B8F80030537026
:1085E000019B23F0070737602D4B1B889A454BD220
:1085F000D9F800204FEADA0111713268CAEB03039F
:108600009342B8BF244AD9F80000B8BF1360009B5A
:10861000376893F80080029B3A4603EB0A01404416
:1086200007F00CFF08EB070080B206F00FF806F029
:1086300051F9074600283FF454AF5846FFF740FC75
:10864000384606F07FF9384606F066F9124B1B688B
:108650009A442B681FFA8AFA012B3FF442AF043B7D
:10866000012BC1D83DE7D9F800000E4958443144E8
:1086700007F0E4FEB8F800005844801B80B205F013
:10868000E5FF04A8FFF71CFC012007B0BDE8F08F50
:10869000E00D0020981F0020DC0D0020D80D0020E8
:1086A000C0350020D43500202DE9F0470746884624
:1086B0001646002A47D0434C0025A146238ABB42D8
:1086C00015D1638A9BB10F2006F0E0F801462046E1
:1086D00009F00BFD58B1ECB220463146FFF716FC0D
:1086E000002827DA0027DFF8E0A0B8460DE0B8340C
:1086F000002D5DD10125E1E7A8450BD10AF1B80AAB
:10870000B8F1000F10D14FF001083AF8063C002BE9
:10871000F4D0F1E7504608F094FC0028EED0404633
:10872000FFF720FB0744E9E7002F41DD20463146F3
:10873000FFF7ECFB00283BDDB82303FB0595AB8A74
:108740001844A8823AE0204DFF2435F8063C4FFA41
:1087500084F97BB3284608F074FC10B13046FFF76B
:1087600001FBB9F1FF3F03D135F8063C03B9F4B280
:10877000012E05F1B80501D00126E6E765B26B1CB4
:1087800016D0B8235D43DFF83C900F2009EB0506B7
:10879000A6F81280378206F079F80146304609F0D3
:1087A0009FFC05F118004844402108F038FC05E022
:1087B000FF2403E0B9F1FF3FDAD1D8E760B2BDE8AA
:1087C000F08700BFE80D0020000E00202DE9F04FDB
:1087D000A44CDFF8C8A287B000268AF80060267093
:1087E00005F076FFA04DA0462860042006F03CF876
:1087F0009E4B2A6800B218605778137847EA03271F
:1088000003F0F803C02B02D0E02B19D03AE09078A7
:108810002378D278C7F30A07043342EA00203946A6
:1088200032462370FFF740FFB0F1FF3F814600F072
:1088300081828F4CB82303FB00440126223424E0BC
:108840001379D17890782278C7F30A07053222701D
:1088500041EA00201A4639460093FFF725FFB0F1A0
:10886000FF3F814600F066828149B82202FB001278
:10887000958A4FF0010BBD4234BF002501253446D7
:10888000009BE0E1B1464F467A4C296898F80050C9
:108890004A5D02F0E003602B40F0B781A81C084459
:1088A00029444D78744B5FFA85FC1CF0800F1860EA
:1088B0001CBF0130186012F0100F02F0080130D117
:1088C000D1B9196831F8010FA4F801008978E17075
:1088D000196811F8040B1960830803F00F0141F0C7
:1088E00060012170617803F0300343EA801301F0E6
:1088F0000F010B43637030E01868602186462170D9
:108900001EF8011B03304FEA910B0BF0300B01F006
:108910000F014BEA01016170BEF800101860618020
:108920001BE001F0FF0E99B919680878C0F38300C5
:1089300040F06000207011F801BBA4F802E04FEA9B
:108940009B0000F0300040EA8B106070196004E07A
:108950006023237000236370638002F0040303F03C
:10896000FF0100912BB944490B6813F8010BA0716A
:108970000B6012F003020BBF3F4A404B13689B5C35
:1089800009BF13F8011BE3711360E1716B06C5F3B6
:10899000011233D51CF0800F1DBF334998F8003009
:1089A000096800211EBF5B189978090922B904F1F2
:1089B000080B9AB9114614E0314B1878012805D1FB
:1089C000587888420CBF1946002100E000212D4B49
:1089D00019600029EBD1B3460D4633E1294B1968E4
:1089E0000231294B0F209A5C0391CDF808C0019207
:1089F00005F04CFF0399034658460BE0234B0F202C
:108A00009A5CCDF808C0019205F040FF204903466A
:108A100004F10800019AFFF7A5FA05F00800DDF857
:108A200008C005F0030200F0FF0105F00403002870
:108A300036D0002B6CD1174B1B88ADF81430531E69
:108A4000012B9FBF0C490B6813F8010B0B60124BF5
:108A500098BF8DF815009A5C04F1180005A9002351
:108A600054E000BFB02F0020D80D0020D00D002012
:108A7000E80D0020D4350020D40D0020032B270062
:108A80005A2A0020CC0D00201C2B2700072B270082
:108A90000B2B2700012B27000D2B2700592A002024
:108AA00053B31CF0800F1DBFA44998F8003009682B
:108AB0000B4618BF5B18A24918BF9D78087818BFED
:108AC00005F00F03012805D14D789D420CBF0D46DE
:108AD000002500E000259B4B1D60002D00F0AE80BE
:108AE000994B10209A5C019205F0D0FEA91C034618
:108AF000019A04F1180009E0944B10209D5C05F0E8
:108B0000C5FE2A469249034604F11800FFF72AFAE7
:108B10009AF800008F4900F128038AF80030009B82
:108B2000002B53D00B681A7802F0F802F02A4DD1CE
:108B30001122A2711A7802F0040502F0F302F03A51
:108B4000EDB2032A7CD8DFE802F0020A1622B3F85D
:108B500001200533228533F8022C62852CE0B3F81E
:108B600001202285DA78A2F5805292B2120242F0F8
:108B7000F002628509E05A78A2F5805292B21202A0
:108B800042F0F00222855A886285043314E05A7854
:108B900002331209A2F5756292B2120242F0F0029B
:108BA000228513F8012C02F00F02A2F5756292B231
:108BB000120242F0F00262850B6025B90B6833F8AF
:108BC000022BE2850B6030308AF800005B4A0B68AC
:108BD00012689B1A88F8003067B905F041FD5E4BBA
:108BE0001B78C01A9AF800301844283803122371F1
:108BF000607104E0A7F128031A1222716371A3794E
:108C0000112B1DD1A388A3851AE0412A40F0928040
:108C10006A1CD2B28B18224603F1280153F8040BC8
:108C20008B4242F8040BF9D105F1290388F8003092
:108C30009AF8003028338AF8003001E0B34601E0AA
:108C4000B34600252B46009305F00AFD98F8002056
:108C500082426FD805F004FD3F4A40491278009BDC
:108C6000C2EB0008C1F8008040F214519AF800A04D
:108C7000DB009BB2534443448B425BD83CB12F4B47
:108C800004EB0A0019681144424607F0D7FB002F95
:108C900039D056B132484FFA89F3B82404FB0303A4
:108CA00008EB0A0189B29982198495B3B8224FFA68
:108CB00089F402FB04F32A492A48CA18114697820C
:108CC0002231128C07F0BAFB274D05F24C5615F8ED
:108CD000012C5AB115F8033CA34207D115F8020C38
:108CE000204B294603EBC00007F0A8FB7135B542C5
:108CF000EDD15FFA89F0FFF735F8BBF1000F0BD02B
:108D00001A4B1F800CE0BBF1000F05D0002DF7D1EE
:108D100010E0BBF1000F0DD1144BD044A3F800803C
:108D2000134C236823B1FFF795F823685B689847D5
:108D300002F07CF907B0BDE8F08F00BFD80D00202D
:108D40005A2A0020CC0D00201C2B2700072B2700BF
:108D50000B2B2700D40D0020B02F0020DC0D0020AD
:108D6000E80D0020D4350020672A0020C0350020FF
:108D7000E40D002037B5124B124D1C782B796A791F
:108D8000C4EB032313449BB2ADF80630BDF80630A4
:108D900005F108011844202280B208F024FABDF839
:108DA000062004F12801294492B208F01CFA10B1FF
:108DB00040BA80B201E04FF6FF7003B030BD00BF93
:108DC000B12F0020D435002028492DE9F0418846F4
:108DD0000D78274E2835AB195C782648E400073417
:108DE00002239C423DDBE9187218715C204F012977
:108DF00032D002D3632902D013E001332FE0037095
:108E000018461C4C03F00AF8D8B998F800302278BC
:108E1000283313443B445B78134402332370BDE88A
:108E2000F08101F0C001802905D0C02905D040297A
:108E300012D1037005E0037006E03A7E0370FF2A4A
:108E400002D10120BDE8F08104200221EA1801F0DE
:108E5000ABFF0220BDE8F081527802321344DBB24E
:108E6000BFE703700020BDE8F08100BFB12F0020F4
:108E7000D4350020B72F0020F0B5C578124A0D4434
:108E8000EDB2D57083780F0A3B44DBB2937044781F
:108E9000BB4254700678167005D2601CC0B2507088
:108EA00008B901361670C9B28D420CDA0133DBB253
:108EB000054993703BB94B780133DBB24B7013B962
:108EC0000B7801330B70F0BDC835002010B5084C8D
:108ED000014620681430FFF7CFFF064A2368117857
:108EE0001975517859759178D2789975DA7510BDE0
:108EF000F83A0020C835002008B501F0CFFA02F09A
:108F000045F808F0FBF900231149002221F813204D
:108F10000133DBB2082BF7D10E49302303FB0211DA
:108F20000132D2B200230A2A81F82530F4D10A4A4C
:108F30004FF480611180094A002102EB4312013392
:108F4000DBB20A2B1182F6D1054A137008BD00BFAF
:108F5000E43C0020FC3A00209C1F0020003D002043
:108F6000B82F00202DE9F041124F3D7805B3DFF80E
:108F70004C8005F12703B8F80040A34203DB00232F
:108F8000A8F8003013E00C4EA4F1280205F12801E6
:108F9000641BA4B206F128003144521B07F0C4FA46
:108FA000A8F80040283C23123371747100233B70F1
:108FB000BDE8F081B12F0020D4350020C03500205D
:108FC0002DE9F041034626480288013292B2B2F5FB
:108FD000FA4F28BF4FF4805200240A2C0AD0214DAA
:108FE00005EB44152E8A55BAADB2AE4204F1010428
:108FF000F3D1EAE7DFF874E0028000220A2A18D0F1
:10900000184E55017419B4F81080571CFFB2B8F10E
:10901000000F0CD18EF800200288618252BA2282A1
:1090200063B920461946102207F0E2FA11E03A46E9
:10903000E4E78EF800200020BDE8F081274603F128
:10904000100E3A4618685968083303C2734517462C
:10905000F7D1054B35441B7920462B75BDE8F081CF
:109060009C1F0020003D0020483E0020B82F00201B
:1090700030B50A490023082B0DD0094C5A1C34F88E
:109080001350D2B2854204D100220B7024F8132071
:1090900030BD1346EFE70B7030BD00BFB82F002086
:1090A000E43C00202DE9F04FA14F042893B03C6828
:1090B000A04E00F0B382A049A04DA14A03280D6044
:1090C00015608A4616D194F8253003F00F03032B60
:1090D00008D1A38B002B40F0F5869A4B08221A701A
:1090E00000F0ECBD022B40F0ED86002305F8073CB4
:1090F00000F023BC02287AD1934A00231370934ACC
:1091000033801380924AD3780133DBB2D37063B9D2
:1091100093780133DBB293703BB953780133DBB200
:10912000537013B913780133137094F8253003F09A
:10913000FD02052A0DD194F826300133DBB2782BDD
:1091400084F8263040F0BE86002384F8253000F0F5
:10915000B9BE002B00F0B686A28B7A48002A3DD01B
:1091600094F82620511E84F82610002A40F0AA8682
:1091700094F82720082A04D0591E01290AD8052A64
:1091800008D1002384F825308023037002F0D4F83E
:1091900000F0A2BD042A9CBF0321914003F00F03FD
:1091A00094BFC9B230210132013B84F8261084F803
:1091B0002720072B00F28686DFE813F0BB030800A8
:1091C0000A00470584064705840647050022B1E3E7
:1091D0000423037002F0B0F800F0A0BD03F00F0309
:1091E000032B40F06F860823037000F067BD05284D
:1091F00011D1584B1B681B8A002B00F063860C3D75
:109200001560524A002313803B6033804D4B082287
:109210000D601A7000E215F83C3C3C3D03F0F00391
:10922000602B40F04F862B796A791B0231889818A1
:10923000884200F347862832134433802B7AFF2B71
:1092400000F04086444BAA1D1A60444C3E4A00215F
:1092500011702170A97990469946C1B901232370F4
:10926000FFF7B2FD012800F02D8603D3022800F09D
:1092700025860CE098F8003003F128022A44C9F84A
:1092800000205278083303EBC20388F800303448DA
:1092900000F088FE324F002840F0D080384600F0C1
:1092A000CDFF002840F0CA80384600F091FE00282B
:1092B00040F0C480384601F039F8002840F0BE8004
:1092C0002A7E183FFF2A6BD048F2FE013B8B8B426F
:1092D00066D03B898B4263D073B97B8963B9BB8904
:1092E00053B9E98941B9398A31B9798A21B9B98A39
:1092F00011B9FB8A002B53D0298B1A4B79B9598BA2
:1093000069B9998B59B9D98B49B9198C39B9598C23
:1093100029B9998C19B9DB8CB3F5807F40D033889B
:10932000B3F5A06F20D9022000214FF4A06222E003
:10933000F83A0020C0350020F43A00201036002012
:10934000C4350020E83A0020B12F0020FC3C00206A
:10935000B32F0020F03A0020EC3A0020B22F00207A
:10936000EC350020D4350020EB79984C012B06D841
:1093700000210A46032001F017FD00F09FBD02F016
:10938000D7FD002840F09E85E3790122013BE3717F
:109390008F4B1A708F4A13680133136000F08EBD33
:1093A00048F2FE032989994240F08C85298B874B2E
:1093B00081B9598B71B9998B61B9D98B51B9198C14
:1093C00041B9598C31B9998C21B9DB8CB3F5807FC7
:1093D00000F07885FF2A00F075857F4800F0C2FD17
:1093E0000246002840F06E8501200221C3E72ED8F6
:1093F000BBF1060F00F04381BBF1110F00F0A1801B
:10940000BBF1000F78D121780093CB0774D4734A55
:1094100041F001011170FFF7D7FC012800F05285DF
:10942000009B36D298F8002002F1280129441960E7
:109430004B78083202EBC30288F80020D9F80020EC
:10944000674B92F800B0BBF12B0FD0D133E0BBF1EA
:109450003A0F55D004D8BBF12C0F00F033854BE008
:10946000BBF13B0F00F02E85BBF13C0F44D12378BC
:109470005A49980704D558063ED443F0400301E00A
:1094800043F002030B70FFF79FFC012800F01A85E0
:1094900003D3022800F01285D0E798F8003003F1DA
:1094A00028022A44C9F800205278083303EBC2038B
:1094B00088F80030C2E7207800F0040E0EF0FF01BB
:1094C000BEF1000F18D1454A40F00400107098F822
:1094D000002002F12800284490F803E0BEF1000FBC
:1094E00002D004202A3246E718604378083202EBA3
:1094F000C3023C4B1A70A1E704200121521B3AE73A
:1095000007F08DFE4FF6FF73984240F0DB8498F829
:1095100000302833E85C01F075FD98F800302833FE
:10952000EA18E85C517801F01DFC012801BF002316
:109530002C4A338013703388002B00F0C38400F072
:10954000BDBCFFF70FFDB5F82A8085F806B0B8F16D
:10955000000F00F0B784244F244B3B603C68244B41
:109560009C422FD294E80F000DF1280E8EE80F00D8
:10957000238A23B3984522D1638A13B12A8D9A4254
:109580001DD1BDF82830A3B9BDF82A308BB9BDF87C
:109590002C3073B9BDF82E305BB9BDF8303043B90B
:1095A000BDF832302BB9BDF8343013B9BDF83630C0
:1095B00013B310487146102206F00EFFE0B12034BC
:1095C0003C60CBE7012004210022D4E6D435002002
:1095D0001835002004350020EC350020B22F002083
:1095E000EC3A0020B12F0020F03A0020003D00208E
:1095F000403E0020DC3500203388BC49303B3380BE
:1096000000230B60BA490220BA4A0870BA49CAF866
:1096100000200A60B94A138001F08EFEB74B1A8809
:10962000002A00F04F8402F13003B54C9BB2338026
:10963000283B63711912B34B08321B6852BA21716F
:10964000197DA2850022E2851A8AE17122855A8A53
:1096500011216285A17104F1180602AD0FCB85E8D6
:109660000F0086E80F0004F10800314600F074FE98
:10967000A54B3C341C6002F0A1FD00F019BCFFF7C3
:1096800071FC85F806B007F0CDFD4FF6FF739842E8
:109690009B4C40F01784B4F82A90B9F1000F00F009
:1096A0001184B4F828B0BBF1000F00F00B84954B87
:1096B00012AC1B680FCB04E90F00944C234694F8BE
:1096C00025C0BCF1000F13D0228A4A4510D1628A0E
:1096D0005A450DD18E480EA910220193CDF800C035
:1096E00006F07AFEDDF800C0019B002800F03B8107
:1096F000884A30349442E2D195F8352002F03F0296
:10970000022A16D18449DFF820828A46A1F8009007
:109710000022082A0BD0814931F812100132894504
:10972000D2B2F6D1002288F80020144658E088F81A
:10973000002095F83520724B510700F1C3831422A5
:1097400083F835203C223280502283F8342093F86D
:10975000332093F8314093F82F0083F82F2093F8AB
:10976000322093F82E10DFF8C0E183F82E2093F812
:109770002D2083F82D4093F82C4001308EF80040C6
:1097800093F830E0C0B283F8321083F8312083F8C8
:109790002CE083F8304083F8330060B90131C9B25E
:1097A00083F8321039B90132D2B283F8312012B9BC
:1097B000621C83F830202B8D574A554C13806A8DDC
:1097C0006B852A8594E80F0087E80F00204604F196
:1097D000100100F0C1FD56E3072F0FD00132D2B2C5
:1097E0000A2A15D0302101FB023101F1200047790E
:1097F000002FF1D188F800200C460EE024B18079CA
:1098000094F826108842E9D9302404FB0234E5E7B5
:1098100088F80020002C00F05583344B00271C6092
:10982000032384F8263084F82430042384F823307A
:10983000374B84F822700FCB84E80F00384B01209F
:109840001A7884F8250022765A78A08362769A786E
:10985000DB78A276E37695F82C3084F827702375B0
:1098600095F82D30A4F81090637595F82E30A4F873
:1098700012B0A37595F82F30E375FFF727FB95F825
:10988000343003F0F002502A53D9264A1B09053B15
:1098900098003B4617461178834247DAEA1892F857
:1098A0003C10002942D0012901D101331CE00229DA
:1098B00015D192F83DE0BEF1040F10D1397088F84F
:1098C000003092F83E1092F83F3043EA0123402BDB
:1098D000AAF8003028BF4023E383238429E0EA1854
:1098E00092F83D2012B31344DBB2D5E7F83A0020DA
:1098F000E83A002004360020C4350020FC3C00205B
:10990000D4350020F03A0020F43A0020FC3A002040
:10991000DC350020DC3C00209A1F0020E43C0020C5
:10992000B32F0020B92F0020B82F0020397088F8FD
:1099300000301022AA4B83F83520A94B93F835202C
:1099400042F0020283F83520022283F83C200422F0
:1099500083F83D20002283F83E20402283F83F20F8
:10996000328060224FE29F4B9F4A1C6095F8353051
:10997000107003F0040101F0FF0921B1202384F8E5
:1099800025001370EEE1964A0CF00F0C92F834208B
:10999000BCF1020F4FEA12124FEA8201934A117092
:1099A0003288A2F12802A2EB010292B2328003D1E6
:1099B00003F03F01122905E0BCF1010F03D103F0D0
:1099C0003F01022916D00AB99A0713D0A98DA28A9D
:1099D000914204D1824AD18DE28A91420AD09F07F6
:1099E00040F10A82BCF1010FA3D0BCF1020F40F09C
:1099F0000382A2E7D80652D5A18B00294FD004F1EB
:109A00001800FFF739FA7A4B95F830101878744A35
:109A1000884244D192F8311093F801C08C453ED170
:109A200092F832E09978714539D192F83320DB7899
:109A3000934234D1E37694F82730207684F819C025
:109A4000A1761BBB94F8243094F8261094F82200D9
:109A5000591AA1EBD001C9B25FFA81FE1EF0800F46
:109A600094F82330084418BF4942A3EB930318BF6E
:109A70005FFA81FE03EB0E02C0B2D3B284F823304A
:109A800003EBD00384F8220084F82430564B0122E3
:109A90001A7094F8243084F826300023A38394F8B5
:109AA0002510DFF844B101F00F02013A072A00F255
:109AB0000982DFE812F008002500A5005A017C01A8
:109AC0009601A1014C019BF80030474AD9070FD5F8
:109AD000032384F825303088402313700023A383A8
